:100000000C94C0060C94DD060C94DD060C9422338F
:100010000C94DD060C94DD060C94DD060C94DD06D4
:100020000C94DD060C94DD060C9422200C94641FC5
:100030000C94052A0C94DD060C94DD060C94DD0668
:100040000C94DD060C94DD060C94DD060C94DD06A4
:100050000C94DD060C94B8290C94DD060C94DD0696
:100060000C94DD060C94DD060C94DD060C94DD0684
:100070000C94DD060C94DD060C94DD060C94DD0674
:100080000C94DD060C94DD060C94DD060C94DD0664
:100090000C94DD060C94DD060C94DD060C94DD0654
:1000A0000C94DD060C94DD060C94DD06A60DA90D5E
:1000B000DC0DF90D000E0B0E0E0E0E0E0E0E2E0F99
:1000C0002E0F930E950E9A0EC00EE30EE60EE90E5D
:1000D0000D0F6211D6116A11341138116E113B11D6
:1000E00071117C114611CC114A1180114E118411ED
:1000F000AE1152118811B81158118E1198113F117B
:100100007511421178115D119311A411C411C6111A
:1001100030116611DF11FF110512F210F9110B12E7
:10012000111217124E1277127C12811286128B1244
:10013000901295129A129F12A412AB12AE12B11223
:10014000B412B712BA12BD12C212FA10FA104A1340
:100150004A137D137D13FC131A14221522151F1444
:100160009314A414A4147C1DA31D4C1FA31D4C1F89
:10017000EF1D121E4C1F071F171F00DA0281FFD947
:10018000F1DB20A4A62EAF00A0C0D30000A1C8D3ED
:100190000000AED580A81F408D1420007F3F1F6453
:1001A0003214643214783C1E1E140A05556E6465C0
:1001B000660041646A757374005261697365004C2E
:1001C0006F7765720044656661756C74004C617987
:1001D00065723A20003A002C206B00780080818202
:1001E000838485868788898A8B8C8D8E8F90919267
:1001F0009394A0A1A2A3A4A5A6A7A8A9AAABACADBD
:10020000AEAFB0B1B2B3B4C0C1C2C3C4C5C6C7C833
:10021000C9CACBCCCDCECFD0D1D2D3D40000000030
:1002200000000000000000000000000000000000CE
:1002300000000000000000000000000000000000BE
:10024000007E0F00D4FFFFFFC70000007800000011
:1002500000000000002A2B28000000000000000021
:10026000000000000000000029000000002C1E34E7
:1002700020212224342627252E362D3738271E1FED
:10028000202122232425263333362E37381F040518
:10029000060708090A0B0C0D0E0F10111213141586
:1002A000161718191A1B1C1D2F3130232D35040564
:1002B000060708090A0B0C0D0E0F10111213141566
:1002C000161718191A1B1C1D2F3130354C202020F1
:1002D000206162636465666768696A6B6C6D6E6FE6
:1002E000707172737475767778797A313233343508
:1002F0003637383930524542545F2D3D5B5D5C23C3
:100300003B27602C2E2F20202005010902A101850A
:10031000020901A100050919012908150025019507
:1003200008750181020501093009311581257F9584
:10033000027508810609381581257F9501750881A8
:1003400006050C0A38021581257F9501750881067E
:10035000C0C005010980A101850319012AB7001554
:100360000126B700950175108100C0050C0901A197
:1003700001850419012AA002150126A00295017524
:10038000108100C005010906A1018506050719E0D5
:1003900029E7150025019508750181020507190057
:1003A00029EF1500250195F0750181020508190155
:1003B0002905950575019102950175039101C00606
:1003C00060FF0961A1010962150026FF00952075F3
:1003D0000881020963150026FF0095207508910227
:1003E000C005010906A101050719E029E715002547
:1003F00001950875018102950175088101050719AC
:100400000029FF150026FF009506750881000508E4
:100410001901290515002501950575019102950120
:1004200075039101C009025B00030100A0FA0904F1
:100430000000010301010009211101000122440013
:100440000705810308000109040100020300000000
:100450000921110100012222000705820320000169
:100460000705030320000109040200010300000046
:1004700009211101000122B60007058403200001B3
:1004800012010002000000085346010001000102B1
:1004900000010C0343006F0072006E006500000055
:1004A000100366006F006F007300740061006E003F
:1004B0000000040309040000000000003E5B4F5BE5
:1004C0003E003E6B4F6B3E001C3E7C3E1C00183CC9
:1004D0007E3C18001C577D571C001C5E7F5E1C0074
:1004E00000183C180000FFE7C3E7FF0000182418BD
:1004F0000000FFE7DBE7FF0030483A060E00262940
:1005000079292600407F05050700407F05253F002B
:100510005A3CE73C5A007F3E1C1C0800081C1C3E4D
:100520007F0014227F2214005F5F005F5F000609D6
:100530007F017F00006689956A00606060606000EE
:1005400094A2FFA2940008047E04080010207E20DC
:10055000100008082A1C0800081C2A0808001E10A1
:10056000101010000C1E0C1E0C0030383E383000ED
:10057000060E3E0E060000000000000000005F00B6
:100580000000000700070000147F147F1400242AD5
:100590007F2A120023130864620036495620500057
:1005A000000807030000001C224100000041221C3B
:1005B00000002A1C7F1C2A0008083E080800008052
:1005C00070300000080808080800000060600000A3
:1005D0002010080402003E5149453E0000427F4081
:1005E00000007249494946002141494D3300181421
:1005F000127F10002745454539003C4A49493100E2
:10060000412111090700364949493600464949291F
:100610001E0000001400000000403400000000082C
:100620001422410014141414140000412214080070
:100630000201590906003E415D594E007C1211121B
:100640007C007F49494936003E41414122007F41BB
:1006500041413E007F49494941007F0909090100A4
:100660003E41415173007F0808087F0000417F41EF
:1006700000002040413F01007F08142241007F40DC
:10068000404040007F021C027F007F0408107F0072
:100690003E4141413E007F09090906003E4151218A
:1006A0005E007F09192946002649494932000301A5
:1006B0007F0103003F4040403F001F2040201F00BB
:1006C0003F4038403F00631408146300030478047B
:1006D00003006159494D4300007F4141410002043C
:1006E00008102000004141417F0004020102040083
:1006F0004040404040000003070800002054547868
:1007000040007F284444380038444444280038449A
:1007100044287F0038545454180000087E09020011
:100720001824241C78007F080404780000447D40CD
:1007300000002040403D00007F10284400000041A0
:100740007F4000007C04780478007C080404780072
:100750003844444438007C182424180018242418F1
:100760007C007C0804040800485454542400040409
:100770003F4424003C4040207C001C2040201C00C2
:100780003C4030403C004428102844004C9090905D
:100790007C004464544C44000008364100000000D2
:1007A0007700000000413608000002010204020048
:1007B0003C2623263C000000000000000000000052
:1007C000000000000000C0E0F0F8F81800C0F0FCE5
:1007D000FEFFFFFFFFFFFFFF7E00000000000000A4
:1007E000000080C0E0E0E0E0E0E0E0E0C080000089
:1007F000000080C0E0E0E0E0E0E0E0E0C080000079
:1008000000E0E0C0C0E0E0E0E00000E0E0C0C0E008
:10081000E0E0E0E0C0800000000080C0E0E0E0E058
:10082000E0E0E0E0C0800000000000000000000008
:1008300000000000E0F0F0F0E0ECEEF7F3702000D4
:100840007C7C7C7E007E7E7E7F7F7F000080C0E09F
:100850007E5B4F5BFEC00000C000DCD7DEDEDED773
:10086000DC00C000000000000000000000000000EC
:10087000000000000000000000000000000000F880
:10088000FCFEFFE000FFFFFFFFFFFF80FFFFFFFF19
:10089000FFFFFFFFFF1F0701000000000000000036
:1008A00000FFFFFF8100000000000081C3C3C30000
:1008B00000FFFFFF8100000000000081FFFFFF003C
:1008C00000FFFFFF01000000000000FFFFFF01002C
:1008D00000000001FFFFFF0000FFFFFF9D1C1C1C2C
:1008E0001C1C1C9DDFDFDF0000000000000000007A
:1008F000000000000F1F3F7F7F7F7F7F3F1E0C00A7
:100900001F1F1F3F003F3F3F7F7F7F00307B7F786F
:1009100030202030787F3B0003000F7F0F0F0F7FC8
:100920000F000300000000000000000000000000B5
:1009300000000000000000000000000000000003B4
:100940000F1F3F3F3F3F1F1F3F3F7F7F7F3F3F1FA7
:100950003F7F7F7F7F7C7878381C0F00000000008D
:100960000000010307070707070707070301000047
:100970000000010307070707070707070301000037
:10098000000707070000000000000007070700003D
:100990000000000007070700000001030707070722
:1009A0000707070703010000000000000000000027
:1009B0000000000000000000000000000000000037
:1009C0000000000000000000000000000000000027
:1009D0000000000000000000000000000000000017
:1009E0000000000000000000000000000000000007
:1009F0000000000000002223252628292A2C2D2F64
:100A00003032333536383A3B3D3E40424345474924
:100A10004A4C4E5051535557595A5C5E6062646659
:100A200068696B6D6F71737577797B7D7F81838565
:100A300087898A8C8E90929496989A9C9E9FA1A367
:100A4000A5A7A8AAACAEAFB1B3B4B6B8B9BBBCBE8B
:100A5000BFC1C2C3C5C6C7C9CACBCCCDCED0D1D207
:100A6000D2D3D4D5D6D7D7D8D9D9DADADBDBDBDC09
:100A7000DCDCDCDCDDDDDDDDDCDCDCDCDCDBDBDBB5
:100A8000DADAD9D9D8D7D7D6D5D4D3D2D2D1D0CE15
:100A9000CDCCCBCAC9C7C6C5C3C2C1BFBEBCBBB91A
:100AA000B8B6B4B3B1AFAEACAAA8A7A5A3A19F9E98
:100AB0009C9A98969492908E8C8A89878583817F60
:100AC0007D7B79777573716F6D6B69686664626041
:100AD0005E5C5A5957555351504E4C4A494745430D
:100AE00042403E3D3B3A3836353332302F2D2C2AAA
:100AF00029282625232200AF00AE000014001A008A
:100B000008001500170000000428162407220921F8
:100B10000A0000001D001B0006001900050000006F
:100B20000000000029004C412A00000013001200C0
:100B30000C0018001C00000033280F240E220D2189
:100B40000B000000380037003600100011000000D4
:100B50000000000028002B422C4300001E001F0054
:100B6000200021002200000035282E242F223021D1
:100B700034000000000049001D140F141A14000076
:100B80000000000001000100010000002700260015
:100B900025002400230000002D284F24522251213B
:100BA0005000000031004D004B004E004A00000094
:100BB0000000000001000100010000001E021F02F1
:100BC000200221022202000035022E022F023002F2
:100BD00034020000000000000000000000000000DF
:100BE00000000000010001000100000027022602B1
:100BF00025022402230200002D0200000000000054
:100C000000000000310200000000000000000000B1
:100C10000000000001000100010000003A003B005C
:100C20003C003D00207800003E283F244022412126
:100C30002778000042004300440045002878000067
:100C4000000000000100010001000000A800650094
:100C5000D200D10046000000A900D000CD00CE0097
:100C6000CF000000AA00DC00D900DA00DB000000A1
:100C7000000000000100010001000001010101016C
:100C80000101010102020202020202020203030345
:100C90000303030303040404040404040505050515
:100CA00005060606060607070707070808080809D5
:100CB0000909090A0A0A0B0B0B0C0C0C0D0D0D0E81
:100CC0000E0E0F0F0F101011111112121313141416
:100CD000151516161717181819191A1A1B1B1C1D8B
:100CE0001D1E1E1F202021222223242425262627E4
:100CF0002829292A2B2C2D2D2E2F30313232333416
:100D000035363738393A3B3C3D3E3F40414243441B
:100D100045464748494A4C4D4E4F505153545556FD
:100D200058595A5B5D5E5F616264656668696B6CA9
:100D30006D6F7072737577787A7B7D7E8082838524
:100D400087888A8C8E8F91939596989A9C9EA0A264
:100D5000A3A5A7A9ABADAFB1B3B5B7BABCBEC0C26E
:100D6000C4C6C9CBCDCFD1D4D6D8DBDDDFE2E4E732
:100D7000E9EBEEF0F3F5F8FAFDFFFFAA7F5540002E
:100D800011241FBECFEFDAE0DEBFCDBF11E0A0E03F
:100D9000B1E0E2EBFBE602C005900D92A03DB10789
:100DA000D9F726E0A0EDB1E001C01D92A530B20751
:100DB000E1F70E94DF060C94D7350C940000A9E2FD
:100DC000B0E0E5EEF6E00C94573485B7806885BF57
:100DD00085B7806885BF84B7877F84BF0FB6F894D6
:100DE000A8958091600088618093600010926000F7
:100DF0000FBE90E080E80FB6F89480936100909366
:100E000061000FBE8CE291E29093D1018093D001FA
:100E10000E94A81F0E94C71F8091E20084608093F7
:100E2000E20078948091B4028823A1F01091E90047
:100E30001F709091EC00892F817090FD80E8182B35
:100E40001092E9008091E80083FD0E94991C1F70B8
:100E50001093E90082E084BD93E095BD9AEF97BDC1
:100E600080936E001092D2011092D3011092D4019F
:100E70001092D5010E94122B811102C00E94952C64
:100E80008091D80080618093D8002AE12A95F1F7FB
:100E900000C08091D900182F117080FD04C00E94FD
:100EA000A81F1092B4021093F6051093F705109343
:100EB0000001112341F010924C018BE180934D0110
:100EC0000E94DD3205C08BE180934C0180934D017F
:100ED0008091000180910001882311F090E001C011
:100EE00094E09093DF0184E0891B8093DE0101E5AB
:100EF00011E0E5E5EE2EE1E0FE2ED8018D918D01A9
:100F00008F3F11F00E949323E016F106B1F705E53B
:100F100011E07BE5E72E71E0F72EF80181918F015A
:100F20008F3F11F00E949323E016F106B1F788E09D
:100F3000EFE1F2E0DF01282F1D922A95E9F7E6EDB7
:100F4000F1E0DF011D928A95E9F780E090E00E94D0
:100F5000A534863E9E4F21F40E94122B811168C059
:100F600066EE7EEF80E090E00E94D93460E082E09F
:100F700090E00E94BB3481E08093E00161E083E077
:100F800090E00E94BB3460E074E184E090E00E9455
:100F9000D93460E086E090E00E94BB3460E087E0F6
:100FA00090E00E94BB3440E050E0BA0188E090E05D
:100FB0000E94CD3460E084E290E00E94BB3460E0A7
:100FC00087E190E00E94BB3460E08CE090E00E94FA
:100FD000BB3460E08DE090E00E94BB3419821A823D
:100FE0001B821C821D821E821F82188648E050E0F0
:100FF00068E170E0CE0101960E94AB3440E050E021
:10100000BA0180E290E00E94CD3480E00E94F32A91
:101010000E94952C40E050E0BA018FE090E00E94E1
:10102000CD3440E050E0BA0183E190E00E94CD343D
:1010300082E090E00E9497348093E20184E090E0A7
:101040000E94A5349093FF058093FE050E947A25A7
:10105000EFEFF6E721E0E150F0402040E1F700C07B
:1010600000000E947A258091F705882311F0E0E0C6
:1010700001C0E4E0F0E0E15EFD4F808181FF08C047
:101080006FEF7FEF80E090E00E94D9340E94A729A3
:1010900083E090E00E9497340E9424198091F60525
:1010A000811102C082E001C080E080931A0280E8D2
:1010B0008093BE020E946D316BE070E081E991E0A7
:1010C0000E94032D882309F443C080911A0265E031
:1010D00070E081FD3AC08CE891E00E94032D8823E6
:1010E000B9F16DE070E08AE791E00E94032D88235A
:1010F00079F10E94ED29DC01CB01805A9541AF4F77
:10110000BF4F8093E0059093E105A093E205B09373
:10111000E305E1ECF2E080E092E0DF019C011D924A
:1011200021503040E1F7F093C804E093C7048FEFFB
:101130009FEF9093C0028093BF0281E08093E5050A
:101140008093E40510921B0203C087E891E0C5CFAD
:101150008091E101811183C088E090E00E949F347A
:101160004B015C0184E290E00E949734282F30E02C
:1011700040E050E060E070E080E090E000E20E943B
:101180007D35282939294A295B292093D8053093B0
:10119000D9054093DA055093DB056093DC05709325
:1011A000DD058093DE059093DF05309133053360D4
:1011B000309333052C7F09F042C025E02093D805F9
:1011C0001092D9053FEF3093DA0538E73093DB050D
:1011D0001092DC0530E04FEF58E760E00E94EB2D05
:1011E00088E090E00E949F346B017C0184E290E0F3
:1011F0000E949734282F30E040E050E060E070E03B
:1012000080E090E00E947D35B22FA32FF42FE52FD0
:101210005B0197018601BC29A12BF22BE32BB09334
:10122000D805A093D905F093DA05E093DB05609328
:10123000DC05B092DD058093DE059093DF050E940A
:10124000D02D0E946C2D8091D80580FF05C060E0F4
:10125000869586950E94DA2F81E08093E101809146
:10126000F605811102C00E94E03281E091E0909386
:10127000FB058093FA056AE0462E512C612C712CF7
:101280008091B402853009F046C000E112E18091FE
:10129000B402853009F03BC08091B402843031F152
:1012A0000E94102D1092000668E170E080E40FB6F5
:1012B000F894A895609360000FBE8093600083B798
:1012C000817F846083BF83B7816083BF7894889572
:1012D00083B78E7F83BF0FB6F894A8958091600086
:1012E000886180936000109260000FBE8091B3020D
:1012F000882309F4CCCF0E947A25EFE1F2E08191B6
:101300008111B5C592E0E732F907C9F7C0CF0E9455
:1013100027190E94DD2A0E947A2543EEE42E41E03F
:10132000F42E5FE1C52E52E0D52E2BEE31E0D60132
:10133000F70191918D9189272E173F0719F0882386
:10134000C1F306C0811104C00E9456251FA238C0F7
:101350008090F60510E033243394D6019D906D0102
:10136000F701A080A92411F100E0BB24B3948A2DD9
:101370008B21B1F08820A1F009A31AA30E94F929BA
:101380009CA38BA33DA291E0892D8B2109F490E0D1
:101390009EA349A15AA16BA17CA18DA10E9474308A
:1013A0000F5FBB0C063019F7D7019C921F5FBFEF90
:1013B000EB1AFB0A183089F60E94AA23F1E0FFA37A
:1013C00080913205882309F4AAC080913105E0910B
:1013D000D805E695E695E81BE0932D05823059F493
:1013E000F0E0E855FE4FE4910E2F10E035E5C32EF6
:1013F00039E2D32E45C0863059F4F0E0EB55FE4F6C
:10140000E4910E2F10E025E4C22E29E2D22E38C03E
:10141000893061F4E695F0E0EE55FE4FE4910E2F31
:1014200010E098E0C92E99E2D92E2AC08F3061F4DD
:10143000E695F0E0E156FE4FE4910E2F10E089E7CB
:10144000C82E88E2D82E1CC0853159F4F0E0E4564D
:10145000FE4FE4910E2F10E0B0EFCB2EB7E2DB2E63
:101460000FC0883139F000ED17E0ACE3CA2EA7E2D7
:10147000DA2E06C008E210E0F8E6CF2EF7E2DF2E03
:1014800080912E05882361F010922E050E944B2535
:1014900090932C0580932B051092300510922F0508
:1014A0000E944B25E0912B05F0912C059C012E1BF1
:1014B0003F0B2F3F3F4798F52091ED012223B1F0DC
:1014C0001092ED012091EB013091EC01821B930B06
:1014D0008F3F9F4758F4205D3A483093EC012093AA
:1014E000EB0180913305886080933305E0902F05F0
:1014F000F09030050E0F1F1F10932C0500932B0545
:101500008BE295E0F601099580912F0590913005C9
:10151000892B29F4EF2819F081E08093ED01809167
:10152000E505882309F4C1C180911C0290911D0238
:101530000E94DE29C29708F4AEC00E94F929909358
:101540001D0280931C0281EC92E09093C80480936A
:10155000C7048091F605882309F499C08DEC91E0C9
:101560000E946E1C8091EE010E943B30813059F048
:1015700038F0823059F0833061F482EB91E00BC097
:1015800085EC91E008C08FEB91E005C089EB91E01C
:1015900002C08CEA91E00E947C1C8091F901805D80
:1015A0000E94EF1B8BED91E00E946E1C8091F80170
:1015B000805D0E94EF1B87ED91E00E946E1C809180
:1015C000F6019091F70120910B0130910C018217E7
:1015D000930739F42091F501203219F48FEE91E050
:1015E00037C090930C0180930B0120E22093F5010A
:1015F0004C01A12CB12C1092F401E4EFEE2EE1E0AD
:10160000FE2E00E010E0C501B401A30192010E948A
:101610001D35605D603319F40115110539F0811431
:101620009104A104B10419F460E201C060E3D701A0
:101630006E937D01C501B401A30192010E941D3585
:1016400049015A010F5F1F4F05301105E1F6C6CF62
:101650008C010196F80120812032D1F30190002005
:10166000E9F79F012150310979010E151F0530F46A
:10167000D8018D918D010E94EF1BF7CF85ED91E090
:101680000E946E1C80910D010E94EF1B04C08DED25
:1016900091E00E946E1C8091BF029091C002892B44
:1016A00031F48091E405882309F4FFC0E7C08091FC
:1016B000E5058823B1F380911B028111F2CF0E94CE
:1016C0002A2D2091BF023091C0022115310549F326
:1016D00080E0282E312CEE24E394F12C082E02C059
:1016E000EE0CFF1C0A94E2F7A70142235323452B7B
:1016F00011F48F5FEECF90911A02910165E0220FF5
:10170000331F6A95E1F790FF13C055E03695279592
:101710005A95E1F7220F220F220F20931001109209
:101720001301295F2093110183E08093140111C0FC
:10173000220F232F221F330B31958295880F80763D
:101740008093100120931301815E809311012093F7
:10175000140124E630E047E050E06EE071E088E7F5
:101760000E94A231892B09F09CCF80911A0280FF40
:1017700064C080E2EAEFF1E0DF011D928A95E9F7AB
:1017800035E0220C331C3A95E1F7EFE5F1E0F9A7DB
:10179000E8A74BE551E0A8A5B9A58D91B9A7A8A7E1
:1017A000FA019191AF019101290F311DB9016F53D8
:1017B0007D4F4B0190E086509E4FFC0107E09F015A
:1017C000281B390BCC24C39401C0CC0C2A95EAF712
:1017D000B401D12CDB011D91BD011C21202F2D193D
:1017E0002770A22E022E000C330BB12F01C0BB0FAD
:1017F000AA94EAF7AB2E319521953109277033274A
:1018000001C016952A95EAF7A12A1081A12AA08283
:10181000D39428E0D212DECF015031960F3F79F6F3
:1018200068A579A56356714009F0B5CF04E610E0CC
:1018300020E230E04AEF51E00DC0C10125E0880F01
:10184000991F2A95E1F7AC014F535D4F04E610E074
:1018500020E230E060E488E70E943932892B09F009
:1018600020CFE094F0948091BF029091C002E822D2
:10187000F922F092C002E092BF0213CF0E94ED293C
:101880000091E0051091E1052091E2053091E3051A
:10189000DC01CB01801B910BA20BB30B8F3F9F4F41
:1018A000AF4FBF4710F40E94102DFFA1F1110E940D
:1018B0002A2D86E0EDEEF5E08E010F5F1F4FD80177
:1018C00001900D928A95E1F7B090EE05F090EF054A
:1018D000C090F005D090F105E090F2051092EF0570
:1018E0001092F0051092F1051092F205F11003C06C
:1018F000CC2009F447C08091EB059091EC050E9443
:10190000DE299C019091E605992309F4CFC2253187
:101910003105C0F19F3F19F09F5F9093E605FF20CE
:1019200061F00E94FB2B1F1414F491E001C09FEFA3
:10193000899F802D11248093EF05CC2061F00E94B7
:10194000FB2B1C1414F09FEF01C091E0899F802DA8
:1019500011248093F0058091EF05882399F0A090E1
:10196000F005AA2079F00E941B2C811101C081E0B2
:101970008093EF058A2D0E941B2C811101C081E00C
:101980008093F005D11003C0EE2009F447C0809188
:10199000E9059091EA050E94DE299C019091E705F6
:1019A000992309F488C221353105C0F19F3F19F010
:1019B0009F5F9093E705DD2061F00E94D92B1D14F5
:1019C00014F491E001C09FEF899F802D1124809332
:1019D000F105EE2061F00E94D92B1E1414F09FEF48
:1019E00001C091E0899F802D11248093F2058091A0
:1019F000F105882399F0A090F205AA2079F00E94C1
:101A00001B2C811101C081E08093F1058A2D0E9479
:101A10001B2C811101C081E08093F2058091EE05BD
:101A2000B8121AC08091EF05882311F0F81214C083
:101A30008091F005882311F08C110EC08091F20581
:101A4000882311F08E1108C09091F105992331F08F
:101A500081E09D1104C002C081E001C080E080FDF2
:101A600015C08091EF0581110FC08091F0058111A3
:101A70000BC08091F105811107C081E09091F205C2
:101A8000911103C080E001C081E080FD0E94AF2B76
:101A9000BA82FB82CC82DD82EE8286E0F801ADEE76
:101AA000B5E001900D928A95E1F70E94DD2A9091B0
:101AB0001E02891721F080931E020E94ED29809159
:101AC000B402843009F0DCCB83E08093E90080919C
:101AD000E80082FFD5CB8091E80085FF21C00E94FD
:101AE000F92081111BC080E2C82ED12C780109C0D9
:101AF0008091F100D7018D937D01B1E0CB1AD1081F
:101B000069F08091E80085FDF3CF8091E8008B7744
:101B10008093E8000E94F920882399F391E001C0A6
:101B200090E08091E8008B778093E800992309F496
:101B3000A7CB2981822F90E0FC013197E331F10599
:101B400008F08CC1EA5AFF4F0C943F351A828CE0A2
:101B5000EFC08A81823009F4A0C150F4813009F0CD
:101B60007DC10E94ED299B838C837D836E8378C128
:101B7000833041F0843009F071C11B821C821D82C8
:101B80001E826EC16B81DE01149680E090E0262FEC
:101B900030E0A901480F591F4830510508F060C1D5
:101BA000E62FE80FF0E0E15EFD4F40814D93019696
:101BB0008C31910571F754C18A81823019F08530DA
:101BC00051F04CC16B817C818D819E810E94453595
:101BD0000E94EE2A45C18091D80580FF03C00E9473
:101BE000CB2F3EC181608093D80560E086958695B5
:101BF00051C04C816B818A810E94A52C9D8354C168
:101C00002D813E813227232732274C816B818A81A7
:101C10000E94392C25C10E94602C22C18A81823009
:101C200009F01CC1283009F43FC0293009F468C00C
:101C30008B818230F9F098F4813009F011C18C81E8
:101C4000E8E78E9FC00111246FEF70E00E944334DB
:101C5000462F20E06091DA058091D90522C08330BB
:101C6000E1F0843009F0FCC020E04091DB056D819B
:101C70008C8117C08C81882309F4B1CF8091D8055D
:101C800081608093D80560E0869586950E94DA2F62
:101C900060E08C810E94DA2FE3C08C818093DC05A8
:101CA000DFC00E94EC2EDCC08B818230E1F078F442
:101CB000813009F0D5C08091DB05FFEF8F9FC00117
:101CC000112468E770E00E9443346C83C9C08330FC
:101CD00099F0843009F0C4C08091D9058C8380913B
:101CE000DA058D83BDC08091D80580FF03C086953D
:101CF000869504C080E002C08091DC058C83B0C072
:101D00002091D8053091D9054091DA055091DB0535
:101D10006091DC057091DD058091DE059091DF0515
:101D20000E94EB2D9DC080E152C082E08A8387E54E
:101D30008B8396C0EA80FB80FE24EF24FE24AC80D7
:101D4000B12C6801C70187559E4F9601201B310BAE
:101D50002A153B0508F084C027E5E21622E0F206CA
:101D600030F40E949734D60114968C9302C0F60189
:101D70001482FFEFEF1AFF0A2FEFC21AD20AE2CF46
:101D8000EA80FB80FE24EF24FE24AC80B12C6801A5
:101D9000C70187559E4F9601201B310B2A153B0525
:101DA00008F05EC037E5E31632E0F30628F4D6010A
:101DB00014966C910E94BB34BFEFEB1AFB0AEFEF55
:101DC000CE1ADE0AE5CF0E94292C4AC084E08A831D
:101DD00047C0EA80FB80FE24EF24FE24AC80B12CB7
:101DE0006801C70189969601201B310B2A153B0516
:101DF000B8F5F0E8EF16F1E0FF0630F40E949734F2
:101E0000D60114968C9302C0F6011482FFEFEF1AEC
:101E1000FF0A2FEFC21AD20AE4CFEA80FB80FE2429
:101E2000EF24FE24AC80B12C6801C701899696018D
:101E3000201B310B2A153B0598F430E8E31631E0FE
:101E4000F30628F4D60114966C910E94BB34BFEFC0
:101E5000EB1AFB0AEFEFCE1ADE0AE7CF8FEF89838A
:101E600040E250E0B80182E00E94692909CA09BD38
:101E700019BD09B400FEFDCF8091D8008F7D8093FD
:101E8000D8008091E00082608093E0008091E000C3
:101E900081FDFCCF0E942719FAC988E290E00E94D8
:101EA00097341B821C821D828E83DACF2B30310542
:101EB00008F032CD67CD2B30310508F079CDAECDAD
:101EC000A8E0B0E0E6E6FFE00C945734FC01848122
:101ED000882309F419C67F0121E040815181628184
:101EE000738195810E944F308C01F7018581882391
:101EF00009F470C1C80197578038910508F032C1C4
:101F0000003108F077C18FEF93E00E949734811180
:101F100071C139EAA32EBB24B394002379F0A11434
:101F2000F4E0BF0609F466C1C5010E94973481112F
:101F300001C001502FEFA21AB20AEFCFCE010196D5
:101F40002C0188E0F20111928A95E9F72AE0322EFD
:101F500085010F5F1F4FC5010E94973489831A8244
:101F6000882309F447C1813009F041C06501F2E0DE
:101F7000CF0ED11CC8010E9497348A83882309F4AC
:101F800039C19FEF980F933060F423E0A20EB11C8B
:101F9000C6010E9497348B83882309F42BC11C82CD
:101FA00029C0843031F54E0133E0830E911C02E0EC
:101FB00010E056018FEFA81AB80AC6010E949734A4
:101FC000F40181934F01882309F414C18C3741F443
:101FD000E2E0F0E0EC0FFD1FE00FF11F10820AC0FD
:101FE0000F5F1F4F65010730110519F703C1580135
:101FF00001C056018201F8012081222309F4A8CFF3
:10200000213009F053C08181813081F46801F2E010
:10201000CF0ED11CF8018281893319F460E570E09C
:1020200002C060E070E00E94FC1A15C0823049F4E2
:102030006801F2E0CF0ED11CF80182810E94881A5B
:102040000AC0833051F46801F2E0CF0ED11CF801D0
:1020500082810E94551A860182C0843019F00F5F78
:102060001F4F7DC0F80122810E5F1F4F80E090E07E
:1020700030E0205331092A30310568F4389EA00140
:10208000399E500D1124C901840F951F0F5F1F4FFA
:10209000F8012081EDCF009709F461C0EFE9FFE07E
:1020A0003197F1F700C000000197F5CFE22FF0E083
:1020B000E35BFD4F2490822F86958695869590E070
:1020C000FC01E35CFD4F64902770712C022E02C06E
:1020D000759467940A94E2F7F1E06F227724FC018B
:1020E000E35DFD4F8490912C022E02C0959487945D
:1020F0000A94E2F731E083229924FC01E35EFD4F6C
:10210000C490D12C02C0D594C7942A95E2F781E0FF
:10211000C822DD246114710419F081EE0E94881A2E
:102120008114910419F086EE0E94881A60E070E034
:10213000822D0E94FC1A8114910419F086EE0E94EF
:10214000551A6114710419F081EE0E94551AC114D8
:10215000D10429F060E070E08CE20E94FC1A0F5F6D
:102160001F4F49CFF70181818093F90180818093CE
:10217000F80180E280930D011093F7010093F601BE
:10218000C80190528115904228F4F7018681807F22
:1021900079F442C0C80190548115904120F4F701B0
:1021A0008681807F29F4C8019A9581159F4118F492
:1021B000F801FF2706C0C801805A9245809760F158
:1021C000F801ED33F10540F5E353FD4FE491E09361
:1021D0000D0122C0F801E851FC47E730F10508F095
:1021E0003FC103C106E221EE41EE6AE17CE7C7018F
:1021F0000E942B2B80917C02877009F485C4F70123
:102200008581882309F480C48091FF0582FF7CC406
:1022100082E00E94EA1878C4F801E851FC47E730F0
:10222000F10508F4E2C01092F505C80190578397B4
:1022300008F003C184E090E00E94A5349093FF056C
:102240008093FE05F801E150F047E232F10520F4F9
:10225000E759FF4F0C943F358091FE058160ACC07B
:102260008091FF058860B4C08091FE058260A4C0A3
:102270008091FE0520C08091FE0588609DC0809100
:10228000FF051EC08091FF058260A2C08091FE05FF
:10229000806192C08091FE0580628EC08091FE05B3
:1022A00080648AC00E9427198091FE05806884C0DE
:1022B0008091FE05886084607FC08091FF05826008
:1022C000816086C08091FE058E7F76C08091FF057B
:1022D000877F7EC08091FE058D7F6EC08091FE0558
:1022E00020C08091FE05877F67C08091FF051EC0DA
:1022F0008091FF058D7F6CC08091FE058F7E5CC054
:102300008091FE058F7D58C08091FE058F7B54C063
:102310000E9427198091FE058F774EC08091FE059F
:10232000877F8B7F49C08091FF058D7F8E7F50C056
:102330008091FE0582FB222720F991E0922790FBF5
:1023400082F990FB83F938C08091FF05982F909512
:1023500091708E7F892B90FB81F93AC08091FE05A8
:1023600086FB222720F991E0922790FB86F924C072
:102370000E9427198091FE0587FB222720F991E012
:10238000922790FB87F918C061E001C060E08EE001
:1023900090E00E94BB341EC08091FE0584FB222782
:1023A00020F991E0922790FB84F906C08091FE0508
:1023B000982F909590FB80F98093FE050BC080913B
:1023C000FF0583FB222720F991E0922790FB83F9F8
:1023D0008093FF056091FE057091FF0584E090E019
:1023E0000E94D9340E94271905CFE557FF4F0C945E
:1023F0003F3507E225EE45EE6BE17CE7F8CE06E2DD
:1024000021EE40EE68E17CE7F2CE07E225EE44EEF5
:1024100069E17CE7ECCE06E221EE42EE6CE17CE77E
:10242000E6CE07E225EE46EE6DE17CE7E0CE08E27F
:1024300021E045EE6EE17CE7DACE0631FCE71F07CE
:1024400009F0B3C08091C9048A7A91E009F490E060
:1024500090932702811112C089E20E945C2A0BC06E
:1024600006312CE7120761F480912702811112C313
:1024700089E20E942E2A0E94CE15BCCE85E3EDCFC4
:102480008091C9048272F801E052F847E531F10504
:1024900008F07DC0EE56FF4F0C943F358091D80573
:1024A00080FF1EC0282F2E7F2093D8053091D9059C
:1024B0004091DA055091DB056091DC057091DD05F6
:1024C0008091DE059091DF050E94EB2D0E946C2D1E
:1024D000809133058160809333050E948F2D8ACED1
:1024E00081608093D80561E08695869548C044E276
:1024F00050E36FE270E32CC04FE250E364E270E31C
:1025000027C047EB5FE261EC7FE222C041EC5FE273
:1025100067EB7FE21DC04DE95FE26AEA7FE218C027
:102520004AEA5FE26DE97FE213C043E85FE260E9F7
:102530007FE20EC040E95FE263E87FE209C041E16B
:102540005EE26BE27EE204C04BE25EE261E17EE2CB
:102550000E94652D4FCE61E081E011C065E082E010
:1025600013C068E086E010C06EE089E00DC064E151
:102570008FE00AC067E185E107C061E088E10E9461
:10258000DA2F38CE62E289E10E94502D33CE073730
:10259000FCE71F0711F481E005C008372CE712079C
:1025A00019F582E00E94DD1808C007373CE71307E1
:1025B00009F072C281E00E94181943E062E081E0F4
:1025C0000E94BB1817CE03302CE7120709F487C20C
:1025D00008F069C201158CE7180709F472C20130CE
:1025E0009CE7190709F481C2F701858100811181F7
:1025F000882349F0C8010E948316D82E682FC8018D
:102600000E94831804C0C8010E944F18D82EB80138
:102610008D2D0E9419240E942724D82E192FA82E10
:10262000F7010581C680C2949FE0C92280917C0297
:10263000877001F10023F1F0812F807F803469F0F1
:1026400080E28D0D8830B0F0812F807E803229F4B9
:10265000F1E0FD1578F4CC2069F08091FF0582FF50
:1026600009C082E00E94EA1880917C028770BB2436
:10267000B3948111B12C912E92948FE09822892DE0
:1026800090E08C30910508F0DDC1FC01E955FF4F69
:102690000C943F35812F807F1F70882311F0129595
:1026A000107F0023B9F0112309F4BAC180E28D0D27
:1026B000883010F0A11006C09091C904192B109316
:1026C000C90405C090917E02192B10937E020E94CE
:1026D000CE15A6C18D2D0E94551A112309F4B2C141
:1026E00080E28D0D883088F1AA2079F110959091C3
:1026F0007E02192310937E022BC0812F807F1F70D2
:10270000803211F01295107F8D2DAA2029F021E042
:10271000A21609F44CC057C08091FF0582FD1BC072
:10272000002369F0112339F09091C904192B1093FB
:10273000C9040E94CE1580E00E94881A83C180E0FF
:102740000E94551A112309F47DC1812F0E9444254E
:102750000E94CE1577C1002381F0CC20C1F131E079
:10276000C31270C190917D02812F8923181709F43B
:1027700069C1192B10937D0265C1C11063C1812FFE
:102780000E94581980917D02912F982329F0912F52
:102790009095892380937D0280912802912F982320
:1027A00009F450C110958123809328024BC1002366
:1027B00029F085E08C1508F445C109C094E09C150A
:1027C00008F440C115C0002331F0C11029C1812F88
:1027D0000E945F1937C1CC2059F0893309F02FC10D
:1027E000EFEFF7EE23E0E150F0402040E1F725C1A4
:1027F000812F0E94581926C1812F86958695837056
:1028000019F0813061F01EC1002321F08D2D912F30
:10281000937002C080E090E00E94B82A19C10023A2
:1028200021F08D2D912F937002C080E090E00E94E6
:10283000932A0EC1602F8D2D0E94691909C1812F25
:102840008370A9F5011102C14D2D4295469547703F
:10285000440F440F8D2D8F7090E09C01042E01C019
:10286000220F0A94EAF7D4FE08C08FE090E001C07E
:10287000880F4A95EAF7809501C080E01695169575
:102880001370123069F088F49091E001113019F062
:10289000822B892302C0922B892B0E942419D6C037
:1028A000822B9091E0018927F8CF822BF6CF00236D
:1028B00019F0812F817001C08695882309F4C6C064
:1028C0004D2D429546954770440F440F8D2D8F70C6
:1028D00090E09C01042E01C0220F0A94EAF7D4FE76
:1028E00008C08FE090E001C0880F4A95EAF7809514
:1028F00001C080E0169516951370123059F078F4E7
:102900009091EE01113019F0822B892309C0922B8E
:10291000892B06C0822B9091EE01892701C0822B62
:102920000E94B81893C01F70002339F0812F0E94B5
:1029300018198D2D0E945F1989C08D2D0E9458197C
:10294000812F0E94DD1882C08D2D32EFA31681F1F8
:102950003A1538F090EFA91659F0E1EFAE1619F1DB
:102960005BC0F3EFAF1659F124EFA216C1F054C0CB
:10297000002381F034E03C1508F464C01F7181E04D
:1029800090E0012E01C0880F0A94EAF79091EE01C1
:10299000892720C085E08C1508F454C0EFCF8091C2
:1029A000FF0582FD1AC0002329F0812F8F7127C0F7
:1029B0000023D9F3812F8F710E94DD1843C00023BB
:1029C00041F01F7181E0012E01C0880F0A94EAF7DF
:1029D00001C080E00E94B81835C0002399F01F7133
:1029E000812F0E9418198091FF0582FF07C0E8E03F
:1029F0001E9FC0011124836080937C02812F0E945E
:102A0000181920C081E00E94EA18F1E0FC15D0F40A
:102A100082E00E94EA1816C0002321F0CC2029F29F
:102A20008D2D8ACECC2031F2893349F42FEF37EE49
:102A300083E0215030408040E1F700C000008D2D40
:102A40000E94551A88EF890D843010F40E94DD2A07
:102A5000BB20A9F080917C0280FD11C0F701158296
:102A60008695869586950E941819C7010E94600F69
:102A700080917C028695869586950E94DD1820E0DF
:102A8000F7014081518162817381848195810E9427
:102A90004F303AC085E3EDCC08378CE7180709F0D2
:102AA00092CD82E088CD0B35ECE71E0749F10C355D
:102AB000FCE71F07E9F00A351C4709F095CD81E0D6
:102AC00020C00E9427193FEF84E39CE031508040F2
:102AD0009040E1F700C000000E94A7298BCB6FEF68
:102AE0007FEF80E090E00E94D9340E94043182CBD5
:102AF0008091FF0582FB882780F991E0892701C03A
:102B000080E00E94011970CD2896E2E10C947334A4
:102B10009091C90480917E02892B90917D02992326
:102B2000E1F0892B90911501992341F09091FE05D8
:102B300097FF04C09EE12DE035E003C096E025E05C
:102B400035E0F90120E0915028F031913323D9F399
:102B50002F5FF9CF211110927D02089520917B0201
:102B60009091420257E02917A9F030E0529FF001FE
:102B7000539FF00D1124ED5BFD4F7181761306C05C
:102B80007081781303C07581741306C02F5F3F4FA7
:102B90002770E9CF80E0089581E0089580911501C4
:102BA000882351F18091FE0587FF26C00E94881579
:102BB00080930C0540E250E06FE772E08BE095E017
:102BC0000E94C135892BD9F180E2EBE0F5E0AFE757
:102BD000B2E001900D928A95E1F7E091FA05F0914B
:102BE000FB05309761F186E080930B050480F58149
:102BF000E02D8BE095E022C00E94881580930305AC
:102C000048E050E06FE972E083E095E00E94C13552
:102C1000892BA9F088E0E3E0F5E0AFE9B2E00190AC
:102C20000D928A95E1F7E091FA05F091FB05309756
:102C300031F00280F381E02D83E095E0099508955D
:102C400080917B0290914202891719F08F5F877003
:102C5000FBCF0895CF93DF938091410282958F70CF
:102C600009F04EC080914002882309F449C0809148
:102C70007B024091420250913C0260913B02C09124
:102C80003D02D0913E0277E08417D1F190E0789F29
:102C9000F001799FF00D1124DF01AD5BBD4F14965B
:102CA0002C911497222349F111962C9111972513F9
:102CB00024C02C91261321C015962C911597211113
:102CC0001CC012962D913C9113972C1B3D0B283C58
:102CD000310598F4809141028F70806180934102A8
:102CE000E75BFD4F80818F70806180838BE392E092
:102CF0000E94600F0E94201603C001968770C4CF07
:102D0000DF91CF910895CF92DF92FF920F931F939F
:102D1000CF93DF936C010091EE018091E001082BCD
:102D2000C3E0D0E010E0C8010C2E02C09595879555
:102D30000A94E2F780FD04C02197A8F7F12C09C09E
:102D4000FC2EB6018C2F0E9419240E942724019783
:102D500099F38F2DDF91CF911F910F91FF90DF900D
:102D6000CF900895CF93DF93EC010E948316BE01AC
:102D70000E9419240E942724DF91CF910895FC011D
:102D800024812223D9F0808191810E94B2169295EC
:102D90009F70963079F010F4925001C09A509230A2
:102DA00068F4803F69F018F4883E40F409C0843F1D
:102DB00029F406C0883E20F0813F11F080E008959C
:102DC00081E00895A4E1B0E0E8EEF6E10C945D3412
:102DD0008C0186E0F801DE011F9601900D928A9524
:102DE000E1F7F8018481E5809BE3892E92E0992E3A
:102DF00090913F02911120C0882309F449C1EE202F
:102E000009F442C0C8010E94BF16F82E8823E1F1E0
:102E100087E0F801D40101900D928A95E1F7809145
:102E20003F02813031F480913B0290913C020E943C
:102E3000B2160E942A162EC1F801D080C180A2804D
:102E4000B380F090400220913D0230913E02FF207D
:102E500009F4EBC0A501421B530B483C510508F097
:102E6000A1C0882309F416C180914102282F207F38
:102E700090913C02222361F09C1509F460C0C801C6
:102E80000E94BF16811167C0C8010E94600F00C177
:102E90009C1113C090913B029D110FC0E1100DC019
:102EA0008F708061809341028BE392E00E94600FFB
:102EB00080914102F8018683E9C0E1103AC040E008
:102EC0006C2D8D2D0E94AE1540E06C2D8D2D0E9435
:102ED000AE15E82E8111DAC0DF86C88A8F85988901
:102EE0000E94B216292F22952F70243020F49F7053
:102EF000223028F009C02A50223080F014C09923D3
:102F000049F0811107C013C0992321F0F80196817F
:102F1000907F69F0805E883030F409C0803F38F0DF
:102F2000815F833020F0C8010E94600FEF2CFE2CDF
:102F3000B1C080914102816080934102A7C090910D
:102F40003B029D119CCFE1109ACFF8018683C80106
:102F50000E94600F7EC0EE2009F496CF20914102BE
:102F6000822F82958F7090E002978CF080913B02C7
:102F700090913C0299878887BB86AA8680913F0200
:102F80008C871D862E87CE0108960E94600F87E0F1
:102F9000F801ABE3B2E001900D928A95E1F70E944F
:102FA0002A1676C090914102292F207F51F48BE39D
:102FB00092E00E94600F87E0F40111928A95E9F790
:102FC00065C0882309F466C080913C028C110CC056
:102FD00080913B028D1108C0E11006C0F801968374
:102FE000C8010E94600F4CC0C8010E94BF16882310
:102FF00009F44ACFEE2009F447CF20914102822FF5
:1030000082958F7090E0029714F280913B0290912C
:103010003C029A838983BC82AB8280913F028D837C
:103020001E822F83CE010196B0CFA21AB30AF8EC0C
:10303000AF16B10428F5882359F1FE2CEE2009F4CF
:1030400023CF80913C02C8120DC080913B028D11AC
:1030500009C087E0F801ABE3B2E001900D928A95D8
:10306000E1F718C0C8010E94BF16811190CF80916E
:103070004102816080934102C8010E94600F0AC032
:1030800087E0F40111928A95E9F704C0F12C02C09F
:10309000FF24F3948F2D6496ECE00C947934292F5F
:1030A000983078F5863068F590E036E0239F800D03
:1030B000911D1124682F677023E0969587952A95B6
:1030C000E1F7FC01EE0FFF1FE80FF91FE75DFD4F71
:1030D00040E050E080E0219130E0062E02C03695BD
:1030E00027950A94E2F721703327042E01C0220F9E
:1030F0000A94EAF7822B4F5F5F4F4330510559F72F
:10310000089580E00895292F983088F5863078F565
:1031100090E036E0239F800D911D1124282F277009
:1031200051E001C0550F2A95EAF723E0969587955F
:103130002A95E1F7FC01EE0FFF1FE80FF91FE75D8D
:10314000FD4F20E030E070E04081CB01022E02C054
:10315000969587950A94E2F7817081958427852357
:10316000842781932F5F3F4F2330310569F70895FE
:103170008093EE0108959091EE0121E030E0F90195
:1031800001C0EE0F8A95EAF7D90102C0AA0FBB1F52
:103190006A95E2F7BD016E2B01C0220F4A95EAF74E
:1031A000892F8623681303C0892F822B03C02095A3
:1031B000822F89230E94B818089521E030E001C0D1
:1031C000220F8A95EAF720958091EE0182230E94D2
:1031D000B818089590917C028095892380937C0291
:1031E000282F277069F4981759F09091FF0592FFE6
:1031F00007C08695869586950E94DD1810927C0200
:1032000008959091FF0592FB222720F9281779F065
:1032100080FB92F99093FF056091FE057091FF0588
:1032200084E090E00E94D93482E00E94EA18089578
:1032300021E030E001C0220F8A95EAF78091EE018B
:10324000822B0E94B81808958093E001089510928F
:10325000C90480911501882341F08091FE0587FF04
:1032600004C08EE1EDE0F5E003C086E0E5E0F5E0C6
:10327000DF011D928A95E9F780E090E00E94B82A6C
:1032800080E090E00E94932A10927E020E94CE1568
:10329000EDEEF5E086E0DF011D928A95E9F71092E8
:1032A000E6051092E7051092E8050E94AF2B0895FD
:1032B000882321F00E9444250E94CE15089588237A
:1032C00039F09091C904892B8093C9040E94CE15CE
:1032D00008959091EF05662309F470C091110CC018
:1032E0009091F005911108C09091F205911104C0E0
:1032F0009091F105992331F098E09093E60591E0E3
:103300009093E7058D3C21F40E94FB2B819504C02E
:103310008E3C29F40E94FB2B8093F005C3C08F3CA8
:1033200021F40E94FB2B819504C0803D29F40E946A
:10333000FB2B8093EF05B6C0893D19F40E94D92B71
:1033400005C08A3D31F40E94D92B81958093F10507
:10335000A9C08B3D21F40E94D92B819504C08C3DDE
:1033600029F40E94D92B8093F2059CC09FE2980F0C
:10337000983078F421E030E0A90102C0440F551FD5
:103380009A95E2F7CA019091EE05892B8093EE059C
:1033900089C08D3D21F48091E80581600CC08E3D8F
:1033A00021F48091E805826006C08F3D09F07AC063
:1033B0008091E80584608093E80574C08D3C39F401
:1033C0009091F00597FF33C01092F00557C08E3CE6
:1033D00029F49091F0051916BCF329C08F3C29F40B
:1033E00097FF25C01092EF0549C0803D19F41916CA
:1033F000CCF31DC09091F105893D29F41916BCF458
:103400001092F1053BC08A3D19F497FF10C0F8CF28
:103410008B3D39F49091F20597FF09C01092F205A7
:103420002DC08C3D21F49091F2051916BCF39FE25A
:10343000980F983080F421E030E0A90102C0440FD9
:10344000551F9A95E2F7CA0180959091EE05892360
:103450008093EE0513C08D3D21F48091E8058E7FA9
:103460000BC08E3D21F48091E8058D7F05C08F3D16
:1034700029F48091E8058B7F8093E8058091EF0522
:10348000811106C08091F005811102C01092E605FD
:103490008091F105811106C08091F205811102C071
:1034A0001092E7050E94AF2B0895882381F19CEFCD
:1034B000980F913A18F40E942E2A0DC090E2980FAE
:1034C000983060F4877091E001C0990F8A95EAF70F
:1034D000892F0E9444250E94CE1508959BE5980FE0
:1034E000933028F480E090E00E94B82A089598E58F
:1034F000980F9B3128F480E090E00E94932A089571
:1035000093E3980F933118F460E00E9469190895CD
:10351000CF93882309F46EC0C82F8CEF8C0F813AAB
:10352000A0F5809115018823E1F08091FE0587FFC9
:1035300018C0EC2FE695E695E695F0E0E55FFA4FCA
:103540008281282F30E04C2F477081E090E002C04C
:10355000880F991F4A95E2F782239323892B61F400
:1035600010C0E5E0F5E08BE095E02191C21721F075
:103570008E179F07D1F705C08C2F0E942E2A0E941C
:10358000CE158C2F0E945C2A10C080E28C0F8830F0
:1035900078F4C77081E090E001C0880FCA95EAF71F
:1035A0009091C904892B8093C9040E94CE1522C032
:1035B000EBE5EC0FE33040F4F0E0EE58FE4F808195
:1035C00090E00E94B82A16C0E8E5EC0FEB3150F409
:1035D000F0E0EE0FFF1FEB58FE4F808191810E94BB
:1035E000932A08C083E38C0F833120F461E08C2F91
:1035F0000E946919CF9108951F93CF93DF93182FDD
:10360000EB010E94881A209741F08FE99FE0019713
:10361000F1F700C000002197F6CF812F0E94551AC4
:10362000DF91CF911F9108958091B60287FF11C05D
:103630008091E80082FD05C08091B4028111F8CF2D
:1036400011C08091E8008B770BC08091B402882371
:1036500049F08091E80080FFF8CF8091E8008E77F4
:103660008093E8000895982F973068F59093E900CB
:10367000981739F07091EC002091ED005091F00016
:1036800003C0242F762F50E021FD02C09F5FECCFB6
:103690003091EB003E7F3093EB003091ED003D7FA9
:1036A0003093ED003091EB0031603093EB0070937C
:1036B000EC002093ED005093F0002091EE0027FDE8
:1036C000E5CF80E008958F708093E90081E0089550
:1036D0002091BC023091BD022617370748F06115D2
:1036E000710539F42091E8002E772093E80001C09D
:1036F000B901FC0120E06115710579F18091B402F6
:103700008823F1F18530F1F18091E80083FD3CC020
:103710008091E80082FD2EC08091E80080FFEBCF11
:103720002091F3008091F20090E0922B61157105D9
:1037300051F08830910538F421912093F1006150C7
:1037400071090196F3CF21E0089709F020E08091FC
:10375000E8008E778093E800CECF2111CFCF0AC04A
:103760008091B402882361F0853061F08091E80097
:1037700083FD0AC08091E80082FFF2CF80E00895C7
:1037800082E0089583E0089581E0089543E050E0E9
:10379000BC0184E00E946929089546E050E0BC0124
:1037A00084E00E946929089540E250E0BC0184E071
:1037B0000E9469290895CF93DF93EC0148E050E01F
:1037C000BC0181E00E94692988E0FE01AAEAB2E01A
:1037D00001900D928A95E1F7DF91CF910895CF93F3
:1037E000DF93682F8A3011F481E003C08D3021F41B
:1037F00080E00E94D32C6FC08091C7049091C804D0
:1038000026E0FC01A1ECB4E001900D922A95E1F7CD
:10381000603E30F026E0FC0111922A95E9F70AC0DB
:10382000F6E06F9FB00111246A547B4F46E050E0F0
:103830000E948E34C091C704D091C80446E050E085
:10384000BE0181EC94E00E94C135892B49F19E01B3
:10385000215C3240A90185E0569547958A95E1F7AC
:1038600081E090E0BC0102C0660F771F4A95E2F745
:103870004091BF025091C002462B572B2B5F3F4F08
:1038800065E0369527956A95E1F702C0880F991F84
:103890002A95E2F7842B952B9093C0028093BF0268
:1038A0009E012B5B32404091BE02642F70E0C90143
:1038B0000E944334481B463010F4240F311D21155B
:1038C00082E0380710F020E030E02F533D4F309376
:1038D000C8042093C704DF91CF910895CF93DF935D
:1038E000EC01FE018491882321F00E94EF1B2196B8
:1038F000F8CFDF91CF9108950E946E1C81E00E9465
:10390000D32C0895FC01AC014C5F5F4F8FEF91E326
:103910002191822728E030E087FF03C0880F8927A4
:1039200001C0880F21503109B9F7E417F50781F775
:103930000895AAE2B0E0EFE9FCE10C946634E6EB0E
:10394000F2E08EEB92E02091F10021938E179F0719
:10395000D1F78091B702833009F463C030F481302D
:1039600071F0823009F49DC0B4C08A3009F489C076
:103970008B3009F46EC0893009F0ABC020C0809153
:10398000B602813A09F0A5C08091E800877F809354
:10399000E8008091BA029091BB02892B21F468E083
:1039A0008AEA92E003C060E080E090E070E00E946C
:1039B000681B8091E8008B778093E8008AC0809133
:1039C000B602813209F085C08091BA029091BB02A3
:1039D000009719F0029709F07CC08091E800877F7A
:1039E0008093E8008091E80082FD05C08091B402D8
:1039F0008111F8CF6EC02091F3008091F20090E029
:103A0000922B029731F48091F100813011F08630D1
:103A100021F48091F1008093A9028091E8008B77D6
:103A200054C08091B602813A09F053C08091BA0225
:103A30009091BB02892B09F04CC08091E800877FF0
:103A40008093E8008091E80080FFFCCF8091150111
:103A500037C08091B6028132E1F58091BA0290912F
:103A6000BB02892BB1F58091E800877F8093E80045
:103A70000E94141B8091B802809315010E9427199F
:103A800028C08091B602813221F58091E800877FBD
:103A90008093E8000E94141B8091B9028093A802D1
:103AA00018C08091B602813AA1F48091E800877F26
:103AB0008093E8008091E80080FFFCCF8091A8020D
:103AC0008093F1008091E8008E778093E8000E9457
:103AD000141B8091E80083FFDFC18091B6029091B2
:103AE000B702492F50E04A30510508F0D5C1FA011C
:103AF000ED54FF4F0C943F35803821F0823809F0A7
:103B0000CBC108C08091B2029091B302992389F091
:103B100082600FC08091BA028F70873008F0BCC1FC
:103B20008093E9008091EB0085FB882780F9109253
:103B3000E9009091E800977F9093E8008093F1006E
:103B40001092F10070C1282F2D7F09F0A5C18823A4
:103B500019F0823061F0A0C18091B802813009F083
:103B60009BC1933009F080E08093B3022EC0809116
:103B7000B80281112AC08091BA028F702FEF280FEE
:103B8000263008F089C18093E9002091EB0020FFE6
:103B90001CC0933021F48091EB00806214C090919E
:103BA000EB0090619093EB0021E030E0A90102C0AE
:103BB000440F551F8A95E2F74093EA001092EA00FD
:103BC0008091EB0088608093EB001092E900809177
:103BD000E800877F8093E8000E94141B5DC181117B
:103BE0005BC11091B8021F778091E3008078812B30
:103BF0008093E3008091E800877F8093E8000E9433
:103C0000141B8091E80080FFFCCF8091E300806866
:103C10008093E300111102C082E001C083E0809331
:103C2000B4023AC18058823008F036C12091B802FF
:103C30003091B9022C3D53E0350779F583E08A8352
:103C40008AE289834FB7F894DE01139620E03EE0C4
:103C500051E2E32FF0E050935700E49120FF03C0BE
:103C6000E295EF703F5FEF708E2F90E0EA3010F03A
:103C7000C79601C0C0968D939D932F5F243149F75D
:103C80004FBF8091E800877F8093E8006AE270E090
:103C9000CE0101960E94681BB4C08091BA02909137
:103CA000BB02432F552743305105A9F068F441303A
:103CB000510509F400C14230510509F0EDC08BE512
:103CC00090E0E5E2F4E04BC04132510529F1423287
:103CD000510589F1E1C0C901992781309105A1F011
:103CE00058F0029709F0D8C0E2E9F4E0E4918E2F91
:103CF00090E0E2E9F4E030C0E2EBF4E0E4918E2FF2
:103D000090E0E2EBF4E028C0E0EAF4E0E4918E2FEA
:103D100090E0E0EAF4E020C08330910508F0BCC0F8
:103D2000880F991FFC01E459FE4F0190F081E02DAE
:103D300089E090E014C08330910508F0ADC0FC012B
:103D4000EE0FFF1FEA59FE4F0190F081E02DDC01DC
:103D5000AD59BE4F8C9190E0009709F49DC0209121
:103D6000E800277F2093E8002091BC023091BD023B
:103D70002817390708F4C90140E0009789F120911C
:103D8000B402222309F43DC02530D9F12091E80086
:103D900023FD37C02091E80022FD2FC02091E800CC
:103DA00020FFEBCF4091F3002091F20030E0342B64
:103DB000009759F02830310540F444914093F100C8
:103DC000319601972F5F3F4FF3CF41E02830310507
:103DD00009F040E02091E8002E772093E800CDCF55
:103DE0004111CDCF0AC08091B402882351F08530B3
:103DF00041F08091E80083FD04C08091E80082FFDB
:103E0000F2CF8091E8008B778093E80045C080383E
:103E100009F042C08091E800877F8093E80080919C
:103E2000B5028093F1008091E8008E77D3CE8111A6
:103E300033C08091B8029091B9029927029764F536
:103E40008091E800877F8093E8001091B80210937A
:103E5000B5020E94141B111106C08091E30087FD7A
:103E600002C081E001C084E08093B40242E061ECD2
:103E700081E00E94331B42E261EC84E00E94331B2C
:103E800042E261EC82E00E94331B42E260EC83E09C
:103E90000E94331B8091B4028091E80083FF10C020
:103EA0008091E800877F8093E8008091EB0080623A
:103EB0008093EB0005C082E190E0E0E8F4E04FCFB2
:103EC000AA96E3E00C9482341F920F920FB60F92E1
:103ED00011242F933F934F935F936F937F938F930F
:103EE0009F93AF93BF93CF93DF93EF93FF93C091D3
:103EF000E900CF708091EC00D82FD17080FDD0E820
:103F00001092E9008091F000877F8093F000789410
:103F10000E94991C1092E9008091F00088608093C3
:103F2000F000CD2BCF70C093E900FF91EF91DF91AE
:103F3000CF91BF91AF919F918F917F916F915F9141
:103F40004F913F912F910F900FBE0F901F9018959A
:103F5000E8EDF0E080818E7F80831092E200109285
:103F6000DA001092E100A0EEB0E08C9181608C93B9
:103F700080818F77808319BCA7EDB0E08C918E7F14
:103F80008C9380818F7E80831092A7020895A0E099
:103F9000B0E0EDECFFE10C946134C8EDD0E0888135
:103FA0008F7E8883E7EDF0E080818160808384E00C
:103FB00082BF81E08093A70288818E7F888302EE92
:103FC00010E0F80110821092DA0081EEC82ED12C98
:103FD000F601108288818F77888388818068888342
:103FE00088818F7D888319BC1092B4021092B5022B
:103FF0001092B3021092B20290EEE92EF12CF7016A
:1040000080818B7F808388818160888342E060E04B
:1040100080E00E94331BF60180818E7F8083F8014F
:10402000808181608083808188608083F7018081C6
:104030008E7F8083888180618883CDB7DEB7E8E09A
:104040000C947D341F920F920FB60F9211242F9370
:104050003F934F935F936F937F938F939F93AF9310
:10406000BF93EF93FF938091E10082FF09C080919D
:10407000E20082FF05C08091E1008B7F8093E10028
:104080008091DA0080FF2AC08091D80080FF26C08E
:104090008091DA008E7F8093DA008091D90080FFD2
:1040A00018C080E189BD82E189BD09B400FEFDCF61
:1040B00081E08093B4028091A70281110FC00E9419
:1040C000A81F0E94C71F8091E20084608093E200D5
:1040D00005C019BC1092B4021092A7028091E100B1
:1040E00080FF17C08091E20080FF13C08091E20042
:1040F0008E7F8093E2008091E20080618093E200F5
:104100008091D80080628093D80019BC85E08093AC
:10411000B4028091E10084FF30C08091E20084FF0E
:104120002CC080E189BD82E189BD09B400FEFDCFCC
:104130008091D8008F7D8093D8008091E1008F7EA0
:104140008093E1008091E2008F7E8093E200809175
:10415000E20081608093E2008091B502882311F033
:1041600084E007C08091E30087FD02C081E001C0C8
:1041700083E08093B4028091B4028091E10083FFD8
:1041800027C08091E20083FF23C08091E100877FF8
:104190008093E10082E08093B4021092B502809196
:1041A000E1008E7F8093E1008091E2008E7F80931A
:1041B000E2008091E20080618093E20042E060E0F2
:1041C00080E00E94331B8091F00088608093F000B3
:1041D000FF91EF91BF91AF919F918F917F916F91DF
:1041E0005F914F913F912F910F900FBE0F901F90B5
:1041F00018952091E4003091E50095E64091EC009F
:10420000842F817040FF23C08091E80080FD1DC095
:104210008091B402882399F0853099F08091EB0069
:1042200085FD11C04091E4005091E5002417350749
:1042300029F3915011F09A01E1CF84E0089582E0D2
:10424000089583E0089581E0089580E00895409105
:10425000E80042FFDDCF089580E008959091FE05CB
:1042600092FF10C041E0282F2471243009F040E073
:1042700031E0282F2871283009F030E0431711F081
:104280002CE0822793FF10C041E0282F24712431B5
:1042900009F040E031E0282F2871283109F030E0A2
:1042A000431711F02CE082273091FF0530FF10C03A
:1042B00051E0282F2171213009F050E041E0282FF2
:1042C0002871283009F040E0541711F029E08227C6
:1042D00031FF10C041E0282F2171213109F040E069
:1042E00031E0282F2871283109F030E0431711F010
:1042F00029E0822794FD877E08958238910569F12F
:10430000B0F48133910509F475C048F48932910500
:1043100009F467C08A32910509F471C008958533A4
:10432000910509F459C089339105B9F00895833E88
:10433000910589F138F4803E9105D1F0823E9105D6
:1043400029F10895863E9105C9F1873E9105D9F17D
:10435000843E910509F06CC027C02091FE0520FD28
:1043600057C021FD55C02091FF0523FD5BC0089576
:104370008091FE0580FD48C08091FF0580FF48C008
:104380008091FE0584FD46C083EE51C08091FE05FC
:1043900082FF3CC0F5CF8091FE0582FD37C0809141
:1043A000FF0580FD35C0ECCF8091FF0581FF36C051
:1043B0008091FE0584FD2EC087EE39C08091FE05F8
:1043C00083FF2AC0F5CF8091FE0583FD25C0809133
:1043D000FF0581FD23C0ECCF8091FE0585FD22C045
:1043E0001FC08091FE0585FD1BC08091FF0583FFE6
:1043F00019C00AC08091FE0586FD16C017C08091C5
:10440000FE0586FD13C010C089E311C082EE0FC007
:1044100080EE0DC080E00BC086EE09C084EE07C0C0
:1044200085E305C089E203C08AE201C081E390E030
:104430000895A0E0B0E0EFE1F2E20C945F347C017B
:104440005B016A01809102058A3018F001E010E0FA
:1044500002C00AE010E0C1E0D0E0B501C701F601FA
:104460000995811115C021960C171D0794F0CC9F5A
:104470009001CD9F300D300D112480E090E045E398
:104480004A95F1F70000019682179307C1F7E5CF2F
:1044900081E0CDB7DEB7EAE00C947B34A0E0B0E079
:1044A000E4E5F2E20C945D34FB0180809180A2800F
:1044B000B3809FB7F894C0900106D0900206E090B8
:1044C0000306F09004069FBFC818D908EA08FB0845
:1044D000F4E6CF16D104E104F10410F4442341F1D1
:1044E0007B01C82F880FDD0B01151105A9F0FE0116
:1044F00083E0EE0FFF1F8A95E1F7EA5EFE4F8181B0
:1045000092818E519B4F408150E00417150708F4AB
:10451000A801B9010E94CE35CE010E94C83388237C
:1045200041F00E94ED29F7016083718382839383B8
:1045300081E0CDB7DEB7ECE00C947934ABE0B0E0CD
:10454000E4EAF2E20C94653488E0E8EDF5E0DE019F
:10455000119601900D928A95E1F780913105909125
:104560003205A091330589879A87AB8741E08B8517
:10457000811101C040E00BE010E09E012F5F3F4F32
:104580006EEF74E084E00E944E2281111092330598
:104590002B96E4E00C9481340F931F93CF93DF9319
:1045A000EC0144E050E067EE74E00E94C13541E068
:1045B000892B09F440E004E010E09E016EED74E008
:1045C00082E00E944E22DF91CF911F910F910895BA
:1045D000EF92FF921F93CF93DF9300D000D01F92F2
:1045E000CDB7DEB77B0180E090E00E94C83388231E
:1045F00009F463C04091190150E04115510511F0D3
:1046000041E050E060911A0170911B016E517B4FA7
:10461000CE0105960E94CE354091DA045091DB041C
:104620006091DC047091DD042FB7F894809101064D
:1046300090910206A0910306B09104062FBF841B3F
:10464000950BA60BB70B84369105A105B10538F47F
:1046500083EE94E00E94821C9D81891781F181E0A4
:1046600090E00E94C833182F882391F040912101D7
:1046700050E04530510510F044E050E060912201D7
:10468000709123016E517B4FCE0101960E94CE3571
:1046900083EE94E00E94821C91E02D81281390E02B
:1046A000192341F10E94ED296093DA047093DB0431
:1046B0008093DC049093DD040FC010E001C011E092
:1046C0008091E3049091E404A091E504B091E604A4
:1046D00089839A83AB83BC83112361F089819A819A
:1046E000AB81BC818093D6049093D704A093D80467
:1046F000B093D9048091D6049091D704A091D804A6
:10470000B091D904F70180839183A283B383812F71
:104710000F900F900F900F900F90DF91CF911F91FE
:10472000FF90EF900895F894E82FE295EF70F0E095
:1047300031A1282F2F7081E090E001C0880F2A95C9
:10474000EAF7982F9095932391A392A1892B82A3A6
:10475000789408950F931F938091F605882319F09C
:104760000E94ED290EC00E94ED290091D201109106
:10477000D3012091D4013091D501600F711F821FA8
:10478000931F1F910F910895A4E0B0E0EAECF3E2CB
:104790000C9467344091FA045091FB046091FC043E
:1047A0007091FD042FB7F894809101069091020654
:1047B000A0910306B09104062FBF841B950BA60B96
:1047C000B70B84369105A105B10570F10E94AA23AB
:1047D000DC01CB010296A11DB11D89839A83AB83B5
:1047E000BC8380912F01909130018E519B4F40915D
:1047F0002E0150E04530510510F044E050E0BE017C
:104800006F5F7F4F0E94CE3583E090E00E94C833F7
:10481000882359F00E94ED296093FA047093FB04F9
:104820008093FC049093FD0481E02496E2E00C94D4
:104830008334783048F4663038F4843028F4462FD6
:10484000672F0E94A52C089580E090E008951F93A3
:10485000CF93DF930E947D21EC01C11580E5D8073D
:10486000E8F5C11590E4D90708F0A8C0C03ED1050D
:1048700030F5CD3CD10508F094C0C83AD10578F4A4
:10488000C53AD10508F083C0C130D10509F47CC018
:1048900008F4F2C0C430D10508F0F1C0EDC0C33C4B
:1048A000D10508F0E9C0C85AD0E0CC0FDD1FCB58C5
:1048B000DE4F0990D881C02DCE019464E1C0C115AE
:1048C00080E2D80708F0CBC0C11591E0D90708F005
:1048D0006BC0C83ED10508F4D2C0CEC0C03682E558
:1048E000D80728F5C03492E5D90708F079C0C0325E
:1048F00082E5D80708F06CC0C11592E5D90708F425
:1049000081C04C2F4695469580E2489FA001112416
:10491000C37021E030E0C90102C0880F991FCA9519
:10492000E2F7EA01C82BD92BCE019D68A9C0C03A95
:1049300082E5D807B8F48C2F8F71C03892E5D9077B
:1049400008F07BC08695869590E2899F900111249E
:10495000C37081E090E002C0880F991FCA95E2F70A
:104960009A6868C0C03C82E5D80708F46DC0C03EB4
:1049700092E5D90708F080C0CF71DD27DC2FCC2766
:10498000CE01806F906A7CC081E090E079C0C55A0A
:10499000D0E0CE58DE4F8881C82FD0E0CE019064A1
:1049A0006FC0CE0190656CC08D2F0E942E21182FF4
:1049B000CE0199270E947D211F715CC0CE019927ED
:1049C0000E947D21CC27DF70D06A8C2B9D2B58C094
:1049D000CF71D0E0DC2FCC27CE01816F906A50C020
:1049E0008C2F8F718695869590E2899F9001112476
:1049F000C37081E090E002C0880F991FCA95E2F76A
:104A00009C6818C08C2F8F710E942E2195E0D6953E
:104A1000C7959A95E1F7CF70D0E0DC2FCC27282FEF
:104A200030E084FF05C084E0220F331F8A95E1F750
:104A3000D069CE01822B932B23C090E0D82FCC27B6
:104A4000CE01846F906A1CC08C2F8F710E942E2122
:104A50008F7190E0D82FCC27CE01906211C08D2F9E
:104A60008F710E942E21182FCE0199270E947D213F
:104A70001F719062912B04C080E090E001C0CE01D4
:104A8000DF91CF911F91089580959091C90489235A
:104A90008093C90408958091F605882319F00E9437
:104AA000F92908950E94AA23CB010895A6E0B0E059
:104AB000ECE5F5E20C9465340E94F9298C018091B3
:104AC000CA049091CB040817190781F019821A8241
:104AD0000E94F929682F49815A81792F80E090E05E
:104AE0000E9474301093CB040093CA042696E4E02D
:104AF0000C948134ACE0B0E0E0E8F5E20C945A3478
:104B0000AE014F5F5F4F7A0188E0DA011D928A950E
:104B1000E9F701E511E06A0185E5682E81E0782E6C
:104B2000AA24A394B12C2BE5822E21E0922EF80129
:104B300080818F3F09F440C0F894E82FE295EF7030
:104B4000F0E021A18F70A50102C0440F551F8A9586
:104B5000E2F7CA01922F982B91A392A18095892305
:104B600082A3789400C0E5E5F1E0512C31E0219179
:104B70002F3F89F0A22FA295AF70B0E090968C9154
:104B800090E02F7002C0959587952A95E2F780FDF9
:104B900002C0832F01C080E0582A330F8E169F0673
:104BA00031F7D8018C918F3F11F00E949323B0EA26
:104BB000BA95F1F7F60150820F5F1F4FFFEFCF1A42
:104BC000DF0A6016710609F0B2CF48E050E0B70185
:104BD00086ED91E00E94C135892B99F088E0F701BC
:104BE000A6EDB1E001900D928A95E1F781E0809306
:104BF000CE040E94F9299093CD048093CC04F12C2B
:104C000027C08091CE048823D1F30091DF018091E9
:104C1000CC049091CD040E94DE29059780F310E02A
:104C2000015E1D4F44E050E066ED71E0C8010E9456
:104C3000C135892B09F41BC184E0E6EDF1E0D80110
:104C400001900D928A95E1F7FF24F3941092CE041F
:104C50008091F605E091DF01882309F481C019866F
:104C60001A861B861C860E2F10E0015E1D4F809158
:104C700002058A3058F448EE52E2BE01675F7F4F6A
:104C8000C8010E9419228823E9F10AC08091CF044B
:104C90009091D0040E94DE29843F914060F743C088
:104CA0004CEC52E2BE01675F7F4FC8010E9419229F
:104CB000882341F144EC53E2BE01675F7F4FC80196
:104CC0000E9419228823F1F04EE952E2BE01675F8B
:104CD0007F4FC8010E9419228823A1F0109202057B
:104CE0008091DE0190E044E050E0BE01675F7F4FBD
:104CF000815E9D4F0E94C13521E02093D504892B10
:104D000001F5AFC0809102058F3F19F08F5F80934E
:104D10000205809102058A3018F30E94F9299093C8
:104D2000D0048093CF048091D504882309F499C0DE
:104D3000FE01399684E0DF011D928A95E9F7109211
:104D4000D504E091DE01F0E0E15EFD4F89859A85B2
:104D5000AB85BC8580839183A283B38381E082C0CD
:104D60000091DE0110E0015E1D4FF0E0E15EFD4FBD
:104D700084E0A3EEB4E001900D928A95E1F783EE12
:104D800094E00E94821C8093E20484E0E7EEF4E069
:104D9000D80101900D928A95E1F78090EB049090F4
:104DA000EC04A090ED04B090EE048091D1049091B9
:104DB000D204A091D304B091D40488169906AA060F
:104DC000BB06B1F08092D1049092D204A092D30499
:104DD000B092D4040E94ED29861A970AA80AB90A4B
:104DE0008092D2019092D301A092D401B092D501C9
:104DF0008091EF04982F917086958695E090F0044D
:104E0000D090F104C090F2040091F8041091F904DC
:104E10001092F904112329F110FF0DC0992349F0D4
:104E20009091D80591609093D80560E00E94DA2FA8
:104E300002C00E94CB2F11FF06C020E04C2D6D2D2B
:104E40008E2D0E94EC2E12FF07C0002319F00E9445
:104E5000732D02C00E946C2D13FF03C081E080936C
:104E60002E0580E08F292C96EFE00C947634F12CFF
:104E7000EDCE8091A90208950895539A2BB1277F12
:104E80003BB138604FB7F894FC01CB01880F991FF4
:104E9000680F791F6E0F7F1FE617F70789F0819162
:104EA00098E03BB9000000C087FF2BB9880F0000D5
:104EB00000C000C000C02BB900C09A9591F7ECCF9C
:104EC0004FBF8FE594E00197F1F700C0000008950F
:104ED000A0E0B0E0EEE6F7E20C945D348C01FC015A
:104EE0004481C42FD0E09E01DE010E9454359B0115
:104EF000AC010E946A356B017C01E0E2F0E0EC1B42
:104F0000FD0BA5E5B0E09B01AC010E946A354B01A9
:104F10005C019F01DF010E944C359B01AC010E94A6
:104F200075359B01AC012C0D3D1D4E1D5F1DC5014E
:104F3000B4010E941D35C22FD22F2A3228F4F3E08B
:104F40002F9F900111240DC025E530E02C1B310965
:104F5000C901880F991F280F391F37FF02C02F5F23
:104F60003F4F35952795C22FC095F12C85E5E82E4A
:104F7000ED1A80915001F816E0F4F1FC02C08E2D7C
:104F800001C08D2F90914E012F2D30E0290F311D42
:104F9000A901440F551F240F351F2A5C3A4F4C2F8F
:104FA000C93708F048E76091DA050E94452EF3946E
:104FB000E0CF0E948F2DF8018481811102C091E021
:104FC00003C0803219F49FEF90934B0190914B01F5
:104FD000890FF8018483CDB7DEB7ECE00C94793407
:104FE0001F93CF93DF93EC018C81811109C081E085
:104FF0008C831092350592E090934A018093490189
:1050000080914E0190914F01891770F4E82FF0E0E4
:105010009F01220F331FE20FF31FEA5CFA4F118248
:10502000108212828F5FF0CF10E06091500116174E
:10503000D8F5E12FF0E070E0CF010E940935209112
:105040004E01820F20913505022E000C330B90E0AB
:10505000E217F307E4F020914A01022E000C330B13
:105060002E173F07A4F09C01220F331F820F931FBE
:105070009C012A5C3A4F4091DB05493708F048E72C
:105080006091DA058091D9050E94452E0BC0FC0184
:10509000EE0FFF1F8E0F9F1FFC01EA5CFA4F11827B
:1050A000108212821F5FC1CF0E948F2D8091490113
:1050B00020913505280F2093350590914A01980FCE
:1050C00090934A0119165CF4022E000C330B4091A8
:1050D000500150E0415051092417350734F08195B3
:1050E00080934901813009F41C82DF91CF911F9197
:1050F0000895A0E0B0E0EFE7F8E20C945C34EC0136
:105100008A8180FF03C0BB24BA9402C0BB24B3943D
:105110008C8181110DC081E0B81206C080915001D0
:1051200081508093340502C01092340581E08C8355
:10513000A12C46E3742E80905001A81408F044C0BE
:1051400080914E01CA2CD12C8601080F111DC80177
:10515000880F991F080F191F0A5C1A4FF801118256
:105160001082128234E0E32EF12C912C80913405D0
:10517000890D87332CF0672D0E94FB34892F02C0E4
:1051800087FD880D082E000C990BC816D906A9F4C6
:105190008091DB058E9DA0018F9D500D11245595AA
:1051A000479555954795493708F048E7980160912C
:1051B000DA058091D9050E94452E9B0CF1E0EF1A8B
:1051C000F108A1F6A394B7CF0E948F2D80913405EA
:1051D00091E0B9120EC0811107C080915001815039
:1051E000809334051C820FC0815080933405BC82AB
:1051F0000AC090E001966091500170E00E9409356C
:10520000809334058C83CDB7DEB7EDE00C94783411
:10521000FF920F931F93CF93DF93EC01F12C0FEFCD
:1052200010E060915001F61608F580914E012F2D87
:1052300030E0280F311DC901880F991F280F391F31
:105240002A5C3A4F4091DB05493708F048E770E0A7
:10525000C8010E940935962F8C816091DA05F99E6C
:10526000800D11240E94452EF394DBCF0E948F2DD8
:105270009A818C8190FF02C08F5F01C081508C8326
:10528000CDB7DEB7E5E00C948034CF93DF93EC012B
:10529000E8EDF5E0438162818C810E94D12E8C8102
:1052A0008F5F8C83DF91CF910895CF93DF93EC01D3
:1052B000EC81F0E0EA50F64F4491E8EDF5E06281D0
:1052C00081810E94D12E8C818F5F8C83DF91CF9161
:1052D00008950F931F93CF93DF938B01EA01909171
:1052E000B402943079F58F708093E9008FEF90913C
:1052F000E800815095FD06C095ED9A95F1F7000004
:105300008111F5CF8091E80085FF1CC00E94F92033
:10531000882361F08091E8008E778093E80012C0C6
:10532000F80181918F018093F1002197209791F3EB
:105330008091E80085FDF4CF8091E8008E7780931E
:10534000E800E4CFDF91CF911F910F91089587E797
:1053500097E790930108809300089AE088E10FB6E0
:10536000F894A895809360000FBE90936000FFCFE3
:1053700078941F920F920FB60F9211248F939F93E0
:10538000AF93BF938091010690910206A09103060E
:10539000B09104060196A11DB11D80930106909362
:1053A0000206A0930306B0930406BF91AF919F91AC
:1053B0008F910F900FBE0F901F9018959C014FB7C3
:1053C000F8948091010690910206A0910306B09195
:1053D00004064FBF821B930B08952FB7F89460917A
:1053E00001067091020680910306909104062FBF7A
:1053F00008952FB7F8948091010690910206A0912C
:105400000306B09104062FBF08951F920F920FB6A6
:105410000F9211248F939F93AF93BF9380910006B7
:10542000811113C08091010690910206A09103069C
:10543000B09104064196A11DB11D80930106909381
:105440000206A0930306B0930406BF91AF919F910B
:105450008F910F900FBE0F901F901895909115018E
:10546000992321F09091FE0597FD03C0E3E0F5E05C
:105470001DC0E82FE695E695E695EE31E0F4F0E004
:10548000E55FFA4F877021E030E0A90102C0440FC8
:10549000551F8A95E2F7CA018095928189238283FC
:1054A0000895319655E0E930F50729F09281891386
:1054B000F8CF1282F6CF0895909115019923D1F07B
:1054C0009091FE0597FF16C0E82FE695E695E695C4
:1054D000EE3140F5F0E0E55FFA4F877021E030E013
:1054E000A90102C0440F551F8A95E2F7CA019281B3
:1054F000892B16C0A5E0B5E0EFEF90E02D91821763
:1055000089F0EF3F19F4211101C0E92F9F5F963018
:10551000A9F7EF3F39F00E2E000CFF0BED5FFA4FAD
:10552000828308950895A3E0B0E0E9E9FAE20C94DB
:1055300067342091FC053091FD0528173907A1F04B
:105540009093FD058093FC05E091FA05F091FB0531
:10555000309751F024E029839B838A830084F1856E
:10556000E02DCE01019609952396E2E00C94833458
:10557000A3E0B0E0EEEBFAE20C9467342091F8057A
:105580003091F90528173907A1F09093F905809318
:10559000F805E091FA05F091FB05309751F023E012
:1055A00029839B838A830084F185E02DCE010196B7
:1055B00009952396E2E00C9483348091F6058823C4
:1055C00059F0E091FA05F091FB05309729F0019030
:1055D000F081E02D0995089580E0089588E290E03B
:1055E0000E94BB340895CF93C82F811102C06FEF82
:1055F00001C064E285E290E00E94BB34C11102C0A8
:105600006FEF01C069E086E290E00E94BB34C111F7
:1056100002C06FEF01C062E187E290E00E94BB34FC
:10562000CF91089585E290E00E949734843281F40E
:1056300086E290E00E949734893051F487E290E04E
:105640000E94973491E0823109F090E0892F01C0E7
:1056500080E0817008950F931F93CF93DF93C42F41
:10566000D22FFC0185818823B1F04093F5050E947B
:10567000F9299093F4058093F30580E28C0F88302C
:1056800008F068C0C77081E001C0880FCA95EAF7CA
:105690000E945F195FC08091F50548133DC080915D
:1056A000F3059091F4050E94DE29883C9105A0F550
:1056B00010E21D0FCD17E9F080E28C0F883040F426
:1056C000C77081E001C0880FCA95EAF70E94581997
:1056D000183078F581E09D2F977001C0880F9A955A
:1056E000EAF70E945F19093351F560E570E089E33C
:1056F00029C0093319F460E570E002C060E070E091
:10570000802F0E94FC1A183028F5D77081E001C064
:10571000880FDA95EAF70AC080E28C0F8830D0F45F
:10572000C77081E001C0880FCA95EAF70E94581936
:1057300011C0093351F460E570E089E309C060E00D
:1057400070E0802F0E94FC1AE0CF60E070E0802FB4
:105750000E94FC1ADF91CF911F910F9108950E9432
:10576000F9292091EF05211104C02091F005222391
:1057700021F09093EC058093EB052091F105211128
:1057800004C02091F205222321F09093EA05809332
:10579000E905E091FA05F091FB05309749F082E0C8
:1057A0008093ED050680F781E02D8DEE95E009955B
:1057B00008958091E80580FD16C081FD16C082FD28
:1057C00018C08091E705882391F0883290F428E092
:1057D000829FC001112468E270E00E940935862F83
:1057E000672B29F007C082E0089584E0089581E0E6
:1057F000089588E008958091E80580FD14C081FD3A
:1058000014C082FD16C08091E605882381F08E3198
:1058100080F420E5829FC00111246EE170E00E94B7
:105820000935862F089584E1089588E2089588E077
:10583000089580E50895282F35EB2303C001112436
:1058400097FF03C08058910902C080589F4F892F4D
:105850000895CF93DF93C9EAD1E060E0CE010E94C2
:10586000BB342196C11584E0D807B9F7DF91CF91F9
:1058700008951F93CF93DF93962F8430E8F4683018
:10588000D8F44630C8F4632F122FC42FD0E0CC0FC9
:10589000DD1F2CE0929FC00DD11D112490E6899F41
:1058A000C00DD11D1124CE0189960E94BB34612FF9
:1058B000CE018A960E94BB34DF91CF911F9108954B
:1058C000A0E0B0E0E6E6FCE20C945F34A12CE12C11
:1058D000F12CB12C00E010E0C0E0D0E06701C00E78
:1058E000D11EFE01EE0FFF1FEC0DFD1DE650F54F22
:1058F000259134914C2F6B2D8A2D0E94392C2196A5
:10590000C630D10571F7045F1F4FB39488E0B81219
:10591000E3CF80E6E80EF11CA39484E0A812D9CF6F
:10592000CDB7DEB7EAE00C947B3480E00E94F32A26
:1059300060E070E0CB010E94EE2A0E94602C0E9481
:10594000292C81E00E94F32A08950F931F93CF938F
:10595000DF93843008F56830F8F44630E8F4C42F5B
:10596000D0E0CC0FDD1F2CE0629FC00DD11D1124B3
:1059700030E6839FC00DD11D1124CE0189960E946F
:10598000973490E0182F0027CE018A960E94973412
:105990009801282BC90102C080E090E0DF91CF91EF
:1059A0001F910F910895CF93E82F2091C704309154
:1059B000C804215C32404091BE02642F70E0C901EE
:1059C0000E944334481B842FEE2351F066E00E946E
:1059D000EF34C82FC150A8F080E20E94EF1BFACF2D
:1059E000A901480F511D4115524018F080E020E0F8
:1059F00030E0280F311D2F533D4F3093C8042093C2
:105A0000C704CF910895AB0124E630E0BC0188E7DC
:105A10000E94ED3121E0892B09F020E0822F0895CA
:105A20008091E5059091E405882389F0992369F038
:105A300062E070E088EF9AE00E94032D811103C0BC
:105A40008091E40508951092E4059091E40581E0C9
:105A5000892708958091E5058823F9F00E94ED29B2
:105A6000DC01CB01805A9541AF4FBF4F8093E005D9
:105A70009093E105A093E205B093E3058091E405DE
:105A800081110BC062E070E086EF9AE00E94032D66
:105A9000882319F081E08093E4058091E40508955E
:105AA0009091D80590FF05C096959695981748F067
:105AB00003C0811106C090E0961718F40E942F30A1
:105AC000089561E00E94DA2F0895882311F0FA0109
:105AD00001C0FB0109950895E1E3F5E0118282819F
