:100000000C94C0060C94DD060C94DD060C94FD32B5
:100010000C94DD060C94DD060C94DD060C94DD06D4
:100020000C94DD060C94DD060C94841A0C94C6190D
:100030000C94E0290C94DD060C94DD060C94DD068E
:100040000C94DD060C94DD060C94DD060C94DD06A4
:100050000C94DD060C9493290C94DD060C94DD06BB
:100060000C94DD060C94DD060C94DD060C94DD0684
:100070000C94DD060C94DD060C94DD060C94DD0674
:100080000C94DD060C94DD060C94DD060C94DD0664
:100090000C94DD060C94DD060C94DD060C94DD0654
:1000A0000C94DD060C94DD060C94DD069C0D9F0D72
:1000B000D20DEF0DF60D010E040E040E040E1D0FF1
:1000C0001D0F890E8C0E910EB50ED60ED90EDC0EBC
:1000D000FE0E5711CB115F1129112D116311301133
:1000E000661171113B11C1113F1175114311791145
:1000F000A31147117D11AD114D1183118D113411D3
:100100006A1137116D11521188119911B911BB1172
:1001100025115B11D411F411FA11E710EE11001240
:1001200006120C1243126C12711276127B1280129C
:1001300085128A128F1294129912A012A312A6127B
:10014000A912AC12AF12B212B712EF10EF103F1398
:100150003F1372137213F1130F14101510151414AA
:10016000881499149914DE170518AE190518AE19DC
:1001700051187418AE196919791900DA0281FFD97A
:10018000F1DB20A4A62EAF00A0C0D30000A1C8D3ED
:100190000000AED580A81F408D1420007F3F1F6453
:1001A0003214643214783C1E1E140A05556E6465C0
:1001B000660041646A757374005261697365004C2E
:1001C0006F7765720044656661756C74004C617987
:1001D00065723A20003A002C206B00780080818202
:1001E000838485868788898A8B8C8D8E8F90919267
:1001F0009394A0A1A2A3A4A5A6A7A8A9AAABACADBD
:10020000AEAFB0B1B2B3B4C0C1C2C3C4C5C6C7C833
:10021000C9CACBCCCDCECFD0D1D2D3D40000000030
:1002200000000000000000000000000000000000CE
:1002300000000000000000000000000000000000BE
:10024000007E0F00D4FFFFFFC70000007800000011
:1002500000000000002A2B28000000000000000021
:10026000000000000000000029000000002C1E34E7
:1002700020212224342627252E362D3738271E1FED
:10028000202122232425263333362E37381F040518
:10029000060708090A0B0C0D0E0F10111213141586
:1002A000161718191A1B1C1D2F3130232D35040564
:1002B000060708090A0B0C0D0E0F10111213141566
:1002C000161718191A1B1C1D2F3130354C202020F1
:1002D000206162636465666768696A6B6C6D6E6FE6
:1002E000707172737475767778797A313233343508
:1002F0003637383930524542545F2D3D5B5D5C23C3
:100300003B27602C2E2F20202005010902A101850A
:10031000020901A100050919012908150025019507
:1003200008750181020501093009311581257F9584
:10033000027508810609381581257F9501750881A8
:1003400006050C0A38021581257F9501750881067E
:10035000C0C005010980A101850319012AB7001554
:100360000126B700950175108100C0050C0901A197
:1003700001850419012AA002150126A00295017524
:10038000108100C005010906A1018506050719E0D5
:1003900029E7150025019508750181020507190057
:1003A00029EF1500250195F0750181020508190155
:1003B0002905950575019102950175039101C00606
:1003C00060FF0961A1010962150026FF00952075F3
:1003D0000881020963150026FF0095207508910227
:1003E000C005010906A101050719E029E715002547
:1003F00001950875018102950175088101050719AC
:100400000029FF150026FF009506750881000508E4
:100410001901290515002501950575019102950120
:1004200075039101C009025B00030100A0FA0904F1
:100430000000010301010009211101000122440013
:100440000705810308000109040100020300000000
:100450000921110100012222000705820320000169
:100460000705030320000109040200010300000046
:1004700009211101000122B60007058403200001B3
:1004800012010002000000085346010001000102B1
:1004900000010C0343006F0072006E006500000055
:1004A000100366006F006F007300740061006E003F
:1004B0000000040309040000000000003E5B4F5BE5
:1004C0003E003E6B4F6B3E001C3E7C3E1C00183CC9
:1004D0007E3C18001C577D571C001C5E7F5E1C0074
:1004E00000183C180000FFE7C3E7FF0000182418BD
:1004F0000000FFE7DBE7FF0030483A060E00262940
:1005000079292600407F05050700407F05253F002B
:100510005A3CE73C5A007F3E1C1C0800081C1C3E4D
:100520007F0014227F2214005F5F005F5F000609D6
:100530007F017F00006689956A00606060606000EE
:1005400094A2FFA2940008047E04080010207E20DC
:10055000100008082A1C0800081C2A0808001E10A1
:10056000101010000C1E0C1E0C0030383E383000ED
:10057000060E3E0E060000000000000000005F00B6
:100580000000000700070000147F147F1400242AD5
:100590007F2A120023130864620036495620500057
:1005A000000807030000001C224100000041221C3B
:1005B00000002A1C7F1C2A0008083E080800008052
:1005C00070300000080808080800000060600000A3
:1005D0002010080402003E5149453E0000427F4081
:1005E00000007249494946002141494D3300181421
:1005F000127F10002745454539003C4A49493100E2
:10060000412111090700364949493600464949291F
:100610001E0000001400000000403400000000082C
:100620001422410014141414140000412214080070
:100630000201590906003E415D594E007C1211121B
:100640007C007F49494936003E41414122007F41BB
:1006500041413E007F49494941007F0909090100A4
:100660003E41415173007F0808087F0000417F41EF
:1006700000002040413F01007F08142241007F40DC
:10068000404040007F021C027F007F0408107F0072
:100690003E4141413E007F09090906003E4151218A
:1006A0005E007F09192946002649494932000301A5
:1006B0007F0103003F4040403F001F2040201F00BB
:1006C0003F4038403F00631408146300030478047B
:1006D00003006159494D4300007F4141410002043C
:1006E00008102000004141417F0004020102040083
:1006F0004040404040000003070800002054547868
:1007000040007F284444380038444444280038449A
:1007100044287F0038545454180000087E09020011
:100720001824241C78007F080404780000447D40CD
:1007300000002040403D00007F10284400000041A0
:100740007F4000007C04780478007C080404780072
:100750003844444438007C182424180018242418F1
:100760007C007C0804040800485454542400040409
:100770003F4424003C4040207C001C2040201C00C2
:100780003C4030403C004428102844004C9090905D
:100790007C004464544C44000008364100000000D2
:1007A0007700000000413608000002010204020048
:1007B0003C2623263C000000000000000000000052
:1007C000000000000000C0E0F0F8F81800C0F0FCE5
:1007D000FEFFFFFFFFFFFFFF7E00000000000000A4
:1007E000000080C0E0E0E0E0E0E0E0E0C080000089
:1007F000000080C0E0E0E0E0E0E0E0E0C080000079
:1008000000E0E0C0C0E0E0E0E00000E0E0C0C0E008
:10081000E0E0E0E0C0800000000080C0E0E0E0E058
:10082000E0E0E0E0C0800000000000000000000008
:1008300000000000E0F0F0F0E0ECEEF7F3702000D4
:100840007C7C7C7E007E7E7E7F7F7F000080C0E09F
:100850007E5B4F5BFEC00000C000DCD7DEDEDED773
:10086000DC00C000000000000000000000000000EC
:10087000000000000000000000000000000000F880
:10088000FCFEFFE000FFFFFFFFFFFF80FFFFFFFF19
:10089000FFFFFFFFFF1F0701000000000000000036
:1008A00000FFFFFF8100000000000081C3C3C30000
:1008B00000FFFFFF8100000000000081FFFFFF003C
:1008C00000FFFFFF01000000000000FFFFFF01002C
:1008D00000000001FFFFFF0000FFFFFF9D1C1C1C2C
:1008E0001C1C1C9DDFDFDF0000000000000000007A
:1008F000000000000F1F3F7F7F7F7F7F3F1E0C00A7
:100900001F1F1F3F003F3F3F7F7F7F00307B7F786F
:1009100030202030787F3B0003000F7F0F0F0F7FC8
:100920000F000300000000000000000000000000B5
:1009300000000000000000000000000000000003B4
:100940000F1F3F3F3F3F1F1F3F3F7F7F7F3F3F1FA7
:100950003F7F7F7F7F7C7878381C0F00000000008D
:100960000000010307070707070707070301000047
:100970000000010307070707070707070301000037
:10098000000707070000000000000007070700003D
:100990000000000007070700000001030707070722
:1009A0000707070703010000000000000000000027
:1009B0000000000000000000000000000000000037
:1009C0000000000000000000000000000000000027
:1009D0000000000000000000000000000000000017
:1009E0000000000000000000000000000000000007
:1009F0000000000000002223252628292A2C2D2F64
:100A00003032333536383A3B3D3E40424345474924
:100A10004A4C4E5051535557595A5C5E6062646659
:100A200068696B6D6F71737577797B7D7F81838565
:100A300087898A8C8E90929496989A9C9E9FA1A367
:100A4000A5A7A8AAACAEAFB1B3B4B6B8B9BBBCBE8B
:100A5000BFC1C2C3C5C6C7C9CACBCCCDCED0D1D207
:100A6000D2D3D4D5D6D7D7D8D9D9DADADBDBDBDC09
:100A7000DCDCDCDCDDDDDDDDDCDCDCDCDCDBDBDBB5
:100A8000DADAD9D9D8D7D7D6D5D4D3D2D2D1D0CE15
:100A9000CDCCCBCAC9C7C6C5C3C2C1BFBEBCBBB91A
:100AA000B8B6B4B3B1AFAEACAAA8A7A5A3A19F9E98
:100AB0009C9A98969492908E8C8A89878583817F60
:100AC0007D7B79777573716F6D6B69686664626041
:100AD0005E5C5A5957555351504E4C4A494745430D
:100AE00042403E3D3B3A3836353332302F2D2C2AAA
:100AF00029282625232200AF00AE000014001A008A
:100B000008001500170000000428162407220921F8
:100B10000A0000001D001B0006001900050000006F
:100B20000000000029004C412A00000013001200C0
:100B30000C0018001C00000033280F240E220D2189
:100B40000B000000380037003600100011000000D4
:100B50000000000028002B422C4300001E001F0054
:100B6000200021002200000035282E242F223021D1
:100B700034000000000049001D140F141A14000076
:100B80000000000001000100010000002700260015
:100B900025002400230000002D284F24522251213B
:100BA0005000000031004D004B004E004A00000094
:100BB0000000000001000100010000001E021F02F1
:100BC000200221022202000035022E022F023002F2
:100BD00034020000000000000000000000000000DF
:100BE00000000000010001000100000027022602B1
:100BF00025022402230200002D024F005200510062
:100C00005000000031020000000000000000000061
:100C10000000000001000100010000003A003B005C
:100C20003C003D00207800003E283F244022412126
:100C30002778000042004300440045002878000067
:100C4000000000000100010001000000A800650094
:100C5000D200D10046000000A900D000CD00CE0097
:100C6000CF000000AA00DC00D900DA00DB000000A1
:100C7000000000000100010001000001010101016C
:100C80000101010102020202020202020203030345
:100C90000303030303040404040404040505050515
:100CA00005060606060607070707070808080809D5
:100CB0000909090A0A0A0B0B0B0C0C0C0D0D0D0E81
:100CC0000E0E0F0F0F101011111112121313141416
:100CD000151516161717181819191A1A1B1B1C1D8B
:100CE0001D1E1E1F202021222223242425262627E4
:100CF0002829292A2B2C2D2D2E2F30313232333416
:100D000035363738393A3B3C3D3E3F40414243441B
:100D100045464748494A4C4D4E4F505153545556FD
:100D200058595A5B5D5E5F616264656668696B6CA9
:100D30006D6F7072737577787A7B7D7E8082838524
:100D400087888A8C8E8F91939596989A9C9EA0A264
:100D5000A3A5A7A9ABADAFB1B3B5B7BABCBEC0C26E
:100D6000C4C6C9CBCDCFD1D4D6D8DBDDDFE2E4E732
:100D7000E9EBEEF0F3F5F8FAFDFFFFAA7F5540002E
:100D800011241FBECFEFDAE0DEBFCDBF11E0A0E03F
:100D9000B1E0E8E6FBE602C005900D92A03DB10788
:100DA000D9F726E0A0EDB1E001C01D92A530B20751
:100DB000E1F70E94DF060C94B2350C940000A8E223
:100DC000B0E0E5EEF6E00C94323485B7806885BF7C
:100DD00085B7806885BF84B7877F84BF0FB6F894D6
:100DE000A8958091600088618093600010926000F7
:100DF0000FBE90E080E80FB6F89480936100909366
:100E000061000FBE86E091E29093D1018093D00102
:100E10000E940A1A0E94291A8091E200846080933D
:100E2000E2007894809136028823A1F01091E900C5
:100E30001F709091EC00892F817090FD80E8182B35
:100E40001092E9008091E80083FD0E94FB161F705C
:100E50001093E90082E084BD93E095BD9AEF97BDC1
:100E600080936E001092D2011092D3011092D4019F
:100E70001092D5010E94ED2A811102C00E94702CAF
:100E80008091D80080618093D8002AE12A95F1F7FB
:100E900000C08091D900182F117080FD04C00E94FD
:100EA0000A1A109236021093F6051093F705109364
:100EB0000001112341F010924C018BE180934D0110
:100EC0000E94B83205C08BE180934C0180934D01A4
:100ED0008091000180910001882311F090E001C011
:100EE00094E09093DF0184E0891B8093DE0101E5AB
:100EF00011E0D8018D918D018F3F11F00E946D237B
:100F0000B1E005351B07A9F705E511E06BE5E62E15
:100F100061E0F62EF80181918F018F3F11F00E9460
:100F20006D23E016F106B1F788E0EFE1F2E0DF01B2
:100F3000282F1D922A95E9F7E6EDF1E0DF011D92D9
:100F40008A95E9F780E090E00E948034853E9E4FCC
:100F500021F40E94ED2A811163C065EE7EEF80E0EE
:100F600090E00E94B43460E082E090E00E94963409
:100F700081E08093E00161E083E090E00E9496349C
:100F800060E074E184E090E00E94B43460E086E0C8
:100F900090E00E94963460E087E090E00E949634F2
:100FA00040E050E0BA0188E090E00E94A83460E0A0
:100FB00083E290E00E94963460E08CE090E00E9432
:100FC000963460E08DE090E00E94963419821A8297
:100FD0001B821C821D821E821F82188648E050E000
:100FE00067E170E0CE0101960E94863440E050E057
:100FF000BA018FE190E00E94A83480E00E94CE2ADE
:101000000E94702C40E050E0BA018FE090E00E9416
:10101000A83440E050E0BA0183E190E00E94A83497
:1010200082E090E00E9472348093E20184E090E0DC
:101030000E9480349093FF058093FE050E94542502
:10104000EFEFF6E721E0E150F0402040E1F700C08B
:1010500000000E9454258091F705882311F0E0E0FC
:1010600001C0E4E0F0E0E15EFD4F808181FF08C057
:101070006FEF7FEF80E090E00E94B4340E948229FD
:1010800083E090E00E9472340E942A1F8091F6054E
:10109000811102C082E001C080E080931A0280E8E2
:1010A000809340020E9448316BE070E081E991E05A
:1010B0000E94DE2C882309F443C080911A0265E067
:1010C00070E081FD3AC08CE891E00E94DE2C88231C
:1010D000B9F16DE070E08AE791E00E94DE2C882390
:1010E00079F10E94C829DC01CB01805A9541AF4FAC
:1010F000BF4F8093E0059093E105A093E205B09384
:10110000E305E3E4F2E080E092E0DF019C011D9260
:1011100021503040E1F7F0934A04E09349048FEF07
:101120009FEF909342028093410281E08093E50516
:101130008093E40510921B0203C087E891E0C5CFBD
:101140008091E101811185C088E090E00E947A34AD
:101150004B015C0183E290E00E947234282F30E062
:1011600040E050E060E070E080E090E000E20E944B
:101170005835282939294A295B292093D8053093E5
:10118000D9054093DA055093DB056093DC05709335
:10119000DD058093DE059093DF05309133053360E4
:1011A000309333052C7F09F042C025E02093D80509
:1011B0001092D9053FEF3093DA0538E73093DB051D
:1011C0001092DC0530E04FEF58E760E00E94C62D3A
:1011D00088E090E00E947A346B017C0183E290E029
:1011E0000E947234282F30E040E050E060E070E070
:1011F00080E090E00E945835B22FA32FF42FE52F06
:101200005B0197018601BC29A12BF22BE32BB09344
:10121000D805A093D905F093DA05E093DB05609338
:10122000DC05B092DD058093DE059093DF050E941A
:10123000AB2D0E94472D0E9416278091D80580FF74
:1012400005C060E0869586950E94B52F81E0809369
:10125000E1018091F605811102C00E94BB3281E05C
:1012600091E09093FB058093FA05BB24B394BE01F3
:101270006F5F7F4F7B0180913602853009F040C05F
:1012800010E402E180913602853009F035C080918A
:101290003602843029F10E94EB2C1092000688E17E
:1012A00090E00FB6F894A895809360000FBE10935D
:1012B000600083B7817F846083BF83B7816083BF11
:1012C0007894889583B78E7F83BF0FB6F894A895DE
:1012D00080916000886180936000109260000FBE72
:1012E0000E945425EFE1F2E081918111AFC592E0B7
:1012F000E732F907C9F7C6CF0E942D1F0E94B82A0E
:101300000E94542543EEC42E41E0D42E5FE1852E89
:1013100052E0952E2BEE31E0D401F60191918D91A2
:1013200089272E173F0719F08823C1F306C08111C2
:1013300004C00E943025A12C37C05090F60510E063
:10134000F40161904F01D6017C90762419F100E000
:10135000AA24A394872D8A21B9F05520A9F009A3C6
:101360001AA30E94D4299CA38BA3B1E0BDA391E052
:10137000862D8A2109F490E09EA349A15AA16BA170
:101380007CA18DA10E944F300F5FAA0C063011F78F
:10139000F60160821F5FFFEFCF1ADF0A183081F677
:1013A0000E948423AA24A39480913205882309F4FF
:1013B000A9C080913105E091D805E695E695E81B36
:1013C000E0932D05823059F4F0E0E855FE4FE491AA
:1013D0000E2F10E030E3C32E39E2D32E45C0863005
:1013E00059F4F0E0EB55FE4FE4910E2F10E020E2AF
:1013F000C22E29E2D22E38C0893061F4E695F0E0A1
:10140000EE55FE4FE4910E2F10E093EEC92E98E2B8
:10141000D92E2AC08F3061F4E695F0E0E156FE4FF8
:10142000E4910E2F10E084E5C82E88E2D82E1CC06F
:10143000853159F4F0E0E456FE4FE4910E2F10E0B0
:10144000BBECCB2EB7E2DB2E0FC0883139F000EDBC
:1014500017E0A8E1CA2EA7E2DA2E06C008E210E0E3
:10146000F3E4CF2EF7E2DF2E80912E05882361F082
:1014700010922E050E94252590932C0580932B0514
:101480001092300510922F050E942525E0912B0522
:10149000F0912C059C012E1B3F0B2F3F3F4790F5F1
:1014A0002091ED012223B1F01092ED012091EB018A
:1014B0003091EC01821B930B8F3F9F4758F4205DC6
:1014C0003A483093EC012093EB018091330588601A
:1014D0008093330580902F05909030050E0F1F1FCD
:1014E00010932C0500932B058BE295E0F6010995EE
:1014F00080912F0590913005892B21F4892811F0D6
:10150000B092ED018091E505882309F4C2C1809174
:101510001C0290911D020E94B929C29708F4B1C023
:101520000E94D42990931D0280931C0283E492E0D0
:1015300090934A04809349048091F605882309F426
:101540009CC08DEC91E00E94D0168091EE010E942B
:101550001630813059F038F0823059F0833061F420
:1015600082EB91E00BC085EC91E008C08FEB91E03D
:1015700005C089EB91E002C08CEA91E00E94DE1682
:101580008091F901805D0E9451168BED91E00E94DF
:10159000D0168091F801805D0E94511687ED91E090
:1015A0000E94D0164090F6015090F70180910B01F7
:1015B00090910C014816590639F48091F50180325A
:1015C00019F48FEE91E03AC050920C0140920B0159
:1015D00080E28093F501612C712C1092F401E4EF0C
:1015E000CE2EE1E0DE2E00E010E0C301B2012AE0E1
:1015F00030E040E050E00E94F834605D603319F460
:101600000115110539F0411451046104710419F4F4
:1016100060E201C060E3D6016E936D01C301B201C7
:101620002AE030E040E050E00E94F83429013A011D
:101630000F5F1F4F05301105C1F6C3CF8C01019616
:10164000F80120812032D1F301900020E9F79F01B9
:101650002150310969010C151D0530F4D8018D9117
:101660008D010E945116F7CF85ED91E00E94D016B2
:1016700080910D010E94511604C08DED91E00E94F1
:10168000D0168091410290914202892B31F48091D1
:10169000E405882309F4FDC0E5C08091E5058823B1
:1016A000B1F380911B028111F2CF0E94052D209190
:1016B0004102309142022115310549F380E0482E64
:1016C000512C88248394912C082E02C0880C991CDC
:1016D0000A94E2F7A40142235323452B11F48F5FB0
:1016E000EECF90911A02920165E0220F331F6A95A6
:1016F000E1F790FF13C055E0369527955A95E1F72D
:10170000220F220F220F2093100110921301295F44
:101710002093110183E08093140111C0220F232F25
:10172000221F330B31958295880F807680931001AC
:1017300020931301815E809311012093140124E60C
:1017400030E047E050E06EE071E088E70E947D31D4
:10175000892B09F09CCF80911A0280FF62C080E241
:10176000EAEFF1E0DF011D928A95E9F735E0440CDC
:10177000551C3A95E1F7EFE5F1E0F8A7EFA34BE54B
:1017800051E0AFA1B8A58D91B8A7AFA3FA0191918F
:10179000AF019201290F311DB9016D5B7D4F3B01F6
:1017A00090E086509E4FFC0177E09F01281B390B8B
:1017B00001E001C0000F2A95EAF7130110E0D10102
:1017C0006D911D016023272F211B2770D22E022E21
:1017D000000C330BB62F01C0BB0FDA94EAF7DB2EF7
:1017E0003195219531092770332701C066952A95D7
:1017F000EAF7D62A6081D62AD0821F5F1830F9F620
:10180000715031967F3F89F6EFA1F8A5E356F1407C
:1018100009F0B7CF04E610E020E230E04AEF51E0F3
:101820000DC0C20125E0880F991F2A95E1F7AC0190
:101830004D5B5D4F04E610E020E230E060E488E7B5
:101840000E941432892B09F022CF809490948091C9
:101850004102909142028822992290924202809203
:10186000410215CF0E94C8290091E0051091E105C1
:101870002091E2053091E305DC01CB01801B910B47
:10188000A20BB30B8F3F9F4FAF4FBF4710F40E9487
:10189000EB2CA1100E94052D86E0EDEEF5E0D701BE
:1018A00001900D928A95E1F7A090EE051091EF0559
:1018B000C090F005D090F1050091F2051092EF056F
:1018C0001092F0051092F1051092F205111103C06B
:1018D000CC2009F44BC08091EB059091EC050E945F
:1018E000B9299C019091E605992309F4D4C22531C8
:1018F0003105E0F19F3F19F09F5F9093E6051123BA
:1019000061F00E94D62B111614F491E001C09FEFF4
:10191000899F802D11248093EF05CC2061F00E94D7
:10192000D62B1C1414F09FEF01C091E0899F802DED
:1019300011248093F0058091EF058823B9F09090F1
:10194000F005992099F00E94F62B882319F08093D6
:10195000EF0502C0B092EF05892D0E94F62B882377
:1019600019F08093F00502C0B092F005D11003C0C9
:10197000002309F44BC08091E9059091EA050E948B
:10198000B9299C019091E705992309F489C2213571
:101990003105E0F19F3F19F09F5F9093E705DD204F
:1019A00061F00E94B42B1D1414F491E001C09FEF6C
:1019B000899F802D11248093F105002361F00E94FE
:1019C000B42B101614F09FEF01C091E0899F802D79
:1019D00011248093F2058091F1058823B9F090904D
:1019E000F205992099F00E94F62B882319F0809334
:1019F000F10502C0B092F105892D0E94F62B8823D3
:101A000019F08093F20502C0B092F2058091EE05C4
:101A1000A8121AC08091EF05882311F0181314C082
:101A20008091F005882311F08C110EC08091F20591
:101A3000882311F0801308C09091F105992331F0AB
:101A400081E09D1104C002C081E001C080E080FD02
:101A500015C08091EF0581110FC08091F0058111B3
:101A60000BC08091F105811107C081E09091F205D2
:101A7000911103C080E001C081E080FD0E948A2BAB
:101A8000AA821B83CC82DD820E8386E0F701ADEE55
:101A9000B5E001900D928A95E1F70E94B82A9091E5
:101AA0001E02891721F080931E020E94C82980918E
:101AB0003602843009F0DFCB83E08093E900809127
:101AC000E80082FFD8CB8091E80085FF1FC00E940C
:101AD0005B1B811119C000E210E0670108C0809112
:101AE000F100D6018D936D010150110969F08091CB
:101AF000E80085FDF4CF8091E8008B778093E800C3
:101B00000E945B1B882399F391E001C090E08091D3
:101B1000E8008B778093E800992309F4ACCB298106
:101B2000822F90E0FC013197E331F10508F085C187
:101B3000EA5AFF4F0C941A351A828CE0F0C08A8161
:101B4000823009F49FC150F4813009F076C10E94BF
:101B5000C8299B838C837D836E8371C1833041F060
:101B6000843009F06AC11B821C821D821E8267C1FB
:101B70004B81DE01149680E090E0242F30E0B90123
:101B8000680F791F6830710508F059C1E42FE80F1C
:101B9000F0E0E15EFD4F50815D9301968C3191053F
:101BA00071F74DC18A81823019F0853051F045C1FD
:101BB0006B817C818D819E810E9420350E94C92A83
:101BC0003EC18091D80580FF03C00E94A62F37C177
:101BD00081608093D80560E08695869551C04C81E0
:101BE0006B818A810E94802C9D8353C12D813E810F
:101BF0003227232732274C816B818A810E94142C43
:101C00001EC10E943B2C1BC18A81823009F015C184
:101C1000283009F43FC0293009F468C08B81823034
:101C2000F9F098F4813009F00AC18C81B8E78B9FF4
:101C3000C00111246FEF70E00E941E34462F20E097
:101C40006091DA058091D90522C08330E1F08430BB
:101C500009F0F5C020E04091DB056D818C8117C053
:101C60008C81882309F4B1CF8091D805816080935D
:101C7000D80560E0869586950E94B52F60E08C813E
:101C80000E94B52FDCC08C818093DC05D8C00E94F7
:101C9000C72ED5C08B818230E1F078F4813009F015
:101CA000CEC08091DB05EFEF8E9FC001112468E765
:101CB00070E00E941E346C83C2C0833099F084307F
:101CC00009F0BDC08091D9058C838091DA058D83A0
:101CD000B6C08091D80580FF03C08695869504C064
:101CE00080E002C08091DC058C83A9C02091D805DA
:101CF0003091D9054091DA055091DB056091DC0502
:101D00007091DD058091DE059091DF050E94C62D62
:101D100096C0F0E1FA8393C082E08A8388E58B83E2
:101D20008EC00A811B811027012710278C80912CDF
:101D30006701C80188559E4F96012E193F09281545
:101D4000390508F07CC0083522E0120730F40E9403
:101D50007234D60114968C9302C0F60114820F5F80
:101D60001F4FFFEFCF1ADF0AE4CF0A811B81102734
:101D7000012710278C80912C6701C80188559E4F40
:101D800096012E193F092815390508F058C0083565
:101D900022E0120728F4D60114966C910E94963422
:101DA0000F5F1F4FBFEFCB1ADB0AE7CF0E94042C57
:101DB00046C084E08A8343C00A811B811027012723
:101DC00010278C80912C6701C801889696012E19E6
:101DD0003F092815390598F50038E1E01E0730F471
:101DE0000E947234D60114968C9302C0F6011482BC
:101DF0000F5F1F4FFFEFCF1ADF0AE6CF0A811B816B
:101E00001027012710278C80912C6701C801889624
:101E100096012E193F092815390588F4003821E06C
:101E2000120728F4D60114966C910E9496340F5F25
:101E30001F4FBFEFCB1ADB0AE9CF8FEF898340E258
:101E400050E0B70182E00E94442915CA8091350212
:101E5000882309F417CAA0E1A9BD09BD09B400FE91
:101E6000FDCF8091D8008F7D8093D8008091E000D5
:101E700082608093E0008091E00081FDFCCF0E94B1
:101E80002D1F00CA87E290E00E9472341B821C82E0
:101E90001D828E83D4CF2B30310508F02DCD66CD39
:101EA0002B30310508F078CDB1CDA8E0B0E0EBE5FE
:101EB000FFE00C943234FC018481882309F412C6BB
:101EC0007F0121E0408151816281738195810E946F
:101ED0002A308C01F7018581882309F470C1C8017B
:101EE00097578038910508F032C1003108F077C16A
:101EF0008FEF93E00E947234811171C138EAA32EF2
:101F0000BB24B394002379F0A114F4E0BF0609F4D4
:101F100066C1C5010E947234811101C001502FEFCA
:101F2000A21AB20AEFCFCE0101962C0188E0F2018D
:101F300011928A95E9F72AE0322E85010F5F1F4F33
:101F4000C5010E94723489831A82882309F447C12B
:101F5000813009F041C06501F2E0CF0ED11CC8010B
:101F60000E9472348A83882309F439C19FEF980F45
:101F7000933060F423E0A20EB11CC6010E947234BB
:101F80008B83882309F42BC11C8229C0843031F54E
:101F90004E0133E0830E911C02E010E056018FEFFA
:101FA000A81AB80AC6010E947234F40181934F0145
:101FB000882309F414C18C3741F4E2E0F0E0EC0F1F
:101FC000FD1FE00FF11F10820AC00F5F1F4F650158
:101FD0000730110519F703C1580101C056018201EC
:101FE000F8012081222309F4A8CF213009F053C041
:101FF0008181813081F46801F2E0CF0ED11CF801BB
:102000008281893319F460E570E002C060E070E01D
:102010000E94EE2015C0823049F46801F2E0CF0E34
:10202000D11CF80182810E947A200AC0833051F4C9
:102030006801F2E0CF0ED11CF80182810E94472096
:10204000860182C0843019F00F5F1F4F7DC0F801F8
:1020500022810E5F1F4F80E090E030E02053310975
:102060002A30310568F4389EA001399E500D1124A4
:10207000C901840F951F0F5F1F4FF8012081EDCF1D
:10208000009709F461C0EFE9FFE03197F1F700C074
:1020900000000197F5CFE22FF0E0E35BFD4F2490C5
:1020A000822F86958695869590E0FC01E35CFD4F36
:1020B00064902770712C022E02C0759467940A9464
:1020C000E2F7F1E06F227724FC01E35DFD4F84909D
:1020D000912C022E02C0959487940A94E2F731E085
:1020E00083229924FC01E35EFD4FC490D12C02C0F1
:1020F000D594C7942A95E2F781E0C822DD246114C3
:10210000710419F081EE0E947A208114910419F073
:1021100086EE0E947A2060E070E0822D0E94EE2020
:102120008114910419F086EE0E9447206114710415
:1021300019F081EE0E944720C114D10429F060E01B
:1021400070E08CE20E94EE200F5F1F4F49CFF70135
:1021500081818093F90180818093F80180E28093EE
:102160000D011093F7010093F601C80190528115FB
:10217000904228F4F7018681807F79F442C0C8013B
:1021800090548115904120F4F7018681807F29F4D5
:10219000C8019A9581159F4118F4F801FF2706C0E0
:1021A000C801805A9245809760F1F801ED33F1053E
:1021B00040F5E353FD4FE491E0930D0122C0F80197
:1021C000E851FC47E730F10508F03FC103C106E2E2
:1021D00021EE41EE6AE17CE7C7010E94062B809167
:1021E0009E04877009F47EC4F7018581882309F471
:1021F00079C48091FF0582FF75C482E00E94F01EC1
:1022000071C4F801E851FC47E730F10508F4E2C079
:102210001092F505C8019057839708F003C184E038
:1022200090E00E9480349093FF058093FE05F801B2
:10223000E150F047E232F10520F4E759FF4F0C94EA
:102240001A358091FE058160ACC08091FF058860E1
:10225000B4C08091FE058260A4C08091FE0520C0BC
:102260008091FE0588609DC08091FF051EC0809111
:10227000FF058260A2C08091FE05806192C08091BE
:10228000FE0580628EC08091FE0580648AC00E9437
:102290002D1F8091FE05806884C08091FE058860B6
:1022A00084607FC08091FF058260816086C08091DC
:1022B000FE058E7F76C08091FF05877F7EC080916E
:1022C000FE058D7F6EC08091FE0520C08091FE05C9
:1022D000877F67C08091FF051EC08091FF058D7FBD
:1022E0006CC08091FE058F7E5CC08091FE058F7D65
:1022F00058C08091FE058F7B54C00E942D1F809195
:10230000FE058F774EC08091FE05877F8B7F49C089
:102310008091FF058D7F8E7F50C08091FE0582FBEE
:10232000222720F991E0922790FB82F990FB83F914
:1023300038C08091FF05982F909591708E7F892BE2
:1023400090FB81F93AC08091FE0586FB222720F997
:1023500091E0922790FB86F924C00E942D1F809166
:10236000FE0587FB222720F991E0922790FB87F951
:1023700018C061E001C060E08EE090E00E949634F9
:102380001EC08091FE0584FB222720F991E0922750
:1023900090FB84F906C08091FE05982F909590FBE4
:1023A00080F98093FE050BC08091FF0583FB2227F7
:1023B00020F991E0922790FB83F98093FF056091CB
:1023C000FE057091FF0584E090E00E94B4340E9405
:1023D0002D1F05CFE557FF4F0C941A3507E225EE68
:1023E00045EE6BE17CE7F8CE06E221EE40EE68E1D7
:1023F0007CE7F2CE07E225EE44EE69E17CE7ECCE25
:1024000006E221EE42EE6CE17CE7E6CE07E225EE45
:1024100046EE6DE17CE7E0CE08E221E045EE6EE1BC
:102420007CE7DACE0631FCE71F0709F0B3C08091E4
:10243000C9048A7A91E009F490E09093270281110F
:1024400012C089E20E94372A0BC006312CE712071E
:1024500061F48091270281110BC389E20E94092A4D
:102460000E94D41BBCCE85E3EDCF8091C90482725B
:10247000F801E052F847E531F10508F07DC0EE566D
:10248000FF4F0C941A358091D80580FF1EC0282F6D
:102490002E7F2093D8053091D9054091DA055091CF
:1024A000DB056091DC057091DD058091DE05909182
:1024B000DF050E94C62D0E94472D80913305816063
:1024C000809333050E946A2D8ACE81608093D8055F
:1024D00061E08695869548C04FEF5FE26AE070E361
:1024E0002CC04AE050E36FEF7FE227C042E95FE291
:1024F0006CE97FE222C04CE95FE262E97FE21DC045
:1025000048E75FE265E87FE218C045E85FE268E718
:102510007FE213C04EE55FE26BE67FE20EC04BE662
:102520005FE26EE57FE209C04CEE5DE266E07EE2CE
:1025300004C046E05EE26CEE7DE20E94402D4FCE8C
:1025400061E081E011C065E082E013C068E086E0F0
:1025500010C06EE089E00DC064E18FE00AC067E161
:1025600085E107C061E088E10E94B52F38CE62E2C4
:1025700089E10E942B2D33CE0737FCE71F0711F4AA
:1025800081E005C008372CE7120719F582E00E94A8
:10259000E31E08C007373CE7130709F06BC281E070
:1025A0000E941E1F43E062E081E00E94C11E17CE20
:1025B00003302CE7120709F480C208F062C201154B
:1025C0008CE7180709F46BC201309CE7190709F47E
:1025D0007AC2F701858100811181882349F0C80101
:1025E0000E94891CD82E682FC8010E94891E04C031
:1025F000C8010E94551ED82EB8018D2D0E94F323CC
:102600000E940124D82E192FA82EF7010581C6801B
:10261000C2949FE0C92280919E04877001F100233B
:10262000F1F0812F807F803469F080E28D0D883059
:10263000B0F0812F807E803229F4F1E0FD1578F42E
:10264000CC2069F08091FF0582FF09C082E00E94E2
:10265000F01E80919E048770BB24B3948111B12C2D
:10266000912E92948FE09822892D90E08C309105E4
:1026700008F0D6C1FC01E955FF4F0C941A35812FA3
:10268000807F1F70882311F01295107F0023B9F00E
:10269000112309F4B3C180E28D0D883010F0A11030
:1026A00006C09091C904192B1093C90405C09091DC
:1026B000A004192B1093A0040E94D41B9FC18D2D40
:1026C0000E944720112309F4ABC180E28D0D8830B0
:1026D00088F1AA2079F110959091A0041923109304
:1026E000A0042BC0812F807F1F70803211F01295C3
:1026F000107F8D2DAA2029F021E0A21609F44CC0EC
:1027000057C08091FF0582FD1BC0002369F0112393
:1027100039F09091C904192B1093C9040E94D41B5D
:1027200080E00E947A207CC180E00E944720112333
:1027300009F476C1812F0E941E250E94D41B70C10E
:10274000002381F0CC20C1F131E0C31269C1909126
:102750009F04812F8923181709F462C1192B109344
:102760009F045EC1C1105CC1812F0E945E1F8091D9
:102770009F04912F982329F0912F9095892380937E
:102780009F0420912802812F822309F449C11095CA
:1027900021232093280244C1002329F085E08C15D1
:1027A00008F43EC109C094E09C1508F439C115C075
:1027B000002331F0C11022C1812F0E94651F30C15A
:1027C000CC2059F0893309F028C1EFEFF7EE23E070
:1027D000E150F0402040E1F71EC1812F0E945E1FB2
:1027E0001FC1812F86958695837019F0813061F025
:1027F00017C1002321F08D2D912F937002C080E02E
:1028000090E00E94932A12C1002321F08D2D912F78
:10281000937002C080E090E00E946E2A07C1602F92
:102820008D2D0E946F1F02C1812F8370A9F50111A8
:10283000FBC04D2D429546954770440F440F8D2D9A
:102840008F7090E09C01042E01C0220F0A94EAF7D9
:10285000D4FE08C08FE090E001C0880F4A95EAF7E7
:10286000809501C080E0169516951370123069F0BE
:1028700088F49091E001113019F0822B892302C075
:10288000922B892B0E942A1FCFC0822B9091E001AE
:102890008927F8CF822BF6CF002319F0812F817082
:1028A00001C08695882309F4BFC04D2D42954695F9
:1028B0004770440F440F8D2D8F7090E09C01042EC3
:1028C00001C0220F0A94EAF7D4FE08C08FE090E01E
:1028D00001C0880F4A95EAF7809501C080E01695FF
:1028E00016951370123059F078F49091EE01113072
:1028F00019F0822B892309C0922B892B06C0822BC9
:102900009091EE01892701C0822B0E94BE1E8CC0CF
:102910001F70002339F0812F0E941E1F8D2D0E94F1
:10292000651F82C08D2D0E945E1F812F0E94E31EB5
:102930007BC08D2D32EFA31681F13A1538F090EF60
:10294000A91659F0E1EFAE1619F154C0F3EFAF1626
:1029500059F124EFA216C1F04DC0002381F034E0FC
:102960003C1508F45DC01F7181E090E0012E01C0AC
:10297000880F0A94EAF79091EE01892720C085E03C
:102980008C1508F44DC0EFCF8091FF0582FD1AC071
:10299000002329F0812F8F7120C00023D9F3812FCC
:1029A0008F710E94E31E3CC0002341F01F7181E043
:1029B000012E01C0880F0A94EAF701C080E00E944E
:1029C000BE1E2EC0002361F0812F8F7198E0899F79
:1029D00090011124236020939E040E941E1F20C09A
:1029E00081E00E94F01EE1E0EC15D0F482E00E944C
:1029F000F01E16C0002321F0CC2061F28D2D91CE67
:102A0000CC2069F2893349F4FFEF27EE33E0F1502F
:102A100020403040E1F700C000008D2D0E9447208B
:102A200088EF890D843010F40E94B82ABB20A9F0E9
:102A300080919E0480FD11C0F701158286958695D0
:102A400086950E941E1FC7010E94550F80919E040B
:102A50008695869586950E94E31E20E0F7014081C9
:102A6000518162817381848195810E942A303AC0AC
:102A700085E3F4CC08378CE7180709F099CD82E09C
:102A80008FCD0B35ECE71E0749F10C35FCE71F072E
:102A9000E9F00A351C4709F09CCD81E020C00E9476
:102AA0002D1F3FEF84E39CE0315080409040E1F7E0
:102AB00000C000000E94822992CB6FEF7FEF80E080
:102AC00090E00E94B4340E94DF3089CB8091FF05F2
:102AD00082FB882780F991E0892701C080E00E946D
:102AE000071F77CD2896E2E10C944E34809138028E
:102AF00087FF11C08091E80082FD05C080913602F9
:102B00008111F8CF11C08091E8008B770BC08091C4
:102B10003602882349F08091E80080FFF8CF809149
:102B2000E8008E778093E8000895982F973068F535
:102B30009093E900981739F07091EC002091ED0026
:102B40005091F00003C0242F762F50E021FD02C0E9
:102B50009F5FECCF3091EB003E7F3093EB003091E4
:102B6000ED003D7F3093ED003091EB00316030930C
:102B7000EB007093EC002093ED005093F000209157
:102B8000EE0027FDE5CF80E008958F708093E90087
:102B900081E0089520913E0230913F0226173707C9
:102BA00048F06115710539F42091E8002E772093E3
:102BB000E80001C0B901FC0120E06115710579F15F
:102BC000809136028823F1F18530F1F18091E8009F
:102BD00083FD3CC08091E80082FD2EC08091E8001A
:102BE00080FFEBCF2091F3008091F20090E0922BD8
:102BF0006115710551F08830910538F421912093C9
:102C0000F100615071090196F3CF21E0089709F0B6
:102C100020E08091E8008E778093E800CECF2111EC
:102C2000CFCF0AC080913602882361F0853061F0F1
:102C30008091E80083FD0AC08091E80082FFF2CF16
:102C400080E0089582E0089583E0089581E008958A
:102C500043E050E0BC0184E00E944429089546E02E
:102C600050E0BC0184E00E944429089540E250E015
:102C7000BC0184E00E9444290895CF93DF93EC01C6
:102C800048E050E0BC0181E00E94442988E0FE0158
:102C9000ACE2B2E001900D928A95E1F7DF91CF911D
:102CA0000895CF93DF93682F8A3011F481E003C039
:102CB0008D3021F480E00E94AE2C6FC080914904D9
:102CC00090914A0426E0FC01A3E4B4E001900D9247
:102CD0002A95E1F7603E30F026E0FC0111922A953A
:102CE000E9F70AC0F6E06F9FB00111246A547B4FE8
:102CF00046E050E00E946934C0914904D0914A04F2
:102D000046E050E0BE0183E494E00E949C35892BAC
:102D100049F19E0123543240A90185E0569547951B
:102D20008A95E1F781E090E0BC0102C0660F771F51
:102D30004A95E2F74091410250914202462B572BAF
:102D40002B5F3F4F65E0369527956A95E1F702C006
:102D5000880F991F2A95E2F7842B952B90934202B6
:102D6000809341029E012D53324040914002642FD6
:102D700070E0C9010E941E34481B463010F4240F35
:102D8000311D211582E0380710F020E030E02D5B86
:102D90003D4F30934A0420934904DF91CF91089529
:102DA000CF93DF93EC01FE018491882321F00E94F0
:102DB00051162196F8CFDF91CF9108950E94D01639
:102DC00081E00E94AE2C0895FC01AC014C5F5F4F86
:102DD0008FEF91E32191822728E030E087FF03C045
:102DE000880F892701C0880F21503109B9F7E417EE
:102DF000F50781F70895AAE2B0E0E1E0F7E10C946D
:102E00004134E8E3F2E080E492E02091F100219384
:102E10008E179F07D1F780913902833009F463C080
:102E200030F4813071F0823009F49DC0B4C08A3032
:102E300009F489C08B3009F46EC0893009F0ABC049
:102E400020C080913802813A09F0A5C08091E80045
:102E5000877F8093E80080913C0290913D02892B0E
:102E600021F468E08CE292E003C060E080E090E052
:102E700070E00E94CA158091E8008B778093E8008B
:102E80008AC080913802813209F085C080913C026D
:102E900090913D02009719F0029709F07CC0809153
:102EA000E800877F8093E8008091E80082FD05C0FC
:102EB000809136028111F8CF6EC02091F30080918D
:102EC000F20090E0922B029731F48091F100813072
:102ED00011F0863021F48091F10080932B028091D3
:102EE000E8008B7754C080913802813A09F053C0D2
:102EF00080913C0290913D02892B09F04CC0809159
:102F0000E800877F8093E8008091E80080FFFCCF95
:102F10008091150137C0809138028132E1F58091AE
:102F20003C0290913D02892BB1F58091E800877FAA
:102F30008093E8000E94761580913A0280931501F3
:102F40000E942D1F28C080913802813221F5809186
:102F5000E800877F8093E8000E94761580913B020D
:102F600080932A0218C080913802813AA1F480919E
:102F7000E800877F8093E8008091E80080FFFCCF25
:102F800080912A028093F1008091E8008E778093EF
:102F9000E8000E9476158091E80083FFDFC18091F0
:102FA000380290913902492F50E04A30510508F01B
:102FB000D5C1FA01ED54FF4F0C941A35803821F039
:102FC000823809F0CBC108C080913402909135025B
:102FD000992389F082600FC080913C028F70873006
:102FE00008F0BCC18093E9008091EB0085FB882745
:102FF00080F91092E9009091E800977F9093E800A3
:103000008093F1001092F10070C1282F2D7F09F0FC
:10301000A5C1882319F0823061F0A0C180913A02E5
:10302000813009F09BC1933009F080E08093350234
:103030002EC080913A0281112AC080913C028F708B
:103040002FEF280F263008F089C18093E9002091E6
:10305000EB0020FF1CC0933021F48091EB008062D4
:1030600014C09091EB0090619093EB0021E030E070
:10307000A90102C0440F551F8A95E2F74093EA0068
:103080001092EA008091EB0088608093EB00109230
:10309000E9008091E800877F8093E8000E94761520
:1030A0005DC181115BC110913A021F778091E300ED
:1030B0008078812B8093E3008091E800877F809364
:1030C000E8000E9476158091E80080FFFCCF809197
:1030D000E30080688093E300111102C082E001C028
:1030E00083E0809336023AC18058823008F036C1BE
:1030F00020913A0230913B022C3D53E0350779F59F
:1031000083E08A838AE289834FB7F894DE011396BD
:1031100020E03EE051E2E32FF0E050935700E491CD
:1031200020FF03C0E295EF703F5FEF708E2F90E0BD
:10313000EA3010F0C79601C0C0968D939D932F5F23
:10314000243149F74FBF8091E800877F8093E800E2
:103150006AE270E0CE0101960E94CA15B4C0809167
:103160003C0290913D02432F552743305105A9F071
:1031700068F44130510509F400C14230510509F0AD
:10318000EDC08BE590E0E5E2F4E04BC04132510543
:1031900029F14232510589F1E1C0C90199278130F5
:1031A0009105A1F058F0029709F0D8C0E2E9F4E0E7
:1031B000E4918E2F90E0E2E9F4E030C0E2EBF4E03D
:1031C000E4918E2F90E0E2EBF4E028C0E0EAF4E036
:1031D000E4918E2F90E0E0EAF4E020C08330910586
:1031E00008F0BCC0880F991FFC01E459FE4F019004
:1031F000F081E02D89E090E014C08330910508F063
:10320000ADC0FC01EE0FFF1FEA59FE4F0190F081A7
:10321000E02DDC01AD59BE4F8C9190E0009709F490
:103220009DC02091E800277F2093E80020913E0276
:1032300030913F022817390708F4C90140E0009790
:1032400089F120913602222309F43DC02530D9F1BD
:103250002091E80023FD37C02091E80022FD2FC017
:103260002091E80020FFEBCF4091F3002091F20085
:1032700030E0342B009759F02830310540F4449168
:103280004093F100319601972F5F3F4FF3CF41E01C
:103290002830310509F040E02091E8002E77209396
:1032A000E800CDCF4111CDCF0AC0809136028823EE
:1032B00051F0853041F08091E80083FD04C0809199
:1032C000E80082FFF2CF8091E8008B778093E800DE
:1032D00045C0803809F042C08091E800877F809324
:1032E000E800809137028093F1008091E8008E77AA
:1032F000D3CE811133C080913A0290913B0299273D
:10330000029764F58091E800877F8093E800109130
:103310003A02109337020E947615111106C080916F
:10332000E30087FD02C081E001C084E080933602A3
:1033300042E061EC81E00E94951542E261EC84E09C
:103340000E94951542E261EC82E00E94951542E2EE
:1033500060EC83E00E949515809136028091E80030
:1033600083FF10C08091E800877F8093E800809100
:10337000EB0080628093EB0005C082E190E0E0E822
:10338000F4E04FCFAA96E3E00C945D341F920F92C5
:103390000FB60F9211242F933F934F935F936F9328
:1033A0007F938F939F93AF93BF93CF93DF93EF93CD
:1033B000FF93C091E900CF708091EC00D82FD170BD
:1033C00080FDD0E81092E9008091F000877F809323
:1033D000F00078940E94FB161092E9008091F000B2
:1033E00088608093F000CD2BCF70C093E900FF91EF
:1033F000EF91DF91CF91BF91AF919F918F917F918D
:103400006F915F914F913F912F910F900FBE0F9051
:103410001F901895E8EDF0E080818E7F80831092F8
:10342000E2001092DA001092E100A0EEB0E08C9180
:1034300081608C9380818F77808319BCA7EDB0E089
:103440008C918E7F8C9380818F7E80831092290255
:103450000895A0E0B0E0EFE2FAE10C943C34C8ED4E
:10346000D0E088818F7E8883E7EDF0E08081816005
:10347000808384E082BF81E08093290288818E7FEF
:10348000888302EE10E0F80110821092DA0081EEDB
:10349000C82ED12CF601108288818F77888388818D
:1034A0008068888388818F7D888319BC109236025A
:1034B00010923702109235021092340290EEE92EEB
:1034C000F12CF70180818B7F8083888181608883E4
:1034D00042E060E080E00E949515F60180818E7FD9
:1034E0008083F8018081816080838081886080830F
:1034F000F70180818E7F8083888180618883CDB74A
:10350000DEB7E8E00C9458341F920F920FB60F927A
:1035100011242F933F934F935F936F937F938F93D8
:103520009F93AF93BF93EF93FF938091E10082FF4E
:1035300009C08091E20082FF05C08091E1008B7F8D
:103540008093E1008091DA0080FF2AC08091D8004A
:1035500080FF26C08091DA008E7F8093DA00809110
:10356000D90080FF18C080E189BD82E189BD09B41E
:1035700000FEFDCF81E08093360280912902811107
:103580000FC00E940A1A0E94291A8091E2008460EA
:103590008093E20005C019BC1092360210922902F5
:1035A0008091E10080FF17C08091E20080FF13C08E
:1035B0008091E2008E7F8093E2008091E200806142
:1035C0008093E2008091D80080628093D80019BC7B
:1035D00085E0809336028091E10084FF30C08091C5
:1035E000E20084FF2CC080E189BD82E189BD09B47D
:1035F00000FEFDCF8091D8008F7D8093D800809110
:10360000E1008F7E8093E1008091E2008F7E8093C5
:10361000E2008091E20081608093E20080913702B5
:10362000882311F084E007C08091E30087FD02C089
:1036300081E001C083E08093360280913602809160
:10364000E10083FF27C08091E20083FF23C08091C7
:10365000E100877F8093E10082E080933602109240
:1036600037028091E1008E7F8093E1008091E2003B
:103670008E7F8093E2008091E20080618093E2007F
:1036800042E060E080E00E9495158091F000886043
:103690008093F000FF91EF91BF91AF919F918F9137
:1036A0007F916F915F914F913F912F910F900FBE3E
:1036B0000F901F9018952091E4003091E50095E659
:1036C0004091EC00842F817040FF23C08091E8007E
:1036D00080FD1DC080913602882399F0853099F0D5
:1036E0008091EB0085FD11C04091E4005091E50010
:1036F0002417350729F3915011F09A01E1CF84E0A6
:10370000089582E0089583E0089581E0089580E0BF
:1037100008954091E80042FFDDCF08959091C904DB
:103720008091A004892B90919F049923E1F0892B2B
:1037300090911501992341F09091FE0597FF04C0E7
:103740009EE12DE035E003C096E025E035E0F9018B
:1037500020E0915028F031913323D9F32F5FF9CF36
:10376000211110929F04089520919D04909164046A
:1037700057E02917A9F030E0529FF001539FF00D58
:103780001124EB59FB4F7181761306C070817813B9
:1037900003C07581741306C02F5F3F4F2770E9CFB8
:1037A00080E0089581E0089580911501882351F10A
:1037B0008091FE0587FF26C00E948E1B80930C051A
:1037C00040E250E061EA74E08BE095E00E949C35B5
:1037D000892BD9F180E2EBE0F5E0A1EAB4E00190B9
:1037E0000D928A95E1F7E091FA05F091FB0530978B
:1037F00061F186E080930B050480F581E02D8BE07C
:1038000095E022C00E948E1B8093030548E050E0A3
:1038100061EC74E083E095E00E949C35892BA9F06F
:1038200088E0E3E0F5E0A1ECB4E001900D928A9528
:10383000E1F7E091FA05F091FB05309731F0028055
:10384000F381E02D83E095E00995089580919D0432
:1038500090916404891719F08F5F8770FBCF0895EA
:10386000CF93DF938091630482958F7009F04EC0EF
:1038700080916204882309F449C080919D0440919D
:10388000640450915E0460915D04C0915F04D09126
:10389000600477E08417D1F190E0789FF001799F80
:1038A000F00D1124DF01AB59BB4F14962C911497E6
:1038B000222349F111962C911197251324C02C91A4
:1038C000261321C015962C91159721111CC0129614
:1038D0002D913C9113972C1B3D0B283C310598F4FE
:1038E000809163048F70806180936304E559FB4F7E
:1038F00080818F70806180838DE594E00E94550FF8
:103900000E94261C03C001968770C4CFDF91CF911F
:103910000895CF92DF92FF920F931F93CF93DF937F
:103920006C010091EE018091E001082BC3E0D0E032
:1039300010E0C8010C2E02C0959587950A94E2F715
:1039400080FD04C02197A8F7F12C09C0FC2EB60118
:103950008C2F0E94F3230E940124019799F38F2D4D
:10396000DF91CF911F910F91FF90DF90CF9008953D
:10397000CF93DF93EC010E94891CBE010E94F323C8
:103980000E940124DF91CF910895FC01248122231C
:10399000D9F0808191810E94B81C92959F709630D9
:1039A00079F010F4925001C09A50923068F4803F40
:1039B00069F018F4883E40F409C0843F29F406C039
:1039C000883E20F0813F11F080E0089581E0089565
:1039D000A4E1B0E0EEEEFCE10C9438348C0186E01A
:1039E000F801DE011F9601900D928A95E1F7F8012A
:1039F0008481E5809DE5892E94E0992E9091610463
:103A0000911120C0882309F449C1EE2009F442C075
:103A1000C8010E94C51CF82E8823E1F187E0F80157
:103A2000D40101900D928A95E1F780916104813073
:103A300031F480915D0490915E040E94B81C0E9454
:103A4000301C2EC1F801D080C180A280B380F090DC
:103A5000620420915F0430916004FF2009F4EBC000
:103A6000A501421B530B483C510508F0A1C0882317
:103A700009F416C180916304282F207F90915E0481
:103A8000222361F09C1509F460C0C8010E94C51C86
:103A9000811167C0C8010E94550F00C19C1113C05D
:103AA00090915D049D110FC0E1100DC08F70806179
:103AB000809363048DE594E00E94550F8091630428
:103AC000F8018683E9C0E1103AC040E06C2D8D2DED
:103AD0000E94B41B40E06C2D8D2D0E94B41BE82E7B
:103AE0008111DAC0DF86C88A8F8598890E94B81C48
:103AF000292F22952F70243020F49F70223028F037
:103B000009C02A50223080F014C0992349F0811155
:103B100007C013C0992321F0F8019681907F69F0C6
:103B2000805E883030F409C0803F38F0815F833098
:103B300020F0C8010E94550FEF2CFE2CB1C08091DF
:103B40006304816080936304A7C090915D049D111C
:103B50009CCFE1109ACFF8018683C8010E94550FCF
:103B60007EC0EE2009F496CF20916304822F8295C7
:103B70008F7090E002978CF080915D0490915E04CC
:103B800099878887BB86AA86809161048C871D8669
:103B90002E87CE0108960E94550F87E0F801ADE50B
:103BA000B4E001900D928A95E1F70E94301C76C036
:103BB00090916304292F207F51F48DE594E00E94B9
:103BC000550F87E0F40111928A95E9F765C08823C3
:103BD00009F466C080915E048C110CC080915D0474
:103BE0008D1108C0E11006C0F8019683C8010E943B
:103BF000550F4CC0C8010E94C51C882309F44ACF48
:103C0000EE2009F447CF20916304822F82958F70B4
:103C100090E0029714F280915D0490915E049A8383
:103C20008983BC82AB82809161048D831E822F8345
:103C3000CE010196B0CFA21AB30AF8ECAF16B104C8
:103C400028F5882359F1FE2CEE2009F423CF80912A
:103C50005E04C8120DC080915D048D1109C087E01B
:103C6000F801ADE5B4E001900D928A95E1F718C036
:103C7000C8010E94C51C811190CF809163048160AE
:103C800080936304C8010E94550F0AC087E0F401C5
:103C900011928A95E9F704C0F12C02C0FF24F39435
:103CA0008F2D6496ECE00C945434292F983078F5DD
:103CB000863068F590E036E0239F800D911D112439
:103CC000682F677023E0969587952A95E1F7FC01A8
:103CD000EE0FFF1FE80FF91FE55BFB4F40E050E0E0
:103CE00080E0219130E0062E02C0369527950A9497
:103CF000E2F721703327042E01C0220F0A94EAF75D
:103D0000822B4F5F5F4F4330510559F7089580E094
:103D10000895292F983088F5863078F590E036E0C0
:103D2000239F800D911D1124282F277051E001C081
:103D3000550F2A95EAF723E0969587952A95E1F79E
:103D4000FC01EE0FFF1FE80FF91FE55BFB4F20E0C2
:103D500030E070E04081CB01022E02C0969587953D
:103D60000A94E2F7817081958427852384278193C3
:103D70002F5F3F4F2330310569F708958093EE019F
:103D800008959091EE0121E030E0F90101C0EE0FBD
:103D90008A95EAF7D90102C0AA0FBB1F6A95E2F71C
:103DA000BD016E2B01C0220F4A95EAF7892F8623A9
:103DB000681303C0892F822B03C02095822F89238B
:103DC0000E94BE1E089521E030E001C0220F8A95B6
:103DD000EAF720958091EE0182230E94BE1E08958D
:103DE00090919E048095892380939E04282F2770AC
:103DF00069F4981759F09091FF0592FF07C08695D6
:103E0000869586950E94E31E10929E0408959091D7
:103E1000FF0592FB222720F9281779F080FB92F901
:103E20009093FF056091FE057091FF0584E090E09E
:103E30000E94B43482E00E94F01E089521E030E038
:103E400001C0220F8A95EAF78091EE01822B0E9431
:103E5000BE1E08958093E00108951092C9048091D8
:103E60001501882341F08091FE0587FF04C08EE193
:103E7000EDE0F5E003C086E0E5E0F5E0DF011D924E
:103E80008A95E9F780E090E00E94932A80E090E034
:103E90000E946E2A1092A0040E94D41BEDEEF5E061
:103EA00086E0DF011D928A95E9F71092E6051092EF
:103EB000E7051092E8050E948A2B0895882321F0D7
:103EC0000E941E250E94D41B0895882339F09091EA
:103ED000C904892B8093C9040E94D41B08956623CA
:103EE00009F45CC08D3C21F40E94D62B819504C05E
:103EF0008E3C29F40E94D62B8093F005C5C08F3CE0
:103F000021F40E94D62B819504C0803D29F40E94A3
:103F1000D62B8093EF05B8C0893D19F40E94B42BCD
:103F200005C08A3D31F40E94B42B81958093F10540
:103F3000ABC08B3D21F40E94B42B819504C08C3D15
:103F400029F40E94B42B8093F2059EC09FE2980F43
:103F5000983078F421E030E0A90102C0440F551FE9
:103F60009A95E2F7CA019091EE05892B8093EE05B0
:103F70008BC08D3D21F48091E80581600CC08E3DA1
:103F800021F48091E805826006C08F3D09F07CC075
:103F90008091E80584608093E80576C08D3C39F413
:103FA0009091F00597FF35C01092F00559C08E3CF6
:103FB00029F49091F0051916BCF32BC09091EF05F0
:103FC0008F3C29F497FF25C01092EF0549C0803D32
:103FD00019F41916CCF31DC09091F105893D29F40F
:103FE0001916BCF41092F1053BC08A3D19F497FFF5
:103FF00010C0F8CF8B3D39F49091F20597FF09C0BE
:104000001092F2052DC08C3D21F49091F205191605
:10401000BCF39FE2980F983080F421E030E0A901D2
:1040200002C0440F551F9A95E2F7CA0180959091FE
:10403000EE0589238093EE0513C08D3D21F4809118
:10404000E8058E7F0BC08E3D21F48091E8058D7FC1
:1040500005C08F3D29F48091E8058B7F8093E805AA
:104060008091EF05811106C08091F005811102C099
:104070001092E6058091F105811106C08091F2054C
:10408000811102C01092E7050E948A2B08958823AF
:1040900081F19CEF980F913A18F40E94092A0DC003
:1040A00090E2980F983060F4877091E001C0990F0A
:1040B0008A95EAF7892F0E941E250E94D41B089535
:1040C0009BE5980F933028F480E090E00E94932ABB
:1040D000089598E5980F9B3128F480E090E00E94C5
:1040E0006E2A089593E3980F933118F460E00E94CC
:1040F0006F1F0895CF93882309F46EC0C82F8CEFEB
:104100008C0F813AA0F5809115018823E1F0809110
:10411000FE0587FF18C0EC2FE695E695E695F0E0E2
:10412000E55FFA4F8281282F30E04C2F477081E005
:1041300090E002C0880F991F4A95E2F782239323EB
:10414000892B61F410C0E5E0F5E08BE095E021916A
:10415000C21721F08E179F07D1F705C08C2F0E9440
:10416000092A0E94D41B8C2F0E94372A10C080E29B
:104170008C0F883078F4C77081E090E001C0880F20
:10418000CA95EAF79091C904892B8093C9040E94CB
:10419000D41B22C0EBE5EC0FE33040F4F0E0EE5826
:1041A000FE4F808190E00E94932A16C0E8E5EC0F54
:1041B000EB3150F4F0E0EE0FFF1FEB58FE4F808123
:1041C00091810E946E2A08C083E38C0F833120F412
:1041D00061E08C2F0E946F1FCF9108951F93CF93A2
:1041E000DF93182FEB010E947A20209741F08FE98E
:1041F0009FE00197F1F700C000002197F6CF812FD3
:104200000E944720DF91CF911F91089580E008958B
:104210009091FE0592FF10C041E0282F24712430B8
:1042200009F040E031E0282F2871283009F030E013
:10423000431711F02CE0822793FF10C041E0282F94
:104240002471243109F040E031E0282F2871283111
:1042500009F030E0431711F02CE082273091FF0580
:1042600030FF10C051E0282F2171213009F050E0BB
:1042700041E0282F2871283009F040E0541711F050
:1042800029E0822731FF10C041E0282F2171213120
:1042900009F040E031E0282F2871283109F030E0A2
:1042A000431711F029E0822794FD877E0895823814
:1042B000910569F1B0F48133910509F475C048F4B2
:1042C0008932910509F467C08A32910509F471C0F9
:1042D00008958533910509F459C089339105B9F0E2
:1042E0000895833E910589F138F4803E9105D1F01F
:1042F000823E910529F10895863E9105C9F1873ED8
:104300009105D9F1843E910509F06CC027C0209138
:10431000FE0520FD57C021FD55C02091FF0523FD5E
:104320005BC008958091FE0580FD48C08091FF0527
:1043300080FF48C08091FE0584FD46C083EE51C0D9
:104340008091FE0582FF3CC0F5CF8091FE0582FD85
:1043500037C08091FF0580FD35C0ECCF8091FF050F
:1043600081FF36C08091FE0584FD2EC087EE39C0E6
:104370008091FE0583FF2AC0F5CF8091FE0583FD65
:1043800025C08091FF0581FD23C0ECCF8091FE0503
:1043900085FD22C01FC08091FE0585FD1BC0809158
:1043A000FF0583FF19C00AC08091FE0586FD16C077
:1043B00017C08091FE0586FD13C010C089E311C0AF
:1043C00082EE0FC080EE0DC080E00BC086EE09C00B
:1043D00084EE07C085E305C089E203C08AE201C01C
:1043E00081E390E00895A0E0B0E0E9EFF1E20C9401
:1043F0003A347C015B016A01809102058A3018F031
:1044000001E010E002C00AE010E0C1E0D0E0B50138
:10441000C701F6010995811115C021960C171D07DA
:1044200094F0CC9F9001CD9F300D300D112480E091
:1044300090E045E34A95F1F7000001968217930753
:10444000C1F7E5CF81E0CDB7DEB7EAE00C94563492
:10445000A0E0B0E0EEE2F2E20C943834FB018080A0
:104460009180A280B3809FB7F894C0900106D0904D
:104470000206E0900306F09004069FBFC818D90812
:10448000EA08FB08F4E6CF16D104E104F10410F4C5
:10449000442341F17B01C82F880FDD0B0115110565
:1044A000A9F0FE0183E0EE0FFF1F8A95E1F7EA5EB7
:1044B000FE4F818192818E519B4F408150E00417C5
:1044C000150708F4A801B9010E94A935CE010E9480
:1044D000A333882341F00E94C829F70160837183C8
:1044E0008283938381E0CDB7DEB7ECE00C94543443
:1044F000ABE0B0E0EEE7F2E20C94403488E0E8EDA7
:10450000F5E0DE01119601900D928A95E1F7809118
:10451000310590913205A091330589879A87AB8741
:1045200041E08B85811101C040E00BE010E09E016D
:104530002F5F3F4F6EEF74E084E00E9428228111CC
:10454000109233052B96E4E00C945C340F931F9388
:10455000CF93DF93EC0144E050E067EE74E00E94FB
:104560009C3541E0892B09F440E004E010E09E0115
:104570006EED74E082E00E942822DF91CF911F91BE
:104580000F910895EF92FF921F93CF93DF9300D086
:1045900000D01F92CDB7DEB77B0180E090E00E9493
:1045A000A333882309F463C04091190150E04115F9
:1045B000510511F041E050E060911A0170911B012A
:1045C0006E517B4FCE0105960E94A9354091DA04C9
:1045D0005091DB046091DC047091DD042FB7F894F6
:1045E0008091010690910206A0910306B091040605
:1045F0002FBF841B950BA60BB70B84369105A10525
:10460000B10538F483EE94E00E94E4169D81891789
:1046100081F181E090E00E94A333182F882391F06C
:104620004091210150E04530510510F044E050E048
:1046300060912201709123016E517B4FCE01019652
:104640000E94A93583EE94E00E94E41691E02D814A
:10465000281390E0192341F10E94C8296093DA04DD
:104660007093DB048093DC049093DD040FC010E0B2
:1046700001C011E08091E3049091E404A091E5046D
:10468000B091E60489839A83AB83BC83112361F0E4
:1046900089819A81AB81BC818093D6049093D704A1
:1046A000A093D804B093D9048091D6049091D704F4
:1046B000A091D804B091D904F70180839183A2839B
:1046C000B383812F0F900F900F900F900F90DF9179
:1046D000CF911F91FF90EF900895F894E82FE29505
:1046E000EF70F0E031A1282F2F7081E090E001C041
:1046F000880F2A95EAF7982F9095932391A392A17A
:10470000892B82A3789408950F931F938091F605C7
:10471000882319F00E94C8290EC00E94C829009160
:10472000D2011091D3012091D4013091D501600FB5
:10473000711F821F931F1F910F910895A4E0B0E095
:10474000E4EAF3E20C9442344091FA045091FB0401
:104750006091FC047091FD042FB7F89480910106DC
:1047600090910206A0910306B09104062FBF841B0E
:10477000950BA60BB70B84369105A105B10570F119
:104780000E948423DC01CB010296A11DB11D898307
:104790009A83AB83BC8380912F01909130018E511D
:1047A0009B4F40912E0150E04530510510F044E000
:1047B00050E0BE016F5F7F4F0E94A93583E090E01B
:1047C0000E94A333882359F00E94C8296093FA04F9
:1047D0007093FB048093FC049093FD0481E0249685
:1047E000E2E00C945E34783048F4663038F484307B
:1047F00028F4462F672F0E94802C089580E090E0D7
:1048000008951F93CF93DF930E945721EC01C115A8
:1048100080E5D807E8F5C11590E4D90708F0A8C0ED
:10482000C03ED10530F5CD3CD10508F094C0C83A62
:10483000D10578F4C53AD10508F083C0C130D1055F
:1048400009F47CC008F4F2C0C430D10508F0F1C00E
:10485000EDC0C33CD10508F0E9C0C85AD0E0CC0F88
:10486000DD1FCB58DE4F0990D881C02DCE01946456
:10487000E1C0C11580E2D80708F0CBC0C11591E0B6
:10488000D90708F06BC0C83ED10508F4D2C0CEC02D
:10489000C03682E5D80728F5C03492E5D90708F07C
:1048A00079C0C03282E5D80708F06CC0C11592E526
:1048B000D90708F481C04C2F4695469580E2489F61
:1048C000A0011124C37021E030E0C90102C0880FAB
:1048D000991FCA95E2F7EA01C82BD92BCE019D6832
:1048E000A9C0C03A82E5D807B8F48C2F8F71C038C0
:1048F00092E5D90708F07BC08695869590E2899F5E
:1049000090011124C37081E090E002C0880F991FCC
:10491000CA95E2F79A6868C0C03C82E5D80708F4F7
:104920006DC0C03E92E5D90708F080C0CF71DD2789
:10493000DC2FCC27CE01806F906A7CC081E090E0B4
:1049400079C0C55AD0E0CE58DE4F8881C82FD0E05C
:10495000CE0190646FC0CE0190656CC08D2F0E9417
:104960000821182FCE0199270E9457211F715CC082
:10497000CE0199270E945721CC27DF70D06A8C2B5B
:104980009D2B58C0CF71D0E0DC2FCC27CE01816F9A
:10499000906A50C08C2F8F718695869590E2899F82
:1049A00090011124C37081E090E002C0880F991F2C
:1049B000CA95E2F79C6818C08C2F8F710E9408215D
:1049C00095E0D695C7959A95E1F7CF70D0E0DC2FAA
:1049D000CC27282F30E084FF05C084E0220F331F4E
:1049E0008A95E1F7D069CE01822B932B23C090E00A
:1049F000D82FCC27CE01846F906A1CC08C2F8F716A
:104A00000E9408218F7190E0D82FCC27CE019062B0
:104A100011C08D2F8F710E940821182FCE01992768
:104A20000E9457211F719062912B04C080E090E09A
:104A300001C0CE01DF91CF911F9108958095909193
:104A4000C90489238093C90408958091F6058823B9
:104A500019F00E94D42908950E948423CB0108955F
:104A6000A6E0B0E0E6E3F5E20C9440340E94D429DD
:104A70008C018091CA049091CB040817190781F02A
:104A800019821A820E94D429682F49815A81792F6C
:104A900080E090E00E944F301093CB040093CA0452
:104AA0002696E4E00C945C34ACE0B0E0EAE5F5E294
:104AB0000C943534AE014F5F5F4F7A0188E0DA0124
:104AC0001D928A95E9F701E511E06A0185E5682EF6
:104AD00081E0782EAA24A394B12C2BE5822E21E02C
:104AE000922EF80180818F3F09F440C0F894E82F9E
:104AF000E295EF70F0E021A18F70A50102C0440F94
:104B0000551F8A95E2F7CA01922F982B91A392A183
:104B10008095892382A3789400C0E5E5F1E0512CCB
:104B200031E021912F3F89F0A22FA295AF70B0E024
:104B300090968C9190E02F7002C0959587952A955C
:104B4000E2F780FD02C0832F01C080E0582A330FB6
:104B50008E169F0631F7D8018C918F3F11F00E947D
:104B60006D23B0EABA95F1F7F60150820F5F1F4F3F
:104B7000FFEFCF1ADF0A6016710609F0B2CF48E0E6
:104B800050E0B70186ED91E00E949C35892B99F0A9
:104B900088E0F701A6EDB1E001900D928A95E1F76A
:104BA00081E08093CE040E94D4299093CD04809319
:104BB000CC04F12C27C08091CE048823D1F300913E
:104BC000DF018091CC049091CD040E94B929059712
:104BD00080F310E0015E1D4F44E050E066ED71E0AF
:104BE000C8010E949C35892B09F41BC184E0E6EDC5
:104BF000F1E0D80101900D928A95E1F7FF24F3943A
:104C00001092CE048091F605E091DF01882309F42B
:104C100081C019861A861B861C860E2F10E0015E45
:104C20001D4F809102058A3058F442EC52E2BE01D9
:104C3000675F7F4FC8010E94F3218823E9F10AC012
:104C40008091CF049091D0040E94B929843F914073
:104C500060F743C046EA52E2BE01675F7F4FC8017A
:104C60000E94F321882341F14EE953E2BE01675FC0
:104C70007F4FC8010E94F3218823F1F048E752E2F8
:104C8000BE01675F7F4FC8010E94F3218823A1F016
:104C9000109202058091DE0190E044E050E0BE01F8
:104CA000675F7F4F815E9D4F0E949C3521E020937E
:104CB000D504892B01F5AFC0809102058F3F19F013
:104CC0008F5F80930205809102058A3018F30E945D
:104CD000D4299093D0048093CF048091D504882365
:104CE00009F499C0FE01399684E0DF011D928A958E
:104CF000E9F71092D504E091DE01F0E0E15EFD4FAE
:104D000089859A85AB85BC8580839183A283B38393
:104D100081E082C00091DE0110E0015E1D4FF0E0F5
:104D2000E15EFD4F84E0A3EEB4E001900D928A9520
:104D3000E1F783EE94E00E94E4168093E20484E0BD
:104D4000E7EEF4E0D80101900D928A95E1F78090AA
:104D5000EB049090EC04A090ED04B090EE048091F0
:104D6000D1049091D204A091D304B091D4048816B8
:104D70009906AA06BB06B1F08092D1049092D204A3
:104D8000A092D304B092D4040E94C829861A970A2C
:104D9000A80AB90A8092D2019092D301A092D401BC
:104DA000B092D5018091EF04982F917086958695E9
:104DB000E090F004D090F104C090F2040091F80467
:104DC0001091F9041092F904112329F110FF0DC07C
:104DD000992349F09091D80591609093D80560E0AF
:104DE0000E94B52F02C00E94A62F11FF06C020E02E
:104DF0004C2D6D2D8E2D0E94C72E12FF07C0002353
:104E000019F00E944E2D02C00E94472D13FF03C0CF
:104E100081E080932E0580E08F292C96EFE00C94A2
:104E20005134F12CEDCE80912B020895539A0895C0
:104E300008952BB1277F3BB138604FB7F894FC0140
:104E4000CB01880F991F680F791F6E0F7F1FE61720
:104E5000F70789F0819198E03BB9000000C087FF17
:104E60002BB9880F000000C000C000C02BB900C0E3
:104E70009A9591F7ECCF4FBF8FE594E00197F1F74A
:104E800000C000000895A0E0B0E0E9E4F7E20C946F
:104E900038348C01FC014481C42FD0E09E01DE0136
:104EA0000E942F359B01AC010E9445356B017C01AE
:104EB000E0E2F0E0EC1BFD0BA5E5B0E09B01AC01EE
:104EC0000E9445354B015C019F01DF010E9427359F
:104ED0009B01AC010E9450359B01AC012C0D3D1D86
:104EE0004E1D5F1DC501B4010E94F834C22FD22FA0
:104EF0002A3228F4F3E02F9F900111240DC025E5FC
:104F000030E02C1B3109C901880F991F280F391F68
:104F100037FF02C02F5F3F4F35952795C22FC095B1
:104F2000F12C85E5E82EED1A80915001F816E0F499
:104F3000F1FC02C08E2D01C08D2F90914E012F2DBE
:104F400030E0290F311DA901440F551F240F351FD3
:104F50002A5C3A4F4C2FC93708F048E76091DA05D0
:104F60000E94202EF394E0CF0E946A2DF8018481E4
:104F7000811102C091E003C0803219F49FEF909339
:104F80004B0190914B01890FF8018483CDB7DEB7B7
:104F9000ECE00C9454341F93CF93DF93EC018C819D
:104FA000811109C081E08C831092350592E09093C5
:104FB0004A018093490180914E0190914F018917D8
:104FC00070F4E82FF0E09F01220F331FE20FF31F70
:104FD000EA5CFA4F1182108212828F5FF0CF10E0EC
:104FE000609150011617D8F5E12FF0E070E0CF0185
:104FF0000E94E43420914E01820F20913505022E4B
:10500000000C330B90E0E217F307E4F020914A0123
:10501000022E000C330B2E173F07A4F09C01220F29
:10502000331F820F931F9C012A5C3A4F4091DB058E
:10503000493708F048E76091DA058091D9050E9468
:10504000202E0BC0FC01EE0FFF1F8E0F9F1FFC01D7
:10505000EA5CFA4F1182108212821F5FC1CF0E9458
:105060006A2D8091490120913505280F209335053F
:1050700090914A01980F90934A0119165CF4022E00
:10508000000C330B4091500150E04150510924175E
:10509000350734F0819580934901813009F41C82F1
:1050A000DF91CF911F910895A0E0B0E0EAE5F8E22A
:1050B0000C943734EC018A8180FF03C0BB24BA947E
:1050C00002C0BB24B3948C8181110DC081E0B81261
:1050D00006C08091500181508093340502C0109227
:1050E000340581E08C83A12C46E3742E809050011E
:1050F000A81408F044C080914E01CA2CD12C86011E
:10510000080F111DC801880F991F080F191F0A5C8D
:105110001A4FF80111821082128234E0E32EF12C32
:10512000912C80913405890D87332CF0672D0E94D6
:10513000D634892F02C087FD880D082E000C990BEC
:10514000C816D906A9F48091DB058E9DA0018F9D1C
:10515000500D11245595479555954795493708F0B9
:1051600048E798016091DA058091D9050E94202EC8
:105170009B0CF1E0EF1AF108A1F6A394B7CF0E94BF
:105180006A2D8091340591E0B9120EC0811107C0DB
:10519000809150018150809334051C820FC0815052
:1051A00080933405BC820AC090E001966091500162
:1051B00070E00E94E434809334058C83CDB7DEB771
:1051C000EDE00C945334FF920F931F93CF93DF9332
:1051D000EC01F12C0FEF10E060915001F61608F58C
:1051E00080914E012F2D30E0280F311DC901880F0D
:1051F000991F280F391F2A5C3A4F4091DB05493728
:1052000008F048E770E0C8010E94E434962F8C81D2
:105210006091DA05F99E800D11240E94202EF394EE
:10522000DBCF0E946A2D9A818C8190FF02C08F5F34
:1052300001C081508C83CDB7DEB7E5E00C945B34C0
:10524000CF93DF93EC01E8EDF5E0438162818C813F
:105250000E94AC2E8C818F5F8C83DF91CF9108955B
:10526000CF93DF93EC01EC81F0E0EA50F64F4491EC
:10527000E8EDF5E0628181810E94AC2E8C818F5F28
:105280008C83DF91CF9108950F931F93CF93DF937A
:105290008B01EA0190913602943079F58F708093FA
:1052A000E9008FEF9091E800815095FD06C095EDE3
:1052B0009A95F1F700008111F5CF8091E80085FF04
:1052C0001CC00E945B1B882361F08091E8008E77F0
:1052D0008093E80012C0F80181918F018093F10062
:1052E0002197209791F38091E80085FDF4CF80917C
:1052F000E8008E778093E800E4CFDF91CF911F9193
:105300000F91089587E797E790930108809300082D
:105310009AE088E10FB6F894A895809360000FBEDC
:1053200090936000FFCF78941F920F920FB60F9268
:1053300011248F939F93AF93BF9380910106909117
:105340000206A0910306B09104060196A11DB11DAD
:105350008093010690930206A0930306B09304067F
:10536000BF91AF919F918F910F900FBE0F901F90A3
:1053700018959C014FB7F894809101069091020610
:10538000A0910306B09104064FBF821B930B0895B2
:105390002FB7F89460910106709102068091030680
:1053A000909104062FBF08952FB7F89480910106BD
:1053B00090910206A0910306B09104062FBF0895B4
:1053C0001F920F920FB60F9211248F939F93AF935A
:1053D000BF9380910006811113C0809101069091C6
:1053E0000206A0910306B09104064196A11DB11DCD
:1053F0008093010690930206A0930306B0930406DF
:10540000BF91AF919F918F910F900FBE0F901F9002
:10541000189590911501992321F09091FE0597FD23
:1054200003C0E3E0F5E01DC0E82FE695E695E695BC
:10543000EE31E0F4F0E0E55FFA4F877021E030E014
:10544000A90102C0440F551F8A95E2F7CA01809551
:105450009281892382830895319655E0E930F507DA
:1054600029F092818913F8CF1282F6CF0895909196
:1054700015019923D1F09091FE0597FF16C0E82FF2
:10548000E695E695E695EE3140F5F0E0E55FFA4FFA
:10549000877021E030E0A90102C0440F551F8A95B2
:1054A000E2F7CA019281892B16C0A5E0B5E0EFEFC3
:1054B00090E02D91821789F0EF3F19F4211101C07E
:1054C000E92F9F5F9630A9F7EF3F39F00E2E000CC1
:1054D000FF0BED5FFA4F828308950895A3E0B0E0DB
:1054E000E4E7FAE20C9442342091FC053091FD058A
:1054F00028173907A1F09093FD058093FC05E091F2
:10550000FA05F091FB05309751F024E029839B8345
:105510008A830084F185E02DCE01019609952396BA
:10552000E2E00C945E34A3E0B0E0E9E9FAE20C9426
:1055300042342091F8053091F90528173907A1F078
:105540009093F9058093F805E091FA05F091FB0539
:10555000309751F023E029839B838A830084F1856F
:10556000E02DCE01019609952396E2E00C945E347D
:105570008091F605882359F0E091FA05F091FB053A
:10558000309729F00190F081E02D0995089580E091
:10559000089587E290E00E9496340895CF93C82F33
:1055A000811102C06FEF01C064E284E290E00E94CA
:1055B0009634C11102C06FEF01C069E085E290E04E
:1055C0000E949634C11102C06FEF01C063E186E210
:1055D00090E00E949634CF91089584E290E00E947A
:1055E0007234843281F485E290E00E947234893012
:1055F00051F486E290E00E94723491E0833109F028
:1056000090E0892F01C080E0817008950F931F936F
:10561000CF93DF93C42FD22FFC0185818823B1F073
:105620004093F5050E94D4299093F4058093F305E7
:1056300080E28C0F883008F068C0C77081E001C03C
:10564000880FCA95EAF70E94651F5FC08091F50533
:1056500048133DC08091F3059091F4050E94B9294B
:10566000883C9105A0F510E21D0FCD17E9F080E20E
:105670008C0F883040F4C77081E001C0880FCA9554
:10568000EAF70E945E1F183078F581E09D2F977031
:1056900001C0880F9A95EAF70E94651F093351F5FA
:1056A00060E570E089E329C0093319F460E570E032
:1056B00002C060E070E0802F0E94EE20183028F5D4
:1056C000D77081E001C0880FDA95EAF70AC080E25E
:1056D0008C0F8830D0F4C77081E001C0880FCA9564
:1056E000EAF70E945E1F11C0093351F460E570E0D3
:1056F00089E309C060E070E0802F0E94EE20E0CFD7
:1057000060E070E0802F0E94EE20DF91CF911F912A
:105710000F9108950E94D4292091EF05211104C012
:105720002091F005222321F09093EC058093EB0566
:105730002091F105211104C02091F205222321F0CE
:105740009093EA058093E905E091FA05F091FB0555
:10575000309749F082E08093ED050680F781E02DD7
:105760008DEE95E0099508958091E80580FD16C0BD
:1057700081FD16C082FD18C08091E705882391F055
:10578000883290F428E0829FC001112468E270E022
:105790000E94E434862F672B29F007C082E0089529
:1057A00084E0089581E0089588E008958091E805F7
:1057B00080FD14C081FD14C082FD16C08091E605F5
:1057C000882381F08E3180F420E5829FC00111246E
:1057D0006EE170E00E94E434862F089584E108951C
:1057E00088E2089588E0089580E50895282F35EB34
:1057F0002303C001112497FF03C08058910902C000
:1058000080589F4F892F0895CF93DF93C8EAD1E046
:1058100060E0CE010E9496342196C11584E0D8073D
:10582000B9F7DF91CF9108951F93CF93DF93962F10
:105830008430E8F46830D8F44630C8F4632F122F6F
:10584000C42FD0E0CC0FDD1F2CE0929FC00DD11DE6
:10585000112490E6899FC00DD11D1124CE01889698
:105860000E949634612FCE0189960E949634DF9172
:10587000CF911F910895A0E0B0E0E1E4FCE20C9428
:105880003A34A12CE12CF12CB12C00E010E0C0E066
:10589000D0E06701C00ED11EFE01EE0FFF1FEC0D20
:1058A000FD1DE650F54F259134914C2F6B2D8A2D1F
:1058B0000E94142C2196C630D10571F7045F1F4F4A
:1058C000B39488E0B812E3CF80E6E80EF11CA3940D
:1058D00084E0A812D9CFCDB7DEB7EAE00C945634F5
:1058E00080E00E94CE2A60E070E0CB010E94C92ACD
:1058F0000E943B2C0E94042C81E00E94CE2A089535
:105900000F931F93CF93DF93843008F56830F8F43A
:105910004630E8F4C42FD0E0CC0FDD1F2CE0629FAE
:10592000C00DD11D112430E6839FC00DD11D11245F
:10593000CE0188960E94723490E0182F0027CE0185
:1059400089960E9472349801282BC90102C080E018
:1059500090E0DF91CF911F910F910895CF93E82FA1
:105960002091490430914A0423543240409140022E
:10597000642F70E0C9010E941E34481B842FEE235F
:1059800051F066E00E94CA34C82FC150A8F080E2EE
:105990000E945116FACFA901480F511D41155240DE
:1059A00018F080E020E030E0280F311D2D5B3D4FE6
:1059B00030934A0420934904CF910895AB0124E623
:1059C00030E0BC0188E70E94C83121E0892B09F052
:1059D00020E0822F08958091E5059091E4058823C9
:1059E00089F0992369F062E070E088EF9AE00E9404
:1059F000DE2C811103C08091E40508951092E40526
:105A00009091E40581E0892708958091E505882338
:105A1000F9F00E94C829DC01CB01805A9541AF4FB3
:105A2000BF4F8093E0059093E105A093E205B0930A
:105A3000E3058091E40581110BC062E070E086EF20
:105A40009AE00E94DE2C882319F081E08093E4051F
:105A50008091E40508959091D80590FF05C0969532
:105A60009695981748F003C0811106C090E09617EC
:105A700018F40E940A30089561E00E94B52F08953D
:105A8000882311F0FA0101C0FB0109950895E1E3B3
:105A9000F5E0118282818460828308956091D80547
:105AA0006695669570E04BE050E08EE391E00E94D1
:105AB0008F35892B19F481E0809332050E942525CA
:105AC00090932C0580932B058091330584608093FF
:105AD0003305089560914D018091D80580FF0CC079
