:100000000C94CE050C94EB050C94EB050C94E42DAC
:100010000C94EB050C94EB050C94EB050C94EB05A0
:100020000C94EB050C94EB050C94BA130C94E817A4
:100030000C946A240C94EB050C94EB050C94EB05E2
:100040000C94EB050C94EB050C94EB050C94EB0570
:100050000C94EB050C9493140C94EB050C94EB05A9
:100060000C94EB050C94EB050C94EB050C94EB0550
:100070000C94EB050C94EB050C94EB050C94EB0540
:100080000C94EB050C94EB050C94EB050C94EB0530
:100090000C94EB050C94EB050C94EB050C94EB0520
:1000A0000C94EB050C94EB050C94EB05050109028F
:1000B000A10185020901A1000509190129081500FE
:1000C0002501950875018102050109300931158165
:1000D000257F95027508810609381581257F9501D0
:1000E00075088106050C0A38021581257F95017572
:1000F000088106C0C005010980A101850319012AF4
:10010000B700150126B700950175108100C0050CD8
:100110000901A101850419012AA002150126A002E6
:10012000950175108100C005010906A1018506052C
:100130000719E029E71500250195087501810205D9
:1001400007190029EF1500250195F07501810205B9
:10015000081901290595057501910295017503910D
:1001600001C00660FF0961A1010962150026FF00B8
:100170009520750881020963150026FF00952075FA
:10018000089102C005010906A101050719E029E748
:1001900015002501950875018102950175088101F9
:1001A0000507190029FF150026FF0095067508812F
:1001B000000508190129051500250195057501910E
:1001C00002950175039101C02020202061626364C3
:1001D00065666768696A6B6C6D6E6F707172737457
:1001E00075767778797A3132333435363738393035
:1001F000524542545F2D3D5B5D5C233B27602C2EB6
:100200002F20202000DA0281FFD9F1DB20A4A62EC6
:10021000AF00A0C0D30000A1C8D30000AED580A815
:100220001F408D142000556E6465660041646A7538
:100230007374005261697365004C6F776572004496
:10024000656661756C74004C617965723A20003A9C
:10025000002C206B007800808182838485868788CB
:10026000898A8B8C8D8E8F9091929394A0A1A2A35A
:10027000A4A5A6A7A8A9AAABACADAEAFB0B1B2B3C6
:10028000B4C0C1C2C3C4C5C6C7C8C9CACBCCCDCE11
:10029000CFD0D1D2D3D4000001010101010101016D
:1002A0000102020202020202020203030303030329
:1002B00003030404040404040405050505050606F7
:1002C00006060607070707070808080809090909B5
:1002D0000A0A0A0B0B0B0C0C0C0D0D0D0E0E0E0F5B
:1002E0000F0F1010111111121213131414151516EB
:1002F000161717181819191A1A1B1B1C1D1D1E1E5C
:100300001F202021222223242425262627282929AC
:100310002A2B2C2D2D2E2F303132323334353637D7
:1003200038393A3B3C3D3E3F4041424344454647D5
:1003300048494A4C4D4E4F50515354555658595AAE
:100340005B5D5E5F616264656668696B6C6D6F7052
:1003500072737577787A7B7D7E8082838587888AC1
:100360008C8E8F91939596989A9C9EA0A2A3A5A7F8
:10037000A9ABADAFB1B3B5B7BABCBEC0C2C4C6C9F4
:10038000CBCDCFD1D4D6D8DBDDDFE2E4E7E9EBEEAD
:10039000F0F3F5F8FAFDFF00AF00AE000014001A0C
:1003A0000008001500170000000428162407220981
:1003B000210A0000001D001B0006001900050000B6
:1003C000000000000029002A414C00000013001228
:1003D000000C0018001C00000033280F240E220D12
:1003E000210B00000038003700360010001100001B
:1003F000000000000028002C422B4300001E001FBC
:1004000000200021002200000035282E242F223059
:100410002134000000000049001D140F141A1400BC
:10042000000000000001000100010000002700267C
:100430000025002400230000002D284F24522251C3
:10044000215000000031004D004B004E004A0000DA
:10045000000000000001000100010000001E021F5A
:1004600002200221022202000035022E022F023059
:100470000234020000000049001D140F141A140079
:100480000000000000010001000100707C2702262E
:1004900002250224022302717C2D024F00520051DA
:1004A000005000727C3102AB00AE00AD00AC000029
:1004B000000000000001000100010000003A003BC4
:1004C000003C003D00207800003E283F24402241AF
:1004D00021277800004200430044004500287800AE
:1004E00000000000000100010001000000A80065FC
:1004F00000D200D10046000000A900D000CD00CEFF
:1005000000CF000000AA00DC00D900DA00DB000008
:10051000000000000001000100010009025B00036F
:100520000100A0FA090400000103010100092111E2
:1005300001000122440007058103080001090401AC
:10054000000203000000092111010001222200071E
:1005500005820320000107050303200001090402AE
:1005600000010300000009211101000122B600076B
:100570000584032000011201000200000008534618
:1005800001000100010200010C0343006F00720032
:100590006E0065000000100366006F006F007300BE
:1005A000740061006E0000000403090400000000F4
:1005B000000000000000000000000000000000003B
:1005C000000000000000000000000000000000002B
:1005D0007E0F00D4FFFFFFC700000078000000007E
:1005E000000000002A2B280000000000000000008E
:1005F0000000000000000029000000002C1E342034
:10060000212224342627252E362D3738271E1F2059
:100610002122232425263333362E37381F0405069E
:100620000708090A0B0C0D0E0F10111213141516E2
:100630001718191A1B1C1D2F3130232D35040506E0
:100640000708090A0B0C0D0E0F10111213141516C2
:100650001718191A1B1C1D2F3130354C00000000D3
:1006600000003E5B4F5B3E003E6B4F6B3E001C3E0E
:100670007C3E1C00183C7E3C18001C577D571C001B
:100680001C5E7F5E1C0000183C180000FFE7C3E7FB
:10069000FF00001824180000FFE7DBE7FF003048E8
:1006A0003A060E00262979292600407F0505070015
:1006B000407F05253F005A3CE73C5A007F3E1C1C0A
:1006C0000800081C1C3E7F0014227F2214005F5F7C
:1006D000005F5F0006097F017F00006689956A0060
:1006E00060606060600094A2FFA2940008047E0431
:1006F000080010207E20100008082A1C0800081C92
:100700002A0808001E10101010000C1E0C1E0C00F1
:1007100030383E383000060E3E0E06000000000065
:10072000000000005F000000000700070000147FC9
:10073000147F1400242A7F2A120023130864620005
:10074000364956205000000807030000001C2241D3
:1007500000000041221C00002A1C7F1C2A000808FF
:100760003E080800008070300000080808080800F3
:100770000000606000002010080402003E5149455E
:100780003E0000427F400000724949494600214135
:10079000494D33001814127F100027454545390094
:1007A0003C4A49493100412111090700364949496C
:1007B0003600464949291E00000014000000004090
:1007C0003400000000081422410014141414140012
:1007D0000041221408000201590906003E415D59FA
:1007E0004E007C1211127C007F49494936003E417F
:1007F000414122007F4141413E007F49494941003A
:100800007F09090901003E41415173007F08080832
:100810007F0000417F4100002040413F01007F08F0
:10082000142241007F40404040007F021C027F00B4
:100830007F0408107F003E4141413E007F090909C5
:1008400006003E4151215E007F09192946002649D4
:100850004949320003017F0103003F4040403F000F
:100860001F2040201F003F4038403F006314081401
:1008700063000304780403006159494D4300007F7D
:1008800041414100020408102000004141417F0025
:1008900004020102040040404040400000030708F9
:1008A00000002054547840007F28444438003844E5
:1008B00044442800384444287F00385454541800D5
:1008C00000087E0902001824241C78007F08040414
:1008D000780000447D4000002040403D00007F1033
:1008E0002844000000417F4000007C047804780028
:1008F0007C08040478003844444438007C182424DC
:100900001800182424187C007C08040408004854AB
:100910005454240004043F4424003C4040207C0004
:100920001C2040201C003C4030403C004428102843
:1009300044004C9090907C004464544C4400000867
:10094000364100000000770000000041360800003A
:100950000201020402003C2623263C0000000000A5
:10096000000000000000000000000000C0E0F0F8FF
:10097000F81800C0F0FCFEFFFFFFFFFFFFFF7E0046
:10098000000000000000000080C0E0E0E0E0E0E0E7
:10099000E0E0C0800000000080C0E0E0E0E0E0E0D7
:1009A000E0E0C080000000E0E0C0C0E0E0E0E00087
:1009B00000E0E0C0C0E0E0E0E0E0C0800000000057
:1009C00080C0E0E0E0E0E0E0E0E0C08000000000A7
:1009D00000000000000000000000E0F0F0F0E0EC9B
:1009E000EEF7F37020007C7C7C7E007E7E7E7F7F35
:1009F0007F000080C0E07E5B4F5BFEC00000C00057
:100A0000DCD7DEDEDED7DC00C00000000000000026
:100A100000000000000000000000000000000000D6
:100A20000000000000F8FCFEFFE000FFFFFFFFFFFA
:100A3000FF80FFFFFFFFFFFFFFFFFF1F0701000019
:100A400000000000000000FFFFFF81000000000028
:100A50000081C3C3C30000FFFFFF8100000000004E
:100A60000081FFFFFF0000FFFFFF0100000000000A
:100A700000FFFFFF010000000001FFFFFF0000FF7B
:100A8000FFFF9D1C1C1C1C1C1C9DDFDFDF000000E9
:100A9000000000000000000000000F1F3F7F7F7F6C
:100AA0007F7F3F1E0C001F1F1F3F003F3F3F7F7F88
:100AB0007F00307B7F7830202030787F3B00030040
:100AC0000F7F0F0F0F7F0F000300000000000000DA
:100AD0000000000000000000000000000000000016
:100AE0000000000000030F1F3F3F3F3F1F1F3F3F1D
:100AF0007F7F7F3F3F1F3F7F7F7F7F7C7878381CE1
:100B00000F000000000000000103070707070707A8
:100B10000707030100000000010307070707070795
:100B2000070703010000000707070000000000009E
:100B3000000707070000000000000707070000008B
:100B40000103070707070707070703010000000065
:100B50000000000000000000000000000000000095
:100B60000000000000000000000000000000000085
:100B70000000000000000000000000000000000075
:100B80000000000000000000000000000000000065
:100B900000000000000000000000000011241FBE43
:100BA000CFEFDAE0DEBFCDBF11E0A0E0B1E0E0E6DC
:100BB000F1E602C005900D92A43AB107D9F725E0FD
:100BC000A4EAB1E001C01D92AE3CB207E1F70E9479
:100BD00091240C9447300C940000B0E0A0E0E3EFC7
:100BE000F5E00C941A2F209143013091440128170D
:100BF000390721F42091C2032032A9F190934401D6
:100C00008093430120E22093C2036C01F12CE12C7C
:100C10001092C10301EC13E0D0E0C0E08AE0882E1E
:100C2000912CA12CB12CC701B601A50194010E9401
:100C30006B2F605D603311F4209731F0C114D10443
:100C4000E104F10409F460E2F80162938F01C70145
:100C5000B601A50194010E946B2F69017A012196CA
:100C6000C530D10501F78CEB93E0CDB7DEB7ECE0F2
:100C70000C94362F482F2091B80390917F0357E0B2
:100C8000291302C080E0089530E0529FF001539F85
:100C9000F00D1124E058FC4F8181681306C080815B
:100CA000481303C085818111EECF2F5F3F4F27701E
:100CB000E7CFFC01AC014C5F5F4F8FEF91E32191D7
:100CC000822728E030E087FF09C0880F892721505C
:100CD0003109C9F7E417F50791F70895880FF7CFA1
:100CE000E8EDF0E080818E7F80831092E200109228
:100CF000DA001092E100A0EEB0E08C9181608C935C
:100D000080818F77808319BCA7EDB0E08C918E7FB6
:100D10008C9380818F7E8083109268030895209148
:100D2000E4003091E50095E6A9012091EC00822FC6
:100D3000817020FF06C08091E80080FF06C080E03F
:100D400008952091E80022FD1AC080917503882340
:100D500089F0853089F08091EB0085FD0FC02091EE
:100D6000E4003091E50042175307F9F29150E1F6A3
:100D700084E0089582E0089583E0089581E0089575
:100D80008091770387FF13C08091E80082FF06C03F
:100D90008091E8008B778093E80004C08091750310
:100DA0008111F2CF0895809175038823D9F3809142
:100DB000E80080FFF8CF8091E8008E77ECCF982F85
:100DC0009093E900242F762F50E0891731F070912D
:100DD000EC002091ED005091F00021FD07C09F5FD5
:100DE000973071F78093E90081E008953091EB002E
:100DF0003E7F3093EB003091ED003D7F3093ED006E
:100E00003091EB0031603093EB007093EC00209355
:100E1000ED005093F0002091EE0027FDE0CF80E040
:100E20000895B0E0A0E0E7E1F7E00C941E2FC8EDD4
:100E3000D0E088818F7E8883E7EDF0E0808181605B
:100E4000808384E082BF81E08093680388818E7F05
:100E5000888302EE10E0F80110821092DA0081EE31
:100E6000C82ED12CF601108288818F7788838881E3
:100E70008068888388818F7D888319BC1092750370
:100E800010927603109274031092730390EEE92E81
:100E9000F12CF70180818B7F80838881816088833A
:100EA00042E060E080E00E94DF06F60180818E7FF4
:100EB0008083F80180818160808380818860808365
:100EC000F70180818E7F8083888180618883CDB7A0
:100ED000DEB7E8E00C943A2FFC0180917D039091FD
:100EE0007E0386179707A0F06115710529F490918C
:100EF000E8009E779093E80090E06115710551F449
:100F0000911108C08091E80082FF34C080E008950C
:100F1000BC01F2CF809175038823C1F18530C1F106
:100F20008091E80083FD30C08091E80082FDEACF27
:100F30008091E80080FFE1CF8091F3002091F200E2
:100F4000382F6115710519F02830310558F091E0FE
:100F50002830310509F090E02091E8002E772093A9
:100F6000E800CBCF81918093F100615071092F5F30
:100F70003F4FE7CF80917503882341F0853041F0E2
:100F80008091E80083FFBECF81E0089582E008955C
:100F900083E0089580916A03089587E797E7909327
:100FA00001088093000888E19AE00FB6F894A895AC
:100FB000809360000FBE90936000FFCF2FB7F8942E
:100FC000609164037091650380916603909167035B
:100FD0002FBF0895909140019923D1F09091610322
:100FE00097FF16C0E82FE695E695E695EE31E0F41A
:100FF000F0E0E255FE4F282F277081E090E001C01D
:10100000880F2A95EAF78095928189238283089533
:10101000E8EAF1E09191891303C0DF0111971C9276
:1010200091E0EE3AF907B1F70895909140019923C4
:10103000C1F09091610397FF14C0E82FE695E69503
:10104000E695EE31F8F4F0E0E255FE4F877021E0CE
:1010500030E001C0220F8A95EAF78281822B8283D9
:101060000895A8EAB1E0EFEF90E02D91821751F0DA
:10107000EF3F19F4211101C0E92F9F5F9630A9F7C6
:10108000EF3F09F408950E2E000CFF0BEA55FE4FBA
:10109000E6CFA3E0B0E0EFE4F8E00C94242F209139
:1010A0005F033091600328173907A1F09093600324
:1010B00080935F03E0915D03F0915E03309751F000
:1010C00024E029839B838A830084F185E02DCE016F
:1010D000019609952396E2E00C94402FA3E0B0E03E
:1010E000E4E7F8E00C94242F20915B0330915C033B
:1010F00028173907A1F090935C0380935B03E0917C
:101100005D03F0915E03309751F023E029839B83C8
:101110008A830084F185E02DCE01019609952396FE
:10112000E2E00C94402F80915903882359F0E0911C
:101130005D03F0915E03309729F00190F081E02D7E
:101140000995089580E0089580914E0380FD16C0B2
:1011500081FD16C082FD16C080914D038823A1F049
:10116000883280F428E0829FC001112468E270E098
:101170000E94572F862F672B39F0089582E008953B
:1011800084E0089588E0089581E0089580914E03F9
:1011900080FD14C081FD14C082FD16C080914C03F7
:1011A000882381F08E3180F420E5829FC0011124D4
:1011B0006EE170E00E94572F862F089584E1089514
:1011C00088E2089588E0089580E50895282F35EB9A
:1011D0002303C001112497FF04C080589109892F6F
:1011E000089580589F4FFBCF539A0895FA018111BB
:1011F00001C0FB010995089560913C0180913E0377
:1012000080FF0CC070E080913B0123E0829FC00111
:10121000112484569D4F0E941C0E089580913D011B
:1012200090913E0123E0829FF0011124E456FD4F8E
:10123000891740F71182108212828F5F3396F8CFA0
:10124000EEE3F3E080818E7F8083E9E9F2E0828142
:10125000816082830E94FC08089580913E03982F4C
:101260009C7F71F480913E038370846080933E0381
:1012700080914103893718F088E7809341030895EE
:10128000883080F7F5CF80E00895F894E82FE29554
:10129000EF70F0E031A1282F2F7081E090E001C0C5
:1012A000880F2A95EAF7982F9095932391A392A1FE
:1012B000892B82A3789408950F931F9380915903EB
:1012C000882329F00E94DE071F910F9108950E9444
:1012D000DE0700914E0210914F0220915002309192
:1012E0005102600F711F821F931FEECF9091610317
:1012F00092FF10C041E0282F2471243009F040E013
:1013000031E0282F2871283009F030E0431711F020
:101310002CE0822793FF10C041E0282F2471243154
:1013200009F040E031E0282F2871283109F030E041
:10133000431711F02CE082273091620330FF10C078
:1013400051E0282F2171213009F050E041E0282F91
:101350002871283009F040E0541711F029E0822765
:1013600031FF10C041E0282F2171213109F040E008
:1013700031E0282F2871283109F030E0431711F0AF
:1013800029E0822794FD877E089582389105B9F17E
:10139000B0F48133910509F47DC048F48932910598
:1013A00009F46DC08A32910509F47BC00895853334
:1013B000910509F45FC08933910509F10895833ED1
:1013C0009105D9F138F4803E910529F1823E9105CD
:1013D00079F10895863E9105D9F1873E910509F48A
:1013E0003EC0843E910541F52091620321FF24C057
:1013F0008091610384FD19C087EE90E008952091EB
:101400006103237009F05AC02091620323FF14C0C6
:1014100089E290E008952091610320FD38C0309169
:10142000620330FF09C024FF43C090E080E00895CC
:101430002091610322FDF7CF08952091610322FDE1
:101440003AC03091620330FD39C024FFF5CFEDCFB3
:101450002091610323FFF0CF24FDE7CFCDCF209172
:10146000610323FD2EC03091620331FFEECF84EE85
:1014700090E008952091610325FFDECFC9CF209130
:10148000610325FD21C02091620323FFD5CF89E3AD
:1014900090E0D2CF2091610326FFCECF8AE290E088
:1014A00008952091610326FFC7CF81E390E008955E
:1014B00083EE90E0089582EE90E0089580EE90E053
:1014C000089586EE90E0089585E390E008951F93D7
:1014D000CF93DF930E94C509EC01C11580E5D807C1
:1014E000F0F5C11580E4D80708F09CC0C03ED105D6
:1014F00020F5CD3CD10508F082C0C83AD10578F47A
:10150000C53AD10508F073C0C130D10519F1209753
:1015100009F1C430D105F0F4D0E0C0E01BC0C33CF9
:10152000D105D0F7C85AD0E0CC0FDD1FC85BDE4F25
:101530000990D881C02DD4640DC0C11580E2D807B0
:1015400008F0D1C0C11581E0D80708F05AC0C83EE4
:10155000D10510F7CE01DF91CF911F910895C036CC
:1015600082E5D80718F5C03482E5D80708F06BC0CB
:10157000C03282E5D80708F05FC0C11582E5D80700
:1015800008F497C02C2F2695269580E2289F90017D
:1015900011248C2F8370C1E0D0E002C0CC0FDD1F7E
:1015A0008A95E2F7C22BD32BDD68D4CFC03A82E50F
:1015B000D80760F4C03882E5D80708F459C0CF7165
:1015C000D0E0DC2FCC27C46FD06AC4CFC03C82E50A
:1015D000D80708F462C0C03E82E5D80708F09CCF67
:1015E000DC2FCC27CC27DF71C06FD06AB3CFC55AB0
:1015F000D0E0CB5BDE4FC881D0E0D064ABCFD0650C
:10160000A9CF8D2F0E947609182FCE0199270E940D
:10161000C509C12FD0E0DC2FCC27CC27DF71C82B28
:10162000D92B98CFCE0199270E94C509CC27DF700E
:10163000C82BD92BD06A8ECFCF71D0E0DC2FCC272E
:10164000C16FD06A87CF2C2F26952695277080E210
:10165000289F900111248C2F8370C1E0D0E002C03C
:10166000CC0FDD1F8A95E2F7C22BD32BDC6872CF3B
:101670002C2F26952695277080E2289F9001112413
:101680008C2F8370C1E0D0E002C0CC0FDD1F8A95A3
:10169000E2F7C22BD32BDA685DCF8C2F8F710E94BB
:1016A0007609C82FD0E0DC2FCC27CC27DF71D062A1
:1016B00051CF8C2F8F710E94760955E0D695C79532
:1016C0005A95E1F7CF70D0E0DC2FCC27282F30E0FF
:1016D00084FF05C044E0220F331F4A95E1F7C22B77
:1016E000D32BD06937CF8D2F8F710E947609182F99
:1016F000CE0199270E94C509C12FD0E0DC2FCC274D
:10170000CC27DF71C82BD92BD2CF809590911402B2
:101710009823909314020895809114029091EB0104
:10172000892B9091EA01992391F0892B90914001A6
:10173000992371F09091610397FF0AC09EE120EB1D
:1017400031E040E0915040F441111092EA010895D7
:1017500096E028EA31E0F5CFF90151919F01552338
:1017600089F34F5FEFCF8091B80390917F03981377
:1017700001C008958F5F8770FACF292F983078F5D0
:10178000863068F590E036E0239F800D911D11248E
:10179000682F677023E0969587952A95E1F7FC01FD
:1017A000EE0FFF1FE80FF91FE053FE4F50E040E03F
:1017B00080E0219130E0062E02C0369527950A94EC
:1017C000E2F721703327042E01C0220F0A94EAF7B2
:1017D000822B4F5F5F4F4330510559F7089580E0EA
:1017E0000895292F983098F5863088F590E036E0F6
:1017F000239F800D911D1124282F277041E001C0E7
:10180000440F2A95EAF723E0969587952A95E1F704
:10181000FC01EE0FFF1FE80FF91FE053FE4F30E011
:1018200020E070E05191DF011197CB01022E02C040
:10183000969587950A94E2F7817081958527842390
:1018400085278C932F5F3F4F2330310559F708953B
:101850008093670208959091670221E030E0F901DA
:1018600001C0EE0F8A95EAF7D90102C0AA0FBB1F8B
:101870006A95E2F7EA2B01C0220F4A95EAF7892F11
:101880008E23E81305C0292B822F0E94280C08956F
:1018900020952923F9CF21E030E001C0220F8A955D
:1018A000EAF720958091670282230E94280C089510
:1018B0009091E901809589238093E901282F277071
:1018C00069F4891759F09091620392FF07C08695D9
:1018D000869586950E944B0C1092E901089521E0AF
:1018E00030E001C0220F8A95EAF780916702822BCF
:1018F0000E94280C089580935C020895982F929579
:101900009F7011F0892F94E0282F2695269511F0CD
:101910009E5F822F869509F09F5F892F0895CF9350
:10192000DF93682F81E06A3019F06D3031F480E088
:101930000E941D0DDF91CF9108958091CC0590916B
:10194000CD0526E0FC01A6ECB5E001900D922A95AC
:10195000E1F7603E08F458C026E0FC0111922A9598
:10196000E9F7C091CC05D091CD0546E050E0BE012D
:1019700086EC95E00E94D92F9E01265C3340892B8E
:1019800041F1C90145E0969587954A95E1F741E017
:1019900050E0BA0102C0660F771F8A95E2F7CB01CB
:1019A0006091C4037091C503862B972BB9016B5FBF
:1019B0007F4FE5E076956795EA95E1F702C0440F21
:1019C000551F6A95E2F7842B952B9093C50380935E
:1019D000C4032A5F3F4F4091C303642F70E0C901E5
:1019E0000E94002F481B463010F4240F311D211592
:1019F00072E0370710F030E020E02A533C4F30937C
:101A0000CD052093CC0596CFF6E06F9FB001112451
:101A1000645A794F46E050E00E94D02FA2CFCF9376
:101A2000DF93EC01FE018491811103C0DF91CF911E
:101A300008950E948F0C2196F5CFCF93382FE09117
:101A4000CC05F091CD05E65CF3402091C303622FF5
:101A500070E0CF010E94002F281B822F332361F0FA
:101A600066E00E944B2FC82FC15010F4CF9108950B
:101A700080E20E948F0CF8CF9F01280F311D2115A5
:101A8000324018F080E0F0E0E0E08E0F9F2F911DD3
:101A90008A539C4F9093CD058093CC05E7CF0E944D
:101AA0000F0D81E00E941D0D089580914001882353
:101AB00059F18091610387FF27C00E948C0B8093AE
:101AC000AF0140E250E06CEE71E08EEA91E00E94DE
:101AD000D92F892BC1F080E2EEEAF1E0ACEEB1E063
:101AE00001900D928A95E1F7E0915D03F0915E031C
:101AF000309749F086E08093AE010480F581E02DB7
:101B00008EEA91E0099508950E948C0B8093A601BE
:101B100048E050E06CE072E086EA91E00E94D92F44
:101B2000892B89F388E0E6EAF1E0ACE0B2E00190CD
:101B30000D928A95E1F7E0915D03F0915E03309795
:101B400011F30280F381E02D86EA91E0DBCF882358
:101B500021F00E94850B0E94550D0895882339F0CD
:101B600090911402982B909314020E94550D0895A1
:101B70000F931F93CF93DF938B01EA01909175032D
:101B8000943061F58093E9008FEF9091E8008150E7
:101B900095FD06C095ED9A95F1F700008111F5CFFE
:101BA0008091E80085FF1AC00E948F06811111C044
:101BB0008091E80085FD06C08091E8008E778093D3
:101BC000E800F2CFF80181918F018093F100219715
:101BD00079F78091E8008E778093E800DF91CF91CC
:101BE0001F910F91089543E050E0BC0184E00E94F2
:101BF000B80D089546E050E0BC0184E00E94B80DA5
:101C0000089540E250E0BC0184E00E94B80D0895C0
:101C1000CF93DF93EC0148E050E0BC0181E00E94EB
:101C2000B80D88E0FE01ABE6B3E001900D928A9515
:101C3000E1F7DF91CF9108954BB1477F5BB15860D9
:101C4000EFB7F8949B01220F331F260F371F280F81
:101C5000391F2817390741F4EFBF8FE594E001974A
:101C6000F1F700C000000895DC016D91CD0178E02E
:101C70005BB9000000C067FF4BB9660F000000C0F1
:101C800000C000C04BB900C07A9591F7E2CFB0E038
:101C9000A0E0EDE4FEE00C941C2F7C015B016A01E6
:101CA00080914D0201E010E08A3010F40AE010E06B
:101CB000C1E0D0E0B501C701F6010995811104C06A
:101CC00021960C171D072CF4CDB7DEB7EAE00C9473
:101CD000382FCC9F9001CD9F300D300D112490E016
:101CE00080E045E34A95F1F70000019682179307DB
:101CF000C1F7E0CFCF93C82F6FEF811164E284E288
:101D000090E00E9413306FEFC11169E085E290E02E
:101D10000E9413306FEFC11165E286E290E00E94ED
:101D20001330CF910895CF93DF93C8EAD1E060E0FC
:101D3000CE010E9413302196C11584E0D807B9F76F
:101D4000DF91CF9108951F93CF93DF93122F8430AB
:101D5000E0F46830D0F44630C0F4C42FD0E0CC0FAB
:101D6000DD1F9CE0699FC00DD11D112490E6899F65
:101D7000C00DD11D1124632FCE0188960E9413300F
:101D8000612FCE0189960E941330DF91CF911F9170
:101D90000895AF92BF92CF92DF92EF92FF921F937E
:101DA000CF93DF938BE9C82E83E0D82ED0E0760165
:101DB000C0E014C0F50125913491412F6C2F8D2F77
:101DC0000E94A30E82E0A80EB11C1F5F163091F78F
:101DD0008CE0E80EF11CCF5FC83019F0570110E01D
:101DE000E9CFDF5F80E6C80ED11CD43001F7DF9168
:101DF000CF911F91FF90EF90DF90CF90BF90AF9069
:101E0000089580E00E947A0E60E087E290E00E94F0
:101E100013300E94C90E0E94930E81E00E947A0E38
:101E2000089584E290E00E94EF2F843289F485E2E5
:101E300090E00E94EF2F893059F486E290E00E94F2
:101E4000EF2F91E0853209F090E0892F817008959D
:101E500080E0FCCF0F931F93CF93DF93843030F556
:101E6000683020F5463010F5C42FD0E0CC0FDD1FD0
:101E70002CE0629FC00DD11D112430E6839FC00D60
:101E8000D11D1124CE0188960E94EF2F082F10E05B
:101E9000102F0027CE0189960E94EF2F9801282B42
:101EA000C901DF91CF911F910F91089590E080E0DB
:101EB000F8CF462F783040F4663030F4843020F488
:101EC000672F0E942A0F089590E080E00895CF9236
:101ED000DF92FF920F931F93CF93DF936C010091DA
:101EE000670280915C02082BC3E0D0E010E0FC2E7A
:101EF000C8010C2E02C0959587950A94E2F780FDE3
:101F00000CC02197A0F7F12C8F2DDF91CF911F915D
:101F10000F91FF90DF90CF900895B6018C2F0E9413
:101F2000590F0E94670A019761F3EECFCF93DF93B9
:101F3000EC010E94670FBE010E94590F0E94670AC0
:101F4000DF91CF910895FC0124812223C1F080818B
:101F500091810E94960F92959F70963091F058F45F
:101F6000925F9F70923058F4803F19F030F4883EB1
:101F700030F481E008959A5FF4CF843FD1F380E09C
:101F80000895883EB0F3813FD1F7F3CFA6E0B0E0EB
:101F9000ECECFFE00C94232F49835A8349815A814A
:101FA0009923A1F0222391F0CA010E94670F182FF4
:101FB000682F89819A810E94F10B69817A81812F32
:101FC0000E94590F2696E3E00C943F2FCA010E940D
:101FD000BD0B182FF2CFAB0124E630E0BC0188E73F
:101FE0000E94B42C21E0892B09F020E0822F089573
:101FF00080914A0390914B03911103C091E089278E
:102000000895882369F062E070E089E993E00E9416
:10201000EB0F811103C080914A03089510924A0387
:1020200080914A03EBCFCF93C0914A0380914B0339
:102030008823D1F00E94DE07605A75418F4F9F4F71
:10204000609346037093470380934803909349033A
:10205000C11108C062E070E087E993E00E94EB0FD5
:10206000811105C0C0914A038C2FCF91089581E062
:1020700080934A03F7CFB0E0A0E0E1E4F0E10C94F4
:102080001A2F49015A016B017C010E942D0984011C
:10209000A4016A2D7B2D88E090E00E9425309401F8
:1020A0004A2D5B2DB601C70100E20E94B52F622FB9
:1020B00083E290E00E941330CDB7DEB7ECE00C94E1
:1020C000362FB0E0A0E0E7E6F0E10C941A2F182FCD
:1020D000C62FD42F822E00913E0300FF51C0809165
:1020E0003F03811308C080914003861304C0809190
:1020F0004103841729F080919B02826080939B02A8
:10210000E02FE695E695F0E0EE56FE4F8081809355
:102110009902802F8C7F8430E9F4ED2FD93708F0B5
:10212000E8E7F0E0E956FD4FC1112FC02491F22FEE
:10213000E22F00FF0FC080913D0190913E0133E0FE
:10214000839FD0011124A456BD4F891708F492C073
:102150000E94FC0810933F03C0934003D0934103B7
:10216000882071F020913E036091420370914303F7
:10217000312FAE0180914403909145030E943B10A2
:10218000CDB7DEB7ECE00C94362FEC2EF12CE491B9
:102190009E2ECE2ED12C26E0129FC00111242FEFAF
:1021A00030E0B9010E94002F812F90E0880F991F25
:1021B000F5E5F69FA001F79F500D1124841B950BA8
:1021C000B82EBB0CB80EA9014E195F094C9DC00179
:1021D0004D9D900D5C9D900D1124F92FCB9DA0017C
:1021E0001124452F5527D901A41BB50BAC9DA00187
:1021F000AD9D500DBC9D500D1124D901AB19B109F5
:102200005D01AE9CD001AF9CB00DBE9CB00D112401
:10221000AB2FBB272A1B3B0B2C9DD0012D9DB00D56
:102220003C9DB00D11242B2F62307105A1F050F4AC
:102230006115710509F47DCF6130710581F0292F99
:10224000F52F77CF6430710569F080F06630710545
:1022500009F46FCFF4CF2E2FE92FFB2F6ACF2E2F4B
:10226000E52F67CF292FFE2FEB2F63CFE92FF92D15
:10227000252F5FCF1196EC9311972C931296FC9318
:1022800012978F5F139661CFEEE3F3E0438121E174
:10229000421B08F440E021E0628181810E946110CC
:1022A0000895EEE3F3E0438121E1420F08F44FEF9C
:1022B00021E0628181810E9461100895EEE3F3E0E4
:1022C000628121E1621B08F460E021E043818181A9
:1022D0000E9461100895EEE3F3E0628121E1620F54
:1022E00008F46FEF21E0438181810E94611008951D
:1022F000EEE3F3E0818121E0438162818A500E9414
:1023000061100895EEE3F3E0818121E04381628171
:10231000865F0E946110089580914203882319F01E
:1023200081508093420320913E0330913F034091BE
:1023300040035091410360914203709143038091A7
:102340004403909145030E943B10089580914203FD
:10235000833018F48F5F8093420320913E033091C5
:102360003F034091400350914103609142037091BB
:10237000430380914403909145030E943B100895CC
:1023800020913E0320FF24C02370246020933E034D
:1023900080919B02816080939B02662381F0309143
:1023A0003F0340914003509141036091420370917B
:1023B000430380914403909145030E943B1020E029
:1023C000409141036091400380913F030E9461105E
:1023D000089580913E0386958695815009F481E0A9
:1023E00061E00E94C011089561E081E00E94C01187
:1023F00008959091620392FB222720F9281779F023
:1024000080FB92F990936203609161037091620383
:1024100084E090E00E94313082E00E94580C0895E0
:102420004F925F926F927F928F929F92AF92BF92E4
:10243000EF92FF920F931F93CF93DF937B01FB01EA
:1024400040805180628073809FB7F89480906403CD
:1024500090906503A0906603B09067039FBF8418B7
:102460009508A608B708F4E68F169104A104B104F4
:1024700018F4C1E0442329F1C82F880FDD0BFE01B9
:1024800083E0EE0FFF1F8A95E1F7E050FF4F818157
:102490009281835D9D4F408150E00417150708F439
:1024A000A801B9010E94E62FCE010E948A2EC82FF2
:1024B000882339F00E94DE07F701608371838283ED
:1024C00093838C2FDF91CF911F910F91FF90EF900D
:1024D000BF90AF909F908F907F906F905F904F9044
:1024E0000895ABE0B0E0E7E7F2E10C94222F88E03A
:1024F000EEE3F3E0DE01119601900D928A95E1F78B
:102500008091990290919A02A0919B0289879A8763
:10251000AB8741E08B85811101C040E00BE010E00A
:102520009E012F5F3F4F69E472E084E00E94101229
:10253000811110929B022B96E4E00C943E2F0F9396
:102540001F93CF93DF93EC0144E050E062E372E02D
:102550000E94D92F41E0892B09F440E004E010E00B
:102560009E0169E272E082E00E941012DF91CF9139
:102570001F910F910895A4E0B0E0E1ECF2E10C941A
:10258000232F40914502509146026091470270917D
:1025900048022FB7F8948091640390916503A0914D
:1025A0006603B09167032FBF841B950BA60BB70B77
:1025B00011E084369105A105B10570F10E945C0916
:1025C0006E5F7F4F8F4F9F4F69837A838B839C838E
:1025D0008091190190911A01835D9D4F40911801DE
:1025E00050E04530510510F044E050E0BE016F5F0F
:1025F0007F4F0E94E62F83E090E00E948A2E182FE2
:10260000882351F00E94DE076093450270934602D2
:102610008093470290934802812F2496E3E00C9424
:102620003F2FEF92FF921F93CF93DF9300D000D004
:102630000F92CDB7DEB77B0190E080E00E948A2E3A
:10264000182F882309F487C04091030150E04115F9
:10265000510511F041E050E06091040170910501D5
:10266000635D7D4FCE0105960E94E62F40912502C5
:102670005091260260912702709128022FB7F8949A
:102680008091640390916503A0916603B091670304
:102690002FBF841B950BA60BB70B84369105A105A4
:1026A000B10540F48EE292E00E9459069D8189179F
:1026B00009F451C081E090E00E948A2E81111AC075
:1026C00010E08091210290912202A0912302B0910A
:1026D0002402F70180839183A283B383812F0F901B
:1026E0000F900F900F900F90DF91CF911F91FF905F
:1026F000EF90089540910B0150E04530510510F0E6
:1027000044E050E060910C0170910D01635D7D4FDC
:10271000CE0101960E94E62F8EE292E00E945906B9
:102720009D818913CDCF0E94DE07609325027093AF
:102730002602809327029093280289819A81AB8197
:10274000BC818093210290932202A0932302B09334
:10275000240211E0B6CF80912E0290912F02A09119
:102760003002B091310289839A83AB83BC8311110B
:10277000E4CFA7CF1F920F920FB60F9211242F9381
:102780003F934F935F936F937F938F939F93AF93F9
:10279000BF93EF93FF938091E10082FF09C0809186
:1027A000E20082FF05C08091E1008B7F8093E10011
:1027B0008091DA0080FF24C08091D80080FF20C083
:1027C0008091DA008E7F8093DA008091D90080FFBB
:1027D0009DC080E189BD82E189BD09B400FEFDCFC5
:1027E00081E08093750380916803811109C00E9484
:1027F00070060E9411078091E20084608093E200DD
:102800008091E10080FF17C08091E20080FF13C03B
:102810008091E2008E7F8093E2008091E2008061EF
:102820008093E2008091D80080628093D80019BC28
:1028300085E0809375038091E10084FF2BC0809137
:10284000E20084FF27C080E189BD82E189BD89B5AE
:10285000982F917080FFFBCF8091D8008F7D80935F
:10286000D8008091E1008F7E8093E1008091E200AA
:102870008F7E8093E2008091E20081608093E2008D
:1028800080917603882309F447C084E08093750320
:10289000809175038091E10083FF27C08091E20061
:1028A00083FF23C08091E100877F8093E10082E075
:1028B00080937503109276038091E1008E7F809360
:1028C000E1008091E2008E7F8093E2008091E2003F
:1028D00080618093E20042E060E080E00E94DF06D9
:1028E0008091F00088608093F000FF91EF91BF919C
:1028F000AF919F918F917F916F915F914F913F9198
:102900002F910F900FBE0F901F90189519BC109229
:1029100075031092680374CF8091E30087FD93E004
:1029200090937503B5CF78941F921FB61F92112410
:102930008F939F93AF93BF938091640390916503AE
:10294000A0916603B09167030196A11DB11D80930C
:10295000640390936503A0936603B0936703BF91EC
:10296000AF919F918F911F901FBE1F9018959C0152
:102970004FB7F8948091640390916503A09166032A
:10298000B09167034FBF821B930B08952FB7F89444
:102990008091640390916503A0916603B0916703F1
:1029A0002FBF08950E94C6149C01909155038091F9
:1029B0005603982B21F030935203209351039091AA
:1029C000570380915803982B21F0309350032093A4
:1029D0004F03E0915D03F0915E03309749F082E090
:1029E000809353030680F781E02D83E593E00995FA
:1029F00008951092140280914001882339F180914A
:102A0000610387FF23C0E0EBF1E08EE1DF011D925F
:102A10008A95E9F790E080E00E946E0890E080E0FF
:102A20000E9449081092EB010E94550D86E0E3E5F3
:102A3000F3E0DF011D928A95E9F710924C031092A2
:102A40004D0310924E030E94D2140895E8EAF1E07B
:102A500086E0DCCFAAE2B0E0E0E3F5E10C94232FBE
:102A600087E793E02091F100DC012D93CD01B3E0E5
:102A70008F379B07B9F780917803833009F472C0D0
:102A8000B8F4813009F449C0823009F4B3C08091B0
:102A9000E80083FF8BC280917703909178039A308E
:102AA00008F084C2E92FF0E0E75BFF4C0C948D2F17
:102AB0008A3009F48EC08B3009F471C0893039F73F
:102AC00080917703813219F780917B0390917C0389
:102AD000009711F00297D9F68091E800877F8093E4
:102AE000E8008091E80082FF38C09091F300809167
:102AF000F200029731F48091F100813011F08630BC
:102B000021F48091F10080936A038091E8008B7733
:102B10008093E8000E94C006BACF80917703813A83
:102B200009F0B5CF8091E800877F8093E80080911D
:102B30007B0390917C03892B61F468E08BE693E042
:102B400070E00E946C078091E8008B778093E8002A
:102B50009ECF60E090E080E0F3CF8091750381111B
:102B6000C0CF95CF80917703813A09F090CF8091C3
:102B70007B0390917C03892B09F089CF8091E80039
:102B8000877F8093E8008091E80080FFFCCF8091F0
:102B900040018093F1008091E8008E77B9CF809159
:102BA0007703813209F073CF80917B0390917C038E
:102BB000892B09F06CCF8091E800877F8093E80033
:102BC0000E94C00680917903809340010E94F9140D
:102BD0005ECF80917703813209F059CF8091E80070
:102BE000877F8093E8000E94C00680917A038093DB
:102BF00069034DCF80917703813A09F048CF8091E6
:102C0000E800877F8093E8008091E80080FFFCCF98
:102C100080916903BECF803899F0823809F0C6C12F
:102C200080917B038F70873008F0C0C18093E900EA
:102C30008091EB0085FB882780F91092E90006C09F
:102C40008091730390917403911182609091E800D8
:102C5000977F9093E8008093F1001092F1008091AB
:102C6000E8008E779FC1882309F48DC1823009F076
:102C70009DC180917903811190C180917B038F70F8
:102C80002FEF280F263008F091C18093E9002091A2
:102C9000EB0020FF82C1933031F48091EB00806221
:102CA0008093EB007AC19091EB0090619093EB00E0
:102CB00021E030E001C0220F8A95EAF72093EA0074
:102CC0001092EA008091EB008860EACF81116EC11A
:102CD000109179031F778091E3008078812B809396
:102CE000E3008091E800877F8093E8000E94C0069F
:102CF0008091E80080FFFCCF8091E30080688093A2
:102D0000E30082E0111183E0809375034FC1805886
:102D1000823008F04BC12091790330917A032C3D29
:102D2000E3E03E07A1F583E08A838AE289834FB717
:102D3000F894DE01139620E03EE051E2E32FF0E04C
:102D400050935700E49120FF03C0E295EF703F5F7E
:102D5000EF708E2F90E0EA30C0F0C7968D939D9370
:102D60002F5F243159F74FBF8091E800877F809310
:102D7000E8006AE270E0CE0101960E946C07809143
:102D8000E8008B778093E80011C1C096E7CF80916F
:102D90007B0390917C03432F55274330510509F461
:102DA0004AC078F54130510509F47AC08BE590E0CE
:102DB000EBE1F5E04230510509F0F8C02091E80060
:102DC000277F2093E80020917D0330917E038217B6
:102DD000930708F49C0140E02115310509F065C016
:102DE000411163C08091E80082FDC9CF80917503D5
:102DF000882329F2853019F28091E80083FFF2CF11
:102E0000BECF4132510509F43CC04232510509F0B0
:102E1000CDC08330910508F0C9C0FC01EE0FFF1F43
:102E2000E956FE4F0190F081E02D8C569E4FDC015B
:102E30008C9190E01AC0332721303105D1F0211553
:102E4000310561F02230310509F0B0C0E8E8F5E065
:102E5000E4918E2F90E0E8E8F5E007C0E8EAF5E0BD
:102E6000E4918E2F90E0E8EAF5E0009709F49EC027
:102E7000A5CFE6E9F5E0E4918E2F90E0E6E9F5E0F4
:102E8000F4CF8330910508F091C0880F991FFC01A1
:102E9000E356FE4F0190F081E02D89E090E08ECF67
:102EA00082E190E0E6E7F5E089CF80917503882321
:102EB00009F465CF853009F462CF8091E80083FD85
:102EC0005ECF8091E80082FD8DCF8091E80080FF89
:102ED00083CF9091F3008091F2002115310519F014
:102EE0008830910550F041E0089709F040E080916A
:102EF000E8008E778093E8006FCF44914093F10013
:102F00003196215031090196E8CF803809F04EC042
:102F10008091E800877F8093E8008091760380931A
:102F2000F1009DCE811142C0109179031230F0F56D
:102F30008091E800877F8093E800109376030E94D9
:102F4000C006112311F084E005C08091E30087FDE5
:102F5000FACF81E08093750342E061EC81E00E944A
:102F6000DF0642E261EC84E00E94DF0642E261ECAF
:102F700082E00E94DF0642E260EC83E00E94DF060E
:102F80008091750313C080917903813079F481E0D9
:102F9000933009F080E0809374031092E9008091EF
:102FA000E800877F8093E8000E94C0068091E800D7
:102FB00083FF0AC08091E800877F8093E8008091BA
:102FC000EB0080628093EB00AA96E3E00C943F2F25
:102FD0001F920F920FB60F9211242F933F934F938E
:102FE0005F936F937F938F939F93AF93BF93CF9391
:102FF000DF93EF93FF93D091E900DF708091EC00B5
:10300000C82FC17080FDC0E81092E9008091F000E7
:10301000877F8093F00078940E942A151092E9002F
:103020008091F00088608093F000CD2BCF70C0932A
:10303000E900FF91EF91DF91CF91BF91AF919F9107
:103040008F917F916F915F914F913F912F910F9051
:103050000FBE0F901F9018950E94F9142FEF84E374
:103060009CE0215080409040E1F700C0000088E1E2
:103070009AE00FB6F894A895809360000FBE9093E5
:103080006000FFCF662309F45DC08D3C41F40E94CF
:10309000C6088195809356030E94D21408958E3CF1
:1030A00019F40E94C608F6CF8F3C31F40E94C6087E
:1030B000819580935503F0CF803D19F40E94C60896
:1030C000F8CF893D29F40E94A40880935703E4CFE8
:1030D0008A3D21F40E94A4088195F7CF8B3D31F4FD
:1030E0000E94A408819580935803D6CF8C3D19F493
:1030F0000E94A408F8CF9FE2980F983070F4815D89
:10310000990B21E030E001C0220F8A95EAF7809107
:103110005403822B80935403BFCF8D3D31F48091B3
:103120004E03816080934E03B7CF8E3D21F4809192
:103130004E038260F7CF8F3D09F0AECF80914E03F2
:103140008460F0CF409155038D3C59F48091560333
:1031500087FF0DC01092560341110BC010924C0313
:1031600008C08E3C81F48091560318169CF34423CA
:1031700081F08091570390915803892B09F08CCFEF
:1031800010924D0389CF8F3C49F447FFF0CF109246
:103190005503809156038111ECCFE0CF803D19F4A7
:1031A0001416ACF3E4CF90915703893D29F4191616
:1031B000F4F610925703DBCF8A3D19F497FFD7CF6F
:1031C000F8CF909158038B3D29F497FFD0CF109200
:1031D0005803CDCF8C3D19F41916CCF3C8CF9FE21C
:1031E000980F983090F4815D990B21E030E0B9019F
:1031F00002C0660F771F8A95E2F7CB018095909108
:103200005403892380935403B2CF8D3D31F48091D0
:103210004E038E7F80934E03AACF8E3D21F4809182
:103220004E038D7FF7CF8F3D09F0A1CF80914E03E4
:103230008B7FF0CF882381F19CEF980F913A28F48F
:103240000E94EA070E94550D089590E2980F983069
:1032500050F4877091E001C0990F8A95EAF7892FA1
:103260000E94850BEFCF9BE5980F933028F490E0F8
:1032700080E00E946E08089598E5980F9B3128F42D
:1032800090E080E00E944908089593E3980F9331FD
:1032900018F460E00E9442180895CF93C82F882345
:1032A000B1F18CEF8C0F813AA0F580914001882319
:1032B00001F18091610387FF1CC0EC2FE695E69534
:1032C000E695F0E0E255FE4F828190E04C2F47708A
:1032D00021E030E002C0220F331F4A95E2F782233B
:1032E0009323892B79F08C2F0E94EA070E94550DB9
:1032F00009C0E8EAF1E08191C817A9F381E0EE3A4C
:10330000F807C9F78C2F0E9415080E94550DCF9120
:10331000089580E28C0F883068F4C77021E030E0B7
:1033200001C0220FCA95EAF780911402822B809384
:103330001402EBCFEBE5EC0FE33040F4F0E0EB5B95
:10334000FE4F808190E00E946E08E1CFE8E5EC0F2F
:10335000EB3150F4F0E0EE0FFF1FE85BFE4F808191
:1033600091810E944908D3CF83E38C0F833178F693
:1033700061E08C2F0E944218CACF1F93CF93DF9336
:10338000182FEB010E944D19209739F4812F0E94CC
:103390001A19DF91CF911F9108958FE99FE001974E
:1033A000F1F700C000002197EFCF0F931F93CF9349
:1033B000DF93C62FD42F022FFC0185818823A9F02B
:1033C0006093BB030E94C6149093BA038093B90321
:1033D000C77081E001C0880FCA95EAF70E94AE0D60
:1033E000DF91CF911F910F9108958091BB036813D6
:1033F00038C08091B9039091BA030E94B71420910C
:103400004101309142018217930758F510E21D0FD8
:10341000CD17B9F080E28C0F883040F4C77081E09E
:1034200001C0880FCA95EAF70E94A70D183048F42A
:1034300081E09D2F977001C0880F9A95EAF70E944E
:10344000AE0D70E060E0802F0E94BD19183040F68C
:10345000D77081E001C0880FDA95EAF70E94A70DC6
:10346000BFCFC77081E001C0880FCA95EAF7F6CFD9
:10347000B0E0A0E0EEE3FAE10C941C2FEC018AE04E
:10348000A82E2881222309F4A6C0213009F049C0C2
:103490008981813079F48E010E5F1F4F8A8170E03F
:1034A00060E0893311F460E570E00E94BD19E80125
:1034B0002196E7CF823039F48E010E5F1F4F8A814B
:1034C0000E944D19F4CF833039F48E010E5F1F4FE7
:1034D0008A810E941A19EBCF843011F02196E8CF2F
:1034E0002A81229690E080E0AE014F5F5F4F20532B
:1034F000330B2A30310550F00097D1F2EFE9FFE0AD
:103500003197F1F700C000000197F6CFA89EB001F7
:10351000A99E700D1124C901860F971F2981EA0108
:10352000E3CFE22FF0E0E452FA4FB490822F869579
:103530008695869590E0FC01E453FA4FE49027705D
:10354000F12C022E02C0F594E7940A94E2F7F1E020
:10355000EF22FF24FC01E454FA4FC490D12C022E38
:1035600002C0D594C7940A94E2F731E0C322DD2467
:10357000FC01E455FA4F049110E002C0159507953F
:103580002A95E2F701701127E114F10419F081EE98
:103590000E944D19C114D10419F086EE0E944D19F4
:1035A00070E060E08B2D0E94BD19C114D10419F0A8
:1035B00086EE0E941A19E114F10419F081EE0E94BE
:1035C0001A190115110509F473CF70E060E08CE25F
:1035D0000E94BD196DCFCDB7DEB7EAE00C94382F4D
:1035E000A8E0B0E0E6EFFAE10C941A2F7C01FC01B0
:1035F0008481882309F496C021E040815181628151
:10360000738195810E94C60F8C01F7018581882303
:1036100009F41EC5980137572038310508F086C0D7
:10362000D02EFFE0F01708F46EC08FEF93E00E94F9
:10363000EF2F811168C008EA11E0D11035C0CE012A
:1036400001964C0188E0F40111928A95E9F768012E
:10365000FFEFCF1ADF0AC8010E94EF2F89831A8279
:10366000882309F450C08130D1F4580122E0A20E21
:10367000B11CC6010E94EF2F8A83882309F443C03E
:103680009FEF980F9330E8F4680133E0C30ED11C2C
:10369000C5010E94EF2F8B838823A9F11C82C401EE
:1036A0000E94381A8601D3CF011524E0120759F180
:1036B000C8010E94EF2F811101C0DA940F5F1F4FE4
:1036C000BCCF6501843059F702E010E065018FEF4F
:1036D000C81AD80AC5010E94EF2FF401E00FF11FAC
:1036E0008083882381F08C3741F4E2E0F0E0EC0F36
:1036F000FD1FE00FF11F1082D2CF0F5F1F4F560149
:103700000730110519F78091E901877059F0F70129
:103710008581882339F08091620382FF03C082E0B3
:103720000E94580C2896ECE00C94362F91819093CF
:103730006B02908190936A0290E290933301109310
:10374000690200936802980130522115304230F42A
:10375000F7019681907FA9F0F8010AC098013054D2
:103760002115304150F5F7019681907FF80109F05D
:10377000FF27ED33F10528F4E853FE4FE491E09381
:1037800033010137FCE71F0729F102372CE7120745
:1037900059F100373CE7130709F04FC4809141010C
:1037A000909142010E94ED05FC010196208120329A
:1037B000D9F3CF010E94381AA6CF98013A95211566
:1037C0003F4150F29801205A324520323105C8F26B
:1037D000F801CFCF809141019091420105969093DD
:1037E0004201809341018FCF80914101909142012C
:1037F0000597F5CF26E241EE61EEC7010E94D5198B
:1038000082CF27E245EE65EEF8CF26E241EE60EE8C
:10381000F4CF27E245EE64EEF0CF26E241EE62EE11
:10382000ECCF27E245EE66EEE8CF28E241E0EBCFB1
:103830001092BB03980130572332310508F0CDC3F5
:1038400084E090E00E94FD2F9093620380936103D7
:10385000F801E150F047E232F10520F4ED5AFF4C57
:103860000C948D2F8091610381608093610395C0DA
:10387000809162038860809362038FC080916103AE
:103880008260F3CF809161038460EFCF8091610308
:103890008860EBCF809162038160EDCF80916203FD
:1038A0008260E9CF809161038061DFCF8091610305
:1038B0008062DBCF809161038064D7CF0E94F914CE
:1038C000809161038068D1CF809161038C60CDCFFE
:1038D000809162038360CFCF809161038E7FC5CFDB
:1038E00080916203877FC7CF809161038D7FBDCFB9
:1038F000809161038B7FB9CF80916103877FB5CFC2
:10390000809162038E7FB7CF809162038D7FB3CFAA
:10391000809161038F7EA9CF809161038F7DA5CFB8
:10392000809161038F7BA1CF0E94F9148091610384
:103930008F779BCF80916103837F97CF80916203C4
:103940008C7F99CF8091610382FB992790F921E0C8
:10395000922790FB82F990FB83F987CF80916203D5
:10396000982F909591708E7F892B90FB81F983CF52
:1039700090916103892F8F7B96FF806476CF0E94A0
:10398000F91490916103892F97FB87F980586DCFC7
:1039900061E08EE090E00E941330609161037091CD
:1039A000620384E090E00E9431300E94F914ABCEB3
:1039B00060E0EFCF90916103892F8F7E94FF80614B
:1039C00054CF90916103892F8E7F90FF81604DCFFE
:1039D00090916203892F877F93FF88604CCF85E3A6
:1039E0000BC38091CE01811104C089E20E94EA07D5
:1039F00005C385E3FBCF80913E0380FF1CC0282FC9
:103A00002E7F20933E0330913F034091400350911D
:103A1000410360914203709143038091440390916C
:103A200045030E943B1080919B02816080939B0222
:103A30000E94FC0868CE816080933E0361E0869519
:103A400086950E94C0115FCE49EE51E164EF71E1AD
:103A50000E94F60858CE44EF51E169EE71E1F8CFCB
:103A600048E751E162E871E1F3CF42E851E168E7EC
:103A700071E1EECF4EE551E16BE671E1E9CF4BE646
:103A800051E16EE571E1E4CF44E451E161E571E1BA
:103A9000DFCF41E551E164E471E1DACF4CE851E177
:103AA00066EA71E1D5CF46EA51E16CE871E1D0CF29
:103AB00061E081E0C6CF07372CE7120709F461C047
:103AC00008373CE7130709F464C0F70185810081DA
:103AD0001181882309F48DC0C8010E94670FD82E78
:103AE000682FC8010E94F10BB8018D2D0E94590F5B
:103AF0000E94670A8C01882EF701A5809680929417
:103B00003FE093228091E901877009F1CA2CAA2035
:103B1000F9F0812F807F803469F080E2800F883057
:103B2000B0F0812F807E803229F4F1E0F01778F434
:103B3000992069F08091620382FF09C082E00E94AF
:103B4000580C8091E9018770CC24C3948111C12C59
:103B5000B12EB2942FE0B2222BE02B1508F4AEC0A8
:103B6000EB2DF0E0EB58FF4C0C948D2F882349F09F
:103B700081E00E946F0C43E062E081E00E942B0C28
:103B8000C2CD81E00E944B0CF6CF882311F082E079
:103B9000F0CF82E0F7CF0B352CE7120741F10C355F
:103BA0003CE71307D1F00A351C4709F08ECF81E0BE
:103BB0001BC00E94F9149FEFE4E3FCE09150E04049
:103BC000F040E1F700C000000E94CD076FEF7FEFEB
:103BD00090E080E00E9431302EC28091620382FB2F
:103BE000882780F991E089270E94F9116ECF80E043
:103BF000FBCFC8010E94BD0BD82E76CF312F3F706E
:103C0000D32E107F19F0D29490EFD922AA20B9F0C8
:103C1000DD2069F080E2800F883010F0811009C04B
:103C200080911402D82AD09214020E94550D802F40
:103C300043C08091EB01D82AD092EB01F6CF802FC0
:103C40000E941A19DD20D1F1005E083010F08110B9
:103C500004C08D2D0E94850B06C0D0948091EB018D
:103C6000D822D092EB010E94550D28C0812F8F7071
:103C7000D82E107F103219F0D29480EFD8228820ED
:103C800059F091E0891609F478C0AA2009F484C09B
:103C9000992009F446C0CBCF8091620382FD3DC0DC
:103CA000AA20A9F1DD2039F080911402D82AD092FF
:103CB00014020E94550D80E00E944D19EB2DE85032
:103CC000FF0B349710F40E949308CC20A9F0809148
:103CD000E90180FD11C0F7011582869586958695CC
:103CE0000E946F0CC7010E94F01A8091E90186952D
:103CF000869586950E944B0C20E0F701408151810A
:103D000062817381848195810E94C60F0BCD80E012
:103D10000E941A19DD2091F29CCFAA20A1F09110E7
:103D200004C08D2D0E94AE0DC9CFE1E09E12C6CF1A
:103D30008091EA019D2D9823D91609F4BFCFD82A86
:103D4000D092EA01BBCF9110B9CF8D2D0E94A70D63
:103D50009091EA018D2D892329F08D2D809589235D
:103D60008093EA018091CF019D2D982309F4A6CF7D
:103D7000D094D822D092CF01A1CFAA2029F0F5E08B
:103D8000F91508F49BCFCDCF24E0291508F496CF80
:103D90008D2D0E94A70D92CF9920D1F339E3831284
:103DA00009C08FEF97EEE3E081509040E040E1F7EB
:103DB00000C00000802F0E941A1980CF812F8695A5
:103DC0008695837061F0813009F078CFC8019370D7
:103DD000A11002C080E090E00E9449086FCFC801A6
:103DE0009370A11002C080E090E00E946E0866CF40
:103DF0006A2D802F0E94421861CF812F837089F530
:103E0000A1105CCF402F429546954770440F440F58
:103E1000802F8F70042E01C0880F0A94EAF7202F9C
:103E2000207104FF07C02FE030E001C0220F4A9547
:103E3000EAF72095169516951370123069F050F434
:103E400030915C02113029F0822B83230E947B0C7D
:103E500035CF832B822BFACF282B80915C028227CF
:103E6000F5CF8695AA2011F0812F8170882309F45F
:103E700025CF402F429546954770440F440F802F21
:103E80008F70042E01C0880F0A94EAF7202F20714A
:103E900004FF07C02FE030E001C0220F4A95EAF787
:103EA0002095169516951370123069F050F43091E4
:103EB0006702113029F0822B83230E94280CFECE4A
:103EC000832B822BFACF282B809167028227F5CF94
:103ED0001F70AA2029F0812F0E946F0C802F22CF03
:103EE000802F0E94A70D812F0E944B0CE7CE802FC0
:103EF000F2EF8F16B1F1F81570F020EF8216D1F0C5
:103F000031EF831691F0AA2009F457C091108FCE9B
:103F1000812F8F712AC093EF891651F1E4EF8E1231
:103F2000F2CF9091620392FD2FC0812F8F71AA2052
:103F3000D9F21BC0AA2081F0F4E0F91508F4BECE36
:103F40001F7181E090E0012E01C0880F0A94EAF70A
:103F5000909167028927B1CF25E0291508F4AECEEC
:103F6000EFCF812F8F71A110BFCF0E946F0CA6CE13
:103F700080E0AA2009F4A1CF1F7181E0012E01C0C9
:103F8000880F0A94EAF799CFAA2061F0812F8F71E8
:103F900092FFEBCF98E0899F90011124236020933A
:103FA000E901E3CF81E00E94580CE1E0E91508F057
:103FB00085CE82E00E94580C81CE992059F0893339
:103FC00009F0F8CEFFEF27EE33E0F150204030400B
:103FD000E1F7EECE812F8F7187CF06319CE719076D
:103FE00081F4809114028A7A91E009F490E0909330
:103FF000CE018111F4CC89E20E9415080E94550D72
:1040000082CB0737FCE71F0709F4B0CD08372CE750
:10401000120709F4BACD03308CE7180709F4D6CD9E
:1040200008F0B9CD0115ECE71E0709F4C2CD013047
:104030001C4709F04ACD0E942C18F801E851FC47B2
:10404000E730F10508F0F4CBEF57FF4C0C948D2FBF
:10405000F801E851FC47E730F105B0F30631ECE731
:104060001E0709F4BECC809114028272F801E0525E
:10407000F847E531F10508F01ECDE857FF4C0C94E8
:104080008D2F0F931F93CF93DF938091E801807F53
:1040900009F051C08091E701882309F44CC0E091F8
:1040A000B803D0917F031091E3010091E2014091A8
:1040B000E4015091E5016091410170914201C7E036
:1040C000DE17C9F18E2F90E0EC9FF0011124E0582B
:1040D000FC4F24812223A1F1C89FF001C99FF00D5C
:1040E0001124DF01A058BC4F11962C911197211378
:1040F00027C02C91201324C015962C9115972111BF
:104100001FC012962D913C91241B350B26173707A3
:10411000B8F48091E8018F7080618093E801EA57DC
:10412000FC4F80818F708061808382EE91E00E94DD
:10413000F01A0E94B30BDF91CF911F910F91089558
:10414000FC013196E770BCCFA4E1B0E0EAEAF0E20E
:104150000C941A2F8C0186E0F801DE011F96019065
:104160000D928A95E1F7F8018481E58092EEA92EFF
:1041700091E0B92E9091E601911128C0882319F1A0
:10418000EE20F1F0C8010E94A30FF82E8823C1F0A1
:1041900087E0F801D50101900D928A95E1F78091B1
:1041A000E601813031F48091E2019091E3010E94B7
:1041B000960F0E9441208F2D6496ECE00C94362FD0
:1041C000C8010E94F01AFF24F394F5CFD080C1807B
:1041D00082809380F090E7012091E4013091E50125
:1041E000A401421B530B2091410130914201FF2059
:1041F00009F4E5C04217530708F09EC08823D9F29E
:104200009091E3018091E801282F207F09F056C0AA
:10421000C91214C09091E201D91210C0E11048C037
:104220008F7080618093E80182EE91E00E94F01A25
:104230008091E801F8018683F12CBDCFE11038C0F0
:104240006C2D8D2D0E943A066C2D8D2D0E943A0604
:10425000E82E8111F1CFDF86C88A8F8598890E9468
:10426000960F292F22952F70243058F49F702230FA
:1042700088F0992399F0F8019681907F79F4FE2CCB
:104280009ACF2A5F2F70223068F0C8010E94F01A7E
:10429000EF2CF5CF992311F0882389F3805E8830C5
:1042A00070F3F3CF803F58F3815F833070F7E7CF2F
:1042B0008091E80181608093E801BECFC91213C0EC
:1042C0009091E201D9120FC0E1100DC08683C801A0
:1042D0000E94F01A87E0F801A2EEB1E001900D9281
:1042E0008A95E1F768CFC8010E94A30F882309F4DB
:1042F00067CFEE2009F464CF8091E801803288F026
:104300002091E2013091E301398728879B868A86D4
:104310009091E6019C871D868E87CE0108960E94AB
:10432000F01A87E0F801A2EEB1E001900D928A95B3
:10433000E1F70E94412047CF9091E801292F207F8B
:1043400051F482EE91E00E94F01A87E0F50111929B
:104350008A95E9F771CF882309F42DCF8091E30185
:104360008C1110C08091E201D8120CC0E1100AC07B
:104370009683C8010E94F01A87E0F50111928A9590
:10438000E9F719CFC8010E94A30F882309F418CFB9
:10439000EE2009F415CF8091E801803210F22091CF
:1043A000E2013091E3013A8329839C828B829091D0
:1043B000E6019D831E828F83CE010196B0CF421706
:1043C0005307D0F6882309F4FECEFE2CEE2009F424
:1043D000F7CE8091E3018C1105C08091E201D816DF
:1043E00009F478CFC8010E94A30F81119ACF809160
:1043F000E80181608093E801C8010E94F01ADBCED9
:10440000ABE1B0E0E6E0F2E20C94222F4E8B5F8B42
:10441000688F798F8A8F9B8F192F91111092EB01E2
:104420001D8A86E0FE017696DE011F9601900D92B0
:104430008A95E1F70A8D002341F021E04F855889E4
:1044400069897A89C8010E94C60F0B8B1C8B87E093
:10445000FE013F96DE01189601900D928A95E1F7D4
:10446000CE0108960E94A42081110CC087E0FE01B5
:104470003896DE01119601900D928A95E1F78C85B0
:1044800081110BC017E08091B80390917F038913CD
:1044900031C06B96E4E00C943E2F20917F0330E016
:1044A000C9010196877099274091B80348171906EA
:1044B00099F097E0929FD001939FB00D1124A058DE
:1044C000BC4FFE01319601900D929A95E1F78093D1
:1044D0007F030E94B30BD6CF0E94F91410927F0382
:1044E0001092B80387E0E2EEF1E0DF011D928A95B9
:1044F000E9F7C8CF819FC001112480589C4F0E94CA
:10450000A420882331F28091B80390E0019687704F
:1045100099278093B803B7CFA3E1B0E0E2E9F2E2D4
:104520000C94192F8E01045F1F4F88E0D8011D9253
:104530008A95E9F780E8C82E81E0D82EF12CE12C8D
:10454000AA24A394B12C2AE8822E21E0922EF6010F
:1045500081916F018F3F09F442C0F894E82FE295F2
:10456000EF70F0E021A18F70A50102C0440F551F2C
:104570008A95E2F7CA01922F982B91A392A1809578
:10458000892382A3789400C0E4E8F1E0712C31E043
:1045900021912F3F09F4A3C0A22FA295AF70B0E0E4
:1045A00090968C9190E02F7002C0959587952A95F2
:1045B000E2F780FD94C0832F782A330F8E169F0672
:1045C00039F7F601319780818F3F11F00E9445093C
:1045D00050EA5A95F1F7F801EE0DFF1D70828FEF4A
:1045E000E81AF80A94E0E916F10409F0B0CF48E0BF
:1045F00050E0B80182E592E00E94D92F009741F087
:1046000028E0F801A2E5B2E001900D922A95E1F7C9
:1046100000915B0210E00F561D4F892B09F461C019
:1046200081E0809319020E94C6149093180280932F
:104630001702F12CE0905903EE2009F4ACC0198266
:104640001A821B821C8280914D028A3008F06DC054
:1046500041E153E1BE016F5F7F4FC8010E94470EE9
:10466000882309F487C04FE952E1BE016F5F7F4F95
:10467000C8010E94470E882309F47CC04BEB52E12D
:10468000BE016F5F7F4FC8010E94470E882309F467
:1046900071C041E752E1BE016F5F7F4FC8010E94C8
:1046A000470E882309F466C010924D0280915A0289
:1046B00090E044E050E0BE016F5F7F4F8F569D4F0A
:1046C0000E94D92F21E020932002892B09F044C0B9
:1046D000E12C8E2D8F296396EDE00C94352F80E030
:1046E0006BCFF0901902FF2009F4A3CF809117023D
:1046F000909118020E94B714059708F49ACF44E0ED
:1047000050E062E572E0C8010E94D92F892B59F070
:1047100084E0E2E5F2E0D80101900D928A95E1F79C
:104720001092190287CFF12CFBCF80911A02909141
:104730001B020E94B714843F914008F089CF8091FA
:104740002002882329F284E0FE013196DF011D92C8
:104750008A95E9F710922002E0915A02F0E0EF56B4
:10476000FD4F89819A81AB81BC8180839183A28333
:10477000B383AFCF80914D028F3F31F08F5F809335
:104780004D028A3008F492CF0E94C61490931B0207
:1047900080931A02D4CFC0905A02D12CF601EF5662
:1047A000FD4F6F0184E0F801AEE2B2E001900D929E
:1047B0008A95E1F78EE292E00E94590680932D02DD
:1047C00084E0E2E3F2E0D60101900D928A95E1F7F0
:1047D0008090360290903702A0903802B090390253
:1047E00080911C0290911D02A0911E02B0911F02A7
:1047F00088169906AA06BB06B1F080921C02909218
:104800001D02A0921E02B0921F020E94DE07861AAD
:10481000970AA80AB90A80924E0290924F02A0927B
:104820005002B09251028BE0EAE3F2E0DE01119611
:1048300001900D928A95E1F780913A0286958695CE
:1048400000913B02D0903C02C0903D021091440286
:1048500010924402112309F43CCF10FF0BC0998140
:1048600090FF11C090913E03916090933E0360E0F1
:104870000E94C01111FF2DCF20E04C2D6D2D802FF7
:104880000E94611026CF0E942009F4CFA6E0B0E07C
:10489000ECE4F4E20C94222F0E94C6148C01809167
:1048A0001502909116028017910781F019821A82E1
:1048B0000E94C614682F49815A81792F80E090E0C8
:1048C0000E94002210931602009315022696E4E03F
:1048D0000C943E2F1F921FB61F9211248F939F930B
:1048E000AF93BF9380916303811113C080916403E0
:1048F00090916503A0916603B09167034196A11D55
:10490000B11D8093640390936503A0936603B093F5
:104910006703BF91AF919F918F911F901FBE1F9012
:104920001895CDB7DEB7A8970FB6F894DEBF0FBEC7
:10493000CDBF85B7806885BF85B7806885BF84B7E0
:10494000877F84BF0FB6F894A89580916000886136
:1049500080936000109260000FBE80E890E00FB678
:10496000F89480936100909361000FBE83E499E016
:104970009093A5018093A4010E9470060E941107E4
:104980008091E20084608093E200789480917503C6
:104990008823A1F01091E9001F709091EC00892FFD
:1049A000817090FD80E8182B1092E9008091E8005A
:1049B00083FD0E942A151F701093E90082E084BDD8
:1049C00093E095BD9AEF97BD80936E0010924E02D2
:1049D00010924F0210925002109251020E94110F39
:1049E000811102C00E94010F8091D80080618093E4
:1049F000D8002AE12A95F1F700C08091D900182F3C
:104A0000117080FD04C00E9470061092750310930F
:104A1000590310935A0310932801112309F4DAC0A3
:104A200010923B018BE180933C010E949E2D80916E
:104A300028018091280194E0811190E090935B021D
:104A400084E0891B80935A0284E90E94450986E626
:104A50000E94450987E90E94450986EC0E944509A4
:104A600004E811E07AE8E72E71E0F72ED8018D9185
:104A70008D018F3F11F00E944509E016F106B1F754
:104A800088E0E1E9F2E0DF01282F1D922A95E9F79D
:104A9000E2E5F2E0DF011D928A95E9F790E080E01F
:104AA0000E94FD2F853E9E4F21F40E94110F81111F
:104AB00063C065EE7EEF90E080E00E94313060E000
:104AC00082E090E00E94133081E080935C0261E01C
:104AD00083E090E00E94133060E074E184E090E0B5
:104AE0000E94313060E086E090E00E94133060E088
:104AF00087E090E00E94133040E050E0BA0188E087
:104B000090E00E94253060E083E290E00E94133044
:104B100060E08CE090E00E94133060E08DE090E077
:104B20000E94133019821A821B821C821D821E82EF
:104B30001F82188648E050E067E170E0CE010196E0
:104B40000E94033040E050E0BA018FE190E00E9403
:104B5000253080E00E947A0E0E94010F40E050E074
:104B6000BA018FE090E00E94253040E050E0BA01A9
:104B700083E190E00E94253082E090E00E94EF2FD8
:104B800080935E0284E090E00E94FD2F9093620388
:104B9000809361030E948C22EFEFF6E721E0E15061
:104BA000F0402040E1F700C000000E948C2280917C
:104BB0005A03E4E08111E0E0F0E0EF56FD4F808120
:104BC00081FF0EC06FEF7FEF90E080E00E943130F8
:104BD0000E94CD078BE180933B0180933C0127CF5E
:104BE00083E090E00E94EF2F0E947B0C809159039C
:104BF000811140C182E080938C0280E88093C303DE
:104C00000E943C2C6BE070E08BE192E00E94EB0F85
:104C10008823E9F180918C0265E070E081FD2CC170
:104C200086E192E00E94EB0F882389F16DE070E04D
:104C300084E092E00E94EB0F882349F10E94DE0796
:104C4000605A75418F4F9F4F60934603709347039F
:104C50008093480390934903E6ECF3E080E092E010
:104C6000DF019C011D9221503040E1F7F093CD050A
:104C7000E093CC058FEF9FEF9093C5038093C4031F
:104C800081E080934B0380934A0310928D028091C0
:104C90005D02811184C088E090E00E94F72F4B01F3
:104CA0005C0183E290E00E94EF2F282F30E040E08B
:104CB00050E060E070E080E090E000E20E949A2F17
:104CC000282939294A295B2920933E0330933F0341
:104CD0004093400350934103609342037093430316
:104CE000809344039093450330919B02336030934B
:104CF0009B022C7F09F043C025E020933E031092D5
:104D00003F032FEF2093400328E7209341031092A5
:104D1000420325E030E04FEF58E760E00E943B108F
:104D200088E090E00E94F72F6B017C0183E290E025
:104D30000E94EF2F282F30E040E050E060E070E06C
:104D400080E090E00E949A2FB22FA32FF42FE52F3E
:104D50005B0197018601BC29A12BFE29E32BB093AF
:104D60003E03A0933F03F0934003E093410360931D
:104D70004203B092430380934403909345030E94FF
:104D80002D090E94F40880913E0380FF05C060E079
:104D9000869586950E94C01181E080935D02809186
:104DA0005903811102C00E94A12D89E291E09093E4
:104DB0005E0380935D03DD24D39422242394312C5D
:104DC00080917503853049F480917503853009F42D
:104DD00056C00E94F9140E9493080E948C220FE58D
:104DE00012E051E9E52E52E0F52ED701F80191913C
:104DF0008D9122E0E736F20709F477C09817B9F3EE
:104E000070905903C12CD701BD907D01F8018190AC
:104E10008F018B1431F18B24A12C99249394892D2B
:104E20008821B9F07720A9F0A9A2CAA20E94C614CD
:104E30009CA38BA3F1E0FDA391E0892D8B2109F4C4
:104E400090E09EA349A15AA16BA17CA18DA10E94D3
:104E50000022A394990C26E0A212E1CFF801319729
:104E6000B082C39438E0C312CECF0E945C09CC2438
:104E7000C39440C080E0BFCE81E192E0D3CE809168
:104E80007503843031F10E94F80F1092630388E1BA
:104E900090E0A0E40FB6F894A895809360000FBE50
:104EA000A093600083B7817F846083BF83B78160F4
:104EB00083BF7894889583B78E7F83BF0FB6F894AD
:104EC000A8958091600088618093600010926000D6
:104ED0000FBE0E948C22E1E9F2E08191811145C46C
:104EE000B2E0E939FB07C9F76FCF981389CF0E9469
:104EF0004624C12C80914B03882309F485C010916E
:104F0000590380918E0290918F020E94B714C2972C
:104F100008F45AC00E94C61490938F0280938E02A8
:104F200086EC93E09093CD058093CC05112309F492
:104F300084C187E492E00E940F0D809167020E9475
:104F40007E0C813009F46AC1882349F0823009F46B
:104F500068C1833009F468C186E292E002C08FE341
:104F600092E00E944F0D80916B02805D0E948F0C39
:104F700085E592E00E940F0D80916A02805D0E949B
:104F80008F0C81E592E00E940F0D80916802909154
:104F900069020E94ED057C01DC012D91CD012032DA
:104FA000D1F3F70101900020E9F78F0101501109B9
:104FB000E016F10608F43BC18FE492E00E940F0D69
:104FC000809133010E948F0C8091C4039091C5039E
:104FD000892B09F037C180914A038823A9F00E94E8
:104FE000DE0700914603109147032091480330915A
:104FF0004903601B710B820B930B6F3F7F4F8F4FE9
:105000009F4710F40E94F80FC1100E94131086E011
:10501000E3E5F3E0DE01119601900D928A95E1F748
:10502000C0905403F090550310915603E09057033D
:105030000091580310925503109256031092570393
:1050400010925803812F8F2909F445C08091510394
:10505000909152030E94B7149C0190914C039923A4
:1050600009F4B3C325313105B0F19F3F19F09F5FBB
:1050700090934C03FF2059F00E94C6089FEF1F1425
:105080000CF491E0899F802D112480935503112306
:1050900059F00E94C60891E011160CF09FEF899F0D
:1050A000802D11248093560380915503882399F015
:1050B000B0905603BB2079F00E94E608882309F4DB
:1050C0009AC1809355038B2D0E94E608882309F42A
:1050D00095C180935603802F8E2909F445C0809195
:1050E0004F03909150030E94B7149C0190914D037F
:1050F000992309F465C321353105B0F19F3F19F0BB
:105100009F5F90934D03EE2059F00E94A4089FEFFB
:105110001E140CF491E0899F802D11248093570375
:10512000002359F00E94A40891E010160CF09FEFA4
:10513000899F802D112480935803809157038823E1
:1051400099F0E0905803EE2079F00E94E608882359
:1051500009F457C1809357038E2D0E94E6088823D7
:1051600009F452C180935803809154038C1117C0E5
:1051700080915503882311F08F1111C0209156039F
:10518000222311F012130BC090915803992311F0B0
:10519000901305C030915703332309F403C30E94D1
:1051A000D21486E0FE013196A3E5B3E001900D92A2
:1051B0008A95E1F70E94930890919002891721F057
:1051C000809390020E94DE0780917503843009F07D
:1051D000F7CD83E08093E9008091E80082FFF0CD75
:1051E0008091E80090E085FF06C00E948F0688232A
:1051F00009F40DC191E08091E8008B778093E8007D
:10520000992309F4DDCD8981EFEFE80FE33108F050
:1052100027C1F0E0E356FF4C0C948D2F89E392E018
:10522000A0CE83E392E09DCE8CE292E09ACEF7018D
:1052300081917F010E948F0CBBCE87E592E00E9496
:105240000F0DC2CE80914B03882309F4C4CE809108
:105250008D028111C0CE0E9413102091C4033091A1
:10526000C5032115310509F4B6CE80E0082F10E002
:105270007101082E02C0EE0CFF1C0A94E2F7A9018E
:105280004E215F21452B11F48F5FF0CF90918C025E
:1052900090FF98C0880F880F880F80933601109276
:1052A0003901895F8093370183E080933A0124E6D6
:1052B00030E047E050E064E371E088E70E94702C42
:1052C000892B09F088CEA80125E0440F551F2A95A7
:1052D000E1F780918C0280FF87C0ECE6F2E080E28B
:1052E000DF011D928A95E9F7EEE8F1E0F8A7EFA358
:1052F0000AE811E097E0892EAFA1B8A58D91B8A773
:10530000AFA3F80121918F01240F352F311D2A53AE
:105310003C4FE82FF0E0E459FD4F90E080E0682C2E
:10532000681A922C082E01C0990C0A94EAF72901F8
:10533000A12CD201BD902D01B920662D6A1967708C
:10534000762E062E000C770BBB2D01C0BB0F7A9476
:10535000EAF77B2E7195619571096770772701C017
:10536000B6946A95EAF77B28B0807B287082A39474
:1053700068E0A612DECF019631968830910579F665
:1053800082E991E0AFA1B8A58A179B0709F0B4CFD5
:1053900004E610E020E230E04CE652E060E488E70A
:1053A0000E94FA2C892B09F016CEE094F09480919B
:1053B000C4039091C503E822F922F092C503E0925C
:1053C000C40309CE8295880F8076809336019801B8
:1053D000369527953695279520933901815E8093E0
:1053E000370120933A0163CF4A535C4F04E610E043
:1053F00020E230E0D3CFD092550365CED092560351
:105400006ACED0925703A8CED0925803ADCE80E298
:10541000E82EF12C8E010F5F1F4F8091E80085FD73
:105420000AC08091E8008B778093E8000E948F0685
:10543000882399F3DFCE8091F100F80181938F01E9
:10544000F1E0EF1AF10849F7D5CE1A828CE08B8390
:105450001BC08A81823009F4AAC128F4813061F02E
:105460008FEF898311C08330C1F08430C9F71B826C
:105470001C821D821E8208C00E94DE070E94932F9C
:105480006B837C838D839E8340E250E0BE016F5F1F
:105490007F4F82E00E94B80D93CC2B81822F90E049
:1054A000FE013496245E8830910570F7DC01AF561A
:1054B000BD4F3C91319301962813F5CFE5CF8A81FA
:1054C000823049F0853061F680913E0380FF0EC046
:1054D0000E942009D9CF6B817C818D819E810E94A1
:1054E000932F87E290E00E941330CECF81608093AB
:1054F0003E0360E0869586950E94C011C5CF4C8121
:105500006B818A810E942A0F9827892798279E837A
:105510008D83BACF2D813E813227232732274C81BC
:105520006B818A810E94A30EAFCF0E94C90EACCFBF
:105530009A81923009F094CF8830E1F1893009F4F2
:1055400065C08B81823009F1A8F4813009F09CCFCD
:105550008C8128E7829FC00111246FEF70E00E94C8
:10556000002F462F20E06091400380913F030E946E
:1055700061108ACF8330D1F0843009F085CF20E0EC
:10558000409141036D818C81F2CF8C81882309F495
:105590009FCF80913E03816080933E0360E08695BB
:1055A00086950E94C01160E08C81A6CF8C8180938B
:1055B00042036ACF8B818230E1F078F4813009F0C8
:1055C00063CF809141033FEF839FC001112468E7BF
:1055D00070E00E94002F6C8357CF8330A1F084309D
:1055E00009F052CF80913F038C83809140038D83DB
:1055F0004BCF80913E0380FF04C0869586958C83B7
:1056000043CF80E0FCCF80914203F9CF20913E034D
:1056100030913F0340914003509141036091420318
:105620007091430380914403909145030E943B1085
:105630002BCF60E16A8328CF82E08A8388E507CF99
:105640000A811B81102701271027CE0101967C01BA
:10565000AC80DC01AA0DB11D5D01C80188559E4FCB
:10566000EA14FB0409F410CF0835B2E01B0750F42C
:105670000E94EF2FF70184830F5F1F4FBFEFEB1ADC
:10568000FB0AEBCFD70114961C92F6CF0A811B813F
:10569000102701271027FE0131965F01EC80E00EF4
:1056A000F12EF11CC80188559E4FE016F10609F451
:1056B000EBCE0835F2E01F0728F4D50114966C9163
:1056C0000E941330BFEFAB1ABB0A0F5F1F4FEACF28
:1056D0000E94930ED9CE84E08A83D6CE0A811B81A4
:1056E000102701271027FE0131967F01AC809F0112
:1056F0002A0D311D5901C8018896AE14BF0409F462
:10570000C3CE003831E0130758F40E94EF2FD701C1
:1057100014968C930F5F1F4FFFEFEF1AFF0AEBCF2A
:10572000F7011482F7CF0A811B8110270127102768
:105730009E012F5F3F4F5901EC80E00EF12EF11CCE
:10574000C80188960E151F0509F49ECE003831E079
:10575000130728F4D50114966C910E941330BFEF03
:10576000AB1ABB0A0F5F1F4FEBCF809174038823E6
:1057700009F42ACBE0E1E9BDF2E1F9BD09B400FE8C
:10578000FDCF8091D8008F7D8093D8008091E0007C
:1057900082608093E0008091E00081FDFCCF0E9458
:1057A000F91412CB822B892B09F4FBCCF8CC87E2BD
:1057B00090E00E94EF2F1B821C821D828E8364CE9C
:1057C0002B30310508F09CCCCFCC2B30310508F0C4
:1057D0004ECC81CCEF92FF920F931F93CF93DF9328
:1057E000182FEB011092BC0084EA8093BC000E9449
:1057F000C6147C018091BC0087FF27C08091B9004E
:10580000887F883029F08091B900887F803189F5C0
:105810001093BB0084E88093BC000E94C6148C01E6
:105820008091BC0087FF1EC02091B900287F90E0C6
:1058300080E0283191F081E090E0203411F490E094
:1058400080E091958195910908C0C7010E94B71425
:10585000C817D90778F68EEF9FEFCDB7DEB7E6E031
:105860000C943C2FC8010E94B714C817D907C0F682
:10587000F2CF8FEF9FEFF1CF1092B9008CE08093C1
:10588000B80008950F931F93CF93DF93EB0180939C
:10589000BB0084E88093BC000E94C6148C018091F8
:1058A000BC0087FF11C02091B900287F81E090E003
:1058B000283211F490E080E0919581959109DF9173
:1058C000CF911F910F910895CF3FDC0741F3C8019D
:1058D0000E94B714C817D90710F78EEF9FEFEFCFCC
:1058E000B0E0A0E0E6E7FCE20C94192F782E5B0113
:1058F0006A0189010E94C6144C01C1E0D0E0043164
:10590000110558F0C5E0D0E00F3F100731F0C80195
:1059100064E170E00E94002FEB01BE01872D0E9420
:10592000EA2B7C0197FF09C00F3F1007B1F3C401B8
:105930000E94B7140817190780F7E501CA0CDB1C91
:10594000CC15DD0511F0F7FE09C084E98093BC0099
:10595000C701CDB7DEB7EDE00C94352FB8018991C2
:105960000E94422C7C01ECCFB0E0A0E0EAEBFCE22C
:105970000C94192F782E5B016A0189010E94C614CC
:105980004C01C1E0D0E00431110558F0C5E0D0E091
:105990000F3F100731F0C80164E170E00E94002F52
:1059A000EB01BE01872D0E94EA2B7C0197FF09C005
:1059B0000F3F1007B1F3C4010E94B714081719076D
:1059C00080F7E501CA0CDB1CCC15DD0511F0F7FEF4
:1059D00009C084E98093BC00C701CDB7DEB7EDE014
:1059E0000C94352FFE018491B8010E94422C7C0159
:1059F0002196EACFB0E0A0E0E0E0FDE20C94182FA1
:105A0000682E762E5A0169010E94C6144C01C1E02D
:105A1000D0E00431110558F0C5E0D0E00F3F100789
:105A200031F0C80164E170E00E94002FEB01BE017B
:105A3000862D0E94EA2B7C0197FF1DC00F3F1007A7
:105A4000B1F3C4010E94B7140817190780F784E95D
:105A50008093BC00C701CDB7DEB7EEE00C94342FC5
:105A6000B80189910E94422C7C01CC16DD0679F3A5
:105A7000F7FEF6CFECCFB801872D0E94422C7C01B7
:105A8000E501CA0CDB1CF1CF8EE14A9B02C08150BC
:105A9000E1F74A9BFECF08955A9880E28A95F1F784
:105AA0005A9A0895FC013BE03A95F1F798E020E01E
:105AB00080E031E040E14A95F1F7880F4A9B02C04F
:105AC0008160232742E04A95F1F7000040E14A95C2
:105AD000F1F7915079F790E19A95F1F799B132E0A9
