:100000000C94CE050C94EB050C94EB050C94CD2DC3
:100010000C94EB050C94EB050C94EB050C94EB05A0
:100020000C94EB050C94EB050C946D130C949B173E
:100030000C9407240C94EB050C94EB050C94EB0545
:100040000C94EB050C94EB050C94EB050C94EB0570
:100050000C94EB050C9446140C94EB050C94EB05F6
:100060000C94EB050C94EB050C94EB050C94EB0550
:100070000C94EB050C94EB050C94EB050C94EB0540
:100080000C94EB050C94EB050C94EB050C94EB0530
:100090000C94EB050C94EB050C94EB050C94EB0520
:1000A0000C94EB050C94EB050C94EB05050109028F
:1000B000A10185020901A1000509190129081500FE
:1000C0002501950875018102050109300931158165
:1000D000257F95027508810609381581257F9501D0
:1000E00075088106050C0A38021581257F95017572
:1000F000088106C0C005010980A101850319012AF4
:10010000B700150126B700950175108100C0050CD8
:100110000901A101850419012AA002150126A002E6
:10012000950175108100C005010906A1018506052C
:100130000719E029E71500250195087501810205D9
:1001400007190029EF1500250195F07501810205B9
:10015000081901290595057501910295017503910D
:1001600001C00660FF0961A1010962150026FF00B8
:100170009520750881020963150026FF00952075FA
:10018000089102C005010906A101050719E029E748
:1001900015002501950875018102950175088101F9
:1001A0000507190029FF150026FF0095067508812F
:1001B000000508190129051500250195057501910E
:1001C00002950175039101C00000000000000000CD
:1001D000000000000000000000000000000000001F
:1001E0000000000000000000000000007E0F00D4AE
:1001F000FFFFFFC7000000780000000000000000C3
:100200002A2B280000000000000000000000000071
:1002100000000029000000002C1E3420212224347C
:100220002627252E362D3738271E1F20212223244E
:1002300025263333362E37381F0405060708090AEA
:100240000B0C0D0E0F101112131415161718191A86
:100250001B1C1D2F3130232D350405060708090A04
:100260000B0C0D0E0F101112131415161718191A66
:100270001B1C1D2F3130354C20202020616263640F
:1002800065666768696A6B6C6D6E6F7071727374A6
:1002900075767778797A3132333435363738393084
:1002A000524542545F2D3D5B5D5C233B27602C2E05
:1002B0002F20202000DA0281FFD9F1DB20A4A62E16
:1002C000AF00A0C0D30000A1C8D30000AED580A865
:1002D0001F408D142000556E6465660041646A7588
:1002E0007374005261697365004C6F7765720044E6
:1002F000656661756C74004C617965723A20003AEC
:10030000002C206B0078008081828384858687881A
:10031000898A8B8C8D8E8F9091929394A0A1A2A3A9
:10032000A4A5A6A7A8A9AAABACADAEAFB0B1B2B315
:10033000B4C0C1C2C3C4C5C6C7C8C9CACBCCCDCE60
:10034000CFD0D1D2D3D400000101010101010101BC
:100350000102020202020202020203030303030378
:100360000303040404040404040505050505060646
:100370000606060707070707080808080909090904
:100380000A0A0A0B0B0B0C0C0C0D0D0D0E0E0E0FAA
:100390000F0F10101111111212131314141515163A
:1003A000161717181819191A1A1B1B1C1D1D1E1EAB
:1003B0001F202021222223242425262627282929FC
:1003C0002A2B2C2D2D2E2F30313232333435363727
:1003D00038393A3B3C3D3E3F404142434445464725
:1003E00048494A4C4D4E4F50515354555658595AFE
:1003F0005B5D5E5F616264656668696B6C6D6F70A2
:1004000072737577787A7B7D7E8082838587888A10
:100410008C8E8F91939596989A9C9EA0A2A3A5A747
:10042000A9ABADAFB1B3B5B7BABCBEC0C2C4C6C943
:10043000CBCDCFD1D4D6D8DBDDDFE2E4E7E9EBEEFC
:10044000F0F3F5F8FAFDFF00AF00AE000014001A5B
:1004500000080015001700000004281624072209D0
:10046000210A0000001D001B000600190005000005
:10047000000000000029002A414C00000013001277
:10048000000C0018001C00000033280F240E220D61
:10049000210B00000038003700360010001100006A
:1004A000000000000028002C422B4300001E001F0B
:1004B00000200021002200000035282E242F2230A9
:1004C0002134000000000049001D140F141A14000C
:1004D00000000000000100010001000000270026CC
:1004E0000025002400230000002D284F2452225113
:1004F000215000000031004D004B004E004A00002A
:10050000000000000001000100010000001E021FA9
:1005100002200221022202000035022E022F0230A8
:100520000234020000000049001D140F141A1400C8
:100530000000000000010001000100000027022669
:100540000225022402230200002D024F0052005116
:1005500000500000003102AB00AE00AD00AC000066
:10056000000000000001000100010000003A003B13
:10057000003C003D00207800003E283F24402241FE
:1005800021277800004200430044004500287800FD
:1005900000000000000100010001000000A800654B
:1005A00000D200D10046000000A900D000CD00CE4E
:1005B00000CF000000AA00DC00D900DA00DB000058
:1005C000000000000001000100010009025B0003BF
:1005D0000100A0FA09040000010301010009211132
:1005E00001000122440007058103080001090401FC
:1005F000000203000000092111010001222200076E
:1006000005820320000107050303200001090402FD
:1006100000010300000009211101000122B60007BA
:100620000584032000011201000200000008534667
:1006300001000100010200010C0343006F00720081
:100640006E0065000000100366006F006F0073000D
:10065000740061006E000000040309040000000043
:1006600000003E5B4F5B3E003E6B4F6B3E001C3E0E
:100670007C3E1C00183C7E3C18001C577D571C001B
:100680001C5E7F5E1C0000183C180000FFE7C3E7FB
:10069000FF00001824180000FFE7DBE7FF003048E8
:1006A0003A060E00262979292600407F0505070015
:1006B000407F05253F005A3CE73C5A007F3E1C1C0A
:1006C0000800081C1C3E7F0014227F2214005F5F7C
:1006D000005F5F0006097F017F00006689956A0060
:1006E00060606060600094A2FFA2940008047E0431
:1006F000080010207E20100008082A1C0800081C92
:100700002A0808001E10101010000C1E0C1E0C00F1
:1007100030383E383000060E3E0E06000000000065
:10072000000000005F000000000700070000147FC9
:10073000147F1400242A7F2A120023130864620005
:10074000364956205000000807030000001C2241D3
:1007500000000041221C00002A1C7F1C2A000808FF
:100760003E080800008070300000080808080800F3
:100770000000606000002010080402003E5149455E
:100780003E0000427F400000724949494600214135
:10079000494D33001814127F100027454545390094
:1007A0003C4A49493100412111090700364949496C
:1007B0003600464949291E00000014000000004090
:1007C0003400000000081422410014141414140012
:1007D0000041221408000201590906003E415D59FA
:1007E0004E007C1211127C007F49494936003E417F
:1007F000414122007F4141413E007F49494941003A
:100800007F09090901003E41415173007F08080832
:100810007F0000417F4100002040413F01007F08F0
:10082000142241007F40404040007F021C027F00B4
:100830007F0408107F003E4141413E007F090909C5
:1008400006003E4151215E007F09192946002649D4
:100850004949320003017F0103003F4040403F000F
:100860001F2040201F003F4038403F006314081401
:1008700063000304780403006159494D4300007F7D
:1008800041414100020408102000004141417F0025
:1008900004020102040040404040400000030708F9
:1008A00000002054547840007F28444438003844E5
:1008B00044442800384444287F00385454541800D5
:1008C00000087E0902001824241C78007F08040414
:1008D000780000447D4000002040403D00007F1033
:1008E0002844000000417F4000007C047804780028
:1008F0007C08040478003844444438007C182424DC
:100900001800182424187C007C08040408004854AB
:100910005454240004043F4424003C4040207C0004
:100920001C2040201C003C4030403C004428102843
:1009300044004C9090907C004464544C4400000867
:10094000364100000000770000000041360800003A
:100950000201020402003C2623263C0000000000A5
:10096000000000000000000000000000C0E0F0F8FF
:10097000F81800C0F0FCFEFFFFFFFFFFFFFF7E0046
:10098000000000000000000080C0E0E0E0E0E0E0E7
:10099000E0E0C0800000000080C0E0E0E0E0E0E0D7
:1009A000E0E0C080000000E0E0C0C0E0E0E0E00087
:1009B00000E0E0C0C0E0E0E0E0E0C0800000000057
:1009C00080C0E0E0E0E0E0E0E0E0C08000000000A7
:1009D00000000000000000000000E0F0F0F0E0EC9B
:1009E000EEF7F37020007C7C7C7E007E7E7E7F7F35
:1009F0007F000080C0E07E5B4F5BFEC00000C00057
:100A0000DCD7DEDEDED7DC00C00000000000000026
:100A100000000000000000000000000000000000D6
:100A20000000000000F8FCFEFFE000FFFFFFFFFFFA
:100A3000FF80FFFFFFFFFFFFFFFFFF1F0701000019
:100A400000000000000000FFFFFF81000000000028
:100A50000081C3C3C30000FFFFFF8100000000004E
:100A60000081FFFFFF0000FFFFFF0100000000000A
:100A700000FFFFFF010000000001FFFFFF0000FF7B
:100A8000FFFF9D1C1C1C1C1C1C9DDFDFDF000000E9
:100A9000000000000000000000000F1F3F7F7F7F6C
:100AA0007F7F3F1E0C001F1F1F3F003F3F3F7F7F88
:100AB0007F00307B7F7830202030787F3B00030040
:100AC0000F7F0F0F0F7F0F000300000000000000DA
:100AD0000000000000000000000000000000000016
:100AE0000000000000030F1F3F3F3F3F1F1F3F3F1D
:100AF0007F7F7F3F3F1F3F7F7F7F7F7C7878381CE1
:100B00000F000000000000000103070707070707A8
:100B10000707030100000000010307070707070795
:100B2000070703010000000707070000000000009E
:100B3000000707070000000000000707070000008B
:100B40000103070707070707070703010000000065
:100B50000000000000000000000000000000000095
:100B60000000000000000000000000000000000085
:100B70000000000000000000000000000000000075
:100B80000000000000000000000000000000000065
:100B900000000000000000000000000011241FBE43
:100BA000CFEFDAE0DEBFCDBF11E0A0E0B1E0E2E3DD
:100BB000F1E602C005900D92A23AB107D9F725E0FF
:100BC000A2EAB1E001C01D92AC3CB207E1F70E947D
:100BD0002E240C9430300C940000482F2091BD033B
:100BE0009091840357E0291302C080E0089530E01B
:100BF000529FF001539FF00D1124EB57FC4F818160
:100C0000681306C08081481303C085818111EECF2F
:100C10002F5F3F4F2770E7CFFC01AC014C5F5F4F68
:100C20008FEF91E32191822728E030E087FF09C010
:100C3000880F892721503109C9F7E417F50791F783
:100C40000895880FF7CFE8EDF0E080818E7F8083F4
:100C50001092E2001092DA001092E100A0EEB0E0F3
:100C60008C9181608C9380818F77808319BCA7EDF4
:100C7000B0E08C918E7F8C9380818F7E80831092E8
:100C80006D0308952091E4003091E50095E6A901F7
:100C90002091EC00822F817020FF06C08091E80037
:100CA00080FF06C080E008952091E80022FD1AC070
:100CB00080917A03882389F0853089F08091EB0058
:100CC00085FD0FC02091E4003091E50042175307E5
:100CD000F9F29150E1F684E0089582E0089583E00E
:100CE000089581E0089580917C0387FF13C080916F
:100CF000E80082FF06C08091E8008B778093E800CF
:100D000004C080917A038111F2CF089580917A0313
:100D10008823D9F38091E80080FFF8CF8091E80024
:100D20008E77ECCF982F9093E900242F762F50E008
:100D3000891731F07091EC002091ED005091F00096
:100D400021FD07C09F5F973071F78093E90081E034
:100D500008953091EB003E7F3093EB003091ED0031
:100D60003D7F3093ED003091EB0031603093EB002C
:100D70007093EC002093ED005093F0002091EE0072
:100D800027FDE0CF80E00895B0E0A0E0EAECF6E0D7
:100D90000C94072FC8EDD0E088818F7E8883E7ED23
:100DA000F0E080818160808384E082BF81E0809375
:100DB0006D0388818E7F888302EE10E0F801108237
:100DC0001092DA0081EEC82ED12CF60110828881B3
:100DD0008F77888388818068888388818F7D8883E6
:100DE00019BC10927A0310927B031092790310922F
:100DF000780390EEE92EF12CF70180818B7F8083C0
:100E000088818160888342E060E080E00E949206F1
:100E1000F60180818E7F8083F801808181608083EC
:100E2000808188608083F70180818E7F80838881C4
:100E300080618883CDB7DEB7E8E00C94232FFC01F6
:100E4000809182039091830386179707A0F0611524
:100E5000710529F49091E8009E779093E80090E066
:100E60006115710551F4911108C08091E80082FF6D
:100E700034C080E00895BC01F2CF80917A038823CA
:100E8000C1F18530C1F18091E80083FD30C08091CF
:100E9000E80082FDEACF8091E80080FFE1CF8091F9
:100EA000F3002091F200382F6115710519F02830F8
:100EB000310558F091E02830310509F090E020919B
:100EC000E8002E772093E800CBCF81918093F1004A
:100ED000615071092F5F3F4FE7CF80917A038823DC
:100EE00041F0853041F08091E80083FFBECF81E082
:100EF000089582E0089583E0089580916F03089536
:100F000087E797E7909301088093000888E19AE0CB
:100F10000FB6F894A895809360000FBE9093600080
:100F2000FFCF2FB7F8946091690370916A038091A5
:100F30006B0390916C032FBF089590914201992308
:100F4000D1F09091660397FF16C0E82FE695E695DD
:100F5000E695EE31E0F4F0E0E455FE4F282F2770DF
:100F600081E090E001C0880F2A95EAF78095928190
:100F7000892382830895E6EAF1E09191891303C001
:100F8000DF0111971C9291E0EC3AF907B1F708954F
:100F9000909142019923C1F09091660397FF14C08C
:100FA000E82FE695E695E695EE31F8F4F0E0E455A5
:100FB000FE4F877021E030E001C0220F8A95EAF7EA
:100FC0008281822B82830895A6EAB1E0EFEF90E060
:100FD0002D91821751F0EF3F19F4211101C0E92F33
:100FE0009F5F9630A9F7EF3F09F408950E2E000C8D
:100FF000FF0BEC55FE4FE6CFA3E0B0E0E2E0F8E0F7
:101000000C940D2F20916403309165032817390744
:10101000A1F09093650380936403E0916203F091E3
:101020006303309751F024E029839B838A830084F3
:10103000F185E02DCE01019609952396E2E00C940E
:10104000292FA3E0B0E0E7E2F8E00C940D2F209107
:1010500060033091610328173907A1F09093610371
:1010600080936003E0916203F0916303309751F045
:1010700023E029839B838A830084F185E02DCE01C0
:10108000019609952396E2E00C94292F80915E0346
:10109000882359F0E0916203F0916303309729F0BF
:1010A0000190F081E02D0995089580E008958091E8
:1010B000530380FD16C081FD16C082FD16C08091CD
:1010C00052038823A1F0883280F428E0829FC00177
:1010D000112468E270E00E94402F862F672B39F0C0
:1010E000089582E0089584E0089588E0089581E0FD
:1010F00008958091530380FD14C081FD14C082FDCA
:1011000016C080915103882381F08E3180F420E550
:10111000829FC00111246EE170E00E94402F862F53
:10112000089584E1089588E2089588E0089580E5AF
:101130000895282F35EB2303C001112497FF04C025
:1011400080589109892F089580589F4FFBCF539A5B
:101150000895FA01811101C0FB010995089560917C
:101160003E018091430380FF0CC070E080913D01FF
:1011700023E0829FC00111248F559D4F0E94CF0D07
:10118000089580913F019091400123E0829FF001FA
:101190001124EF55FD4F891740F7118210821282FA
:1011A0008F5F3396F8CFE3E4F3E080818E7F808316
:1011B000EEE9F2E08281816082830E94AF080895A7
:1011C00080914303982F9C7F71F480914303837037
:1011D00084608093430380914603893718F088E741
:1011E000809346030895883080F7F5CF80E0089516
:1011F000F894E82FE295EF70F0E031A1282F2F70DE
:1012000081E090E001C0880F2A95EAF7982F909529
:10121000932391A392A1892B82A3789408950F938D
:101220001F9380915E03882329F00E9491071F91EC
:101230000F9108950E94910700914C0210914D0268
:1012400020914E0230914F02600F711F821F931F39
:10125000EECF9091660392FF10C041E0282F2471D9
:10126000243009F040E031E0282F2871283009F0BF
:1012700030E0431711F02CE0822793FF10C041E0CB
:10128000282F2471243109F040E031E0282F287103
:10129000283109F030E0431711F02CE0822730911B
:1012A000670330FF10C051E0282F2171213009F071
:1012B00050E041E0282F2871283009F040E0541711
:1012C00011F029E0822731FF10C041E0282F217161
:1012D000213109F040E031E0282F2871283109F050
:1012E00030E0431711F029E0822794FD877E0895AE
:1012F00082389105B9F1B0F48133910509F47DC0CC
:1013000048F48932910509F46DC08A32910509F4D7
:101310007BC008958533910509F45FC08933910539
:1013200009F10895833E9105D9F138F4803E910585
:1013300029F1823E910579F10895863E9105D9F112
:10134000873E910509F43EC0843E910541F5209108
:10135000670321FF24C08091660384FD19C087EED6
:1013600090E0089520916603237009F05AC02091FF
:10137000670323FF14C089E290E00895209166037B
:1013800020FD38C03091670330FF09C024FF43C0FF
:1013900090E080E008952091660322FDF7CF089544
:1013A0002091660322FD3AC03091670330FD39C0B9
:1013B00024FFF5CFEDCF2091660323FFF0CF24FD6E
:1013C000E7CFCDCF2091660323FD2EC03091670378
:1013D00031FFEECF84EE90E008952091660325FF63
:1013E000DECFC9CF2091660325FD21C02091670380
:1013F00023FFD5CF89E390E0D2CF2091660326FF6B
:10140000CECF8AE290E008952091660326FFC7CFF1
:1014100081E390E0089583EE90E0089582EE90E0FD
:10142000089580EE90E0089586EE90E0089585E3BB
:1014300090E008951F93CF93DF930E947809EC0109
:10144000C11580E5D807F0F5C11580E4D80708F08C
:101450009CC0C03ED10520F5CD3CD10508F082C02E
:10146000C83AD10578F4C53AD10508F073C0C13047
:10147000D10519F1209709F1C430D105F0F4D0E07D
:10148000C0E01BC0C33CD105D0F7C85AD0E0CC0F98
:10149000DD1FCA5BDE4F0990D881C02DD4640DC01A
:1014A000C11580E2D80708F0D1C0C11581E0D80786
:1014B00008F05AC0C83ED10510F7CE01DF91CF9198
:1014C0001F910895C03682E5D80718F5C03482E52B
:1014D000D80708F06BC0C03282E5D80708F05FC0BB
:1014E000C11582E5D80708F497C02C2F26952695BC
:1014F00080E2289F900111248C2F8370C1E0D0E0FE
:1015000002C0CC0FDD1F8A95E2F7C22BD32BDD681A
:10151000D4CFC03A82E5D80760F4C03882E5D80756
:1015200008F459C0CF71D0E0DC2FCC27C46FD06A4B
:10153000C4CFC03C82E5D80708F462C0C03E82E553
:10154000D80708F09CCFDC2FCC27CC27DF71C06FE9
:10155000D06AB3CFC55AD0E0CD5BDE4FC881D0E0B2
:10156000D064ABCFD065A9CF8D2F0E942909182F49
:10157000CE0199270E947809C12FD0E0DC2FCC271B
:10158000CC27DF71C82BD92B98CFCE0199270E9489
:101590007809CC27DF70C82BD92BD06A8ECFCF71BA
:1015A000D0E0DC2FCC27C16FD06A87CF2C2F2695B7
:1015B0002695277080E2289F900111248C2F83703C
:1015C000C1E0D0E002C0CC0FDD1F8A95E2F7C22B4C
:1015D000D32BDC6872CF2C2F26952695277080E2BE
:1015E000289F900111248C2F8370C1E0D0E002C0AD
:1015F000CC0FDD1F8A95E2F7C22BD32BDA685DCFC3
:101600008C2F8F710E942909C82FD0E0DC2FCC27A6
:10161000CC27DF71D06251CF8C2F8F710E942909A6
:1016200055E0D695C7955A95E1F7CF70D0E0DC2FFD
:10163000CC27282F30E084FF05C044E0220F331F61
:101640004A95E1F7C22BD32BD06937CF8D2F8F71FD
:101650000E942909182FCE0199270E947809C12FCD
:10166000D0E0DC2FCC27CC27DF71C82BD92BD2CFF1
:101670008095909112029823909312020895809180
:1016800012029091E901892B9091E801992391F040
:10169000892B90914201992371F09091660397FFF5
:1016A0000AC09EE12EEA31E040E0915040F4411141
:1016B0001092E801089596E026EA31E0F5CFF901AD
:1016C00051919F01552389F34F5FEFCF8091BD0367
:1016D00090918403981301C008958F5F8770FACFAB
:1016E000292F983078F5863068F590E036E0239F12
:1016F000800D911D1124682F677023E096958795C2
:101700002A95E1F7FC01EE0FFF1FE80FF91FE253E6
:10171000FE4F50E040E080E0219130E0062E02C014
:10172000369527950A94E2F721703327042E01C0DD
:10173000220F0A94EAF7822B4F5F5F4F4330510527
:1017400059F7089580E00895292F983098F586304C
:1017500088F590E036E0239F800D911D1124282FFD
:10176000277041E001C0440F2A95EAF723E09695DF
:1017700087952A95E1F7FC01EE0FFF1FE80FF91F8F
:10178000E253FE4F30E020E070E05191DF0111970D
:10179000CB01022E02C0969587950A94E2F78170DC
:1017A00081958527842385278C932F5F3F4F233096
:1017B000310559F708958093650208959091650267
:1017C00021E030E0F90101C0EE0F8A95EAF7D90176
:1017D00002C0AA0FBB1F6A95E2F7EA2B01C0220FD5
:1017E0004A95EAF7892F8E23E81305C0292B822F0B
:1017F0000E94DB0B089520952923F9CF21E030E0EA
:1018000001C0220F8A95EAF7209580916502822314
:101810000E94DB0B08959091E701809589238093C6
:10182000E701282F277069F4891759F09091670311
:1018300092FF07C08695869586950E94FE0B1092B2
:10184000E701089521E030E001C0220F8A95EAF710
:1018500080916502822B0E94DB0B089580935A02CF
:101860000895982F92959F7011F0892F94E0282F5A
:101870002695269511F09E5F822F869509F09F5F31
:10188000892F0895CF93DF93682F81E06A3019F094
:101890006D3031F480E00E94D00CDF91CF9108953B
:1018A0008091CA059091CB0526E0FC01A4ECB5E03F
:1018B00001900D922A95E1F7603E08F458C026E0A9
:1018C000FC0111922A95E9F7C091CA05D091CB0588
:1018D00046E050E0BE0184EC95E00E94C22F9E01DC
:1018E000245C3340892B41F1C90145E096958795E9
:1018F0004A95E1F741E050E0BA0102C0660F771F58
:101900008A95E2F7CB016091C2037091C303862BE5
:10191000972BB9016B5F7F4FE5E076956795EA9568
:10192000E1F702C0440F551F6A95E2F7842B952B0F
:101930009093C3038093C2032A5F3F4F4091C1033A
:10194000642F70E0C9010E94E92E481B463010F454
:10195000240F311D211572E0370710F030E020E030
:101960002C533C4F3093CB052093CA0596CFF6E01D
:101970006F9FB0011124645A794F46E050E00E94F5
:10198000B92FA2CFCF93DF93EC01FE018491811197
:1019900003C0DF91CF9108950E94420C2196F5CFAC
:1019A000CF93382FE091CA05F091CB05E45CF3406A
:1019B0002091C103622F70E0CF010E94E92E281B05
:1019C000822F332361F066E00E94342FC82FC1506C
:1019D00010F4CF91089580E20E94420CF8CF9F014D
:1019E000280F311D2115324018F080E0F0E0E0E0D2
:1019F0008E0F9F2F911D8C539C4F9093CB058093FE
:101A0000CA05E7CF0E94C20C81E00E94D00C089565
:101A100080914201882359F18091660387FF27C096
:101A20000E943F0B8093AD0140E250E06AEE71E00E
:101A30008CEA91E00E94C22F892BC1F080E2ECEA8F
:101A4000F1E0AAEEB1E001900D928A95E1F7E09104
:101A50006203F0916303309749F086E08093AC0114
:101A60000480F581E02D8CEA91E0099508950E94AB
:101A70003F0B8093A40148E050E06AE072E084EA02
:101A800091E00E94C22F892B89F388E0E4EAF1E01B
:101A9000AAE0B2E001900D928A95E1F7E09162032D
:101AA000F0916303309711F30280F381E02D84EA13
:101AB00091E0DBCF882321F00E94380B0E94080DB3
:101AC0000895882339F090911202982B9093120276
:101AD0000E94080D08950F931F93CF93DF938B01FE
:101AE000EA0190917A03943061F58093E9008FEFD9
:101AF0009091E800815095FD06C095ED9A95F1F71B
:101B000000008111F5CF8091E80085FF1AC00E9486
:101B10004206811111C08091E80085FD06C08091C8
:101B2000E8008E778093E800F2CFF80181918F0171
:101B30008093F100219779F78091E8008E77809368
:101B4000E800DF91CF911F910F91089543E050E09D
:101B5000BC0184E00E946B0D089546E050E0BC019A
:101B600084E00E946B0D089540E250E0BC0184E0E7
:101B70000E946B0D0895CF93DF93EC0148E050E095
:101B8000BC0181E00E946B0D88E0FE01A0E7B3E09C
:101B900001900D928A95E1F7DF91CF9108954BB1B5
:101BA000477F5BB15860EFB7F8949B01220F331F5A
:101BB000260F371F280F391F2817390741F4EFBFA9
:101BC0008FE594E00197F1F700C000000895DC0173
:101BD0006D91CD0178E05BB9000000C067FF4BB9A3
:101BE000660F000000C000C000C04BB900C07A956D
:101BF00091F7E2CFB0E0A0E0E0E0FEE00C94052F2A
:101C00007C015B016A0180914B0201E010E08A30A7
:101C100010F40AE010E0C1E0D0E0B501C701F60120
:101C20000995811104C021960C171D072CF4CDB71E
:101C3000DEB7EAE00C94212FCC9F9001CD9F300DB0
:101C4000300D112490E080E045E34A95F1F7000063
:101C5000019682179307C1F7E0CFCF93C82F6FEF9C
:101C6000811164E284E290E00E94FC2F6FEFC111C9
:101C700069E085E290E00E94FC2F6FEFC11165E200
:101C800086E290E00E94FC2FCF910895CF93DF93DE
:101C9000C8EAD1E060E0CE010E94FC2F2196C11578
:101CA00084E0D807B9F7DF91CF9108951F93CF93C0
:101CB000DF93122F8430E0F46830D0F44630C0F463
:101CC000C42FD0E0CC0FDD1F9CE0699FC00DD11D5B
:101CD000112490E6899FC00DD11D1124632FCE01E0
:101CE00088960E94FC2F612FCE0189960E94FC2FBE
:101CF000DF91CF911F910895AF92BF92CF92DF9263
:101D0000EF92FF921F93CF93DF938BE4C82E84E072
:101D1000D82ED0E07601C0E014C0F50125913491B1
:101D2000412F6C2F8D2F0E94560E82E0A80EB11C01
:101D30001F5F163091F78CE0E80EF11CCF5FC830C2
:101D400019F0570110E0E9CFDF5F80E6C80ED11C23
:101D5000D43001F7DF91CF911F91FF90EF90DF908A
:101D6000CF90BF90AF90089580E00E942D0E60E06C
:101D700087E290E00E94FC2F0E947C0E0E94460E9B
:101D800081E00E942D0E089584E290E00E94D82FF9
:101D9000843289F485E290E00E94D82F893059F48A
:101DA00086E290E00E94D82F91E0853209F090E021
:101DB000892F8170089580E0FCCF0F931F93CF93FC
:101DC000DF93843030F5683020F5463010F5C42FAD
:101DD000D0E0CC0FDD1F2CE0629FC00DD11D11247F
:101DE00030E6839FC00DD11D1124CE0188960E943C
:101DF000D82F082F10E0102F0027CE0189960E94BF
:101E0000D82F9801282BC901DF91CF911F910F91F5
:101E1000089590E080E0F8CF462F783040F46630A7
:101E200030F4843020F4672F0E94DD0E089590E096
:101E300080E00895CF92DF92FF920F931F93CF938C
:101E4000DF936C010091650280915A02082BC3E078
:101E5000D0E010E0FC2EC8010C2E02C095958795AD
:101E60000A94E2F780FD0CC02197A0F7F12C8F2D8A
:101E7000DF91CF911F910F91FF90DF90CF90089548
:101E8000B6018C2F0E940C0F0E941A0A019761F371
:101E9000EECFCF93DF93EC010E941A0FBE010E9498
:101EA0000C0F0E941A0ADF91CF910895FC01248142
:101EB0002223C1F0808191810E94490F92959F70E9
:101EC000963091F058F4925F9F70923058F4803FB2
:101ED00019F030F4883E30F481E008959A5FF4CF31
:101EE000843FD1F380E00895883EB0F3813FD1F77D
:101EF000F3CFA6E0B0E0EFE7FFE00C940C2F4983AE
:101F00005A8349815A819923A1F0222391F0CA0171
:101F10000E941A0F182F682F89819A810E94A40BA2
:101F200069817A81812F0E940C0F2696E3E00C9440
:101F3000282FCA010E94700B182FF2CFAB0124E6A4
:101F400030E0BC0188E70E949D2C21E0892B09F03C
:101F500020E0822F089580914F03909150039111BA
:101F600003C091E089270895882369F062E070E05A
:101F700089E494E00E949E0F811103C080914F0379
:101F8000089510924F0380914F03EBCFCF93C091F0
:101F90004F03809150038823D1F00E949107605A2B
:101FA00075418F4F9F4F60934B0370934C03809309
:101FB0004D0390934E03C11108C062E070E087E4C6
:101FC00094E00E949E0F811105C0C0914F038C2F99
:101FD000CF91089581E080934F03F7CFB0E0A0E068
:101FE000E4EFFFE00C94032F49015A016B017C01DF
:101FF0000E94E0088401A4016A2D7B2D88E090E016
:102000000E940E3094014A2D5B2DB601C70100E2FB
:102010000E949E2F622F83E290E00E94FC2FCDB79A
:10202000DEB7ECE00C941F2FB0E0A0E0EAE1F0E1B5
:102030000C94032F182FC62FD42F822E0091430308
:1020400000FF51C080914403811308C08091450373
:10205000861304C080914603841729F08091A00262
:1020600082608093A002E02FE695E695F0E0E057CD
:10207000FE4F808180939E02802F8C7F8430E9F414
:10208000ED2FD93708F0E8E7F0E0E95BFC4FC1112C
:102090002FC02491F22FE22F00FF0FC080913F014B
:1020A0009091400133E0839FD0011124AF55BD4F83
:1020B000891708F492C00E94AF0810934403C0939C
:1020C0004503D0934603882071F02091430360912B
:1020D000470370914803312FAE01809149039091DD
:1020E0004A030E94EE0FCDB7DEB7ECE00C941F2F31
:1020F000EC2EF12CE4919E2ECE2ED12C26E0129FB8
:10210000C00111242FEF30E0B9010E94E92E812F88
:1021100090E0880F991FF5E5F69FA001F79F500DFD
:102120001124841B950BB82EBB0CB80EA9014E19B7
:102130005F094C9DC0014D9D900D5C9D900D11243B
:10214000F92FCB9DA0011124452F5527D901A41BA0
:10215000B50BAC9DA001AD9D500DBC9D500D112443
:10216000D901AB19B1095D01AE9CD001AF9CB00D96
:10217000BE9CB00D1124AB2FBB272A1B3B0B2C9D03
:10218000D0012D9DB00D3C9DB00D11242B2F623040
:102190007105A1F050F46115710509F47DCF61302E
:1021A000710581F0292FF52F77CF6430710569F023
:1021B00080F06630710509F46FCFF4CF2E2FE92F30
:1021C000FB2F6ACF2E2FE52F67CF292FFE2FEB2F66
:1021D00063CFE92FF92D252F5FCF1196EC9311973F
:1021E0002C931296FC9312978F5F139661CFE3E4C2
:1021F000F3E0438121E1421B08F440E021E06281E9
:1022000081810E9414100895E3E4F3E0438121E109
:10221000420F08F44FEF21E0628181810E94141087
:102220000895E3E4F3E0628121E1621B08F460E0D9
:1022300021E0438181810E9414100895E3E4F3E0DA
:10224000628121E1620F08F46FEF21E04381818117
:102250000E9414100895E3E4F3E0818121E04381BA
:1022600062818A500E9414100895E3E4F3E08181B2
:1022700021E043816281865F0E941410089580915D
:102280004703882319F0815080934703209143032B
:1022900030914403409145035091460360914703B8
:1022A000709148038091490390914A030E94EE0F78
:1022B000089580914703833018F48F5F809347031C
:1022C00020914303309144034091450350914603CC
:1022D00060914703709148038091490390914A03AC
:1022E0000E94EE0F08952091430320FF24C0237025
:1022F0002460209343038091A00281608093A00218
:10230000662381F030914403409145035091460388
:1023100060914703709148038091490390914A036B
:102320000E94EE0F20E040914603609145038091AA
:1023300044030E9414100895809143038695869566
:10234000815009F481E061E00E947311089561E019
:1023500081E00E94731108959091670392FB2227F8
:1023600020F9281779F080FB92F990936703609128
:1023700066037091670384E090E00E941A3082E067
:102380000E940B0C08954F925F926F927F928F92F2
:102390009F92AF92BF92EF92FF920F931F93CF93B2
:1023A000DF937B01FB0140805180628073809FB787
:1023B000F8948090690390906A03A0906B03B090AA
:1023C0006C039FBF84189508A608B708F4E68F161B
:1023D0009104A104B10418F4C1E0442329F1C82FE9
:1023E000880FDD0BFE0183E0EE0FFF1F8A95E1F7FA
:1023F000E050FF4F81819281855D9D4F408150E08B
:102400000417150708F4A801B9010E94CF2FCE01C7
:102410000E94732EC82F882339F00E949107F7017C
:1024200060837183828393838C2FDF91CF911F917F
:102430000F91FF90EF90BF90AF909F908F907F9003
:102440006F905F904F900895ABE0B0E0EAE2F2E168
:102450000C940B2F88E0E3E4F3E0DE011196019089
:102460000D928A95E1F780919E0290919F02A09132
:10247000A00289879A87AB8741E08B85811101C0D3
:1024800040E00BE010E09E012F5F3F4F67E472E0F9
:1024900084E00E94C31181111092A0022B96E4E007
:1024A0000C94272F0F931F93CF93DF93EC0144E0FD
:1024B00050E060E372E00E94C22F41E0892B09F4F2
:1024C00040E004E010E09E0167E272E082E00E94DA
:1024D000C311DF91CF911F910F910895A4E0B0E057
:1024E000E4E7F2E10C940C2F409143025091440236
:1024F00060914502709146022FB7F894809169036C
:1025000090916A03A0916B03B0916C032FBF841B61
:10251000950BA60BB70B11E084369105A105B1050B
:1025200070F10E940F096E5F7F4F8F4F9F4F69833D
:102530007A838B839C838091190190911A01855D28
:102540009D4F4091180150E04530510510F044E096
:1025500050E0BE016F5F7F4F0E94CF2F83E090E07D
:102560000E94732E182F882351F00E9491076093C8
:102570004302709344028093450290934602812F58
:102580002496E3E00C94282FEF92FF921F93CF93B1
:10259000DF9300D000D00F92CDB7DEB77B0190E083
:1025A00080E00E94732E182F882309F487C0409181
:1025B000030150E04115510511F041E050E06091F8
:1025C000040170910501655D7D4FCE0105960E9465
:1025D000CF2F4091230250912402609125027091E7
:1025E00026022FB7F8948091690390916A03A09115
:1025F0006B03B0916C032FBF841B950BA60BB70B1D
:1026000084369105A105B10540F48CE292E00E9468
:102610000C069D81891709F451C081E090E00E9469
:10262000732E81111AC010E080911F029091200238
:10263000A0912102B0912202F70180839183A283AD
:10264000B383812F0F900F900F900F900F90DF9119
:10265000CF911F91FF90EF90089540910B0150E0B2
:102660004530510510F044E050E060910C0170914C
:102670000D01655D7D4FCE0101960E94CF2F8CE24A
:1026800092E00E940C069D818913CDCF0E94910794
:102690006093230270932402809325029093260274
:1026A00089819A81AB81BC8180931F029093200223
:1026B000A0932102B093220211E0B6CF80912C02A8
:1026C00090912D02A0912E02B0912F0289839A83BE
:1026D000AB83BC831111E4CFA7CF1F920F920FB62B
:1026E0000F9211242F933F934F935F936F937F9398
:1026F0008F939F93AF93BF93EF93FF938091E100EC
:1027000082FF09C08091E20082FF05C08091E10054
:102710008B7F8093E1008091DA0080FF24C080915C
:10272000D80080FF20C08091DA008E7F8093DA008D
:102730008091D90080FF9DC080E189BD82E189BD83
:1027400009B400FEFDCF81E080937A0380916D0390
:10275000811109C00E9423060E94C4068091E200F4
:1027600084608093E2008091E10080FF17C0809137
:10277000E20080FF13C08091E2008E7F8093E20030
:102780008091E20080618093E2008091D8008062B5
:102790008093D80019BC85E080937A038091E10092
:1027A00084FF2BC08091E20084FF27C080E189BDB7
:1027B00082E189BD89B5982F917080FFFBCF809110
:1027C000D8008F7D8093D8008091E1008F7E809328
:1027D000E1008091E2008F7E8093E2008091E20030
:1027E00081608093E20080917B03882309F447C0D5
:1027F00084E080937A0380917A038091E10083FFE3
:1028000027C08091E20083FF23C08091E100877F91
:102810008093E10082E080937A0310927B038091A1
:10282000E1008E7F8093E1008091E2008E7F8093B3
:10283000E2008091E20080618093E20042E060E08B
:1028400080E00E9492068091F00088608093F00002
:10285000FF91EF91BF91AF919F918F917F916F9178
:102860005F914F913F912F910F900FBE0F901F904E
:10287000189519BC10927A0310926D0374CF809151
:10288000E30087FD93E090937A03B5CF78941F928D
:102890001FB61F9211248F939F93AF93BF93809184
:1028A000690390916A03A0916B03B0916C03019648
:1028B000A11DB11D8093690390936A03A0936B03DC
:1028C000B0936C03BF91AF919F918F911F901FBEEA
:1028D0001F9018959C014FB7F894809169039091CF
:1028E0006A03A0916B03B0916C034FBF821B930BE3
:1028F00008952FB7F8948091690390916A03A0918D
:102900006B03B0916C032FBF08950E9479149C0152
:1029100090915A0380915B03982B21F030935703D9
:102920002093560390915C0380915D03982B21F0D6
:102930003093550320935403E0916203F0916303B5
:10294000309749F082E0809358030680F781E02DAC
:1029500088E593E009950895109212028091420152
:10296000882339F18091660387FF23C0EEEAF1E006
:102970008EE1DF011D928A95E9F790E080E00E94E8
:10298000210890E080E00E94FC071092E9010E947B
:10299000080D86E0E8E5F3E0DF011D928A95E9F78E
:1029A0001092510310925203109253030E94851407
:1029B0000895E6EAF1E086E0DCCFAAE2B0E0E3EEDB
:1029C000F4E10C940C2F8CE793E02091F100DC01F2
:1029D0002D93CD01B3E084389B07B9F780917D0337
:1029E000833009F472C0B8F4813009F449C08230F0
:1029F00009F4B3C08091E80083FF8BC280917C030F
:102A000090917D039A3008F084C2E92FF0E0EE5CEB
:102A1000FF4C0C94762F8A3009F48EC08B3009F469
:102A200071C0893039F780917C03813219F7809128
:102A3000800390918103009711F00297D9F680915D
:102A4000E800877F8093E8008091E80082FF38C02B
:102A50009091F3008091F200029731F48091F1009F
:102A6000813011F0863021F48091F10080936F0362
:102A70008091E8008B778093E8000E947306BACFBC
:102A800080917C03813A09F0B5CF8091E800877F7F
:102A90008093E8008091800390918103892B61F4F9
:102AA00068E080E793E070E00E941F078091E800F3
:102AB0008B778093E8009ECF60E090E080E0F3CFDA
:102AC00080917A038111C0CF95CF80917C03813AA8
:102AD00009F090CF8091800390918103892B09F0B8
:102AE00089CF8091E800877F8093E8008091E8009B
:102AF00080FFFCCF809142018093F1008091E8003B
:102B00008E77B9CF80917C03813209F073CF8091A9
:102B1000800390918103892B09F06CCF8091E800AC
:102B2000877F8093E8000E94730680917E038093E4
:102B300042010E94AC145ECF80917C03813209F087
:102B400059CF8091E800877F8093E8000E94730648
:102B500080917F0380936E034DCF80917C03813AF7
:102B600009F048CF8091E800877F8093E80080914A
:102B7000E80080FFFCCF80916E03BECF803899F0D3
:102B8000823809F0C6C1809180038F70873008F0C9
:102B9000C0C18093E9008091EB0085FB882780F914
:102BA0001092E90006C08091780390917903911109
:102BB00082609091E800977F9093E8008093F10005
:102BC0001092F1008091E8008E779FC1882309F46C
:102BD0008DC1823009F09DC180917E03811190C129
:102BE000809180038F702FEF280F263008F091C15D
:102BF0008093E9002091EB0020FF82C1933031F4F3
:102C00008091EB0080628093EB007AC19091EB00A1
:102C100090619093EB0021E030E001C0220F8A9593
:102C2000EAF72093EA001092EA008091EB008860B6
:102C3000EACF81116EC110917E031F778091E3006E
:102C40008078812B8093E3008091E800877F8093D8
:102C5000E8000E9473068091E80080FFFCCF80911D
:102C6000E30080688093E30082E0111183E08093A9
:102C70007A034FC18058823008F04BC120917E0307
:102C800030917F032C3DE3E03E07A1F583E08A838A
:102C90008AE289834FB7F894DE01139620E03EE084
:102CA00051E2E32FF0E050935700E49120FF03C07E
:102CB000E295EF703F5FEF708E2F90E0EA30C0F04A
:102CC000C7968D939D932F5F243159F74FBF809105
:102CD000E800877F8093E8006AE270E0CE01019609
:102CE0000E941F078091E8008B778093E80011C154
:102CF000C096E7CF8091800390918103432F5527A1
:102D00004330510509F44AC078F54130510509F4C2
:102D10007AC08BE590E0EBECF5E04230510509F02C
:102D2000F8C02091E800277F2093E80020918203DB
:102D3000309183038217930708F49C0140E021152A
:102D4000310509F065C0411163C08091E80082FD42
:102D5000C9CF80917A03882329F2853019F28091B6
:102D6000E80083FFF2CFBECF4132510509F43CC0E9
:102D70004232510509F0CDC08330910508F0C9C039
:102D8000FC01EE0FFF1FEB56FE4F0190F081E02D8E
:102D90008E569E4FDC018C9190E01AC03327213073
:102DA0003105D1F02115310561F02230310509F0EE
:102DB000B0C0E8E3F6E0E4918E2F90E0E8E3F6E0BF
:102DC00007C0E8E5F6E0E4918E2F90E0E8E5F6E054
:102DD000009709F49EC0A5CFE6E4F6E0E4918E2FBB
:102DE00090E0E6E4F6E0F4CF8330910508F091C07E
:102DF000880F991FFC01E556FE4F0190F081E02DF0
:102E000089E090E08ECF82E190E0E6E2F6E089CFC3
:102E100080917A03882309F465CF853009F462CF65
:102E20008091E80083FD5ECF8091E80082FD8DCF28
:102E30008091E80080FF83CF9091F3008091F200B1
:102E40002115310519F08830910550F041E00897BF
:102E500009F040E08091E8008E778093E8006FCF22
:102E600044914093F1003196215031090196E8CF09
:102E7000803809F04EC08091E800877F8093E80099
:102E800080917B038093F1009DCE811142C010910F
:102E90007E031230F0F58091E800877F8093E80090
:102EA00010937B030E947306112311F084E005C088
:102EB0008091E30087FDFACF81E080937A0342E0BE
:102EC00061EC81E00E94920642E261EC84E00E94A3
:102ED000920642E261EC82E00E94920642E260ECDD
:102EE00083E00E94920680917A0313C080917E0352
:102EF000813079F481E0933009F080E080937903A8
:102F00001092E9008091E800877F8093E8000E949A
:102F100073068091E80083FF0AC08091E800877FF4
:102F20008093E8008091EB0080628093EB00AA968A
:102F3000E3E00C94282F1F920F920FB60F921124EA
:102F40002F933F934F935F936F937F938F939F93B1
:102F5000AF93BF93CF93DF93EF93FF93D091E900AB
:102F6000DF708091EC00C82FC17080FDC0E8109226
:102F7000E9008091F000877F8093F00078940E94B0
:102F8000DD141092E9008091F00088608093F000D9
:102F9000CD2BCF70C093E900FF91EF91DF91CF91DE
:102FA000BF91AF919F918F917F916F915F914F9161
:102FB0003F912F910F900FBE0F901F9018950E9478
:102FC000AC142FEF84E39CE0215080409040E1F767
:102FD00000C0000088E19AE00FB6F894A8958093AD
:102FE00060000FBE90936000FFCF662309F45DC0C0
:102FF0008D3C41F40E947908819580935B030E9487
:10300000851408958E3C19F40E947908F6CF8F3C00
:1030100031F40E947908819580935A03F0CF803D66
:1030200019F40E947908F8CF893D29F40E945708C5
:1030300080935C03E4CF8A3D21F40E945708819578
:10304000F7CF8B3D31F40E945708819580935D0343
:10305000D6CF8C3D19F40E945708F8CF9FE2980F05
:10306000983070F4815D990B21E030E001C0220FAF
:103070008A95EAF780915903822B80935903BFCF39
:103080008D3D31F480915303816080935303B7CF1A
:103090008E3D21F4809153038260F7CF8F3D09F07C
:1030A000AECF809153038460F0CF40915A038D3CA2
:1030B00059F480915B0387FF0DC010925B034111AF
:1030C0000BC01092510308C08E3C81F480915B03C9
:1030D00018169CF3442381F080915C0390915D036A
:1030E000892B09F08CCF1092520389CF8F3C49F481
:1030F00047FFF0CF10925A0380915B038111ECCF10
:10310000E0CF803D19F41416ACF3E4CF90915C034A
:10311000893D29F41916F4F610925C03DBCF8A3D41
:1031200019F497FFD7CFF8CF90915D038B3D29F429
:1031300097FFD0CF10925D03CDCF8C3D19F41916B7
:10314000CCF3C8CF9FE2980F983090F4815D990B33
:1031500021E030E0B90102C0660F771F8A95E2F7DF
:10316000CB01809590915903892380935903B2CF65
:103170008D3D31F4809153038E7F80935303AACF0A
:103180008E3D21F4809153038D7FF7CF8F3D09F061
:10319000A1CF809153038B7FF0CF882381F19CEFE7
:1031A000980F913A28F40E949D070E94080D0895F7
:1031B00090E2980F983050F4877091E001C0990F19
:1031C0008A95EAF7892F0E94380BEFCF9BE5980F7D
:1031D000933028F490E080E00E942108089598E55B
:1031E000980F9B3128F490E080E00E94FC0708953E
:1031F00093E3980F933118F460E00E94F517089557
:10320000CF93C82F8823B1F18CEF8C0F813AA0F5B2
:1032100080914201882301F18091660387FF1CC0E1
:10322000EC2FE695E695E695F0E0E455FE4F8281B9
:1032300090E04C2F477021E030E002C0220F331F96
:103240004A95E2F782239323892B79F08C2F0E94F1
:103250009D070E94080D09C0E6EAF1E08191C817B8
:10326000A9F381E0EC3AF807C9F78C2F0E94C80750
:103270000E94080DCF91089580E28C0F883068F489
:10328000C77021E030E001C0220FCA95EAF78091B3
:103290001202822B80931202EBCFEBE5EC0FE330AE
:1032A00040F4F0E0ED5BFE4F808190E00E94210849
:1032B000E1CFE8E5EC0FEB3150F4F0E0EE0FFF1F4B
:1032C000EA5BFE4F808191810E94FC07D3CF83E3AC
:1032D0008C0F833178F661E08C2F0E94F517CACFEE
:1032E0001F93CF93DF93182FEB010E9400192097B3
:1032F00039F4812F0E94CD18DF91CF911F9108954D
:103300008FE99FE00197F1F700C000002197EFCF10
:103310000F931F93CF93DF93C62FD42F022FFC015F
:1033200085818823A9F06093C0030E94791490934B
:10333000BF038093BE03C77081E001C0880FCA95A8
:10334000EAF70E94610DDF91CF911F910F910895CF
:103350008091C003681334C08091BE039091BF0375
:103360000E946A14883C910558F510E21D0FCD1794
:10337000B9F080E28C0F883040F4C77081E001C062
:10338000880FCA95EAF70E945A0D183048F481E078
:103390009D2F977001C0880F9A95EAF70E94610DE2
:1033A00070E060E0802F0E947019183060F6D770CE
:1033B00081E001C0880FDA95EAF70E945A0DC3CF69
:1033C000C77081E001C0880FCA95EAF7F6CFA8E080
:1033D000B0E0EDEEF9E10C94FF2E8C01DC011496C7
:1033E0008C911497882309F4BEC021E04C9111966A
:1033F0005C91119712966C91129713967C9113978A
:1034000015969C910E94790F7C01F8019581992372
:1034100009F4AFC5970137572038310508F042C18C
:10342000FFE0FE1508F48FC08FEF93E00E94D82FC5
:10343000811189C068EAA62EBB24B394E1104DC067
:10344000FE01339686E0DF011D928A95E9F75AE086
:10345000452E7501BFEFEB1AFB0AC5010E94D82F5C
:1034600089831A82882309F46EC0813009F07FC0F5
:103470006501E2E0CE0ED11CC7010E94D82F8A83DD
:10348000882309F460C09FEF980F9330A0F5F3E014
:10349000AF0EB11CC6010E94D82F8B83882309F47C
:1034A00052C01C82DE0111967D01F701208122238A
:1034B00081F2213009F09DC091818281913009F023
:1034C00058C0F2E0EF0EF11C70E060E0893311F4B7
:1034D00060E570E00E94701953C0A11424E0B206A8
:1034E00091F1C5010E94D82F811101C0EA943FEFEC
:1034F000A31AB30AA3CF56018430A1F642E0E42E0A
:10350000F12C56012FEFA21AB20AC6010E94D82F41
:10351000E1E0F0E0EC0FFD1FEE0DFF1D808388233E
:1035200091F08C3741F4E2E0F0E0EC0FFD1FEE0D7E
:10353000FF1D1082B7CF3FEFE31AF30A650187E062
:10354000E816F104F1F68091E701877061F0D80187
:1035500015968C91882339F08091670382FF03C010
:1035600082E00E940B0C2896E0E10C941B2F57017F
:1035700099CF923049F422E0E20EF11C0E9400192A
:103580009FEFE91AF90A91CF933031F432E0E30E5C
:10359000F11C0E94CD18F4CF943021F08FEFE81A7F
:1035A000F80AEECF92E0E90EF11C30E020E0B7011E
:1035B0006F5F7F4FD70111964C918053990B8A30E2
:1035C000910560F021153105D9F2EFE9FFE031975F
:1035D000F1F700C0000021503109F4CF429EF00104
:1035E000439EF00D11249C012E0F3F1F842F7B0161
:1035F000DECFE22FF0E0E850FE4F5490822F869508
:103600008695869590E0FC01E851FE4F6490277006
:10361000712C022E02C0759467940A94E2F7F1E0CF
:103620006F227724FC01E852FE4F8490912C022EE9
:1036300002C0959487940A94E2F731E0832299249A
:10364000FC01E853FE4FC490D12C02C0D594C7941E
:103650002A95E2F781E0C822DD246114710419F093
:1036600081EE0E9400198114910419F086EE0E94E7
:10367000001970E060E0852D0E947019811491049A
:1036800019F086EE0E94CD186114710419F081EED4
:103690000E94CD18C114D10409F472CF70E060E02B
:1036A0008CE218CF818180937002808180936F02B9
:1036B00080E280933501F0926E02E0926D029701F4
:1036C00030522115304228F48681807FB1F0F70115
:1036D0000BC09701305421153041C8F4D80116961B
:1036E0008C91807FF70109F0FF27ED33F10528F475
:1036F000E858FD4FE491E0933501F701E851FC47AC
:10370000E730F10578F5E45CFF4C0C94762F9701D7
:103710003A9521153F41D8F29701205A324520327F
:10372000310558F3F701E1CF26E241EE61EEC80121
:103730000E94881908CF27E245EE65EEF8CF26E211
:1037400041EE60EEF4CF27E245EE64EEF0CF26E2E4
:1037500041EE62EEECCF27E245EE66EEE8CF28E2DE
:1037600041E0EBCF1092C00397013057233231056F
:1037700008F01AC484E090E00E94E62F909367035B
:1037800080936603F701E150F047E232F10520F43F
:10379000ED5BFF4C0C94762F8091660381608093E3
:1037A000660395C0809167038860809367038FC02C
:1037B000809166038260F3CF809166038460EFCFCF
:1037C000809166038860EBCF809167038160EDCFC5
:1037D000809167038260E9CF809166038061DFCFCB
:1037E000809166038062DBCF809166038064D7CFCF
:1037F0000E94AC14809166038068D1CF80916603EB
:103800008C60CDCF809167038360CFCF80916603BA
:103810008E7FC5CF80916703877FC7CF8091660376
:103820008D7FBDCF809166038B7FB9CF809166037A
:10383000877FB5CF809167038E7FB7CF8091670375
:103840008D7FB3CF809166038F7EA9CF8091660371
:103850008F7DA5CF809166038F7BA1CF0E94AC1492
:10386000809166038F779BCF80916603837F97CF8C
:10387000809167038C7F99CF8091660382FB9927A3
:1038800090F921E0922790FB82F990FB83F987CF92
:1038900080916703982F909591708E7F892B90FB74
:1038A00081F983CF90916603892F8F7B96FF806487
:1038B00076CF0E94AC1490916603892F97FB87F90D
:1038C00080586DCF61E08EE090E00E94FC2F609107
:1038D00066037091670384E090E00E941A300E94B2
:1038E000AC1431CE60E0EFCF90916603892F8F7ECC
:1038F00094FF806154CF90916603892F8E7F90FF53
:1039000081604DCF90916703892F877F93FF8860F7
:103910004CCF85E35AC38091CC01811104C089E268
:103920000E949D0754C385E3FBCF992309F42EC35E
:10393000F7E7EF16FCE7FF0609F4DBC028E7E2161D
:103940002CE7F20609F4E2C033E0E3163CE7F306A5
:1039500009F4FFC008F0DEC0E1149CE7F90609F4A1
:10396000EBC0A1E0EA16ACE7FA0609F06EC00E94CF
:10397000DF178091430380FF1CC0282F2E7F2093E8
:1039800043033091440340914503509146036091B5
:103990004703709148038091490390914A030E9424
:1039A000EE0F8091A00281608093A0020E94AF0878
:1039B000CACD81608093430361E0869586950E941D
:1039C0007311C1CD4CE951E167EA71E10E94A90888
:1039D000BACD47EA51E16CE971E1F8CF4BE251E130
:1039E00065E371E1F3CF45E351E16BE271E1EECFC5
:1039F00041E151E16EE171E1E9CF4EE151E161E177
:103A000071E1E4CF47EF50E164E071E1DFCF44E0E2
:103A100051E167EF70E1DACF4FE351E169E571E120
:103A2000D5CF49E551E16FE371E1D0CF61E081E0AD
:103A3000C6CFF7E7EF16FCE7FF0609F463C028E7F7
:103A4000E2162CE7F20609F463C0F8018581E080F4
:103A5000F180882309F490C0C7010E941A0FD82E64
:103A6000682FC7010E94A40BB7018D2D0E940C0F77
:103A70000E941A0A7C01882ED8011596AC901597E1
:103A800016969C9092943FE093228091E701877074
:103A900009F1CA2CAA20F9F08F2D807F803469F0BB
:103AA00080E28E0D8830B0F08F2D807E803229F438
:103AB000B1E0BE1578F4992069F08091670382FF28
:103AC00009C082E00E940B0C8091E7018770CC2432
:103AD000C3948111C12CBF2CB2942FE0B222EBE031
:103AE000EB1508F4B1C0EB2DF0E0EB59FF4C0C9452
:103AF000762F81E00E94220C43E062E081E00E9488
:103B0000DE0B21CD81E00E94FE0BF6CF82E0F2CFEA
:103B100082E0F9CFBBE5EB16BCE7FB0659F1ECE51B
:103B2000EE16ECE7FE06E1F0FAE5EF16FCE7FF061D
:103B300009F08BCF81E01BC00E94AC142FEF34E35F
:103B40008CE0215030408040E1F700C000000E942E
:103B500080076FEF7FEF90E080E00E941A3007CF80
:103B60008091670382FB882780F991E089270E9472
:103B7000AC116BCF80E0FBCFC7010E94700BD82E39
:103B800073CFFF2DFF70DF2E8F2D807F19F0D29421
:103B900090EFD922AA20B9F0DD2069F080E28E0DE5
:103BA000883010F0811009C080911202D82AD0927A
:103BB00012020E94080D8E2D45C08091E901D82A7D
:103BC000D092E901F6CF8E2D0E94CD18DD20E1F1D3
:103BD00080E28E0D883010F0811004C08D2D0E947F
:103BE000380B06C0D0948091E901D822D092E90127
:103BF0000E94080D29C02F2D2F70D22E8F2D807F6F
:103C0000803219F0D29480EFD822882059F031E028
:103C1000831609F47AC0AA2009F486C0992009F411
:103C200048C0C9CF8091670382FD3FC0AA20B9F187
:103C3000DD2039F080911202D82AD09212020E941F
:103C4000080D80E00E9400192B2D2850330B2430E2
:103C5000310510F40E944608CC20B1F08091E701B4
:103C600080FD12C0D80115961C9286958695869582
:103C70000E94220CC8010E94E7198091E7018695F5
:103C8000869586950E94FE0B20E0F80140815181C7
:103C900062817381848195810E94790F64CC80E078
:103CA0000E94CD18DD2081F299CFAA20A1F09110B9
:103CB00004C08D2D0E94610DC7CF81E09812C4CF42
:103CC0008091E8019D2D9823D91609F4BDCFD82AFB
:103CD000D092E801B9CF9110B7CF8D2D0E945A0D27
:103CE0009091E8018D2D892329F08D2D80958923D0
:103CF0008093E8018091CD019D2D982309F4A4CFF4
:103D0000D094D822D092CD019FCFAA2029F095E05F
:103D1000991508F499CFCDCFA4E0A91508F494CF54
:103D20008D2D0E945A0D90CF9920D1F3B9E38B12BB
:103D300009C0EFEFF7EE23E0E150F0402040E1F75B
:103D400000C000008E2D0E94CD187ECF8F2D86954D
:103D50008695837061F0813009F076CFC70193704A
:103D6000A11002C080E090E00E94FC076DCFC70167
:103D70009370A11002C080E090E00E94210864CFFF
:103D80006A2D8E2D0E94F5175FCF8F2D837091F5D0
:103D9000A1105ACF4E2D429546954770440F440FBF
:103DA0008E2D8F70042E01C0880F0A94EAF72E2DF5
:103DB0002071E4FE07C02FE030E001C0220F4A95D9
:103DC000EAF720953F2D369536953370323069F0FD
:103DD00050F440915A02313029F0822B84230E9402
:103DE0002E0C32CF842B822BFACF282B80915A02B3
:103DF0008227F5CF8695AA2011F08F2D8170882318
:103E000009F422CF4E2D429546954770440F440F3A
:103E10008E2D8F70042E01C0880F0A94EAF72E2D84
:103E20002071E4FE07C02FE030E001C0220F4A9568
:103E3000EAF720953F2D369536953370323069F08C
:103E400050F440916502313029F0822B84230E9486
:103E5000DB0BFACE842B822BFACF282B80916502C4
:103E60008227F5CF3F2D3F70F32EAA2029F0832F14
:103E70000E94220C8E2D1ECF8E2D0E945A0D8F2D4A
:103E80000E94FE0BE1CE8E2D92EF8916B1F19815AE
:103E900070F0A0EF8A16D1F0B1EF8B1691F0AA2046
:103EA00009F457C0911087CE8F2D8F712AC0E3EF90
:103EB0008E1651F1F4EF8F12F2CF9091670392FDBD
:103EC0002FC08F2D8F71AA20D9F21BC0AA2081F09C
:103ED00024E0291508F4B8CE2F2D2F7181E090E051
:103EE00001C0880F2A95EAF7909165028927AFCF24
:103EF00035E0391508F4A8CEEFCF8F2D8F71A110C2
:103F0000BFCF0E94220CA0CE80E0AA2009F49FCF50
:103F10009F2D9F7181E001C0880F9A95EAF797CF96
:103F2000AA2061F08F2D8F7192FFEBCF98E0899FCF
:103F30009001112423602093E701E3CF81E00E94E8
:103F40000B0CA1E0A91508F07FCE82E00E940B0CBB
:103F50007BCE992059F0893309F0F4CEBFEFE7EE1C
:103F6000F3E0B150E040F040E1F7EACE8F2D8F71E1
:103F700087CFF701E851FC47E730F10508F4C3CBE0
:103F8000E6E1EE16ECE7FE0609F4C5CC80911202DC
:103F90008272F701E052F847E531F10508F049CDAA
:103FA000EF58FF4C0C94762F36E1E3163CE7F3060E
:103FB00009F0BBCC809112028A7A91E009F490E07A
:103FC0009093CC018111A5CC89E20E94C8070E9480
:103FD000080DB9CACF93DF938091E601807F09F085
:103FE0004DC08091E501882309F448C0E091BD03EC
:103FF00050918403C091E101D091E0016091E20110
:104000007091E30147E05E17C9F18E2F90E0E49FC5
:10401000F0011124EB57FC4F2481222391F1489F9A
:10402000F001499FF00D1124DF01AB57BC4F1196F1
:104030002C9111972C1325C02C912D1322C015966D
:104040002C91159721111DC012962D913C91261B84
:10405000370B283C3105A8F48091E6018F70806110
:104060008093E601E557FC4F80818F7080618083EB
:1040700080EE91E00E94E7190E94660BDF91CF91DC
:104080000895FC013196E770BECFA4E1B0E0EBE407
:10409000F0E20C94032F8C0186E0F801DE011F96FC
:1040A00001900D928A95E1F7F8018481E58090EE08
:1040B000A92E91E0B92E9091E401911128C0882396
:1040C00019F1EE20F1F0C8010E94560FF82E882356
:1040D000C1F087E0F801D50101900D928A95E1F7D2
:1040E0008091E401813031F48091E0019091E1010F
:1040F0000E94490F0E94EA1F8F2D6496ECE00C94F9
:104100001F2FC8010E94E719FF24F394F5CFD08038
:10411000C18082809380F090E5012091E20130918E
:10412000E301A401421B530BFF2009F4E5C0483C06
:10413000510508F09EC08823F9F29091E101809129
:10414000E601282F207F09F056C0C91214C09091B3
:10415000E001D91210C0E11048C08F7080618093D7
:10416000E60180EE91E00E94E7198091E601F801F6
:104170008683F12CC1CFE11038C06C2D8D2D0E94AB
:10418000ED056C2D8D2D0E94ED05E82E8111F1CFEE
:10419000DF86C88A8F8598890E94490F292F22952A
:1041A0002F70243058F49F70223088F0992399F0B2
:1041B000F8019681907F79F4FE2C9ECF2A5F2F70B4
:1041C000223068F0C8010E94E719EF2CF5CF99233F
:1041D00011F0882389F3805E883070F3F3CF803F3D
:1041E00058F3815F833070F7E7CF8091E6018160FB
:1041F0008093E601BECFC91213C09091E001D9129D
:104200000FC0E1100DC08683C8010E94E71987E046
:10421000F801A0EEB1E001900D928A95E1F76CCF24
:10422000C8010E94560F882309F46BCFEE2009F4D1
:1042300068CF8091E601803288F02091E0013091D2
:10424000E101398728879B868A869091E4019C87C3
:104250001D868E87CE0108960E94E71987E0F80137
:10426000A0EEB1E001900D928A95E1F70E94EA1F5D
:104270004BCF9091E601292F207F51F480EE91E001
:104280000E94E71987E0F50111928A95E9F771CF4D
:10429000882309F431CF8091E1018C1110C0809105
:1042A000E001D8120CC0E1100AC09683C8010E9438
:1042B000E71987E0F50111928A95E9F71DCFC8014A
:1042C0000E94560F882309F41CCFEE2009F419CF61
:1042D0008091E601803210F22091E0013091E101FD
:1042E0003A8329839C828B829091E4019D831E8274
:1042F0008F83CE010196B0CF483C5105D0F688237C
:1043000009F402CFFE2CEE2009F4FBCE8091E101EE
:104310008C1105C08091E001D81609F478CFC8014E
:104320000E94560F81119ACF8091E601816080939F
:10433000E601C8010E94E719DFCEABE1B0E0E3EA95
:10434000F1E20C940B2F4E8B5F8B688F798F8A8FE5
:104350009B8F192F91111092E9011D8A86E0FE01B1
:104360007696DE011F9601900D928A95E1F70A8DEF
:10437000002341F021E04F85588969897A89C80175
:104380000E94790F0B8B1C8B87E0FE013F96DE01AC
:10439000189601900D928A95E1F7CE0108960E9439
:1043A000452081110CC087E0FE013896DE01119690
:1043B00001900D928A95E1F78C8581110BC017E071
:1043C0008091BD0390918403891331C06B96E4E022
:1043D0000C94272F2091840330E0C9010196877047
:1043E00099274091BD034817190699F097E0929FCD
:1043F000D001939FB00D1124AB57BC4FFE013196F5
:1044000001900D929A95E1F7809384030E94660BC8
:10441000D6CF0E94AC14109284031092BD0387E0A3
:10442000E0EEF1E0DF011D928A95E9F7C8CF819FA8
:10443000C00111248B579C4F0E944520882331F2E4
:104440008091BD0390E00196877099278093BD030A
:10445000B7CFA3E1B0E0EFE2F2E20C94022F8E01BD
:10446000045F1F4F88E0D8011D928A95E9F78EE717
:10447000C82E81E0D82EF12CE12CAA24A394B12CD3
:1044800028E8822E21E0922EF60181916F018F3F64
:1044900009F442C0F894E82FE295EF70F0E021A112
:1044A0008F70A50102C0440F551F8A95E2F7CA011B
:1044B000922F982B91A392A18095892382A378941F
:1044C00000C0E2E8F1E0712C31E021912F3F09F4C6
:1044D000A3C0A22FA295AF70B0E090968C9190E00F
:1044E0002F7002C0959587952A95E2F780FD94C0BC
:1044F000832F782A330F8E169F0639F7F6013197EE
:1045000080818F3F11F00E94F80850EA5A95F1F728
:10451000F801EE0DFF1D70828FEFE81AF80A94E0A3
:10452000E916F10409F0B0CF48E050E0B80180E5A9
:1045300092E00E94C22F009741F028E0F801A0E528
:10454000B2E001900D922A95E1F70091590210E036
:104550000A561D4F892B09F461C081E08093170230
:104560000E9479149093160280931502F12CE0902A
:104570005E03EE2009F4ACC019821A821B821C82F1
:1045800080914B028A3008F06DC044EC52E1BE01CC
:104590006F5F7F4FC8010E94FA0D882309F487C01E
:1045A00042E552E1BE016F5F7F4FC8010E94FA0DE4
:1045B000882309F47CC04EE652E1BE016F5F7F4F55
:1045C000C8010E94FA0D882309F471C044E252E147
:1045D000BE016F5F7F4FC8010E94FA0D882309F466
:1045E00066C010924B028091580290E044E050E087
:1045F000BE016F5F7F4F8A569D4F0E94C22F21E000
:1046000020931E02892B09F044C0E12C8E2D8F29A6
:104610006396EDE00C941E2F80E06BCFF0901702B4
:10462000FF2009F4A3CF80911502909116020E94F9
:104630006A14059708F49ACF44E050E060E572E010
:10464000C8010E94C22F892B59F084E0E0E5F2E016
:10465000D80101900D928A95E1F71092170287CF49
:10466000F12CFBCF80911802909119020E946A14DC
:10467000843F914008F089CF80911E02882329F25F
:1046800084E0FE013196DF011D928A95E9F71092D0
:104690001E02E0915802F0E0EA56FD4F89819A81AE
:1046A000AB81BC8180839183A283B383AFCF8091A0
:1046B0004B028F3F31F08F5F80934B028A3008F4BA
:1046C00092CF0E9479149093190280931802D4CF4C
:1046D000C0905802D12CF601EA56FD4F6F0184E0DC
:1046E000F801ACE2B2E001900D928A95E1F78CE21C
:1046F00092E00E940C0680932B0284E0E0E3F2E05B
:10470000D60101900D928A95E1F780903402909045
:104710003502A0903602B090370280911A02909133
:104720001B02A0911C02B0911D0288169906AA06D0
:10473000BB06B1F080921A0290921B02A0921C025A
:10474000B0921D020E949107861A970AA80AB90A18
:1047500080924C0290924D02A0924E02B0924F0273
:104760008BE0E8E3F2E0DE01119601900D928A956C
:10477000E1F7809138028695869500913902D090B4
:104780003A02C0903B021091420210924202112361
:1047900009F43CCF10FF0BC0998190FF11C090919C
:1047A000430391609093430360E00E94731111FFF3
:1047B0002DCF20E04C2D6D2D802F0E94141026CF80
:1047C0000E94D308F4CFA6E0B0E0E9EEF3E20C9447
:1047D0000B2F0E9479148C01809113029091140286
:1047E0008017910781F019821A820E947914682F2C
:1047F00049815A81792F80E090E00E949D21109399
:104800001402009313022696E4E00C94272F1F92C3
:104810001FB61F9211248F939F93AF93BF938091E4
:104820006803811113C08091690390916A03A0917C
:104830006B03B0916C034196A11DB11D8093690378
:1048400090936A03A0936B03B0936C03BF91AF91F5
:104850009F918F911F901FBE1F901895CDB7DEB707
:10486000AD970FB6F894DEBF0FBECDBF85B7806899
:1048700085BF85B7806885BF84B7877F84BF0FB643
:10488000F894A895809160008861809360001092F0
:1048900060000FBE80E890E00FB6F894809361004E
:1048A000909361000FBE86EF98E09093A3018093F0
:1048B000A2010E9423060E94C4068091E200846047
:1048C0008093E200789480917A038823A1F010917C
:1048D000E9001F709091EC00892F817090FD80E8B5
:1048E000182B1092E9008091E80083FD0E94DD14EE
:1048F0001F701093E90082E084BD93E095BD9AEFAC
:1049000097BD80936E0010924C0210924D0210924F
:104910004E0210924F020E94C40E811102C00E94EA
:10492000B40E8091D80080618093D8002AE12A9546
:10493000F1F700C08091D900182F117080FD04C0DC
:104940000E94230610927A0310935E0310935F0374
:1049500010932801112309F4D7C010923D018BE177
:1049600080933E010E94872D80912801809128012B
:1049700094E0811190E09093590284E0891B809328
:10498000580284E90E94F80886E60E94F80887E940
:104990000E94F80886EC0E94F80802E811E0D801AD
:1049A0008D918D018F3F11F00E94F808B1E0083819
:1049B0001B07A9F788E0E6E9F2E0DF01282F1D9246
:1049C0002A95E9F7E0E5F2E0DF011D928A95E9F723
:1049D00090E080E00E94E62F853E9E4F21F40E94E9
:1049E000C40E811163C065EE7EEF90E080E00E940E
:1049F0001A3060E082E090E00E94FC2F81E080931A
:104A00005A0261E083E090E00E94FC2F60E074E1D4
:104A100084E090E00E941A3060E086E090E00E941E
:104A2000FC2F60E087E090E00E94FC2F40E050E027
:104A3000BA0188E090E00E940E3060E083E290E0EE
:104A40000E94FC2F60E08CE090E00E94FC2F60E070
:104A50008DE090E00E94FC2F19821A821B821C823A
:104A60001D821E821F82188648E050E067E170E0D8
:104A7000CE0101960E94EC2F40E050E0BA018FE198
:104A800090E00E940E3080E00E942D0E0E94B40E35
:104A900040E050E0BA018FE090E00E940E3040E02C
:104AA00050E0BA0183E190E00E940E3082E090E095
:104AB0000E94D82F80935C0284E090E00E94E62F51
:104AC00090936703809366030E942922EFEFF6E735
:104AD00021E0E150F0402040E1F700C000000E94DA
:104AE000292280915F03E4E08111E0E0F0E0EA56E2
:104AF000FD4F808181FF0EC06FEF7FEF90E080E07F
:104B00000E941A300E9480078BE180933D018093C0
:104B10003E012ACF83E090E00E94D82F0E942E0C05
:104B200080915E0381113EC182E08093910280E812
:104B30008093C1030E94252C6BE070E08BEC92E027
:104B40000E949E0F8823E9F18091910265E070E058
:104B500081FD2AC186EC92E00E949E0F882389F194
:104B60006DE070E084EB92E00E949E0F882349F193
:104B70000E949107605A75418F4F9F4F60934B037E
:104B800070934C0380934D0390934E03E4ECF3E059
:104B900080E092E0DF019C011D9221503040E1F75E
:104BA000F093CB05E093CA058FEF9FEF9093C3037B
:104BB0008093C20381E08093500380934F0310924F
:104BC000920280915B02811184C088E090E00E9493
:104BD000E02F4B015C0183E290E00E94D82F282F48
:104BE00030E040E050E060E070E080E090E000E223
:104BF0000E94832F282939294A295B2920934303BE
:104C00003093440340934503509346036093470316
:104C1000709348038093490390934A033091A00214
:104C200033603093A0022C7F09F043C025E020932D
:104C30004303109244032FEF2093450328E720936A
:104C400046031092470325E030E04FEF58E760E05D
:104C50000E94EE0F88E090E00E94E02F6B017C0143
:104C600083E290E00E94D82F282F30E040E050E00F
:104C700060E070E080E090E00E94832FB22FA32FCD
:104C8000F42FE52F5B0197018601BC29A12BFE299A
:104C9000E32BB0934303A0934403F0934503E093C5
:104CA000460360934703B09248038093490390936F
:104CB0004A030E94E0080E94A7088091430380FFF6
:104CC00005C060E0869586950E94731181E080930F
:104CD0005B0280915E03811102C00E948A2D89E2ED
:104CE00091E09093630380936203DD24D394CC24FA
:104CF000C3944AE0442E512C612C712C80917A038C
:104D000010E402E1853009F487C00E9429220DE5F4
:104D100012E036E9E32E32E0F32ED701F80191914B
:104D20008D9125E632E02E173F0709F47FC09817D2
:104D3000B1F320905E03B12CD701AD907D01F80155
:104D400031908F013A1429F13A24912C88248394CC
:104D5000832D8821B1F02220A1F099A2BAA20E944D
:104D600079149CA38BA3CDA291E08A2D882109F40C
:104D700090E09EA349A15AA16BA17CA18DA10E94A4
:104D80009D219394880CF6E09F12E2CFF8013197B1
:104D9000A082B39428E0B212CFCF0E940F0931E075
:104DA0003FA349C080E0C1CE81EC92E0D5CE809196
:104DB0007A03843029F10E94AB0F1092680388E1D6
:104DC00090E00FB6F894A895809360000FBE109302
:104DD000600083B7817F846083BF83B7816083BFB6
:104DE0007894889583B78E7F83BF0FB6F894A89583
:104DF00080916000886180936000109260000FBE17
:104E00000E942922E6E9F2E08191811198C4AEE97D
:104E1000B2E0AE17BF07C1F780917A03853009F47D
:104E2000C6CF0E94AC140E9446086FCF981381CF62
:104E30000E94E3231FA280915003882309F491C0AC
:104E400010915E0380919302909194020E946A14E3
:104E5000C29708F466C00E947914909394028093DC
:104E6000930284EC93E09093CB058093CA051123C1
:104E700009F4C6C187EF92E00E94C20C80916502DE
:104E80000E94310C813009F477C1882349F08230C7
:104E900009F475C1833009F475C186ED92E002C052
:104EA0008FEE92E00E94020D80917002805D0E9460
:104EB000420C85E093E00E94C20C80916F02805DFD
:104EC0000E94420C81E093E00E94C20C80906D022F
:104ED00090906E0220913301309134018216930636
:104EE00009F053C120916C02203209F04EC1E6E670
:104EF000F2E08F0181918032E1F3F801019000200E
:104F0000E9F79F012150310979010E151F0508F4B9
:104F100071C18FEF92E00E94C20C809135010E9416
:104F2000420C8091C2039091C303892B09F06DC19B
:104F300080914F038823A9F00E94910700914B03B1
:104F400010914C0320914D0330914E03601B710B67
:104F5000820B930B6F3F7F4F8F4F9F4710F40E9440
:104F6000AB0F8FA181110E94C60F86E0E8E5F3E048
:104F7000DE01119601900D928A95E1F7B0905903E8
:104F8000F0905A0310915B03E0905C0300915D0385
:104F900010925A0310925B0310925C0310925D030F
:104FA000812F8F2909F445C08091560390915703B2
:104FB0000E946A149C0190915103992309F4EEC355
:104FC00025313105B0F19F3F19F09F5F9093510358
:104FD000FF2059F00E9479089FEF1F140CF491E014
:104FE000899F802D112480935A03112359F00E9428
:104FF000790891E011160CF09FEF899F802D112404
:1050000080935B0380915A03882399F0A0905B03FF
:10501000AA2079F00E949908882309F4D8C18093C6
:105020005A038A2D0E949908882309F4D3C18093DA
:105030005B038E2D802B09F445C080915403909121
:1050400055030E946A149C0190915203992309F41C
:10505000A0C321353105B0F19F3F19F09F5F9093B8
:105060005203EE2059F00E9457089FEF1E140CF4D3
:1050700091E0899F802D112480935C03002359F0D7
:105080000E94570891E010160CF09FEF899F802D29
:10509000112480935D0380915C03882399F0E09054
:1050A0005D03EE2079F00E949908882309F495C1E8
:1050B00080935C038E2D0E949908882309F490C187
:1050C00080935D0380915903B81217C080915A03F1
:1050D000882311F08F1111C020915B03222311F05E
:1050E00012130BC090915D03992311F0901305C02A
:1050F00030915C03332309F43EC30E94851486E09B
:10510000FE013196A8E5B3E001900D928A95E1F792
:105110000E94460890919502891721F0809395028C
:105120000E94910780917A03843009F0E7CD83E0F3
:105130008093E9008091E80082FFE0CD8091E80053
:1051400090E085FF06C00E944206882309F44BC107
:1051500091E08091E8008B778093E800992309F42F
:10516000CDCD8981EFEFE80FE33108F063C1F0E0C6
:10517000EA57FF4C0C94762F89EE92E093CE83EEA3
:1051800092E090CE8CED92E08DCE909234018092A0
:10519000330120E220936C02B12CA12C10926B02FF
:1051A00021E6E22E22E0F22E06E612E0C501B4016D
:1051B000A30192010E94542F605D603321F482E0CC
:1051C0000636180731F081149104A104B10409F4E2
:1051D00060E2D80114966C93C501B401A301920159
:1051E0000E94542F49015A0101501109E016F1069D
:1051F000E9F67DCED8018D918D010E94420C85CEBD
:1052000087E093E00E94C20C8CCE809150038823EB
:1052100009F48ECE8091920281118ACE0E94C60F2F
:105220002091C2033091C3032115310509F480CECA
:1052300080E041E050E0882E912C1A01082E02C037
:10524000220C331C0A94E2F7B90162217321672B07
:1052500011F48F5FF0CF9091910290FF9EC0880F64
:10526000880F880F8093380110923B01895F8093EB
:10527000390183E080933C0124E630E047E050E0D0
:1052800066E371E088E70E94592C892B09F050CE23
:1052900085E0880C991C8A95E1F78091910280FF46
:1052A0008EC0E1E7F2E080E2DF011D928A95E9F726
:1052B000ECE8F1E0FDA7ECA768E871E007E0FF2467
:1052C000F394ACA5BDA54D91BDA7ACA7FB01819101
:1052D000BF01880D992D911D9C012C533C4F3BA77C
:1052E0002AA7E42FF0E0EF58FD4F30E020E0A02E99
:1052F000A21A1F2D022E01C0110F0A94EAF78AA5E7
:105300009BA599A788A790E0A8A5B9A58D91B9A755
:10531000A8A781234A2D491B4770E42E042E000CB8
:10532000550BB82F01C0BB0FEA94EAF7EB2E51954D
:10533000419551094770552701C086954A95EAF76E
:10534000E82A8081E82AE0829F5F9830E9F62F5FA3
:105350003F4F31962830310551F6ECA5FDA5E059B7
:10536000F14009F0AECF04E610E020E230E041E782
:1053700052E060E488E70E94E32C892B09F0D8CD45
:10538000209430948091C2039091C3032822392243
:105390003092C3032092C203CBCD8295880F8076D2
:1053A000809338019401369527953695279520935B
:1053B0003B01815E8093390120933C015DCFA401C4
:1053C0004C535C4F04E610E020E230E0D2CFD092A4
:1053D0005A0327CED0925B032CCED0925C036ACEC8
:1053E000D0925D036FCE00E210E0DE0111967D01E8
:1053F0008091E80085FD0AC08091E8008B7780935A
:10540000E8000E944206882399F3A2CE8091F10021
:10541000F70181937F010150110951F799CE1A824A
:105420008CE08B831BC08A81823009F4A9C128F4E7
:10543000813061F08FEF898311C08330C1F08430F7
:10544000C9F71B821C821D821E8208C00E94910720
:105450000E947C2F6B837C838D839E8340E250E08F
:10546000BE016F5F7F4F82E00E946B0D47CC2B81A6
:10547000822F90E0FE013496245E8830910570F70B
:10548000DC01AA56BD4F3C91319301962813F5CF0C
:10549000E5CF8A81823049F0853061F680914303FF
:1054A00080FF0EC00E94D308D9CF6B817C818D8193
:1054B0009E810E947C2F87E290E00E94FC2FCECF3D
:1054C00081608093430360E0869586950E94731106
:1054D000C5CF4C816B818A810E94DD0E9827892778
:1054E00098279E838D83BACF2D813E813227232733
:1054F00032274C816B818A810E94560EAFCF0E9469
:105500007C0EACCF9A81923009F094CF8830E1F1D3
:10551000893009F465C08B81823009F1A8F48130AB
:1055200009F09CCF8C81F8E78F9FC00111246FEFA9
:1055300070E00E94E92E462F20E0609145038091A3
:1055400044030E9414108ACF8330D1F0843009F0D4
:1055500085CF20E0409146036D818C81F2CF8C8114
:10556000882309F49FCF8091430381608093430394
:1055700060E0869586950E94731160E08C81A6CFCD
:105580008C81809347036ACF8B818230E1F078F47D
:10559000813009F063CF809146032FEF829FC001D5
:1055A000112468E770E00E94E92E6C8357CF8330A6
:1055B000A1F0843009F052CF809144038C83809114
:1055C00045038D834BCF8091430380FF04C08695B4
:1055D00086958C8343CF80E0FCCF80914703F9CF41
:1055E0002091430330914403409145035091460379
:1055F00060914703709148038091490390914A0359
:105600000E94EE0F2BCF30E13A8328CF82E08A83CD
:1056100088E507CF0A811B81102701271027CE01BB
:1056200001967C01AC80DC01AA0DB11D5D01C801B1
:1056300088559E4FEA14FB0409F410CF0835B2E0F8
:105640001B0750F40E94D82FF70184830F5F1F4F70
:10565000BFEFEB1AFB0AEBCFD70114961C92F6CFE3
:105660000A811B81102701271027FE0131965F0157
:10567000EC80E00EF12EF11CC80188559E4FE0161B
:10568000F10609F4EBCE0835F2E01F0728F4D50146
:1056900014966C910E94FC2FBFEFAB1ABB0A0F5FF0
:1056A0001F4FEACF0E94460ED9CE84E08A83D6CE21
:1056B0000A811B81102701271027FE0131967F01E7
:1056C000AC809F012A0D311D5901C8018896AE1486
:1056D000BF0409F4C3CE003831E0130758F40E9428
:1056E000D82FD70114968C930F5F1F4FFFEFEF1A3F
:1056F000FF0AEBCFF7011482F7CF0A811B81102735
:10570000012710279E012F5F3F4F5901EC80E00ECB
:10571000F12EF11CC80188960E151F0509F49ECEC6
:10572000003831E0130728F4D50114966C910E94DB
:10573000FC2FBFEFAB1ABB0A0F5F1F4FEBCF80915F
:105740007903882309F468CBB0E1B9BD09BD09B478
:1057500000FEFDCF8091D8008F7D8093D80080918E
:10576000E00082608093E0008091E00081FDFCCF4A
:105770000E94AC1451CB822B892B09F4C0CCBDCC38
:1057800087E290E00E94D82F1B821C821D828E83AC
:1057900065CE2B30310508F061CC94CC2B3031052F
:1057A00008F013CC46CCEF92FF920F931F93CF9348
:1057B000DF93182FEB011092BC0084EA8093BC00A9
:1057C0000E9479147C018091BC0087FF27C08091E2
:1057D000B900887F883029F08091B900887F8031B6
:1057E00089F51093BB0084E88093BC000E94791473
:1057F0008C018091BC0087FF1EC02091B900287FDA
:1058000090E080E0283191F081E090E0203411F4C4
:1058100090E080E091958195910908C0C7010E94B0
:105820006A14C817D90778F68EEF9FEFCDB7DEB7A9
:10583000E6E00C94252FC8010E946A14C817D90706
:10584000C0F6F2CF8FEF9FEFF1CF1092B9008CE04E
:105850008093B80008950F931F93CF93DF93EB01CC
:105860008093BB0084E88093BC000E9479148C0173
:105870008091BC0087FF11C02091B900287F81E092
:1058800090E0283211F490E080E0919581959109A3
:10589000DF91CF911F910F910895CF3FDC0741F326
:1058A000C8010E946A14C817D90710F78EEF9FEF3E
:1058B000EFCFB0E0A0E0EFE5FCE20C94022F782EF1
:1058C0005B016A0189010E9479144C01C1E0D0E0BA
:1058D0000431110558F0C5E0D0E00F3F100731F05A
:1058E000C80164E170E00E94E92EEB01BE01872D42
:1058F0000E94D32B7C0197FF09C00F3F1007B1F323
:10590000C4010E946A140817190780F7E501CA0C40
:10591000DB1CCC15DD0511F0F7FE09C084E980938E
:10592000BC00C701CDB7DEB7EDE00C941E2FB80167
:1059300089910E942B2C7C01ECCFB0E0A0E0E3EA3F
:10594000FCE20C94022F782E5B016A0189010E940F
:1059500079144C01C1E0D0E00431110558F0C5E0E4
:10596000D0E00F3F100731F0C80164E170E00E9401
:10597000E92EEB01BE01872D0E94D32B7C0197FFFE
:1059800009C00F3F1007B1F3C4010E946A14081741
:10599000190780F7E501CA0CDB1CCC15DD0511F0F9
:1059A000F7FE09C084E98093BC00C701CDB7DEB71C
:1059B000EDE00C941E2FFE018491B8010E942B2C67
:1059C0007C012196EACFB0E0A0E0E9EEFCE20C9485
:1059D000012F682E762E5A0169010E9479144C011C
:1059E000C1E0D0E00431110558F0C5E0D0E00F3F30
:1059F000100731F0C80164E170E00E94E92EEB016C
:105A0000BE01862D0E94D32B7C0197FF1DC00F3F46
:105A10001007B1F3C4010E946A140817190780F730
:105A200084E98093BC00C701CDB7DEB7EEE00C94EB
:105A30001D2FB80189910E942B2C7C01CC16DD060C
:105A400079F3F7FEF6CFECCFB801872D0E942B2C0F
:105A50007C01E501CA0CDB1CF1CF8EE14A9B02C040
:105A60008150E1F74A9BFECF08955A9880E28A95CB
:105A7000F1F75A9A0895FC013BE03A95F1F798E066
:105A800020E080E031E040E14A95F1F7880F4A9B41
:105A900002C08160232742E04A95F1F7000040E10F
:105AA0004A95F1F7915079F790E19A95F1F799B10C
:105AB00032E03A95F1F7000040E14A95F1F792FBA8
:105AC000992790F992272081920F90830895A1E061
:105AD000B0E0EDE6FDE20C94092F19828C017C0107
