:100000000C949B060C94B8060C94B8060C946F30B4
:100010000C94B8060C94B8060C94B8060C94B80668
:100020000C94B8060C94B8060C944F190C949118C3
:100030000C9433230C94B8060C94B8060C94B806B0
:100040000C94B8060C94B8060C94B8060C94B80638
:100050000C94B8060C94E6220C94B8060C94B806DE
:100060000C94B8060C94B8060C94B8060C94B80618
:100070000C94B8060C94B8060C94B8060C94B80608
:100080000C94B8060C94B8060C94B8060C94B806F8
:100090000C94B8060C94B8060C94B8060C94B806E8
:1000A0000C94B8060C94B8060C94B8067C0C7F0C23
:1000B000B20CCF0CD60CE10CE40CE40CE40CFD0DFE
:1000C000FD0D690D6C0D710D950DB60DB90DBC0DC5
:1000D000DE0D2D10A1103510FF0F03103910061082
:1000E0003C1047101110971015104B1019104F109D
:1000F00079101D10531083102310591063100A102B
:1001000040100D10431028105E106F108F109110CA
:10011000FB0F3110AA10CA10D010BD0FC410D6109A
:10012000DC10E2101911421147114C1151115611F6
:100130005B11601165116A116F11761179117C11D3
:100140007F118211851188118D11C50FC50F1512F0
:10015000151248124812C712E113E113E113E51218
:1001600059136A136A13A916D0167918D01679187C
:100170001C173F1779183418441800DA0281FFD988
:10018000F1DB20A4A62EAF00A0C0D30000A1C8D3ED
:100190000000AED580A81F408D1420007F3F1F6453
:1001A0003214643214783C1E1E140A05556E6465C0
:1001B000660041646A757374005261697365004C2E
:1001C0006F7765720044656661756C74004C617987
:1001D00065723A20003A002C206B00780080818202
:1001E000838485868788898A8B8C8D8E8F90919267
:1001F0009394A0A1A2A3A4A5A6A7A8A9AAABACADBD
:10020000AEAFB0B1B2B3B4C0C1C2C3C4C5C6C7C833
:10021000C9CACBCCCDCECFD0D1D2D3D40000000030
:1002200000000000000000000000000000000000CE
:1002300000000000000000000000000000000000BE
:10024000007E0F00D4FFFFFFC70000007800000011
:1002500000000000002A2B28000000000000000021
:10026000000000000000000029000000002C1E34E7
:1002700020212224342627252E362D3738271E1FED
:10028000202122232425263333362E37381F040518
:10029000060708090A0B0C0D0E0F10111213141586
:1002A000161718191A1B1C1D2F3130232D35040564
:1002B000060708090A0B0C0D0E0F10111213141566
:1002C000161718191A1B1C1D2F3130354C202020F1
:1002D000206162636465666768696A6B6C6D6E6FE6
:1002E000707172737475767778797A313233343508
:1002F0003637383930524542545F2D3D5B5D5C23C3
:100300003B27602C2E2F20202005010980A101858C
:100310000319012AB700150126B700950175108150
:1003200000C0050C0901A101850419012AA00215CC
:100330000126A002950175108100C005010906A1E2
:10034000018506050719E029E715002501950875BF
:100350000181020507190029EF1500250195F075A7
:10036000018102050819012905950575019102957C
:100370000175039101C00660FF0961A101096215C1
:100380000026FF009520750881020963150026FFED
:1003900000952075089102C005010906A101050715
:1003A00019E029E7150025019508750181029501DD
:1003B000750881010507190029FF150026FF009522
:1003C0000675088100050819012905150025019504
:1003D0000575019102950175039101C009025B0049
:1003E000030100A0FA090400000103010100092132
:1003F00011010001224400070581030800010904DE
:100400000100020300000009211101000122220065
:1004100007058203200001070503032000010904EA
:1004200002000103000000092111010001226D00FA
:100430000705840320000112010002000000085398
:100440004601000100010200010C0343006F00722D
:10045000006E0065000000100366006F006F0073FF
:1004600000740061006E0000000403090400000035
:100470000000003E5B4F5B3E003E6B4F6B3E001C3E
:100480003E7C3E1C00183C7E3C18001C577D571CCF
:10049000001C5E7F5E1C0000183C180000FFE7C3D4
:1004A000E7FF00001824180000FFE7DBE7FF00303B
:1004B000483A060E00262979292600407F050507BF
:1004C00000407F05253F005A3CE73C5A007F3E1C18
:1004D0001C0800081C1C3E7F0014227F2214005FB1
:1004E0005F005F5F0006097F017F00006689956AF3
:1004F0000060606060600094A2FFA2940008047E27
:1005000004080010207E20100008082A1C0800089B
:100510001C2A0808001E10101010000C1E0C1E0CC7
:100520000030383E383000060E3E0E060000000057
:1005300000000000005F000000000700070000143A
:100540007F147F1400242A7F2A1200231308646278
:1005500000364956205000000807030000001C2206
:100560004100000041221C00002A1C7F1C2A0008B8
:10057000083E0808000080703000000808080808DD
:10058000000000606000002010080402003E514995
:10059000453E0000427F4000007249494946002123
:1005A00041494D33001814127F1000274545453945
:1005B000003C4A49493100412111090700364949A7
:1005C000493600464949291E000000140000000079
:1005D00040340000000008142241001414141414C4
:1005E000000041221408000201590906003E415D45
:1005F000594E007C1211127C007F49494936003E59
:1006000041414122007F4141413E007F49494941EA
:10061000007F09090901003E41415173007F08082C
:10062000087F0000417F4100002040413F01007FE2
:1006300008142241007F40404040007F021C027F9E
:10064000007F0408107F003E4141413E007F0909C0
:100650000906003E4151215E007F09192946002606
:10066000494949320003017F0103003F4040403FB8
:10067000001F2040201F003F4038403F0063140807
:100680001463000304780403006159494D430000DA
:100690007F41414100020408102000004141417F98
:1006A00000040201020400404040404000000307F3
:1006B0000800002054547840007F28444438003813
:1006C0004444442800384444287F00385454541883
:1006D0000000087E0902001824241C78007F08040A
:1006E00004780000447D4000002040403D00007F31
:1006F000102844000000417F4000007C047804780A
:10070000007C08040478003844444438007C1824F1
:10071000241800182424187C007C080404080048CD
:10072000545454240004043F4424003C4040207CA2
:10073000001C2040201C003C4030403C004428105D
:100740002844004C9090907C004464544C44000039
:100750000836410000000077000000004136080024
:10076000000201020402003C2623263C0000000097
:1007700000000000000000000000000000C0E0F0E9
:10078000F8F81800C0F0FCFEFFFFFFFFFFFFFF7E40
:1007900000000000000000000080C0E0E0E0E0E0B9
:1007A000E0E0E0C0800000000080C0E0E0E0E0E0C9
:1007B000E0E0E0C080000000E0E0C0C0E0E0E0E099
:1007C0000000E0E0C0C0E0E0E0E0E0C08000000049
:1007D0000080C0E0E0E0E0E0E0E0E0C08000000099
:1007E0000000000000000000000000E0F0F0F0E079
:1007F000ECEEF7F37020007C7C7C7E007E7E7E7FBA
:100800007F7F000080C0E07E5B4F5BFEC00000C0C9
:1008100000DCD7DEDEDED7DC00C000000000000018
:1008200000000000000000000000000000000000C8
:10083000000000000000F8FCFEFFE000FFFFFFFFEB
:10084000FFFF80FFFFFFFFFFFFFFFFFF1F0701000C
:100850000000000000000000FFFFFF81000000001A
:10086000000081C3C3C30000FFFFFF810000000040
:10087000000081FFFFFF0000FFFFFF0100000000FC
:100880000000FFFFFF010000000001FFFFFF00006C
:10089000FFFFFF9D1C1C1C1C1C1C9DDFDFDF0000DC
:1008A00000000000000000000000000F1F3F7F7FDD
:1008B0007F7F7F3F1E0C001F1F1F3F003F3F3F7F7A
:1008C0007F7F00307B7F7830202030787F3B0003B3
:1008D000000F7F0F0F0F7F0F0003000000000000CC
:1008E0000000000000000000000000000000000008
:1008F000000000000000030F1F3F3F3F3F1F1F3F4E
:100900003F7F7F7F3F3F1F3F7F7F7F7F7C787838AF
:100910001C0F000000000000000103070707070785
:100920000707070301000000000103070707070787
:100930000707070301000000070707000000000089
:10094000000007070700000000000007070700007D
:100950000001030707070707070707030100000057
:100960000000000000000000000000000000000087
:100970000000000000000000000000000000000077
:100980000000000000000000000000000000000067
:100990000000000000000000000000000000000057
:1009A00000000000000000000000000000222325DD
:1009B0002628292A2C2D2F3032333536383A3B3D24
:1009C0003E4042434547494A4C4E50515355575972
:1009D0005A5C5E6062646668696B6D6F717375778F
:1009E000797B7D7F81838587898A8C8E909294968E
:1009F000989A9C9E9FA1A3A5A7A8AAACAEAFB1B39D
:100A0000B4B6B8B9BBBCBEBFC1C2C3C5C6C7C9CAEC
:100A1000CBCCCDCED0D1D2D2D3D4D5D6D7D7D8D9AE
:100A2000D9DADADBDBDBDCDCDCDCDCDDDDDDDDDC0C
:100A3000DCDCDCDCDBDBDBDADAD9D9D8D7D7D6D51E
:100A4000D4D3D2D2D1D0CECDCCCBCAC9C7C6C5C3E0
:100A5000C2C1BFBEBCBBB9B8B6B4B3B1AFAEACAA2D
:100A6000A8A7A5A3A19F9E9C9A98969492908E8CDD
:100A70008A89878583817F7D7B79777573716F6DB7
:100A80006B6968666462605E5C5A59575553515091
:100A90004E4C4A4947454342403E3D3B3A38363545
:100AA0003332302F2D2C2A29282625232200AF006F
:100AB000AE000014001A0008001500170000000422
:100AC000001600070009000A0000001D001B0006B8
:100AD000001900050000000000000029244C412AF4
:100AE000210000130012000C0018001C000000334D
:100AF000000F000E000D000B00000038003700361C
:100B0000001000110000000000000028222B422CE1
:100B10004300001E001F00200021002200000035BD
:100B2000002E002F00300034000000000049001D9E
:100B3000140F141A1400000000000001000100014D
:100B40000000002700260025002400230000002DBF
:100B5000004F00520051005000000031004D004B8A
:100B6000004E004A000000000000000100010001EA
:100B70000000001E001F00200021002200000035A0
:100B8000022E022F0230023402000000000000009A
:100B90000000000000000000000000010001000152
:100BA0000000002700260025002400230000002D5F
:100BB000024F0052005100500000003102000000BE
:100BC0000000000000000000000000010001000122
:100BD0000000003A003B003C003D003E0000003FAA
:100BE0000040004100420043000000440045000076
:100BF00000000000000000000000000100010001F2
:100C000000000000006500D200D100460000000096
:100C100000D000CD00CE00CF0000000000DC00D9E5
:100C200000DA00DB0000000000000001000100010C
:100C300000000101010101010101010202020202A1
:100C40000202020203030303030303030404040474
:100C5000040404050505050506060606060707073C
:100C6000070708080808090909090A0A0A0B0B0BF3
:100C70000C0C0C0D0D0D0E0E0E0F0F0F1010111190
:100C80001112121313141415151616171718181914
:100C9000191A1A1B1B1C1D1D1E1E1F20202122227B
:100CA000232424252626272829292A2B2C2D2D2EBE
:100CB0002F30313232333435363738393A3B3C3DD8
:100CC0003E3F404142434445464748494A4C4D4EC9
:100CD0004F50515354555658595A5B5D5E5F61628F
:100CE00064656668696B6C6D6F7072737577787A1E
:100CF0007B7D7E8082838587888A8C8E8F91939579
:100D000096989A9C9EA0A2A3A5A7A9ABADAFB1B39C
:100D1000B5B7BABCBEC0C2C4C6C9CBCDCFD1D4D67C
:100D2000D8DBDDDFE2E4E7E9EBEEF0F3F5F8FAFD1E
:100D3000FFFFAA7F554011241FBECFEFDAE0DEBFD0
:100D4000CDBF11E0A0E0B1E0ECE4F6E602C0059012
:100D50000D92A03DB107D9F725E0A0EDB1E001C0AB
:100D60001D92A83FB207E1F70E94BA060C94243303
:100D70000C940000ABE2B0E0E0ECF6E00C94A4319F
:100D800085B7806885BF85B7806885BF84B7877F52
:100D900084BF0FB6F894A895809160008861809315
:100DA0006000109260000FBE90E080E80FB6F894EB
:100DB00080936100909361000FBE89E59AE1909362
:100DC000D1018093D0010E94D5180E94F41880911F
:100DD000E20084608093E200789480913602882358
:100DE000A1F01091E9001F709091EC00892F8170A3
:100DF00090FD80E8182B1092E9008091E80083FDB7
:100E00000E94C6151F701093E90082E084BD93E034
:100E100095BD9AEF97BD80936E001092D20110920B
:100E2000D3011092D4011092D5010E944024811167
:100E300002C00E9449258091D80080618093D8002B
:100E40002AE12A95F1F700C08091D900182F11707E
:100E500080FD04C00E94D5181092360210936B05D5
:100E600010936C0510930001112341F010924C0176
:100E70008BE180934D010E942A3005C08BE1809365
:100E80004C0180934D0180910001809100018823E5
:100E900011F090E001C094E09093DF0184E0891BA1
:100EA0008093DE0101E511E0D8018D918D018F3F26
:100EB00011F00E94C01CB1E005351B07A9F705E53C
:100EC00011E06BE5E62E61E0F62EF80181918F01CD
:100ED0008F3F11F00E94C01CE016F106B1F788E0C8
:100EE000EFE1F2E0DF01282F1D922A95E9F7E6ED08
:100EF000F1E0DF011D928A95E9F780E090E00E9421
:100F0000F231853E9E4F21F40E944024811163C03E
:100F100065EE7EEF80E090E00E94263260E082E0A5
:100F200090E00E94083281E08093E00161E083E07C
:100F300090E00E94083260E074E184E090E00E945A
:100F4000263260E086E090E00E94083260E087E0B0
:100F500090E00E94083240E050E0BA0188E090E062
:100F60000E941A3260E083E290E00E94083260E062
:100F70008CE090E00E94083260E08DE090E00E94FA
:100F8000083219821A821B821C821D821E821F82D5
:100F9000188648E050E067E170E0CE0101960E94BB
:100FA000F83140E050E0BA018FE190E00E941A323F
:100FB00080E00E9421240E94492540E050E0BA01CF
:100FC0008FE090E00E941A3240E050E0BA0183E1E5
:100FD00090E00E941A3282E090E00E94E431809317
:100FE000E20184E090E00E94F231909374058093D6
:100FF00073050E94A71EEFEFF6E721E0E150F040F5
:101000002040E1F700C000000E94A71E80916C05FF
:10101000882311F0E0E001C0E4E0F0E0E15EFD4F84
:10102000808181FF08C06FEF7FEF80E090E00E9439
:1010300026320E94D52283E090E00E94E4310E9493
:10104000F92980916B05811102C082E001C080E026
:1010500080931A0280E8809340020E94BA2E6BE0CF
:1010600070E081E991E00E94B725882309F443C02C
:1010700080911A0265E070E081FD3AC08CE891E051
:101080000E94B7258823B9F16DE070E08AE791E00E
:101090000E94B725882379F10E941B23DC01CB0134
:1010A000805A9541AF4FBF4F80936205909363057F
:1010B000A0936405B0936505E3E4F2E080E092E07C
:1010C000DF019C011D9221503040E1F7F0934A046A
:1010D000E09349048FEF9FEF909342028093410287
:1010E00081E0809367058093660510921B0203C020
:1010F00087E891E0C5CF8091E101811185C088E04A
:1011000090E00E94EC314B015C0183E290E00E9490
:10111000E431282F30E040E050E060E070E080E013
:1011200090E000E20E94CA32282939294A295B2925
:1011300020935A0530935B0540935C0550935D0501
:1011400060935E0570935F058093600590936105E1
:101150003091B50433603093B5042C7F09F042C060
:1011600025E020935A0510925B053FEF30935C0514
:1011700038E730935D0510925E0530E04FEF58E799
:1011800060E00E94A32A88E090E00E94EC316B01AD
:101190007C0183E290E00E94E431282F30E040E0BF
:1011A00050E060E070E080E090E00E94CA32B22F30
:1011B000A32FF42FE52F5B0197018601BC29A12BFA
:1011C000F22BE32BB0935A05A0935B05F0935C05DB
:1011D000E0935D0560935E05B0925F0580936005C6
:1011E000909361050E94882A0E9420260E9469200F
:1011F00080915A0580FF05C060E0869586950E9423
:10120000922C81E08093E10180916B05811102C0F5
:101210000E942D3081E091E09093700580936F05DE
:101220005AE0452E512C612C712CBE016F5F7F4F0F
:101230007B0180913602853009F040C010E402E164
:1012400080913602853009F035C0809136028430B5
:1012500029F10E94C4251092750588E190E00FB62F
:10126000F894A895809360000FBE1093600083B738
:10127000817F846083BF83B7816083BF78948895C2
:1012800083B78E7F83BF0FB6F894A89580916000D6
:10129000886180936000109260000FBE0E94A71EBC
:1012A000EFE1F2E081918111B1C492E0E732F907F8
:1012B000C9F7C6CF0E94FC290E940B240E94A71EDA
:1012C00003EE11E04FE1C42E42E0D42E2BEE31E0CC
:1012D000D601F80191918D9189272E173F0719F0BA
:1012E0008823C1F306C0811104C00E94831E1FA27F
:1012F00038C080906B05B12CF60121906F01D801A8
:101300003C90322421F1A12C99249394832D89219E
:10131000B9F08820A9F0A9A2BAA20E9427239CA311
:101320008BA3B1E0BDA391E0822D892109F490E067
:101330009EA349A15AA16BA17CA18DA10E942C2D35
:10134000A394990CE6E0AE12E1CFD8012C92B394AD
:101350000F5F1F4FB8E0BB12CFCF0E94D71CE1E058
:10136000EFA38091B404882309F4AAC08091B30448
:10137000E0915A05E695E695E81BE093AF048230CC
:1013800059F4F0E0E855FE4FE4910E2F10E033E8F9
:10139000C32E32E2D32E45C0863059F4F0E0EB552F
:1013A000FE4FE4910E2F10E023E7C22E22E2D22E50
:1013B00038C0893061F4E695F0E0EE55FE4FE491D7
:1013C0000E2F10E096E3C92E92E2D92E2AC08F305C
:1013D00061F4E695F0E0E156FE4FE4910E2F10E047
:1013E00087EAC82E81E2D82E1CC0853159F4F0E07E
:1013F000E456FE4FE4910E2F10E0BEE1CB2EB1E299
:10140000DB2E0FC0883139F000ED17E0ABE6CA2EB5
:10141000A0E2DA2E06C008E210E0F6E9CF2EF0E2F4
:10142000DF2E8091B004882361F01092B0040E94F6
:10143000781E9093AE048093AD041092B204109283
:10144000B1040E94781EE091AD04F091AE049C01BD
:101450002E1B3F0B2F3F3F4798F52091ED01222394
:10146000B1F01092ED012091EB013091EC01821B63
:10147000930B8F3F9F4758F4205D3A483093EC011F
:101480002093EB018091B50488608093B504A0900F
:10149000B104B090B2040E0F1F1F1093AE0400935E
:1014A000AD048DEA94E0F60109958091B104909124
:1014B000B204892B29F4AB2819F0F1E0F093ED0187
:1014C00080916705882309F4C0C180911C02909126
:1014D0001D020E940C23C29708F4ADC00E9427236E
:1014E00090931D0280931C0283E492E090934A043F
:1014F0008093490480916B05882309F498C08DEC92
:1015000091E00E949B158091EE010E94F32C8130A6
:1015100059F038F0823059F0833061F482EB91E079
:101520000BC085EC91E008C08FEB91E005C089EB22
:1015300091E002C08CEA91E00E94A9158091F90126
:10154000805D0E941C158BED91E00E949B1580919F
:10155000F801805D0E941C1587ED91E00E949B15AB
:101560008091F6019091F70120910B0130910C01CF
:101570008217930739F42091F501203219F48FEE88
:1015800091E037C090930C0180930B0120E22093EF
:10159000F5014C01A12CB12C1092F401E4EFCE2EF8
:1015A000E1E0DE2E00E010E0C501B401A3019201EC
:1015B0000E946A32605D603319F40115110539F03B
:1015C00081149104A104B10419F460E201C060E344
:1015D000D6016E936D01C501B401A30192010E9471
:1015E0006A3249015A010F5F1F4F05301105E1F6BC
:1015F000C6CF6C010196F60120812032D1F3019013
:101600000020E9F78F0101501109C016D10630F40E
:10161000D6018D916D010E941C15F7CF85ED91E0EB
:101620000E949B1580910D010E941C1504C08DED38
:1016300091E00E949B158091410290914202892B7A
:1016400031F480916605882309F4FFC0E7C08091DA
:1016500067058823B1F380911B028111F2CF0E94AC
:10166000DE2520914102309142022115310549F3D6
:1016700080E0082F10E0CC24C394D12C082E02C0A7
:10168000CC0CDD1C0A94E2F7A60142235323452B20
:1016900011F48F5FEECF90911A02980165E0220F4E
:1016A000331F6A95E1F790FF13C055E036952795F3
:1016B0005A95E1F7220F220F220F2093100110926A
:1016C0001301295F2093110183E08093140111C05D
:1016D000220F232F221F330B31958295880F80769E
:1016E0008093100120931301815E80931101209358
:1016F000140124E630E047E050E06EE071E088E756
:101700000E94EF2E892B09F09CCF80911A0280FF56
:1017100065C080E2EAEFF1E0DF011D928A95E9F70A
:10172000480125E0880C991C2A95E1F7EFE5F1E0E6
:10173000FBA7EAA74BE551E0AAA5BBA58D91BBA7E6
:10174000AAA7FA019191AF019401290F311DB901A6
:101750006D5B7D4F79A768A790E086509E4FFC0196
:1017600077E09F01281B390B01E001C0000F2A958B
:10177000EAF728A439A410E0D1016D911D0160237E
:10178000272F211B2770B22E022E000C330BB62FF1
:1017900001C0BB0FBA94EAF7BB2E319521953109F0
:1017A0002770332701C066952A95EAF7B62A60812B
:1017B000B62AB0821F5F1830F9F6715031967F3F1C
:1017C00081F6EAA5FBA5E356F14009F0B5CF04E6A2
:1017D00010E020E230E04AEF51E00CC0A80195E0B3
:1017E000440F551F9A95E1F74D5B5D4F04E610E0FD
:1017F00020E230E060E488E70E94862F892B09F020
:1018000020CFC094D0948091410290914202C8228E
:10181000D922D0924202C092410213CF0E941B23D0
:101820000091620510916305209164053091650572
:10183000DC01CB01801B910BA20BB30B8F3F9F4FA1
:10184000AF4FBF4710F40E94C4254FA141110E9421
:10185000DE250E940B2490911E02891721F08093AF
:101860001E020E941B2380913602843009F0E1CCD5
:1018700083E08093E9008091E80082FFDACC8091D8
:10188000E80085FF23C00E94261A81111DC080E256
:10189000C82ED12C8E010F5F1F4F09C08091F1001F
:1018A000D8018D938D01B1E0CB1AD10869F08091F8
:1018B000E80085FDF3CF8091E8008B778093E80006
:1018C0000E94261A882399F391E001C090E080914C
:1018D000E8008B778093E800992309F4AACC29814A
:1018E000822F90E0FC013197E331F10508F085C1CA
:1018F000EA5AFF4F0C948C321A828CE0F0C08A8135
:10190000823009F49FC150F4813009F076C10E9401
:101910001B239B838C837D836E8371C1833041F055
:10192000843009F06AC11B821C821D821E8267C13D
:101930004B81DE01149680E090E0242F30E0B90165
:10194000680F791F6830710508F059C1E42FE80F5E
:10195000F0E0E15EFD4F50815D9301968C31910581
:1019600071F74DC18A81823019F0853051F045C13F
:101970006B817C818D819E810E9492320E941C2409
:101980003EC180915A0580FF03C00E94832C37C15D
:10199000816080935A0560E08695869551C04C81A0
:1019A0006B818A810E9459259D8353C12D813E817F
:1019B0003227232732274C816B818A810E94ED24B4
:1019C0001EC10E9414251BC18A81823009F015C1F5
:1019D000283009F43FC0293009F468C08B81823077
:1019E000F9F098F4813009F00AC18C81E8E78E9F04
:1019F000C00111246FEF70E00E949031462F20E06B
:101A000060915C0580915B0522C08330E1F08430F9
:101A100009F0F5C020E040915D056D818C8117C013
:101A20008C81882309F4B1CF80915A05816080931D
:101A30005A0560E0869586950E94922C60E08C8124
:101A40000E94922CDCC08C8180935E05D8C00E94DD
:101A5000A42BD5C08B818230E1F078F4813009F07D
:101A6000CEC080915D05FFEF8F9FC001112468E714
:101A700070E00E9490316C83C2C0833099F0843052
:101A800009F0BDC080915B058C8380915C058D83DE
:101A9000B6C080915A0580FF03C08695869504C024
:101AA00080E002C080915E058C83A9C020915A0518
:101AB00030915B0540915C0550915D0560915E053C
:101AC00070915F0580916005909161050E94A32A45
:101AD00096C020E12A8393C082E08A8388E58B83C5
:101AE0008EC00A811B81102701271027AC80B12CE2
:101AF0006701C80188559E4F96012E193F092A1586
:101B00003B0508F07CC0083532E0130730F40E9432
:101B1000E431D60114968C9302C0F60114820F5F53
:101B20001F4FFFEFCF1ADF0AE4CF0A811B81102776
:101B300001271027AC80B12C6701C80188559E4F42
:101B400096012E193F092A153B0508F058C00835A3
:101B500022E0120728F4D60114966C910E940832F4
:101B60000F5F1F4FBFEFCB1ADB0AE7CF0E94DD24C8
:101B700046C084E08A8343C00A811B811027012765
:101B80001027AC80B12C6701C801889696012E19E8
:101B90003F092A153B0598F50038E1E01E0730F4AF
:101BA0000E94E431D60114968C9302C0F60114828F
:101BB0000F5F1F4FFFEFCF1ADF0AE6CF0A811B81AD
:101BC000102701271027AC80B12C6701C801889627
:101BD00096012E193F092A153B0588F4003821E0AB
:101BE000120728F4D60114966C910E9408320F5FF8
:101BF0001F4FBFEFCB1ADB0AE9CF8FEF898340E29B
:101C000050E0B70182E00E94972213CB8091350209
:101C1000882309F415CBA0E1A9BD09BD09B400FED4
:101C2000FDCF8091D8008F7D8093D8008091E00017
:101C300082608093E0008091E00081FDFCCF0E94F3
:101C4000FC29FECA87E290E00E94E4311B821C82DC
:101C50001D828E83D4CFA8E0B0E0E1E3FEE00C94D7
:101C6000A431FC018481882309F40DC67F0121E0A1
:101C7000408151816281738195810E94072D8C0181
:101C8000F7018581882309F470C1C801975780380E
:101C9000910508F032C1003108F077C18FEF93E071
:101CA0000E94E431811171C138EAA32EBB24B394A0
:101CB000002379F0A114F4E0BF0609F466C1C50160
:101CC0000E94E431811101C001502FEFA21AB20A23
:101CD000EFCFCE0101962C0188E0F20111928A9596
:101CE000E9F72AE0322E85010F5F1F4FC5010E94E0
:101CF000E43189831A82882309F447C1813009F0CD
:101D000041C06501F2E0CF0ED11CC8010E94E43150
:101D10008A83882309F439C19FEF980F933060F4C8
:101D200023E0A20EB11CC6010E94E4318B838823FC
:101D300009F42BC11C8229C0843031F54E0133E0F7
:101D4000830E911C02E010E056018FEFA81AB80A2A
:101D5000C6010E94E431F40181934F01882309F404
:101D600014C18C3741F4E2E0F0E0EC0FFD1FE00F0E
:101D7000F11F10820AC00F5F1F4F65010730110568
:101D800019F703C1580101C056018201F8012081F1
:101D9000222309F4A8CF213009F053C0818181307A
:101DA00081F46801F2E0CF0ED11CF8018281893301
:101DB00019F460E570E002C060E070E00E942F2A34
:101DC00015C0823049F46801F2E0CF0ED11CF80151
:101DD00082810E94FC2D0AC0833051F46801F2E038
:101DE000CF0ED11CF80182810E94D22D860182C0C3
:101DF000843019F00F5F1F4F7DC0F80122810E5F04
:101E00001F4F80E090E030E0205331092A30310547
:101E100068F4389EA001399E500D1124C901840F29
:101E2000951F0F5F1F4FF8012081EDCF009709F438
:101E300061C0EFE9FFE03197F1F700C000000197C2
:101E4000F5CFE22FF0E0E35BFD4F2490822F8695E3
:101E50008695869590E0FC01E35CFD4F64902770C9
:101E6000712C022E02C0759467940A94E2F7F1E097
:101E70006F227724FC01E35DFD4F8490912C022EAC
:101E800002C0959487940A94E2F731E08322992462
:101E9000FC01E35EFD4FC490D12C02C0D594C794E1
:101EA0002A95E2F781E0C822DD246114710419F05B
:101EB00081EE0E94FC2D8114910419F086EE0E949F
:101EC000FC2D60E070E0822D0E942F2A8114910485
:101ED00019F086EE0E94D22D6114710419F081EE82
:101EE0000E94D22DC114D10429F060E070E08CE290
:101EF0000E942F2A0F5F1F4F49CFF70181818093E6
:101F0000F90180818093F80180E280930D011093A4
:101F1000F7010093F601C80190528115904228F410
:101F2000F7018681807F79F442C0C8019054811501
:101F3000904120F4F7018681807F29F4C8019A95A9
:101F400081159F4118F4F801FF2706C0C801805A87
:101F50009245809760F1F801ED33F10540F5E353C8
:101F6000FD4FE491E0930D0122C0F801E851FC47D8
:101F7000E730F10508F03FC103C106E221EE41EE72
:101F80006AE17CE7C7010E9459248091CD058770E2
:101F900009F479C4F7018581882309F474C4809118
:101FA000740582FF70C482E00E94BF296CC4F801EE
:101FB000E851FC47E730F10508F4E2C010926A05E9
:101FC000C8019057839708F003C184E090E00E9415
:101FD000F2319093740580937305F801E150F04756
:101FE000E232F10520F4E759FF4F0C948C328091D6
:101FF00073058160ACC0809174058860B4C0809125
:1020000073058260A4C08091730520C08091730520
:1020100088609DC0809174051EC0809174058260A7
:10202000A2C080917305806192C080917305806227
:102030008EC08091730580648AC00E94FC298091C3
:102040007305806884C080917305886084607FC058
:10205000809174058260816086C0809173058E7F57
:1020600076C080917405877F7EC0809173058D7FD7
:102070006EC08091730520C080917305877F67C013
:10208000809174051EC0809174058D7F6CC0809115
:1020900073058F7E5CC0809173058F7D58C08091E1
:1020A00073058F7B54C00E94FC29809173058F7744
:1020B0004EC080917305877F8B7F49C080917405E6
:1020C0008D7F8E7F50C08091730582FB222720F97F
:1020D00091E0922790FB82F990FB83F938C08091C0
:1020E0007405982F909591708E7F892B90FB81F9C4
:1020F0003AC08091730586FB222720F991E0922750
:1021000090FB86F924C00E94FC298091730587FB0F
:10211000222720F991E0922790FB87F918C061E00F
:1021200001C060E08EE090E00E9408321EC0809105
:10213000730584FB222720F991E0922790FB84F914
:1021400006C080917305982F909590FB80F980933D
:1021500073050BC08091740583FB222720F991E061
:10216000922790FB83F980937405609173057091B9
:10217000740584E090E00E9426320E94FC2905CF7D
:10218000E557FF4F0C948C3207E225EE45EE6BE1EC
:102190007CE7F8CE06E221EE40EE68E17CE7F2CE85
:1021A00007E225EE44EE69E17CE7ECCE06E221EEA3
:1021B00042EE6CE17CE7E6CE07E225EE46EE6DE10D
:1021C0007CE7E0CE08E221E045EE6EE17CE7DACE86
:1021D0000631FCE71F0709F0B3C080914B048A7AEF
:1021E00091E009F490E090932702811112C089E2F6
:1021F0000E948A230BC006312CE7120761F48091FC
:102200002702811106C389E20E945C230E9489266D
:10221000BCCE85E3EDCF80914B048272F801E05291
:10222000F847E531F10508F07DC0EE56FF4F0C94FC
:102230008C3280915A0580FF1EC0282F2E7F20935C
:102240005A0530915B0540915C0550915D056091A8
:102250005E0570915F0580916005909161050E9417
:10226000A32A0E9420268091B50481608093B50442
:102270000E94472A8ACE816080935A0561E0869544
:10228000869548C04CED5CE267EE7CE22CC047EEE0
:102290005CE26CED7CE227C04FE65CE269E77CE241
:1022A00022C049E75CE26FE67CE21DC045E55CE2E6
:1022B00062E67CE218C042E65CE265E57CE213C0BF
:1022C0004BE35CE268E47CE20EC048E45CE26BE372
:1022D0007CE209C049EC5AE263EE7AE204C043EEC4
:1022E0005AE269EC7AE20E9419264FCE61E081E061
:1022F00011C065E082E013C068E086E010C06EE0C7
:1023000089E00DC064E18FE00AC067E185E107C0A4
:1023100061E088E10E94922C38CE62E289E10E945D
:10232000042633CE0737FCE71F0711F481E005C010
:1023300008372CE7120719F582E00E94B22908C07D
:1023400007373CE7130709F066C281E00E94ED29D8
:1023500043E062E081E00E94902917CE03302CE731
:10236000120709F47BC208F05DC201158CE718075B
:1023700009F466C201309CE7190709F475C2F70138
:10238000858100811181882349F0C8010E943E2780
:10239000D82E682FC8010E94582904C0C8010E9485
:1023A0002429D82EB8018D2D0E94461D0E94541D4F
:1023B000D82E192FA82EF7010581C680C2949FE060
:1023C000C9228091CD05877001F10023F1F0812FA2
:1023D000807F803469F080E28D0D8830B0F0812FED
:1023E000807E803229F4F1E0FD1578F4CC2069F08C
:1023F0008091740582FF09C082E00E94BF2980910C
:10240000CD058770BB24B3948111B12C912E929489
:102410008FE09822892D90E08C30910508F0D1C191
:10242000FC01E955FF4F0C948C32812F807F1F7087
:10243000882311F01295107F0023B9F0112309F4BD
:10244000AEC180E28D0D883010F0A11006C09091D1
:102450004B04192B10934B0405C09091CF05192BF9
:102460001093CF050E9489269AC18D2D0E94D22DEE
:10247000112309F4A6C180E28D0D883088F1AA20CD
:1024800079F110959091CF0519231093CF052BC0AA
:10249000812F807F1F70803211F01295107F8D2D5B
:1024A000AA2029F021E0A21609F44CC057C080915F
:1024B000740582FD1BC0002369F0112339F090914F
:1024C0004B04192B10934B040E94892680E00E9434
:1024D000FC2D77C180E00E94D22D112309F471C137
:1024E000812F0E94711E0E9489266BC1002381F0FA
:1024F000CC20C1F131E0C31264C19091CE05812F8F
:102500008923181709F45DC1192B1093CE0559C101
:10251000C11057C1812F0E941E2A8091CE05912F94
:10252000982329F0912F909589238093CE052091AF
:102530002802812F822309F444C11095212320937E
:1025400028023FC1002329F085E08C1508F439C129
:1025500009C094E09C1508F434C115C0002331F083
:10256000C1101DC1812F0E94252A2BC1CC2059F0FA
:10257000893309F023C1EFEFF7EE23E0E150F0409B
:102580002040E1F719C1812F0E941E2A1AC1812F14
:1025900086958695837019F0813061F012C1002311
:1025A00021F08D2D912F937002C080E090E00E9469
:1025B000E6230DC1002321F08D2D912F937002C0D1
:1025C00080E090E00E94C12302C1812F8370A9F5B1
:1025D0000111FBC04D2D429546954770440F440FA5
:1025E0008D2D8F7090E09C01042E01C0220F0A9463
:1025F000EAF7D4FE08C08FE090E001C0880F4A954A
:10260000EAF7809501C080E0169516951370123098
:1026100069F088F49091E001113019F0822B892340
:1026200002C0922B892B0E94F929CFC0822B909156
:10263000E0018927F8CF822BF6CF002319F0812FF4
:10264000817001C08695882309F4BFC04D2D429545
:1026500046954770440F440F8D2D8F7090E09C017C
:10266000042E01C0220F0A94EAF7D4FE08C08FE0BE
:1026700090E001C0880F4A95EAF7809501C080E09C
:10268000169516951370123059F078F49091EE016A
:10269000113019F0822B892309C0922B892B06C097
:1026A000822B9091EE01892701C0822B0E948D29F7
:1026B0008CC01F70002339F0812F0E94ED298D2DD1
:1026C0000E94252A82C08D2D0E941E2A812F0E94E1
:1026D000B2297BC08D2D32EFA31681F13A1538F067
:1026E00090EFA91659F0E1EFAE1619F154C0F3EFCF
:1026F000AF1659F124EFA216C1F04DC0002381F0AE
:1027000034E03C1508F45DC01F7181E090E0012EBB
:1027100001C0880F0A94EAF79091EE01892720C042
:1027200085E08C1508F44DC0EFCF8091740582FDD3
:102730001AC0002329F0812F8F7120C00023D9F304
:10274000812F8F710E94B2293CC0002341F01F717C
:1027500081E0012E01C0880F0A94EAF701C080E0F1
:102760000E948D292EC0002361F0812F8F7198E087
:10277000899F9001112423602093CD050E94ED29AB
:1027800020C081E00E94BF29E1E0EC15D0F482E096
:102790000E94BF2916C0002321F0CC2061F28D2DAC
:1027A00096CECC2069F2893349F4FFEF27EE33E06F
:1027B000F15020403040E1F700C000008D2D0E9414
:1027C000D22D88EF890D843010F40E940B24BB2099
:1027D000A9F08091CD0580FD11C0F7011582869585
:1027E000869586950E94ED29C7010E942B0E809147
:1027F000CD058695869586950E94B22920E0F70141
:102800004081518162817381848195810E94072D6D
:102810003AC085E3F9CC08378CE7180709F09ECD5C
:1028200082E094CD0B35ECE71E0749F10C35FCE74F
:102830001F07E9F00A351C4709F0A1CD81E020C04F
:102840000E94FC293FEF84E39CE03150804090409F
:10285000E1F700C000000E94D52297CB6FEF7FEF19
:1028600080E090E00E9426320E94BC2D8ECB8091A9
:10287000740582FB882780F991E0892701C080E0F8
:102880000E94D6297CCD2896E2E10C94C03180913B
:10289000380287FF11C08091E80082FD05C0809159
:1028A00036028111F8CF11C08091E8008B770BC000
:1028B00080913602882349F08091E80080FFF8CFAC
:1028C0008091E8008E778093E8000895982F9730E4
:1028D00068F59093E900981739F07091EC00209119
:1028E000ED005091F00003C0242F762F50E021FD21
:1028F00002C09F5FECCF3091EB003E7F3093EB0046
:102900003091ED003D7F3093ED003091EB00316070
:102910003093EB007093EC002093ED005093F000A7
:102920002091EE0027FDE5CF80E008958F70809321
:10293000E90081E0089520913E0230913F02261780
:10294000370748F06115710539F42091E8002E77BA
:102950002093E80001C0B901FC0120E06115710578
:1029600079F1809136028823F1F18530F1F180917F
:10297000E80083FD3CC08091E80082FD2EC080917C
:10298000E80080FFEBCF2091F3008091F20090E00F
:10299000922B6115710551F08830910538F4219121
:1029A0002093F100615071090196F3CF21E008975F
:1029B00009F020E08091E8008E778093E800CECF88
:1029C0002111CFCF0AC080913602882361F0853073
:1029D00061F08091E80083FD0AC08091E80082FFE9
:1029E000F2CF80E0089582E0089583E0089581E0C9
:1029F0000895089543E050E0BC0184E00E949722CE
:102A0000089540E250E0BC0184E00E9497220895BE
:102A1000CF93DF93EC0148E050E0BC0181E00E94DD
:102A2000972288E0FE01ACE2B2E001900D928A9517
:102A3000E1F7DF91CF910895CF93DF93682F8A302C
:102A400011F481E003C08D3021F480E00E948725DD
:102A50006FC08091490490914A0426E0FC01A3E4F0
:102A6000B4E001900D922A95E1F7603E30F026E047
:102A7000FC0111922A95E9F70AC0F6E06F9FB001B8
:102A8000112463597B4F46E050E00E94DB31C09136
:102A90004904D0914A0446E050E0BE0183E494E04A
:102AA0000E940E33892B49F19E0123543240A90123
:102AB00085E0569547958A95E1F781E090E0BC0165
:102AC00002C0660F771F4A95E2F74091410250918C
:102AD0004202462B572B2B5F3F4F65E036952795DB
:102AE0006A95E1F702C0880F991F2A95E2F7842BB7
:102AF000952B90934202809341029E012D533240C8
:102B000040914002642F70E0C9010E949031481B3F
:102B1000463010F4240F311D211582E0380710F0E3
:102B200020E030E02D5B3D4F30934A042093490470
:102B3000DF91CF910895CF93DF93EC01FE01849153
:102B4000882321F00E941C152196F8CFDF91CF91A8
:102B500008950E949B1581E00E9487250895FC013D
:102B6000AC014C5F5F4F8FEF91E32191822728E00A
:102B700030E087FF03C0880F892701C0880F2150EC
:102B80003109B9F7E417F50781F70895AAE2B0E033
:102B9000ECECF5E10C94B331E8E3F2E080E492E090
:102BA0002091F10021938E179F07D1F78091390270
:102BB000833009F463C030F4813071F0823009F45D
:102BC0009DC0B4C08A3009F489C08B3009F46EC04E
:102BD000893009F0ABC020C080913802813A09F0F9
:102BE000A5C08091E800877F8093E80080913C0237
:102BF00090913D02892B21F468E08CE292E003C0C1
:102C000060E080E090E070E00E949B148091E8001A
:102C10008B778093E8008AC080913802813209F076
:102C200085C080913C0290913D02009719F0029777
:102C300009F07CC08091E800877F8093E800809154
:102C4000E80082FD05C0809136028111F8CF6EC088
:102C50002091F3008091F20090E0922B029731F4E2
:102C60008091F100813011F0863021F48091F100E3
:102C700080932B028091E8008B7754C080913802BA
:102C8000813A09F053C080913C0290913D02892B1A
:102C900009F04CC08091E800877F8093E800809124
:102CA000E80080FFFCCF8091150137C08091380289
:102CB0008132E1F580913C0290913D02892BB1F582
:102CC0008091E800877F8093E8000E9447148091FC
:102CD0003A02809315010E94FC2928C08091380295
:102CE000813221F58091E800877F8093E8000E947F
:102CF000471480913B0280932A0218C080913802C9
:102D0000813AA1F48091E800877F8093E800809168
:102D1000E80080FFFCCF80912A028093F10080912F
:102D2000E8008E778093E8000E9447148091E800C5
:102D300083FFDFC18091380290913902492F50E022
:102D40004A30510508F0D5C1FA01ED54FF4F0C94FB
:102D50008C32803821F0823809F0CBC108C08091D4
:102D6000340290913502992389F082600FC08091DE
:102D70003C028F70873008F0BCC18093E9008091DD
:102D8000EB0085FB882780F91092E9009091E8001C
:102D9000977F9093E8008093F1001092F10070C14A
:102DA000282F2D7F09F0A5C1882319F0823061F00A
:102DB000A0C180913A02813009F09BC1933009F0A3
:102DC00080E0809335022EC080913A0281112AC0A2
:102DD00080913C028F702FEF280F263008F089C1B8
:102DE0008093E9002091EB0020FF1CC0933021F478
:102DF0008091EB00806214C09091EB009061909301
:102E0000EB0021E030E0A90102C0440F551F8A9574
:102E1000E2F74093EA001092EA008091EB008860AC
:102E20008093EB001092E9008091E800877F809307
:102E3000E8000E9447145DC181115BC110913A0204
:102E40001F778091E3008078812B8093E30080914D
:102E5000E800877F8093E8000E9447148091E80093
:102E600080FFFCCF8091E30080688093E300111124
:102E700002C082E001C083E0809336023AC18058EC
:102E8000823008F036C120913A0230913B022C3D4D
:102E900053E0350779F583E08A838AE289834FB767
:102EA000F894DE01139620E03EE051E2E32FF0E0DB
:102EB00050935700E49120FF03C0E295EF703F5F0D
:102EC000EF708E2F90E0EA3010F0C79601C0C096E8
:102ED0008D939D932F5F243149F74FBF8091E80078
:102EE000877F8093E8006AE270E0CE0101960E943D
:102EF0009B14B4C080913C0290913D02432F552712
:102F000043305105A9F068F44130510509F400C17E
:102F10004230510509F0EDC08BE590E0ECEDF3E0B7
:102F20004BC04132510529F14232510589F1E1C0CE
:102F3000C901992781309105A1F058F0029709F055
:102F4000D8C0E9E4F4E0E4918E2F90E0E9E4F4E005
:102F500030C0E9E6F4E0E4918E2F90E0E9E6F4E099
:102F600028C0E7E5F4E0E4918E2F90E0E7E5F4E097
:102F700020C08330910508F0BCC0880F991FFC0168
:102F8000E459FE4F0190F081E02D89E090E014C0FB
:102F90008330910508F0ADC0FC01EE0FFF1FEA5928
:102FA000FE4F0190F081E02DDC01AD59BE4F8C91B8
:102FB00090E0009709F49DC02091E800277F2093BE
:102FC000E80020913E0230913F022817390708F4AB
:102FD000C90140E0009789F120913602222309F4CB
:102FE0003DC02530D9F12091E80023FD37C0209164
:102FF000E80022FD2FC02091E80020FFEBCF409198
:10300000F3002091F20030E0342B009759F0283083
:10301000310540F444914093F100319601972F5FC0
:103020003F4FF3CF41E02830310509F040E02091D7
:10303000E8002E772093E800CDCF4111CDCF0AC014
:1030400080913602882351F0853041F08091E8006C
:1030500083FD04C08091E80082FFF2CF8091E800F8
:103060008B778093E80045C0803809F042C080919A
:10307000E800877F8093E800809137028093F10019
:103080008091E8008E77D3CE811133C080913A02CF
:1030900090913B029927029764F58091E800877F21
:1030A0008093E80010913A02109337020E9447146F
:1030B000111106C08091E30087FD02C081E001C0CC
:1030C00084E08093360242E061EC81E00E94661465
:1030D00042E261EC84E00E94661442E261EC82E02C
:1030E0000E94661442E260EC83E00E9466148091C4
:1030F00036028091E80083FF10C08091E800877F4E
:103100008093E8008091EB0080628093EB0005C023
:1031100082E190E0E7E3F4E04FCFAA96E3E00C947D
:10312000CF311F920F920FB60F9211242F933F931E
:103130004F935F936F937F938F939F93AF93BF93BF
:10314000CF93DF93EF93FF93C091E900CF7080910D
:10315000EC00D82FD17080FDD0E81092E90080916A
:10316000F000877F8093F00078940E94C61510923B
:10317000E9008091F00088608093F000CD2BCF7043
:10318000C093E900FF91EF91DF91CF91BF91AF9193
:103190009F918F917F916F915F914F913F912F916F
:1031A0000F900FBE0F901F901895E8EDF0E0808112
:1031B0008E7F80831092E2001092DA001092E1007C
:1031C000A0EEB0E08C9181608C9380818F778083BA
:1031D00019BCA7EDB0E08C918E7F8C9380818F7E9F
:1031E0008083109229020895A0E0B0E0EAEFF8E1B0
:1031F0000C94AE31C8EDD0E088818F7E8883E7EDF6
:10320000F0E080818160808384E082BF81E08093F0
:10321000290288818E7F888302EE10E0F8011082F7
:103220001092DA0081EEC82ED12CF601108288812E
:103230008F77888388818068888388818F7D888361
:1032400019BC109236021092370210923502109279
:10325000340290EEE92EF12CF70180818B7F808380
:1032600088818160888342E060E080E00E9466148B
:10327000F60180818E7F8083F80180818160808368
:10328000808188608083F70180818E7F8083888140
:1032900080618883CDB7DEB7E8E00C94CA311F9215
:1032A0000F920FB60F9211242F933F934F935F937A
:1032B0006F937F938F939F93AF93BF93EF93FF93FE
:1032C0008091E10082FF09C08091E20082FF05C089
:1032D0008091E1008B7F8093E1008091DA0080FF94
:1032E0002AC08091D80080FF26C08091DA008E7FAE
:1032F0008093DA008091D90080FF18C080E189BDF9
:1033000082E189BD09B400FEFDCF81E080933602E1
:103310008091290281110FC00E94D5180E94F418D3
:103320008091E20084608093E20005C019BC109295
:103330003602109229028091E10080FF17C080912F
:10334000E20080FF13C08091E2008E7F8093E20054
:103350008091E20080618093E2008091D8008062D9
:103360008093D80019BC85E0809336028091E100FB
:1033700084FF30C08091E20084FF2CC080E189BDD1
:1033800082E189BD09B400FEFDCF8091D8008F7D18
:103390008093D8008091E1008F7E8093E10080913E
:1033A000E2008F7E8093E2008091E2008160809352
:1033B000E20080913702882311F084E007C08091F9
:1033C000E30087FD02C081E001C083E08093360204
:1033D000809136028091E10083FF27C08091E20056
:1033E00083FF23C08091E100877F8093E10082E02A
:1033F00080933602109237028091E1008E7F809395
:10340000E1008091E2008E7F8093E2008091E200F3
:1034100080618093E20042E060E080E00E946614F8
:103420008091F00088608093F000FF91EF91BF9150
:10343000AF919F918F917F916F915F914F913F914C
:103440002F910F900FBE0F901F9018952091E400C0
:103450003091E50095E64091EC00842F817040FFAB
:1034600023C08091E80080FD1DC080913602882332
:1034700099F0853099F08091EB0085FD11C0409165
:10348000E4005091E5002417350729F3915011F01D
:103490009A01E1CF84E0089582E0089583E00895E1
:1034A00081E0089580E008954091E80042FFDDCF7B
:1034B000089580E008959091730592FF10C041E057
:1034C000282F2471243009F040E031E0282F2871A2
:1034D000283009F030E0431711F02CE0822793FFE9
:1034E00010C041E0282F2471243109F040E031E080
:1034F000282F2871283109F030E0431711F02CE013
:1035000082273091740530FF10C051E0282F2171BF
:10351000213009F050E041E0282F2871283009F0CF
:1035200040E0541711F029E0822731FF10C041E03C
:10353000282F2171213109F040E031E0282F287136
:10354000283109F030E0431711F029E0822794FD7B
:10355000877E08958238910569F1B0F48133910531
:1035600009F475C048F48932910509F467C08A32BC
:10357000910509F471C008958533910509F459C086
:1035800089339105B9F00895833E910589F138F4A6
:10359000803E9105D1F0823E910529F10895863E45
:1035A0009105C9F1873E9105D9F1843E910509F055
:1035B0006CC027C02091730520FD57C021FD55C068
:1035C0002091740523FD5BC008958091730580FDF3
:1035D00048C08091740580FF48C08091730584FDC8
:1035E00046C083EE51C08091730582FF3CC0F5CF89
:1035F0008091730582FD37C08091740580FD35C0D0
:10360000ECCF8091740581FF36C08091730584FDF5
:103610002EC087EE39C08091730583FF2AC0F5CF95
:103620008091730583FD25C08091740581FD23C0C1
:10363000ECCF8091730585FD22C01FC0809173057A
:1036400085FD1BC08091740583FF19C00AC080915D
:10365000730586FD16C017C08091730586FD13C0E3
:1036600010C089E311C082EE0FC080EE0DC080E073
:103670000BC086EE09C084EE07C085E305C089E271
:1036800003C08AE201C081E390E00895A0E0B0E0C9
:10369000ECE4FBE10C94AC317C015B016A018091AC
:1036A00084048A3018F001E010E002C00AE010E063
:1036B000C1E0D0E0B501C701F6010995811115C03F
:1036C00021960C171D0794F0CC9F9001CD9F300DD3
:1036D000300D112480E090E045E34A95F1F70000B9
:1036E000019682179307C1F7E5CF81E0CDB7DEB72A
:1036F000EAE00C94C831A0E0B0E0E1E8FBE10C9412
:10370000AA31FB0180809180A280B3809FB7F8949A
:10371000C0907605D0907705E0907805F090790517
:103720009FBFC818D908EA08FB08F4E6CF16D104F1
:10373000E104F10410F4442341F17B01C82F880F08
:10374000DD0B01151105A9F0FE0183E0EE0FFF1F4F
:103750008A95E1F7EA5EFE4F818192818C599B4FF9
:10376000408150E00417150708F4A801B9010E9430
:103770001B33CE010E941531882341F00E941B2388
:10378000F701608371838283938381E0CDB7DEB7D5
:10379000ECE00C94C631ABE0B0E0E1EDFBE10C9461
:1037A000B23188E0EAE5F5E0DE01119601900D9274
:1037B0008A95E1F78091B3049091B404A091B50487
:1037C00089879A87AB8741E08B85811101C040E0F2
:1037D0000BE010E09E012F5F3F4F60E874E084E053
:1037E0000E947B1B81111092B5042B96E4E00C948F
:1037F000CE310F931F93CF93DF93EC0144E050E061
:1038000069E674E00E940E3341E0892B09F440E040
:1038100004E010E09E0160E674E082E00E947B1B01
:10382000DF91CF911F910F910895EF92FF921F9317
:10383000CF93DF9300D000D01F92CDB7DEB77B01CE
:1038400080E090E00E941531882309F463C0409124
:10385000190150E04115510511F041E050E060912F
:103860001A0170911B016C597B4FCE0105960E9485
:103870001B3340915C0450915D0460915E04709133
:103880005F042FB7F8948091760590917705A09109
:103890007805B09179052FBF841B950BA60BB70B4C
:1038A00084369105A105B10538F485E694E00E94BF
:1038B000AF159D81891781F181E090E00E9415315B
:1038C000182F882391F04091210150E04530510597
:1038D00010F044E050E060912201709123016C5996
:1038E0007B4FCE0101960E941B3385E694E00E9437
:1038F000AF1591E02D81281390E0192341F10E942A
:103900001B2360935C0470935D0480935E0490932A
:103910005F040FC010E001C011E080916504909138
:103920006604A0916704B091680489839A83AB838D
:10393000BC83112361F089819A81AB81BC81809322
:10394000580490935904A0935A04B0935B04809157
:10395000580490915904A0915A04B0915B04F70166
:1039600080839183A283B383812F0F900F900F9058
:103970000F900F90DF91CF911F91FF90EF900895DE
:10398000F894E82FE295EF70F0E031A1282F2F7026
:1039900081E090E001C0880F2A95EAF7982F909572
:1039A000932391A392A1892B82A3789408950F93D6
:1039B0001F9380916B05882319F00E941B230EC072
:1039C0000E941B230091D2011091D3012091D401B8
:1039D0003091D501600F711F821F931F1F910F91AE
:1039E0000895A4E0B0E0E7EFFCE10C94B43140911D
:1039F0007C0450917D0460917E0470917F042FB708
:103A0000F8948091760590917705A0917805B09112
:103A100079052FBF841B950BA60BB70B8436910538
:103A2000A105B10570F10E94D71CDC01CB01029603
:103A3000A11DB11D89839A83AB83BC8380912F0123
:103A4000909130018C599B4F40912E0150E04530B0
:103A5000510510F044E050E0BE016F5F7F4F0E94BF
:103A60001B3383E090E00E941531882359F00E94B7
:103A70001B2360937C0470937D0480937E04909359
:103A80007F0481E02496E2E00C94D031783048F451
:103A9000663038F4843028F4462F672F0E94592569
:103AA000089580E090E008951F93CF93DF930E94E4
:103AB000AA1AEC01C11580E5D807E8F5C11590E414
:103AC000D90708F0A8C0C03ED10530F5CD3CD105DE
:103AD00008F094C0C83AD10578F4C53AD10508F089
:103AE00083C0C130D10509F47CC008F4F2C0C430F1
:103AF000D10508F0F1C0EDC0C33CD10508F0E9C024
:103B0000C85AD0E0CC0FDD1FCB58DE4F0990D881CA
:103B1000C02DCE019464E1C0C11580E2D80708F041
:103B2000CBC0C11591E0D90708F06BC0C83ED105E4
:103B300008F4D2C0CEC0C03682E5D80728F5C0341C
:103B400092E5D90708F079C0C03282E5D80708F0BD
:103B50006CC0C11592E5D90708F481C04C2F469579
:103B6000469580E2489FA0011124C37021E030E017
:103B7000C90102C0880F991FCA95E2F7EA01C82B54
:103B8000D92BCE019D68A9C0C03A82E5D807B8F408
:103B90008C2F8F71C03892E5D90708F07BC08695CD
:103BA000869590E2899F90011124C37081E090E096
:103BB00002C0880F991FCA95E2F79A6868C0C03C96
:103BC00082E5D80708F46DC0C03E92E5D90708F039
:103BD00080C0CF71DD27DC2FCC27CE01806F906AAB
:103BE0007CC081E090E079C0C55AD0E0CE58DE4F6D
:103BF0008881C82FD0E0CE0190646FC0CE0190655F
:103C00006CC08D2F0E945B1A182FCE0199270E943D
:103C1000AA1A1F715CC0CE0199270E94AA1ACC274C
:103C2000DF70D06A8C2B9D2B58C0CF71D0E0DC2F79
:103C3000CC27CE01816F906A50C08C2F8F718695F2
:103C4000869590E2899F90011124C37081E090E0F5
:103C500002C0880F991FCA95E2F79C6818C08C2F84
:103C60008F710E945B1A95E0D695C7959A95E1F7FA
:103C7000CF70D0E0DC2FCC27282F30E084FF05C0A8
:103C800084E0220F331F8A95E1F7D069CE01822BA1
:103C9000932B23C090E0D82FCC27CE01846F906A5D
:103CA0001CC08C2F8F710E945B1A8F7190E0D82FEF
:103CB000CC27CE01906211C08D2F8F710E945B1AAC
:103CC000182FCE0199270E94AA1A1F719062912B7A
:103CD00004C080E090E001C0CE01DF91CF911F9140
:103CE0000895809590914B04892380934B04089507
:103CF00080916B05882319F00E94272308950E9464
:103D0000D71CCB010895A6E0B0E0E9E8FEE10C94F1
:103D1000B2310E9427238C0180914C0490914D0474
:103D20000817190781F019821A820E942723682F29
:103D300049815A81792F80E090E00E942C2D1093C8
:103D40004D0400934C042696E4E00C94CE31ACE094
:103D5000B0E0EDEAFEE10C94A731AE014F5F5F4F9A
:103D60007A0188E0DA011D928A95E9F701E511E010
:103D70006A0185E5682E81E0782EAA24A394B12CEF
:103D80002BE5822E21E0922EF80180818F3F09F4ED
:103D900040C0F894E82FE295EF70F0E021A18F7019
:103DA000A50102C0440F551F8A95E2F7CA01922F60
:103DB000982B91A392A18095892382A3789400C027
:103DC000E5E5F1E0512C31E021912F3F89F0A22F60
:103DD000A295AF70B0E090968C9190E02F7002C0E9
:103DE000959587952A95E2F780FD02C0832F01C043
:103DF00080E0582A330F8E169F0631F7D8018C9138
:103E00008F3F11F00E94C01CB0EABA95F1F7F6019D
:103E100050820F5F1F4FFFEFCF1ADF0A6016710647
:103E200009F0B2CF48E050E0B70186ED91E00E9482
:103E30000E33892B99F088E0F701A6EDB1E00190EF
:103E40000D928A95E1F781E0809350040E94272328
:103E500090934F0480934E04F12C27C0809150041E
:103E60008823D1F30091DF0180914E0490914F049B
:103E70000E940C23059780F310E0015E1D4F44E083
:103E800050E066ED71E0C8010E940E33892B09F401
:103E90001BC184E0E6EDF1E0D80101900D928A9516
:103EA000E1F7FF24F3941092500480916B05E091A8
:103EB000DF01882309F481C019861A861B861C86B7
:103EC0000E2F10E0015E1D4F809184048A3058F45B
:103ED00045E15CE1BE01675F7F4FC8010E94461B60
:103EE0008823E9F10AC080915104909152040E9404
:103EF0000C23843F914060F743C049EF5BE1BE0172
:103F0000675F7F4FC8010E94461B882341F141EF44
:103F10005CE1BE01675F7F4FC8010E94461B88239A
:103F2000F1F04BEC5BE1BE01675F7F4FC8010E947F
:103F3000461B8823A1F0109284048091DE0190E05A
:103F400044E050E0BE01675F7F4F815E9D4F0E945D
:103F50000E3321E020935704892B01F5AFC08091E7
:103F600084048F3F19F08F5F8093840480918404D0
:103F70008A3018F30E9427239093520480935104AF
:103F800080915704882309F499C0FE01399684E092
:103F9000DF011D928A95E9F710925704E091DE0146
:103FA000F0E0E15EFD4F89859A85AB85BC85808315
:103FB0009183A283B38381E082C00091DE0110E08F
:103FC000015E1D4FF0E0E15EFD4F84E0A5E6B4E048
:103FD00001900D928A95E1F785E694E00E94AF1575
:103FE0008093640484E0E9E6F4E0D80101900D9246
:103FF0008A95E1F780906D0490906E04A0906F0414
:10400000B09070048091530490915404A091550491
:10401000B091560488169906AA06BB06B1F08092A4
:10402000530490925404A0925504B09256040E94F6
:104030001B23861A970AA80AB90A8092D201909285
:10404000D301A092D401B092D50180917104982F30
:10405000917086958695E0907204D0907304C0901C
:10406000740400917A0410917B0410927B04112354
:1040700029F110FF0DC0992349F090915A059160E4
:1040800090935A0560E00E94922C02C00E94832CFB
:1040900011FF06C020E04C2D6D2D8E2D0E94A42B0B
:1040A00012FF07C0002319F00E94272602C00E94B9
:1040B000202613FF03C081E08093B00480E08F29A5
:1040C0002C96EFE00C94C331F12CEDCE80912B02B5
:1040D0000895539A089508952BB1277F3BB1386016
:1040E0004FB7F894FC01CB01880F991F680F791F17
:1040F0006E0F7F1FE617F70789F0819198E03BB9B3
:10410000000000C087FF2BB9880F000000C000C06E
:1041100000C02BB900C09A9591F7ECCF4FBF8FE547
:1041200094E00197F1F700C000000895A0E0B0E02E
:10413000ECE9F0E20C94AA318C01FC014481C42F1B
:10414000D0E09E01DE010E94A1329B01AC010E94E1
:10415000B7326B017C01E0E2F0E0EC1BFD0BA5E562
:10416000B0E09B01AC010E94B7324B015C019F01A2
:10417000DF010E9499329B01AC010E94C2329B0177
:10418000AC012C0D3D1D4E1D5F1DC501B4010E94EB
:104190006A32C22FD22F2A3228F4F3E02F9F9001E7
:1041A00011240DC025E530E02C1B3109C901880F11
:1041B000991F280F391F37FF02C02F5F3F4F3595DA
:1041C0002795C22FC095F12C85E5E82EED1A809138
:1041D0005001F816E0F4F1FC02C08E2D01C08D2FC5
:1041E00090914E012F2D30E0290F311DA901440F70
:1041F000551F240F351F28543B4F4C2FC93708F04B
:1042000048E760915C050E94FD2AF394E0CF0E948C
:10421000472AF8018481811102C091E003C08032F5
:1042200019F49FEF90934B0190914B01890FF80186
:104230008483CDB7DEB7ECE00C94C6311F93CF93E7
:10424000DF93EC018C81811109C081E08C83109295
:10425000B70492E090934A018093490180914E0106
:1042600090914F01891770F4E82FF0E09F01220F21
:10427000331FE20FF31FE854FB4F118210821282AA
:104280008F5FF0CF10E0609150011617D8F5E12F45
:10429000F0E070E0CF010E94563220914E01820F73
:1042A0002091B704022E000C330B90E0E217F307C5
:1042B000E4F020914A01022E000C330B2E173F0729
:1042C000A4F09C01220F331F820F931F9C012854DE
:1042D0003B4F40915D05493708F048E760915C0528
:1042E00080915B050E94FD2A0BC0FC01EE0FFF1FB1
:1042F0008E0F9F1FFC01E854FB4F11821082128227
:104300001F5FC1CF0E94472A809149012091B704C5
:10431000280F2093B70490914A01980F90934A0177
:1043200019165CF4022E000C330B4091500150E042
:10433000415051092417350734F081958093490184
:10434000813009F41C82DF91CF911F910895A0E084
:10435000B0E0EDEAF1E20C94A931EC018A8180FF32
:1043600003C0BB24BA9402C0BB24B3948C818111D6
:104370000DC081E0B81206C0809150018150809339
:10438000B60402C01092B60481E08C83A12C46E3EF
:10439000742E80905001A81408F044C080914E0102
:1043A000CA2CD12C8601080F111DC801880F991F36
:1043B000080F191F08541B4FF80111821082128236
:1043C00034E0E32EF12C912C8091B604890D8733D3
:1043D0002CF0672D0E944832892F02C087FD880D7E
:1043E000082E000C990BC816D906A9F480915D051A
:1043F0008E9DA0018F9D500D112455954795559583
:104400004795493708F048E7980160915C0580912D
:104410005B050E94FD2A9B0CF1E0EF1AF108A1F662
:10442000A394B7CF0E94472A8091B60491E0B912B5
:104430000EC0811107C08091500181508093B60455
:104440001C820FC081508093B604BC820AC090E0E9
:1044500001966091500170E00E9456328093B6043C
:104460008C83CDB7DEB7EDE00C94C531FF920F938E
:104470001F93CF93DF93EC01F12C0FEF10E06091CD
:104480005001F61608F580914E012F2D30E0280FCF
:10449000311DC901880F991F280F391F28543B4F20
:1044A00040915D05493708F048E770E0C8010E9477
:1044B0005632962F8C8160915C05F99E800D1124F7
:1044C0000E94FD2AF394DBCF0E94472A9A818C81B7
:1044D00090FF02C08F5F01C081508C83CDB7DEB7E3
:1044E000E5E00C94CD31CF93DF93EC01EAE5F5E004
:1044F000438162818C810E94892B8C818F5F8C83A8
:10450000DF91CF910895CF93DF93EC01EC81F0E040
:10451000E355F64F4491EAE5F5E0628181810E941E
:10452000892B8C818F5F8C83DF91CF9108950F93BE
:104530001F93CF93DF938B01EA0190913602943061
:1045400079F58F708093E9008FEF9091E8008150AA
:1045500095FD06C095ED9A95F1F700008111F5CF14
:104560008091E80085FF1CC00E94261A882361F014
:104570008091E8008E778093E80012C0F801819165
:104580008F018093F1002197209791F38091E800AB
:1045900085FDF4CF8091E8008E778093E800E4CF2A
:1045A000DF91CF911F910F91089587E797E790933F
:1045B0000108809300089AE088E10FB6F894A89566
:1045C000809360000FBE90936000FFCF78941F929D
:1045D0000F920FB60F9211248F939F93AF93BF93B7
:1045E0008091760590917705A0917805B091790535
:1045F0000196A11DB11D8093760590937705A09338
:104600007805B0937905BF91AF919F918F910F90ED
:104610000FBE0F901F9018959C014FB7F894809192
:10462000760590917705A0917805B09179054FBFF7
:10463000821B930B08952FB7F894609176057091C3
:10464000770580917805909179052FBF08952FB750
:10465000F8948091760590917705A0917805B091B6
:1046600079052FBF08951F920F920FB60F92112454
:104670008F939F93AF93BF9380917505811113C062
:104680008091760590917705A0917805B091790594
:104690004196A11DB11D8093760590937705A09357
:1046A0007805B0937905BF91AF919F918F910F904D
:1046B0000FBE0F901F90189590911501992321F02E
:1046C0009091730597FD03C0E5E8F4E01DC0E82F65
:1046D000E695E695E695EE31E0F4F0E0E357FB4F22
:1046E000877021E030E0A90102C0440F551F8A9570
:1046F000E2F7CA01809592818923828308953196D9
:1047000054E0EB38F50729F092818913F8CF128233
:10471000F6CF0895909115019923D1F090917305EA
:1047200097FF16C0E82FE695E695E695EE3140F541
:10473000F0E0E357FB4F877021E030E0A90102C0B1
:10474000440F551F8A95E2F7CA019281892B16C042
:10475000A7E8B4E0EFEF90E02D91821789F0EF3FEA
:1047600019F4211101C0E92F9F5F9630A9F7EF3F9F
:1047700039F00E2E000CFF0BEB57FB4F8283089590
:104780000895A3E0B0E0E7ECF3E20C94B43120919B
:1047900071053091720528173907A1F090937205C1
:1047A00080937105E0916F05F0917005309751F09D
:1047B00024E029839B838A830084F185E02DCE0148
:1047C000019609952396E2E00C94D031A3E0B0E085
:1047D000ECEEF3E20C94B43120916D0530916E054E
:1047E00028173907A1F090936E0580936D05E0912D
:1047F0006F05F0917005309751F023E029839B837A
:104800008A830084F185E02DCE01019609952396D7
:10481000E2E00C94D03180916B05882359F0E0914F
:104820006F05F0917005309729F00190F081E02D2F
:104830000995089580E0089587E290E00E9408328B
:104840000895CF93C82F811102C06FEF01C064E2B9
:1048500084E290E00E940832C11102C06FEF01C0F3
:1048600069E085E290E00E940832C11102C06FEF5A
:1048700001C063E186E290E00E940832CF91089582
:1048800084E290E00E94E431843281F485E290E099
:104890000E94E431893051F486E290E00E94E431D4
:1048A00091E0833109F090E0892F01C080E08170B0
:1048B00008950F931F93CF93DF93C42FD22FFC0142
:1048C00085818823B1F040936A050E942723909345
:1048D00069058093680580E28C0F883008F068C015
:1048E000C77081E001C0880FCA95EAF70E94252AA7
:1048F0005FC080916A0548133DC080916805909122
:1049000069050E940C23883C9105A0F510E21D0F5B
:10491000CD17E9F080E28C0F883040F4C77081E059
:1049200001C0880FCA95EAF70E941E2A183078F550
:1049300081E09D2F977001C0880F9A95EAF70E9439
:10494000252A093351F560E570E089E329C0093370
:1049500019F460E570E002C060E070E0802F0E9412
:104960002F2A183028F5D77081E001C0880FDA951A
:10497000EAF70AC080E28C0F8830D0F4C77081E07B
:1049800001C0880FCA95EAF70E941E2A11C0093398
:1049900051F460E570E089E309C060E070E0802FC9
:1049A0000E942F2AE0CF60E070E0802F0E942F2A23
:1049B000DF91CF911F910F910895CF93DF93C8EAB4
:1049C000D1E060E0CE010E9408322196C11584E05A
:1049D000D807B9F7DF91CF9108951F93CF93DF9355
:1049E000962F8430E8F46830D8F44630C8F4632F4A
:1049F000122FC42FD0E0CC0FDD1F2CE0929FC00DF2
:104A0000D11D112490E6899FC00DD11D1124CE0126
:104A100088960E940832612FCE0189960E94083242
:104A2000DF91CF911F910895A0E0B0E0EAE1F5E2B7
:104A30000C94AC31A12CE12CF12CB12C00E010E055
:104A4000C0E0D0E06701C00ED11EFE01EE0FFF1FD7
:104A5000EC0DFD1DEF54F54F259134914C2F6B2D2E
:104A60008A2D0E94ED242196C630D10571F7045F8E
:104A70001F4FB39488E0B812E3CF80E6E80EF11C34
:104A8000A39484E0A812D9CFCDB7DEB7EAE00C94A6
:104A9000C83180E00E94212460E070E0CB010E94D8
:104AA0001C240E9414250E94DD2481E00E94212400
:104AB00008950F931F93CF93DF93843008F56830E8
:104AC000F8F44630E8F4C42FD0E0CC0FDD1F2CE022
:104AD000629FC00DD11D112430E6839FC00DD11DF2
:104AE0001124CE0188960E94E43190E0182F00270F
:104AF000CE0189960E94E4319801282BC90102C099
:104B000080E090E0DF91CF911F910F910895CF93B6
:104B1000E82F2091490430914A04235432404091B7
:104B20004002642F70E0C9010E949031481B842F1D
:104B3000EE2351F066E00E943C32C82FC150A8F02D
:104B400080E20E941C15FACFA901480F511D4115A2
:104B5000524018F080E020E030E0280F311D2D5B3E
:104B60003D4F30934A0420934904CF910895AB01FF
:104B700024E630E0BC0188E70E943A2F21E0892B2F
:104B800009F020E0822F08958091670590916605D5
:104B9000882389F0992369F062E070E08FEA9AE057
:104BA0000E94B725811103C0809166050895109277
:104BB00066059091660581E08927089580916705D3
:104BC0008823F9F00E941B23DC01CB01805A954118
:104BD000AF4FBF4F8093620590936305A093640528
:104BE000B09365058091660581110BC062E070E0AD
:104BF0008DEA9AE00E94B725882319F081E080931E
:104C0000660580916605089590915A0590FF05C04C
:104C100096959695981748F003C0811106C090E0CC
:104C2000961718F40E94E72C089561E00E94922CD8
:104C30000895882311F0FA0101C0FB010995089538
:104C4000E3EBF4E0118282818460828308956091B5
:104C50005A056695669570E04BE050E08EE391E072
:104C60000E940133892B19F481E08093B4040E94DF
:104C7000781E9093AE048093AD048091B504846057
:104C80008093B504089590914B048091CF05892BB2
:104C90009091CE059923E1F0892B909115019923EC
:104CA00041F09091730597FF04C09EE12FE834E036
:104CB00003C096E027E834E0F90120E0915028F0A5
:104CC00031913323D9F32F5FF9CF21111092CE0503
:104CD00008952091CC059091930557E02917A9F0EC
:104CE00030E0529FF001539FF00D1124EC56FA4F23
:104CF0007181761306C07081781303C075817413B7
:104D000006C02F5F3F4F2770E9CF80E0089581E014
:104D1000089580911501882351F18091730587FFD3
:104D200026C00E94432680938E0440E250E060ED4E
:104D300075E08DE894E00E940E33892BD9F180E272
:104D4000EDE8F4E0A0EDB5E001900D928A95E1F771
:104D5000E0916F05F0917005309761F186E08093E6
:104D60008D040480F581E02D8DE894E022C00E943E
:104D700043268093850448E050E060EF75E085E8C5
:104D800094E00E940E33892BA9F088E0E5E8F4E076
:104D9000A0EFB5E001900D928A95E1F7E0916F05E3
:104DA000F0917005309731F00280F381E02D85E8B5
:104DB00094E0099508958091CC0590919305891709
:104DC00019F08F5F8770FBCF0895CF93DF938091A9
:104DD000920582958F7009F04EC0809191058823CD
:104DE00009F449C08091CC054091930550918D05FF
:104DF00060918C05C0918E05D0918F0577E0841766
:104E0000D1F190E0789FF001799FF00D1124DF013E
:104E1000AC56BA4F14962C911497222349F111964F
:104E20002C911197251324C02C91261321C015967F
:104E30002C91159721111CC012962D913C9113971E
:104E40002C1B3D0B283C310598F4809192058F7006
:104E5000806180939205E656FA4F80818F70806161
:104E600080838CE895E00E942B0E0E94DB2603C015
:104E700001968770C4CFDF91CF910895CF92DF92D2
:104E8000FF920F931F93CF93DF936C010091EE017C
:104E90008091E001082BC3E0D0E010E0C8010C2EA7
:104EA00002C0959587950A94E2F780FD04C021978A
:104EB000A8F7F12C09C0FC2EB6018C2F0E94461DCC
:104EC0000E94541D019799F38F2DDF91CF911F916F
:104ED0000F91FF90DF90CF900895CF93DF93EC0177
:104EE0000E943E27BE010E94461D0E94541DDF9174
:104EF000CF910895FC0124812223D9F080819181F2
:104F00000E946D2792959F70963079F010F4925020
:104F100001C09A50923068F4803F69F018F4883EDE
:104F200040F409C0843F29F406C0883E20F0813F48
:104F300011F080E0089581E00895A4E1B0E0E3EA93
:104F4000F7E20C94AA318C0186E0F801DE011F968D
:104F500001900D928A95E1F7F8018481E5809CE843
:104F6000892E95E0992E90919005911120C088236B
:104F700009F463C1EE2009F442C0C8010E947A27F7
:104F8000F82E8823E1F187E0F801D40101900D9219
:104F90008A95E1F780919005813031F480918C05FC
:104FA00090918D050E946D270E94E52648C1F80169
:104FB000D080C180A280B380F090910520918E05B1
:104FC00030918F05FF2009F4E7C0A501421B530B68
:104FD000483C510508F09DC0882309F430C18091F8
:104FE0009205282F207F90918D05222361F09C153A
:104FF00009F460C0C8010E947A27811163C0C8010A
:105000000E942B0E1AC19C1113C090918C059D110A
:105010000FC0E1100DC08F708061809392058CE805
:1050200095E00E942B0E80919205F801868303C1C2
:10503000E1103AC040E06C2D8D2D0E94692640E0C1
:105040006C2D8D2D0E946926E82E8111F4C0DF861B
:10505000C88A8F8598890E946D27292F22952F70E5
:10506000243020F49F70223028F009C02A502230CA
:1050700080F014C0992349F0811107C013C099230F
:1050800021F0F8019681907F69F0805E883030F4DD
:1050900009C0803F38F0815F833020F0C8010E9452
:1050A0002B0EEF2CFE2CCBC080919205816080935B
:1050B0009205C1C090918C059D119CCFE1109ACFB3
:1050C000F80198C0EE2009F49ACF20919205822F22
:1050D00082958F7090E002978CF080918C05909172
:1050E0008D0599878887BB86AA86809190058C87D5
:1050F0001D862E87CE0108960E942B0E87E0F801B0
:10510000ACE8B5E001900D928A95E1F70E94E526A2
:1051100094C090919205292F207F51F48CE895E05E
:105120000E942B0E87E0F40111928A95E9F783C063
:10513000882309F484C080918D058C110CC0809166
:105140008C058D1108C0E11006C0F8019683C801D6
:105150000E942B0E6AC0C8010E947A27882309F496
:105160004ECFEE2009F44BCF20919205822F8295ED
:105170008F7090E0029714F280918C0590918D05CC
:105180009A838983BC82AB82809190058D831E8235
:105190002F83CE010196B0CFA21AB30AF8ECAF1656
:1051A000B10408F042C0882309F447C0FE2CEE2069
:1051B00009F425CF80918D058C1129C080918C0533
:1051C0008D1125C09091920590FD18C0892F829570
:1051D0008F70282F30E02115310581F0F80196837A
:1051E0002F30310541F08F5F982F9295907F868107
:1051F0008F70892B8683C8010E942B0E87E0F801EF
:10520000ACE8B5E001900D928A95E1F718C0C801AD
:105210000E947A27811172CF8091920581608093DC
:105220009205C8010E942B0E0AC087E0F40111927A
:105230008A95E9F704C0F12C02C0FF24F3948F2D66
:105240006496ECE00C94C631292F983078F58630BE
:1052500068F590E036E0239F800D911D1124682FA2
:10526000677023E0969587952A95E1F7FC01EE0F8C
:10527000FF1FE80FF91FE658FA4F40E050E080E0CA
:10528000219130E0062E02C0369527950A94E2F768
:1052900021703327042E01C0220F0A94EAF7822BD3
:1052A0004F5F5F4F4330510559F7089580E00895EF
:1052B000292F983088F5863078F590E036E0239FE6
:1052C000800D911D1124282F277051E001C0550F2A
:1052D0002A95EAF723E0969587952A95E1F7FC0150
:1052E000EE0FFF1FE80FF91FE658FA4F20E030E0FD
:1052F00070E04081CB01022E02C0969587950A94FA
:10530000E2F78170819584278523842781932F5F1D
:105310003F4F2330310569F708958093EE010895DA
:105320009091EE0121E030E0F90101C0EE0F8A9585
:10533000EAF7D90102C0AA0FBB1F6A95E2F7BD01C7
:105340006E2B01C0220F4A95EAF7892F8623681336
:1053500003C0892F822B03C02095822F89230E94AE
:105360008D29089521E030E001C0220F8A95EAF7E7
:1053700020958091EE0182230E948D2908959091BD
:10538000CD05809589238093CD05282F277069F45A
:10539000981759F09091740592FF07C086958695ED
:1053A00086950E94B2291092CD05089590917405BA
:1053B00092FB222720F9281779F080FB92F990932D
:1053C0007405609173057091740584E090E00E940B
:1053D000263282E00E94BF29089521E030E001C01A
:1053E000220F8A95EAF78091EE01822B0E948D2987
:1053F00008958093E001089510924B048091150167
:10540000882341F08091730587FF04C08EE1EFE8A7
:10541000F4E003C086E0E7E8F4E0DF011D928A953E
:10542000E9F780E090E00E94E62380E090E00E94AF
:10543000C1231092CF050E9489260895882321F068
:105440000E94711E0E9489260895882339F0909148
:105450004B04892B80934B040E94892608951F9347
:10546000CF93DF93182FEB010E94FC2D209741F082
:105470008FE99FE00197F1F700C000002197F6CF78
:10548000812F0E94D22DDF91CF911F9108956091BD
:105490004D0180915A0580FF0CC080914C0170E055
:1054A00023E0829FC001112488549B4F0E946C20EE
:1054B000089580914E0190914F01891770F7E82F60
:1054C000F0E09F01220F331FE20FF31FE854FB4F60
:1054D0001182108212828F5FF0CF90915A0590FF57
:1054E00016C090914E0120914F01921770F4E92F50
:1054F000F0E0DF01AA0FBB1FEA0FFB1FE854FB4FD0
:105500008183608342839F5FF0CF0E94472A089582
:1055100080915A05282F2695269530E021153105D2
:1055200019F48370846005C02332310524F0837040
:10553000886880935A0580915D05893718F088E75F
:1055400080935D050895A0E0B0E0E9EAFAE20C94EA
:10555000AA3149015A016B017C010E94882A840109
:10556000A4016A2D7B2D88E090E00E941A329401FC
:105570004A2D5B2DB601C70100E20E94E532622F81
:1055800083E290E00E940832CDB7DEB7ECE00C94E5
:10559000C63180915E05882319F0815080935E05A5
:1055A00020915A0530915B0540915C0550915D0555
:1055B00060915E0570915F05809160059091610535
:1055C0000E94A32A089580915E05833018F48F5FAE
:1055D00080935E0520915A0530915B0540915C05F2
:1055E00050915D0560915E0570915F058091600549
:1055F000909161050E94A32A0895A0E0B0E0E3E045
:10560000FBE20C94AC31E82EF62EE901E42FF0E039
:10561000611106C0EF5CF34FE4914E2F2E2F71C045
:10562000062F10E0EF5CF34F4491F42FC42ED12CE1
:1056300026E0829FC00111242FEF30E0B9010E94C3
:1056400090315BEA5603C001579F900D11248E0DD7
:10565000911D8E0D911D582F550F580FD901A01B6C
:10566000B10BAC9DC001AD9D900DBC9D900D112462
:10567000E92FF59ED0011124AB2FBB277901EA1A3F
:10568000FB0AEC9CD001ED9CB00DFC9CB00D1124EC
:105690005901A51AB108A09E7001A19EF00CB09E00
:1056A000F00C1124EF2CFF242E193F092C9D8001B2
:1056B0002D9D100D3C9D100D1124212F6230710580
:1056C00091F048F461157105E1F061307105B9F4AC
:1056D000242F4B2F16C06430710569F040F06630FE
:1056E000710579F00CC0242F492FE12F0AC0492FF2
:1056F000EF2F2B2F06C0292FE42F412F02C0292F77
:10570000EB2F49832883EA83CDB7DEB7EAE00C9418
:10571000C831A3E0B0E0EFE8FBE20C94B431909123
:105720005A0590FF0DC0493708F048E79E012F5FEA
:105730003F4F0E94FD2A4B8169818A810E946D2A18
:105740002396E2E00C94D031A3E0B0E0EAEAFBE279
:105750000C94AD31F82EE62E042FD22E90915A05DE
:1057600090FF85C020915B05281308C080915C05DF
:10577000861304C080915D05841729F08091B504DB
:1057800082608093B504E92FE695E695AE2FB0E0F0
:10579000A355BE4F8C918093B3049C7F943089F4C1
:1057A000402F093708F048E79E012F5F3F4F6E2DCD
:1057B0008F2D0E94FD2A4B8169818A810E946D2A6A
:1057C0003FC0823019F400915D053AC08630B9F1CE
:1057D0008930A9F18931A1F5E9518E2F8170C82E48
:1057E000E695F0E0EF5CF24F1491B12C609150011E
:1057F000B61610F5B19EC001112470E00E949031E0
:105800008F2DC11002C0860F01C0861B90914E01E2
:105810002B2D30E0290F311DA901440F551F240FF6
:10582000351F28543B4F402F093708F048E76E2DAD
:105830000E94FD2AB394DACF0E94472A01C0F22EBB
:10584000F0925B05E0925C0500935D05DD2079F048
:1058500020915A0560915E0570915F053F2D4E2D98
:10586000502F80916005909161050E94A32A239694
:10587000E9E00C94C931EAE5F5E0438121E1421BFE
:1058800008F440E021E0628181810E94A42B089508
:10589000EAE5F5E0438121E1420F08F44FEF21E012
:1058A000628181810E94A42B0895EAE5F5E062817E
:1058B00021E1621B08F460E021E0438181810E94C4
:1058C000A42B0895EAE5F5E0628121E1620F08F476
:1058D0006FEF21E0438181810E94A42B0895EAE5C6
:1058E000F5E0818121E0438162818A500E94A42BEE
:1058F0000895EAE5F5E0818121E043816281865FD8
:105900000E94A42B0895EAE5F5E080818E7F8083D4
:105910000E942026E3EBF4E08281816082830E9472
:10592000472A089590915A0590FF45C093708111C0
:1059300002C0946007C0833210F0986803C0880FDB
:10594000880F982B90935A058091B50481608093BD
:10595000B504662391F020915A0530915B05409182
:105960005C0550915D0560915E0570915F058091C9
:105970006005909161050E94A32A60915A05669581
:10598000669570E04BE050E08EE391E00E940133B9
:10599000892B19F00E94202602C00E94272681E050
:1059A0008093B00420E040915D0560915C0580919A
:1059B0005B050E94A42B089580915A0586958695D3
:1059C000815009F482E261E00E94922C0895809156
:1059D0005A05869586958F5F833208F081E061E0F5
:1059E0000E94922C0895982F92959F7019F0892FFC
:1059F00024E001C020E0982F9695969511F02E5F37
:105A0000892F982F969509F02F5F822F0895A6E091
:105A1000B0E0EDE0FDE20C94B33149835A83498153
:105A20005A81992361F0222351F0CA010E943E2736
:105A3000182F682F89819A810E94582904C0CA01B1
:105A40000E942429182F69817A81812F0E94461D86
:105A50002696E3E00C94CF31ABE1B0E0E2E3FDE267
:105A60000C94B2314E8B5F8B688F798F8A8F9B8FAE
:105A7000192F91111092CF05DE011F9687E0FD01CD
:105A800011928A95E9F786E0FE01769601900D92D3
:105A90008A95E1F70A8D002341F021E04F8558896E
:105AA00069897A89C8010E94072D0B8B1C8B87E0BE
:105AB000FE013F96DE01189601900D928A95E1F75E
:105AC000CE0108960E949D2781112CC087E0FE011F
:105AD0003896DE01119601900D928A95E1F76C855A
