:100000000C9435060C9452060C9452060C94A92EAE
:100010000C9452060C9452060C9452060C94520600
:100020000C9452060C9452060C9433190C947518C7
:100030000C94A3260C9452060C9452060C9452066F
:100040000C9452060C9452060C9452060C945206D0
:100050000C9452060C9456260C9452060C9452069C
:100060000C9452060C9452060C9452060C945206B0
:100070000C9452060C9452060C9452060C945206A0
:100080000C9452060C9452060C9452060C94520690
:100090000C9452060C9452060C9452060C94520680
:1000A0000C9452060C9452060C945206640C670C85
:1000B0009A0CB70CBE0CC90CCC0CCC0CCC0CE50DBE
:1000C000E50D510D540D590D7D0D9E0DA10DA40D85
:1000D000C60D1F1093102710F10FF50F2B10F80FFE
:1000E0002E1039100310891007103D100B1041100D
:1000F0006B100F104510751015104B105510FC0F9C
:100100003210FF0F35101A1050106110811083103B
:10011000ED0F23109C10BC10C210AF0FB610C8100A
:10012000CE10D4100B11321137113C114111461170
:100130004B11501155115A115F116611B70FB70FBE
:10014000B70FB70FB70FB70FB70FB70FB70FEE1146
:10015000EE1121122112A012BE12BF13BF13C3123F
:100160003713481348138D16B4165D18B4165D186E
:10017000001723175D181818281800DA0281FFD914
:10018000F1DB20A4A62EAF00A0C0D30000A1C8D3ED
:100190000000AED580A81F408D142000556E646508
:1001A000660041646A757374005261697365004C3E
:1001B0006F7765720044656661756C74004C617997
:1001C00065723A20003A002C206B00780080818212
:1001D000838485868788898A8B8C8D8E8F90919277
:1001E0009394A0A1A2A3A4A5A6A7A8A9AAABACADCD
:1001F000AEAFB0B1B2B3B4C0C1C2C3C4C5C6C7C844
:10020000C9CACBCCCDCECFD0D1D2D3D40000000040
:1002100000000000000000000000000000000000DE
:1002200000000000000000000000000000000000CE
:10023000007E0F00D4FFFFFFC70000007800000021
:1002400000000000002A2B28000000000000000031
:10025000000000000000000029000000002C1E34F7
:1002600020212224342627252E362D3738271E1FFD
:10027000202122232425263333362E37381F040528
:10028000060708090A0B0C0D0E0F10111213141596
:10029000161718191A1B1C1D2F3130232D35040574
:1002A000060708090A0B0C0D0E0F10111213141576
:1002B000161718191A1B1C1D2F3130354C20202001
:1002C000206162636465666768696A6B6C6D6E6FF6
:1002D000707172737475767778797A313233343518
:1002E0003637383930524542545F2D3D5B5D5C23D3
:1002F0003B27602C2E2F20202005010902A101851B
:10030000020901A100050919012908150025019517
:1003100008750181020501093009311581257F9594
:10032000027508810609381581257F9501750881B8
:1003300006050C0A38021581257F9501750881068E
:10034000C0C005010980A101850319012AB7001564
:100350000126B700950175108100C0050C0901A1A7
:1003600001850419012AA002150126A00295017534
:10037000108100C005010906A1018506050719E0E5
:1003800029E7150025019508750181020507190067
:1003900029EF1500250195F0750181020508190165
:1003A0002905950575019102950175039101C00616
:1003B00060FF0961A1010962150026FF0095207503
:1003C0000881020963150026FF0095207508910237
:1003D000C005010906A101050719E029E715002557
:1003E00001950875018102950175088101050719BC
:1003F0000029FF150026FF009506750881000508F5
:100400001901290515002501950575019102950130
:1004100075039101C009025B00030100A0FA090401
:100420000000010301010009211101000122440023
:100430000705810308000109040100020300000010
:100440000921110100012222000705820320000179
:100450000705030320000109040200010300000056
:1004600009211101000122B60007058403200001C3
:1004700012010002000000085346010001000102C1
:1004800000010C0343006F0072006E006500000065
:10049000100366006F006F007300740061006E004F
:1004A0000000040309040000000000003E5B4F5BF5
:1004B0003E003E6B4F6B3E001C3E7C3E1C00183CD9
:1004C0007E3C18001C577D571C001C5E7F5E1C0084
:1004D00000183C180000FFE7C3E7FF0000182418CD
:1004E0000000FFE7DBE7FF0030483A060E00262950
:1004F00079292600407F05050700407F05253F003C
:100500005A3CE73C5A007F3E1C1C0800081C1C3E5D
:100510007F0014227F2214005F5F005F5F000609E6
:100520007F017F00006689956A00606060606000FE
:1005300094A2FFA2940008047E04080010207E20EC
:10054000100008082A1C0800081C2A0808001E10B1
:10055000101010000C1E0C1E0C0030383E383000FD
:10056000060E3E0E060000000000000000005F00C6
:100570000000000700070000147F147F1400242AE5
:100580007F2A120023130864620036495620500067
:10059000000807030000001C224100000041221C4B
:1005A00000002A1C7F1C2A0008083E080800008062
:1005B00070300000080808080800000060600000B3
:1005C0002010080402003E5149453E0000427F4091
:1005D00000007249494946002141494D3300181431
:1005E000127F10002745454539003C4A49493100F2
:1005F0004121110907003649494936004649492930
:100600001E0000001400000000403400000000083C
:100610001422410014141414140000412214080080
:100620000201590906003E415D594E007C1211122B
:100630007C007F49494936003E41414122007F41CB
:1006400041413E007F49494941007F0909090100B4
:100650003E41415173007F0808087F0000417F41FF
:1006600000002040413F01007F08142241007F40EC
:10067000404040007F021C027F007F0408107F0082
:100680003E4141413E007F09090906003E4151219A
:100690005E007F09192946002649494932000301B5
:1006A0007F0103003F4040403F001F2040201F00CB
:1006B0003F4038403F00631408146300030478048B
:1006C00003006159494D4300007F4141410002044C
:1006D00008102000004141417F0004020102040093
:1006E0004040404040000003070800002054547878
:1006F00040007F28444438003844444428003844AB
:1007000044287F0038545454180000087E09020021
:100710001824241C78007F080404780000447D40DD
:1007200000002040403D00007F10284400000041B0
:100730007F4000007C04780478007C080404780082
:100740003844444438007C18242418001824241801
:100750007C007C0804040800485454542400040419
:100760003F4424003C4040207C001C2040201C00D2
:100770003C4030403C004428102844004C9090906D
:100780007C004464544C44000008364100000000E2
:100790007700000000413608000002010204020058
:1007A0003C2623263C000000000000000000000062
:1007B000000000000000C0E0F0F8F81800C0F0FCF5
:1007C000FEFFFFFFFFFFFFFF7E00000000000000B4
:1007D000000080C0E0E0E0E0E0E0E0E0C080000099
:1007E000000080C0E0E0E0E0E0E0E0E0C080000089
:1007F00000E0E0C0C0E0E0E0E00000E0E0C0C0E019
:10080000E0E0E0E0C0800000000080C0E0E0E0E068
:10081000E0E0E0E0C0800000000000000000000018
:1008200000000000E0F0F0F0E0ECEEF7F3702000E4
:100830007C7C7C7E007E7E7E7F7F7F000080C0E0AF
:100840007E5B4F5BFEC00000C000DCD7DEDEDED783
:10085000DC00C000000000000000000000000000FC
:10086000000000000000000000000000000000F890
:10087000FCFEFFE000FFFFFFFFFFFF80FFFFFFFF29
:10088000FFFFFFFFFF1F0701000000000000000046
:1008900000FFFFFF8100000000000081C3C3C30010
:1008A00000FFFFFF8100000000000081FFFFFF004C
:1008B00000FFFFFF01000000000000FFFFFF01003C
:1008C00000000001FFFFFF0000FFFFFF9D1C1C1C3C
:1008D0001C1C1C9DDFDFDF0000000000000000008A
:1008E000000000000F1F3F7F7F7F7F7F3F1E0C00B7
:1008F0001F1F1F3F003F3F3F7F7F7F00307B7F7880
:1009000030202030787F3B0003000F7F0F0F0F7FD8
:100910000F000300000000000000000000000000C5
:1009200000000000000000000000000000000003C4
:100930000F1F3F3F3F3F1F1F3F3F7F7F7F3F3F1FB7
:100940003F7F7F7F7F7C7878381C0F00000000009D
:100950000000010307070707070707070301000057
:100960000000010307070707070707070301000047
:10097000000707070000000000000007070700004D
:100980000000000007070700000001030707070732
:100990000707070703010000000000000000000037
:1009A0000000000000000000000000000000000047
:1009B0000000000000000000000000000000000037
:1009C0000000000000000000000000000000000027
:1009D0000000000000000000000000000000000017
:1009E00000000000000000010101010101010101FE
:1009F00002020202020202020203030303030303D0
:100A0000030404040404040405050505050606069C
:100A10000606070707070708080808090909090A59
:100A20000A0A0B0B0B0C0C0C0D0D0D0E0E0E0F0FFE
:100A30000F1010111111121213131414151516168C
:100A40001717181819191A1A1B1B1C1D1D1E1E1FFB
:100A50002020212222232424252626272829292A4A
:100A60002B2C2D2D2E2F3031323233343536373872
:100A7000393A3B3C3D3E3F4041424344454647486E
:100A8000494A4C4D4E4F50515354555658595A5B44
:100A90005D5E5F616264656668696B6C6D6F7072E4
:100AA000737577787A7B7D7E8082838587888A8C50
:100AB0008E8F91939596989A9C9EA0A2A3A5A7A984
:100AC000ABADAFB1B3B5B7BABCBEC0C2C4C6C9CB7B
:100AD000CDCFD1D4D6D8DBDDDFE2E4E7E9EBEEF031
:100AE000F3F5F8FAFDFF00AF00AE000014001A00A5
:100AF0000800150017000000040016000700090098
:100B00000A0000001D001B0006001900050000007F
:100B100000000000E30029412A2400001300120015
:100B20000C0018001C00000033000F000E000D0028
:100B30000B000000380037003600100011000000E4
:100B40000000000028222B422C2100001E001F0064
:100B5000200021002200000035002E002F00300070
:100B600034000000000049001D140F141A14000086
:100B70000000000001000100010000002700260025
:100B800025002400230000002D004F0052005100DA
:100B90005000000031004D004B004E004A000000A4
:100BA0000000000001002B43010000003A003B0060
:100BB0003C003D003E0000003F004000410042007C
:100BC0004300000044004500000000000000000059
:100BD00000000000E00029224C2400000000650015
:100BE000D200D100460000000000D000CD00CE00B1
:100BF000CF0000000000DC00D900DA00DB000000BC
:100C000000000000010001000100000000000000E1
:100C100000000000000000000000000000000000D4
:100C200000000000000000000000000000000000C4
:100C300000000000010001000100000000000000B1
:100C400000000000000000000000000000000000A4
:100C50000000000000000000000000000000000094
:100C60000000000001000100010011241FBECFEFB1
:100C7000DAE0DEBFCDBF11E0A0E0B1E0E8E2F2E6ED
:100C800002C005900D92A23AB107D9F725E0A2EA79
:100C9000B1E001C01D92AC3CB207E1F70E945406DE
:100CA0000C9412310C940000A8E2B0E0EAE5F6E002
:100CB0000C94DE2F85B7806885BF85B7806885BFB7
:100CC00084B7877F84BF0FB6F894A89580916000A1
:100CD000886180936000109260000FBE90E080E811
:100CE0000FB6F89480936100909361000FBE85EB7E
:100CF0009FE19093A3018093A2010E94B9180E94E2
:100D0000D8188091E20084608093E200789480910A
:100D100005028823A1F01091E9001F709091EC006A
:100D2000892F817090FD80E8182B1092E900809146
:100D3000E80083FD0E94AA151F701093E90082E06D
:100D400084BD93E095BD9AEF97BD80936E0010929D
:100D5000A4011092A5011092A6011092A7010E9471
:100D6000B027811102C00E9433298091D800806190
:100D70008093D8002AE12A95F1F700C08091D9002C
:100D8000182F117080FD04C00E94B918109205023E
:100D90001093BD051093BE0510930001112341F07F
:100DA00010923E018BE180933F010E94642E05C0AA
:100DB0008BE180933E0180933F01809100018091FF
:100DC0000001882311F090E001C094E09093B101FC
:100DD00084E0891B8093B00103E411E087E4E82EEE
:100DE00081E0F82ED8018D918D018F3F11F00E9486
:100DF0001C22E016F106B1F707E411E0BDE4EB2E8A
:100E0000B1E0FB2EF80181918F018F3F11F00E941C
:100E10001C22E016F106B1F788E0EEEEF1E0DF010A
:100E2000282F1D922A95E9F7E8EAF1E0DF011D92EB
:100E30008A95E9F780E090E00E942C30853E9E4F35
:100E400021F40E94B027811163C065EE7EEF80E03F
:100E500090E00E94603060E082E090E00E944230CA
:100E600081E08093B20161E083E090E00E94423033
:100E700060E074E184E090E00E94603060E086E031
:100E800090E00E94423060E087E090E00E944230B3
:100E900040E050E0BA0188E090E00E94543060E009
:100EA00083E290E00E94423060E08CE090E00E949B
:100EB000423060E08DE090E00E94423019821A8258
:100EC0001B821C821D821E821F82188648E050E011
:100ED00067E170E0CE0101960E94323040E050E0C0
:100EE000BA018FE190E00E94543080E00E94912787
:100EF0000E94332940E050E0BA018FE090E00E9468
:100F0000543040E050E0BA0183E190E00E94543058
:100F100082E090E00E941E308093B40184E090E073
:100F20000E942C309093C6058093C5050E94F8233B
:100F3000EFEFF6E721E0E150F0402040E1F700C09C
:100F400000000E94F8238091BE05882311F0E0E0A4
:100F500001C0E4E0F0E0E251FE4F808181FF08C073
:100F60006FEF7FEF80E090E00E9460300E944526A6
:100F700083E090E00E941E300E94D91D8091BD0543
:100F8000811102C082E001C080E08093E90180E825
:100F900080930F020E94F42C6BE070E081E991E0F5
:100FA0000E94A129882309F443C08091E90165E0EA
:100FB00070E081FD3AC08CE891E00E94A12988236D
:100FC000B9F16DE070E08AE791E00E94A1298823E1
:100FD00079F10E948B26DC01CB01805A9541AF4FFD
:100FE000BF4F8093A7059093A805A093A905B09340
:100FF000AA05E2E1F2E080E092E0DF019C011D92AF
:1010000021503040E1F7F0931904E09318048FEF7A
:101010009FEF909311028093100281E08093AC05C2
:101020008093AB051092EA0103C087E891E0C5CF39
:101030008091B301811183C088E090E00E94263046
:101040004B015C0183E290E00E941E30282F30E0CB
:1010500040E050E060E070E080E090E000E20E945C
:10106000C530282939294A295B2920939F053093C7
:10107000A0054093A1055093A2056093A30570932A
:10108000A4058093A5059093A6053091FC043360D8
:101090003093FC042C7F09F042C025E020939F058B
:1010A0001092A0053FEF3093A10538E73093A205D9
:1010B0001092A30530E04FEF58E760E00E94422C09
:1010C00088E090E00E9426306B017C0183E290E092
:1010D0000E941E30282F30E040E050E060E070E0D9
:1010E00080E090E00E94C530B22FA32FF42FE52FAF
:1010F0005B0197018601BC29A12BF22BE32BB09356
:101100009F05A093A005F093A105E093A20560932D
:10111000A305B092A4058093A5059093A6050E940F
:101120002F2C0E94A72580919F0580FF05C060E0BD
:10113000869586950E94682C81E08093B30180910A
:10114000BD05811102C00E94672E81E091E090935D
:10115000C2058093C105DD24D394BE016F5F7F4F2C
:101160007B0180910502853009F040C010E402E166
:1011700080910502853009F035C0809105028430E8
:1011800029F10E94AE291092C70588E190E00FB6C0
:10119000F894A895809360000FBE1093600083B709
:1011A000817F846083BF83B7816083BF7894889593
:1011B00083B78E7F83BF0FB6F894A89580916000A7
:1011C000886180936000109260000FBE0E94F82337
:1011D000EEEEF1E08191811101C591E0E63FF90762
:1011E000C9F7C6CF0E94DC1D0E947B270E94F8230E
:1011F000F5EBAF2EF1E0BF2EAEEE8A2EA1E09A2ED7
:101200002DEB31E0D401F50191918D9189272E17B5
:101210003F0719F08823C1F306C0811104C00E9462
:10122000D423C12C37C05090BD0510E0F40161906B
:101230004F01D5017C90762419F100E0CC24C394B1
:101240008C2D8721B9F05520A9F009A31AA30E947B
:1012500097269CA38BA3B1E0BDA391E08C2D8621A2
:1012600009F490E09EA349A15AA16BA17CA18DA194
:101270000E94342B0F5FCC0C063011F7F501608211
:101280001F5FFFEFAF1ABF0A183081F60E943322AA
:10129000CC24C3948091AC05882309F4C2C1809109
:1012A000EB019091EC010E947C26C29708F4B1C03A
:1012B0000E9497269093EC018093EB0182E192E0EB
:1012C00090931904809318048091BD05882309F434
:1012D0009CC08DEB91E00E947F158091BD010E9422
:1012E000FB2A813059F038F0823059F0833061F4B4
:1012F00082EA91E00BC085EB91E008C08FEA91E0B3
:1013000005C089EA91E002C08CE991E00E948D1548
:101310008091C801805D0E9400158BEC91E00E94D5
:101320007F158091C701805D0E94001587EC91E0D8
:101330000E947F154090C5015090C60180910B011D
:1013400090910C014816590639F48091C4018032FD
:1013500019F48EEB91E03AC050920C0140920B01CF
:1013600080E28093C401612C712C1092C301E3ECE4
:10137000AE2EE1E0BE2E00E010E0C301B2012AE093
:1013800030E040E050E00E949630605D603319F438
:101390000115110539F0411451046104710419F467
:1013A00060E201C060E3D5016E935D01C301B2014B
:1013B0002AE030E040E050E00E94963029013A01F6
:1013C0000F5F1F4F05301105C1F6C3CF8C01019689
:1013D000F80120812032D1F301900020E9F79F012C
:1013E0002150310959010A151B0530F4D8018D919E
:1013F0008D010E940015F7CF85EC91E00E947F15CA
:1014000080910D010E94001504C08DEC91E00E94B6
:101410007F158091100290911102892B31F48091F7
:10142000AB05882309F4FDC0E5C08091AC05882395
:10143000B1F38091EA018111F2CF0E94C829209175
:101440001002309111022115310549F380E0482E38
:10145000512C88248394912C082E02C0880C991C4E
:101460000A94E2F7A40142235323452B11F48F5F22
:10147000EECF9091E901920165E0220F331F6A954A
:10148000E1F790FF13C055E0369527955A95E1F79F
:10149000220F220F220F2093100110921301295FB7
:1014A0002093110183E08093140111C0220F232F98
:1014B000221F330B31958295880F8076809310011F
:1014C00020931301815E809311012093140124E67F
:1014D00030E047E050E06EE071E088E70E94292D9F
:1014E000892B09F09CCF8091E90180FF62C080E2E6
:1014F000E9ECF1E0DF011D928A95E9F735E0440C53
:10150000551C3A95E1F7E1E5F1E0F8A7EFA34DE4CA
:1015100051E0AFA1B8A58D91B8A7AFA3FA01919101
:10152000AF019201290F311DB9016E5E7D4F3B0164
:1015300090E087539E4FFC0177E09F01281B390BF9
:1015400001E001C0000F2A95EAF7130110E0D10174
:101550006D911D016023272F211B2770B22E022EB3
:10156000000C330BB62F01C0BB0FBA94EAF7BB2EA9
:101570003195219531092770332701C066952A9549
:10158000EAF7B62A6081B62AB0821F5F1830F9F6F2
:10159000715031967F3F89F6EFA1F8A5E555F140EE
:1015A00009F0B7CF04E610E020E230E049EC51E06A
:1015B0000DC0C20125E0880F991F2A95E1F7AC0103
:1015C0004E5E5D4F04E610E020E230E060E488E724
:1015D0000E94C02D892B09F022CF80949094809195
:1015E0001002909111028822992290921102809209
:1015F000100215CF0E948B260091A7051091A80517
:101600002091A9053091AA05DC01CB01801B910B2B
:10161000A20BB30B8F3F9F4FAF4FBF4710F40E94F9
:10162000AE29C1100E94C82986E0E4EBF5E0D7019D
:1016300001900D928A95E1F7A090B5051091B6053D
:10164000C090B705B090B8050091B9051092B605E5
:101650001092B7051092B8051092B905111103C088
:10166000CC2009F44BC08091B2059091B3050E9443
:101670007C269C019091AD05992309F4D4C22531B3
:101680003105E0F19F3F19F09F5F9093AD05112365
:1016900061F00E949928111614F491E001C09FEFA7
:1016A000899F802D11248093B605CC2061F00E9483
:1016B00099281C1414F09FEF01C091E0899F802DA0
:1016C00011248093B7058091B6058823B9F09090D6
:1016D000B705992099F00E94B928882319F08093C2
:1016E000B60502C0D092B605892D0E94B92888237C
:1016F00019F08093B70502C0D092B705B11003C0AE
:10170000002309F44BC08091B0059091B1050E946F
:101710007C269C019091AE05992309F489C221355C
:101720003105E0F19F3F19F09F5F9093AE05BB201C
:1017300061F00E9477281B1414F491E001C09FEF20
:10174000899F802D11248093B805002361F00E94A9
:101750007728101614F09FEF01C091E0899F802D2B
:1017600011248093B9058091B8058823B9F0909031
:10177000B905992099F00E94B928882319F080931F
:10178000B80502C0D092B805892D0E94B9288823D7
:1017900019F08093B90502C0D092B9058091B505C2
:1017A000A8121AC08091B605882311F0181314C02E
:1017B0008091B705882311F08C110EC08091B90576
:1017C000882311F0801308C09091B805992331F057
:1017D00081E09B1104C002C081E001C080E080FD77
:1017E00015C08091B60581110FC08091B705811198
:1017F0000BC08091B805811107C081E09091B905B7
:10180000911103C080E001C081E080FD0E944D285D
:10181000AA821B83CC82BD820E8386E0F701A4EBF3
:10182000B5E001900D928A95E1F70E947B27909197
:10183000ED01891721F08093ED010E948B268091A4
:101840000502843009F08DCC83E08093E90080911B
:10185000E80082FF86CC8091E80085FF1FC00E94CF
:101860000A1A811119C000E210E0570108C08091E6
:10187000F100D5018D935D010150110969F080914E
:10188000E80085FDF4CF8091E8008B778093E80035
:101890000E940A1A882399F391E001C090E0809198
:1018A000E8008B778093E800992309F45ACC2981CA
:1018B000822F90E0FC013197E331F10508F085C1FA
:1018C000EA5AFF4F0C94B8301A828CE0F0C08A813B
:1018D000823009F49FC150F4813009F076C10E9432
:1018E0008B269B838C837D836E8371C1833041F013
:1018F000843009F06AC11B821C821D821E8267C16E
:101900004B81DE01149680E090E0242F30E0B90195
:10191000680F791F6830710508F059C1E42FE80F8E
:10192000F0E0E251FE4F50815D9301968C319105BC
:1019300071F74DC18A81823019F0853051F045C16F
:101940006B817C818D819E810E94BE300E948C279C
:101950003EC180919F0580FF03C00E94222C37C1A9
:10196000816080939F0560E08695869551C04C818B
:101970006B818A810E9443299D8353C12D813E81C1
:101980003227232732274C816B818A810E94D728F6
:101990001EC10E94FE281BC18A81823009F015C138
:1019A000283009F43FC0293009F468C08B818230A7
:1019B000F9F098F4813009F00AC18C81B8E78B9F67
:1019C000C00111246FEF70E00E94CA2F462F20E063
:1019D0006091A1058091A00522C08330E1F08430A0
:1019E00009F0F5C020E04091A2056D818C8117C0FF
:1019F0008C81882309F4B1CF80919F058160809309
:101A00009F0560E0869586950E94682C60E08C8139
:101A10000E94682CDCC08C818093A305D8C00E94F2
:101A20001B2AD5C08B818230E1F078F4813009F037
:101A3000CEC08091A205EFEF8E9FC001112468E710
:101A400070E00E94CA2F6C83C2C0833099F084304A
:101A500009F0BDC08091A0058C838091A1058D8384
:101A6000B6C080919F0580FF03C08695869504C00F
:101A700080E002C08091A3058C83A9C020919F05BE
:101A80003091A0054091A1055091A2056091A30558
:101A90007091A4058091A5059091A6050E94422C05
:101AA00096C0F0E1FA8393C082E08A8388E58B8355
:101AB0008EC00A811B811027012710278C80912C52
:101AC0005701C80188559E4F95012E193F092815C9
:101AD000390508F07CC0083522E0120730F40E9476
:101AE0001E30D50114968C9302C0F50114820F5F4D
:101AF0001F4FFFEFAF1ABF0AE4CF0A811B811027E7
:101B0000012710278C80912C5701C80188559E4FC2
:101B100095012E193F092815390508F058C00835D8
:101B200022E0120728F4D50114966C910E944230ED
:101B30000F5F1F4FBFEFAB1ABB0AE7CF0E94C7284A
:101B400046C084E08A8343C00A811B811027012795
:101B500010278C80912C5701C801889695012E1969
:101B60003F092815390598F50038E1E01E0730F4E3
:101B70000E941E30D50114968C9302C0F501148288
:101B80000F5F1F4FFFEFAF1ABF0AE6CF0A811B811D
:101B90001027012710278C80912C5701C8018896A7
:101BA00095012E193F092815390588F4003821E0E0
:101BB000120728F4D50114966C910E9442300F5FF1
:101BC0001F4FBFEFAB1ABB0AE9CF8FEF898340E20B
:101BD00050E0B70182E00E940726C3CA8091040248
:101BE000882309F4C5CAA0E1A9BD09BD09B400FE56
:101BF000FDCF8091D8008F7D8093D8008091E00048
:101C000082608093E0008091E00081FDFCCF0E9423
:101C1000DC1DAECA87E290E00E941E301B821C824F
:101C20001D828E83D4CF2B30310508F02DCD66CDAB
:101C30002B30310508F078CDB1CDA8E0B0E0E3E27B
:101C4000FEE00C94DE2FFC018481882309F4F9C5A1
:101C50007F0121E0408151816281738195810E94E1
:101C60000F2B8C01F7018581882309F470C1C8010D
:101C700097578038910508F032C1003108F077C1DC
:101C80008FEF93E00E941E30811171C138EAA32EBC
:101C9000BB24B394002379F0A114F4E0BF0609F447
:101CA00066C1C5010E941E30811101C001502FEF95
:101CB000A21AB20AEFCFCE0101962C0188E0F20100
:101CC00011928A95E9F72AE0322E85010F5F1F4FA6
:101CD000C5010E941E3089831A82882309F447C1F6
:101CE000813009F041C06501F2E0CF0ED11CC8017E
:101CF0000E941E308A83882309F439C19FEF980F10
:101D0000933060F423E0A20EB11CC6010E941E3085
:101D10008B83882309F42BC11C8229C0843031F5C0
:101D20004E0133E0830E911C02E010E056018FEF6C
:101D3000A81AB80AC6010E941E30F40181934F010F
:101D4000882309F414C18C3741F4E2E0F0E0EC0F91
:101D5000FD1FE00FF11F10820AC00F5F1F4F6501CA
:101D60000730110519F703C1580101C0560182015E
:101D7000F8012081222309F4A8CF213009F053C0B3
:101D80008181813081F46801F2E0CF0ED11CF8012D
:101D90008281893319F460E570E002C060E070E090
:101DA0000E949D1F15C0823049F46801F2E0CF0EF9
:101DB000D11CF80182810E94291F0AC0833051F48E
:101DC0006801F2E0CF0ED11CF80182810E94F61E5C
:101DD000860182C0843019F00F5F1F4F7DC0F8016B
:101DE00022810E5F1F4F80E090E030E020533109E8
:101DF0002A30310568F4389EA001399E500D112417
:101E0000C901840F951F0F5F1F4FF8012081EDCF8F
:101E1000009709F461C0EFE9FFE03197F1F700C0E6
:101E200000000197F5CFE22FF0E0E35CFD4F249036
:101E3000822F86958695869590E0FC01E35DFD4FA7
:101E400064902770712C022E02C0759467940A94D6
:101E5000E2F7F1E06F227724FC01E35EFD4F84900E
:101E6000912C022E02C0959487940A94E2F731E0F7
:101E700083229924FC01E35FFD4FC490D12C02C062
:101E8000D594C7942A95E2F781E0C822DD24611435
:101E9000710419F081EE0E94291F8114910419F038
:101EA00086EE0E94291F60E070E0822D0E949D1F37
:101EB0008114910419F086EE0E94F61E61147104DB
:101EC00019F081EE0E94F61EC114D10429F060E0E1
:101ED00070E08CE20E949D1F0F5F1F4F49CFF701FA
:101EE00081818093C80180818093C70180E28093C3
:101EF0000D011093C6010093C501C80190528115D0
:101F0000904228F4F7018681807F79F442C0C801AD
:101F100090548115904120F4F7018681807F29F447
:101F2000C8019A9581159F4118F4F801FF2706C052
:101F3000C801805A9245809760F1F801ED33F105B0
:101F400040F5E354FD4FE491E0930D0122C0F80108
:101F5000E851FC47E730F10508F03FC103C106E254
:101F600021EE41EE6AE17CE7C7010E94C92780911A
:101F70006D04877009F465C4F7018581882309F42D
:101F800060C48091C60582FF5CC482E00E949F1DF0
:101F900058C4F801E851FC47E730F10508F4E2C005
:101FA0001092BC05C8019057839708F003C184E0E4
:101FB00090E00E942C309093C6058093C505F801EF
:101FC000E150F047E232F10520F4E759FF4F0C945D
:101FD000B8308091C5058160ACC08091C60588602D
:101FE000B4C08091C5058260A4C08091C50520C0A1
:101FF0008091C50588609DC08091C6051EC08091F6
:10200000C6058260A2C08091C505806192C08091A2
:10201000C50580628EC08091C50580648AC00E941B
:10202000DC1D8091C505806884C08091C5058860ED
:1020300084607FC08091C6058260816086C0809187
:10204000C5058E7F76C08091C605877F7EC0809152
:10205000C5058D7F6EC08091C50520C08091C505E6
:10206000877F67C08091C6051EC08091C6058D7FA1
:102070006CC08091C5058F7E5CC08091C5058F7D49
:1020800058C08091C5058F7B54C00E94DC1D809193
:10209000C5058F774EC08091C505877F8B7F49C06E
:1020A0008091C6058D7F8E7F50C08091C50582FBD3
:1020B000222720F991E0922790FB82F990FB83F987
:1020C00038C08091C605982F909591708E7F892B8E
:1020D00090FB81F93AC08091C50586FB222720F943
:1020E00091E0922790FB86F924C00E94DC1D80912C
:1020F000C50587FB222720F991E0922790FB87F9FD
:1021000018C061E001C060E08EE090E00E944230C3
:102110001EC08091C50584FB222720F991E09227FB
:1021200090FB84F906C08091C505982F909590FB8F
:1021300080F98093C5050BC08091C60583FB2227DB
:1021400020F991E0922790FB83F98093C605609176
:10215000C5057091C60584E090E00E9460300E9441
:10216000DC1D05CFE557FF4F0C94B83007E225EE94
:1021700045EE6BE17CE7F8CE06E221EE40EE68E149
:102180007CE7F2CE07E225EE44EE69E17CE7ECCE97
:1021900006E221EE42EE6CE17CE7E6CE07E225EEB8
:1021A00046EE6DE17CE7E0CE08E221E045EE6EE12F
:1021B0007CE7DACE0631FCE71F0709F09AC0809170
:1021C00098048A7A91E009F490E09093F6018111E5
:1021D00012C089E20E94FA260BC006312CE71207D2
:1021E00061F48091F6018111F2C289E20E94CC264D
:1021F0000E94831ABCCE85E3EDCF80919804827251
:10220000F801E052F847E531F10508F064C0EE56F8
:10221000FF4F0C94B83080919F0580FF1CC0282F81
:102220002E7F20939F053091A0054091A1055091EC
:10223000A2056091A3057091A4058091A5059091D8
:10224000A6050E94422C8091FC0481608093FC04CE
:102250000E94F5298CCE816080939F0561E0869570
:10226000869536C041E95CE26CE97CE22CC04CE921
:102270005CE261E97CE227C04EE05CE268E17CE27E
:1022800022C048E15CE26EE07CE21DC044EF5BE20C
:1022900061E07CE218C041E05CE264EF7BE213C0E5
:1022A0004AED5BE267EE7BE20EC047EE5BE26AED71
:1022B0007BE209C043ED55E26DEE75E204C04DEEE0
:1022C00055E263ED75E20E94EE2951CE61E081E0B6
:1022D0000E94682C4CCE0737FCE71F0711F481E001
:1022E00005C008372CE7120719F582E00E94921DFD
:1022F00008C007373CE7130709F06BC281E00E9472
:10230000CD1D43E062E081E00E94701D30CE0330BD
:102310002CE7120709F480C208F062C201158CE7AD
:10232000180709F46BC201309CE7190709F47AC257
:10233000F701858100811181882349F0C8010E943D
:10234000381BD82E682FC8010E94381D04C0C80150
:102350000E94041DD82EB8018D2D0E94A2220E9439
:10236000B022D82E192FA82EF7010581C680C2945D
:102370009FE0C92280916D04877001F10023F1F084
:10238000812F807F803469F080E28D0D8830B0F03D
:10239000812F807E803229F4F1E0FD1578F4CC2085
:1023A00069F08091C60582FF09C082E00E949F1DEE
:1023B00080916D048770BB24B3948111B12C912E50
:1023C00092948FE09822892D90E08C30910508F04E
:1023D000D6C1FC01E955FF4F0C94B830812F807FA6
:1023E0001F70882311F01295107F0023B9F011237C
:1023F00009F4B3C180E28D0D883010F0A11006C041
:1024000090919804192B1093980405C090916F0433
:10241000192B10936F040E94831A9FC18D2D0E9467
:10242000F61E112309F4ABC180E28D0D883088F1CE
:10243000AA2079F1109590916F04192310936F04DD
:102440002BC0812F807F1F70803211F01295107F7A
:102450008D2DAA2029F021E0A21609F44CC057C006
:102460008091C60582FD1BC0002369F0112339F05D
:1024700090919804192B109398040E94831A80E07D
:102480000E94291F7CC180E00E94F61E112309F4DE
:1024900076C1812F0E94CD230E94831A70C1002330
:1024A00081F0CC20C1F131E0C31269C190916E047A
:1024B000812F8923181709F462C1192B10936E0418
:1024C0005EC1C1105CC1812F0E940D1E80916E04FF
:1024D000912F982329F0912F9095892380936E0452
:1024E0002091F701812F822309F449C110952123FE
:1024F0002093F70144C1002329F085E08C1508F4EE
:102500003EC109C094E09C1508F439C115C00023F0
:1025100031F0C11022C1812F0E94141E30C1CC2085
:1025200059F0893309F028C1EFEFF7EE23E0E150CD
:10253000F0402040E1F71EC1812F0E940D1E1FC1F7
:10254000812F86958695837019F0813061F017C1CF
:10255000002321F08D2D912F937002C080E090E038
:102560000E94562712C1002321F08D2D912F9370C8
:1025700002C080E090E00E94312707C1602F8D2DBE
:102580000E941E1E02C1812F8370A9F50111FBC09C
:102590004D2D429546954770440F440F8D2D8F70F9
:1025A00090E09C01042E01C0220F0A94EAF7D4FEA9
:1025B00008C08FE090E001C0880F4A95EAF7809547
:1025C00001C080E0169516951370123069F088F4FA
:1025D0009091B201113019F0822B892302C0922B05
:1025E000892B0E94D91DCFC0822B9091B2018927DF
:1025F000F8CF822BF6CF002319F0812F817001C014
:102600008695882309F4BFC04D2D429546954770A5
:10261000440F440F8D2D8F7090E09C01042E01C05B
:10262000220F0A94EAF7D4FE08C08FE090E001C0C0
:10263000880F4A95EAF7809501C080E016951695B7
:102640001370123059F078F49091BD01113019F0E7
:10265000822B892309C0922B892B06C0822B909153
:10266000BD01892701C0822B0E946D1D8CC01F7087
:10267000002339F0812F0E94CD1D8D2D0E94141E44
:1026800082C08D2D0E940D1E812F0E94921D7BC045
:102690008D2D32EFA31681F13A1538F090EFA9167F
:1026A00059F0E1EFAE1619F154C0F3EFAF1659F13E
:1026B00024EFA216C1F04DC0002381F034E03C1598
:1026C00008F45DC01F7181E090E0012E01C0880F09
:1026D0000A94EAF79091BD01892720C085E08C1506
:1026E00008F44DC0EFCF8091C60582FD1AC00023CB
:1026F00029F0812F8F7120C00023D9F3812F8F7192
:102700000E94921D3CC0002341F01F7181E0012E08
:1027100001C0880F0A94EAF701C080E00E946D1D95
:102720002EC0002361F0812F8F7198E0899F900166
:102730001124236020936D040E94CD1D20C081E0F0
:102740000E949F1DE1E0EC15D0F482E00E949F1DE5
:1027500016C0002321F0CC2061F28D2D91CECC202B
:1027600069F2893349F4FFEF27EE33E0F15020405E
:102770003040E1F700C000008D2D0E94F61E88EF6A
:10278000890D843010F40E947B27BB20A9F0809132
:102790006D0480FD11C0F70115828695869586959A
:1027A0000E94CD1DC7010E941D0E80916D0486956B
:1027B000869586950E94921D20E0F7014081518107
:1027C00062817381848195810E940F2B3AC085E3D9
:1027D0000DCD08378CE7180709F099CD82E08FCD31
:1027E0000B35ECE71E0749F10C35FCE71F07E9F054
:1027F0000A351C4709F09CCD81E020C00E94DC1DF9
:102800003FEF84E39CE0315080409040E1F700C00E
:1028100000000E944526ABCB6FEF7FEF80E090E099
:102820000E9460300E94C42BA2CB8091C60582FB1F
:10283000882780F991E0892701C080E00E94B61DB9
:1028400077CD2896E2E10C94FA2F8091070287FF5A
:1028500011C08091E80082FD05C0809105028111C0
:10286000F8CF11C08091E8008B770BC080910502F2
:10287000882349F08091E80080FFF8CF8091E8003C
:102880008E778093E8000895982F973068F590939D
:10289000E900981739F07091EC002091ED0050910B
:1028A000F00003C0242F762F50E021FD02C09F5F6F
:1028B000ECCF3091EB003E7F3093EB003091ED0098
:1028C0003D7F3093ED003091EB0031603093EB00B1
:1028D0007093EC002093ED005093F0002091EE00F7
:1028E00027FDE5CF80E008958F708093E90081E0B7
:1028F000089520910D0230910E022617370748F0F7
:102900006115710539F42091E8002E772093E800D5
:1029100001C0B901FC0120E06115710579F18091D8
:1029200005028823F1F18530F1F18091E80083FD03
:102930003CC08091E80082FD2EC08091E80080FFBD
:10294000EBCF2091F3008091F20090E0922B611583
:10295000710551F08830910538F421912093F100F0
:10296000615071090196F3CF21E0089709F020E04A
:102970008091E8008E778093E800CECF2111CFCFF1
:102980000AC080910502882361F0853061F0809152
:10299000E80083FD0AC08091E80082FFF2CF80E06A
:1029A000089582E0089583E0089581E0089543E06A
:1029B00050E0BC0184E00E940726089546E050E004
:1029C000BC0184E00E940726089540E250E0BC016B
:1029D00084E00E9407260895CF93DF93EC0148E03E
:1029E00050E0BC0181E00E94072688E0FE01ABEFC9
:1029F000B1E001900D928A95E1F7DF91CF910895B2
:102A0000CF93DF93682F8A3011F481E003C08D30BB
:102A100021F480E00E9471296FC080911804909188
:102A2000190426E0FC01A2E1B4E001900D922A9580
:102A3000E1F7603E30F026E0FC0111922A95E9F7BB
:102A40000AC0F6E06F9FB00111246A557B4F46E043
:102A500050E00E941530C0911804D091190446E04E
:102A600050E0BE0182E194E00E94FC30892B49F1E4
:102A70009E0122513240A90185E0569547958A95DD
:102A8000E1F781E090E0BC0102C0660F771F4A9534
:102A9000E2F74091100250911102462B572B2B5F09
:102AA0003F4F65E0369527956A95E1F702C0880F9C
:102AB000991F2A95E2F7842B952B9093110280930E
:102AC00010029E012C50324040910F02642F70E0A2
:102AD000C9010E94CA2F481B463010F4240F311D33
:102AE000211582E0380710F020E030E02E5E3D4FE7
:102AF0003093190420931804DF91CF910895CF9358
:102B0000DF93EC01FE018491882321F00E940015DF
:102B10002196F8CFDF91CF9108950E947F1581E033
:102B20000E9471290895FC01AC014C5F5F4F8FEF4B
:102B300091E32191822728E030E087FF03C0880FCE
:102B4000892701C0880F21503109B9F7E417F5072B
:102B500081F70895AAE2B0E0E0EBF5E10C94ED2FE7
:102B6000E7E0F2E08FE092E02091F10021938E17F0
:102B70009F07D1F780910802833009F463C030F4D5
:102B8000813071F0823009F49DC0B4C08A3009F4FC
:102B900089C08B3009F46EC0893009F0ABC020C009
:102BA00080910702813A09F0A5C08091E800877FF3
:102BB0008093E80080910B0290910C02892B21F404
:102BC00068E08BEF91E003C060E080E090E070E0AF
:102BD0000E9479148091E8008B778093E8008AC086
:102BE00080910702813209F085C080910B0290919B
:102BF0000C02009719F0029709F07CC08091E80060
:102C0000877F8093E8008091E80082FD05C0809175
:102C100005028111F8CF6EC02091F3008091F2007F
:102C200090E0922B029731F48091F100813011F005
:102C3000863021F48091F1008093FA018091E800C0
:102C40008B7754C080910702813A09F053C080917C
:102C50000B0290910C02892B09F04CC08091E80086
:102C6000877F8093E8008091E80080FFFCCF80910F
:102C7000150137C0809107028132E1F580910B0286
:102C800090910C02892BB1F58091E800877F8093A9
:102C9000E8000E94251480910902809315010E948A
:102CA000DC1D28C080910702813221F58091E80067
:102CB000877F8093E8000E94251480910A02809308
:102CC000F90118C080910702813AA1F48091E800CF
:102CD000877F8093E8008091E80080FFFCCF80919F
:102CE000F9018093F1008091E8008E778093E800ED
:102CF0000E9425148091E80083FFDFC180910702C4
:102D000090910802492F50E04A30510508F0D5C192
:102D1000FA01ED54FF4F0C94B830803821F082381E
:102D200009F0CBC108C0809103029091040299235D
:102D300089F082600FC080910B028F70873008F09D
:102D4000BCC18093E9008091EB0085FB882780F966
:102D50001092E9009091E800977F9093E8008093AB
:102D6000F1001092F10070C1282F2D7F09F0A5C14C
:102D7000882319F0823061F0A0C18091090281306E
:102D800009F09BC1933009F080E0809304022EC0CB
:102D90008091090281112AC080910B028F702FEF60
:102DA000280F263008F089C18093E9002091EB00BC
:102DB00020FF1CC0933021F48091EB00806214C08E
:102DC0009091EB0090619093EB0021E030E0A9013D
:102DD00002C0440F551F8A95E2F74093EA00109213
:102DE000EA008091EB0088608093EB001092E9008C
:102DF0008091E800877F8093E8000E9425145DC1E0
:102E000081115BC1109109021F778091E3008078E6
:102E1000812B8093E3008091E800877F8093E80016
:102E20000E9425148091E80080FFFCCF8091E30090
:102E300080688093E300111102C082E001C083E04A
:102E4000809305023AC18058823008F036C1209143
:102E5000090230910A022C3D53E0350779F583E0F1
:102E60008A838AE289834FB7F894DE01139620E0C3
:102E70003EE051E2E32FF0E050935700E49120FF51
:102E800003C0E295EF703F5FEF708E2F90E0EA3065
:102E900010F0C79601C0C0968D939D932F5F24318B
:102EA00049F74FBF8091E800877F8093E8006AE28E
:102EB00070E0CE0101960E947914B4C080910B029B
:102EC00090910C02432F552743305105A9F068F427
:102ED0004130510509F400C14230510509F0EDC0FF
:102EE0008BE590E0E5E1F4E04BC04132510529F17A
:102EF0004232510589F1E1C0C9019927813091051C
:102F0000A1F058F0029709F0D8C0E2E8F4E0E491AB
:102F10008E2F90E0E2E8F4E030C0E2EAF4E0E491E1
:102F20008E2F90E0E2EAF4E028C0E0E9F4E0E491DA
:102F30008E2F90E0E0E9F4E020C08330910508F0A6
:102F4000BCC0880F991FFC01E25AFE4F0190F0812E
:102F5000E02D89E090E014C08330910508F0ADC009
:102F6000FC01EE0FFF1FE85AFE4F0190F081E02DAB
:102F7000DC01AB5ABE4F8C9190E0009709F49DC0E4
:102F80002091E800277F2093E80020910D023091E6
:102F90000E022817390708F4C90140E0009789F1AB
:102FA00020910502222309F43DC02530D9F120915A
:102FB000E80023FD37C02091E80022FD2FC02091BA
:102FC000E80020FFEBCF4091F3002091F20030E0C9
:102FD000342B009759F02830310540F44491409348
:102FE000F100319601972F5F3F4FF3CF41E028303A
:102FF000310509F040E02091E8002E772093E800A9
:10300000CDCF4111CDCF0AC080910502882351F068
:10301000853041F08091E80083FD04C08091E80094
:1030200082FFF2CF8091E8008B778093E80045C063
:10303000803809F042C08091E800877F8093E800E3
:10304000809106028093F1008091E8008E77D3CEC4
:10305000811133C08091090290910A029927029749
:1030600064F58091E800877F8093E8001091090261
:10307000109306020E942514111106C08091E300EE
:1030800087FD02C081E001C084E08093050242E038
:1030900061EC81E00E94441442E261EC84E00E9411
:1030A000441442E261EC82E00E94441442E260EC8B
:1030B00083E00E944414809105028091E80083FF20
:1030C00010C08091E800877F8093E8008091EB003A
:1030D00080628093EB0005C082E190E0E0E7F4E0DD
:1030E0004FCFAA96E3E00C9409301F920F920FB6CF
:1030F0000F9211242F933F934F935F936F937F937E
:103100008F939F93AF93BF93CF93DF93EF93FF93EF
:10311000C091E900CF708091EC00D82FD17080FD74
:10312000D0E81092E9008091F000877F8093F00052
:1031300078940E94AA151092E9008091F0008860AE
:103140008093F000CD2BCF70C093E900FF91EF91F9
:10315000DF91CF91BF91AF919F918F917F916F91AF
:103160005F914F913F912F910F900FBE0F901F9045
:103170001895E8EDF0E080818E7F80831092E20068
:103180001092DA001092E100A0EEB0E08C91816024
:103190008C9380818F77808319BCA7EDB0E08C91F0
:1031A0008E7F8C9380818F7E80831092F8010895AA
:1031B000A0E0B0E0EEEDF8E10C94E82FC8EDD0E02F
:1031C00088818F7E8883E7EDF0E080818160808355
:1031D00084E082BF81E08093F80188818E7F8883BC
:1031E00002EE10E0F80110821092DA0081EEC82E93
:1031F000D12CF601108288818F778883888180683E
:10320000888388818F7D888319BC10920502109273
:103210000602109204021092030290EEE92EF12CA5
:10322000F70180818B7F808388818160888342E081
:1032300060E080E00E944414F60180818E7F8083EC
:10324000F801808181608083808188608083F701BC
:1032500080818E7F8083888180618883CDB7DEB74F
:10326000E8E00C9404301F920F920FB60F921124D5
:103270002F933F934F935F936F937F938F939F937E
:10328000AF93BF93EF93FF938091E10082FF09C05A
:103290008091E20082FF05C08091E1008B7F8093E6
:1032A000E1008091DA0080FF2AC08091D80080FF81
:1032B00026C08091DA008E7F8093DA008091D90059
:1032C00080FF18C080E189BD82E189BD09B400FE9C
:1032D000FDCF81E0809305028091F80181110FC03C
:1032E0000E94B9180E94D8188091E20084608093EF
:1032F000E20005C019BC109205021092F8018091FD
:10330000E10080FF17C08091E20080FF13C0809130
:10331000E2008E7F8093E2008091E20080618093E2
:10332000E2008091D80080628093D80019BC85E0CB
:10333000809305028091E10084FF30C08091E2001B
:1033400084FF2CC080E189BD82E189BD09B400FE03
:10335000FDCF8091D8008F7D8093D8008091E100CF
:103360008F7E8093E1008091E2008F7E8093E20067
:103370008091E20081608093E200809106028823C0
:1033800011F084E007C08091E30087FD02C081E076
:1033900001C083E080930502809105028091E100E5
:1033A00083FF27C08091E20083FF23C08091E1006A
:1033B000877F8093E10082E08093050210920602ED
:1033C0008091E1008E7F8093E1008091E2008E7F0A
:1033D0008093E2008091E20080618093E20042E00D
:1033E00060E080E00E9444148091F0008860809347
:1033F000F000FF91EF91BF91AF919F918F917F91DD
:103400006F915F914F913F912F910F900FBE0F9051
:103410001F9018952091E4003091E50095E64091C9
:10342000EC00842F817040FF23C08091E80080FD74
:103430001DC080910502882399F0853099F0809114
:10344000EB0085FD11C04091E4005091E500241788
:10345000350729F3915011F09A01E1CF84E00895E6
:1034600082E0089583E0089581E0089580E0089562
:103470004091E80042FFDDCF08959091980480913B
:103480006F04892B90916E049923E1F0892B909120
:103490001501992341F09091C50597FF04C09EE165
:1034A0002CED34E003C096E024ED34E0F90120E097
:1034B000915028F031913323D9F32F5FF9CF2111A7
:1034C00010926E04089520916C049091330457E09B
:1034D0002917A9F030E0529FF001539FF00D1124FD
:1034E000EC5CFB4F7181761306C07081781303C0CA
:1034F0007581741306C02F5F3F4F2770E9CF80E0BE
:10350000089581E0089580911501882351F18091FB
:10351000C50587FF26C00E943D1A8093DB0440E268
:1035200050E060E774E08AED94E00E94FC30892B63
:10353000D9F180E2EAEDF4E0A0E7B4E001900D9269
:103540008A95E1F7E091C105F091C205309761F1EC
:1035500086E08093DA040480F581E02D8AED94E022
:1035600022C00E943D1A8093D20448E050E060E9F6
:1035700074E082ED94E00E94FC30892BA9F088E091
:10358000E2EDF4E0A0E9B4E001900D928A95E1F754
:10359000E091C105F091C205309731F00280F381CE
:1035A000E02D82ED94E00995089580916C0490914E
:1035B0003304891719F08F5F8770FBCF0895CF937D
:1035C000DF938091320482958F7009F04EC0809114
:1035D0003104882309F449C080916C04409133047C
:1035E00050912D0460912C04C0912E04D0912F0491
:1035F00077E08417D1F190E0789FF001799FF00D8A
:103600001124DF01AC5CBB4F14962C91149722233C
:1036100049F111962C911197251324C02C91261352
:1036200021C015962C91159721111CC012962D9131
:103630003C9113972C1B3D0B283C310598F480914D
:1036400032048F70806180933204E65CFB4F80818E
:103650008F70806180838CE294E00E941D0E0E9436
:10366000D51A03C001968770C4CFDF91CF9108951A
:10367000CF92DF92FF920F931F93CF93DF936C0152
:103680000091BD018091B201082BC3E0D0E010E0B1
:10369000C8010C2E02C0959587950A94E2F780FD2B
:1036A00004C02197A8F7F12C09C0FC2EB6018C2F7D
:1036B0000E94A2220E94B022019799F38F2DDF91E0
:1036C000CF911F910F91FF90DF90CF900895CF93EE
:1036D000DF93EC010E94381BBE010E94A2220E94CF
:1036E000B022DF91CF910895FC0124812223D9F0EB
:1036F000808191810E94671B92959F70963079F02E
:1037000010F4925001C09A50923068F4803F69F0F2
:1037100018F4883E40F409C0843F29F406C0883E6E
:1037200020F0813F11F080E0089581E00895A4E148
:10373000B0E0EDE9FBE10C94E42F8C0186E0F801A8
:10374000DE011F9601900D928A95E1F7F8018481C0
:10375000E5809CE2892E94E0992E9091300491119D
:1037600020C0882309F449C1EE2009F442C0C801F1
:103770000E94741BF82E8823E1F187E0F801D40140
:1037800001900D928A95E1F780913004813031F4F7
:1037900080912C0490912D040E94671B0E94DF1AD7
:1037A0002EC1F801D080C180A280B380F090310496
:1037B00020912E0430912F04FF2009F4EBC0A501C5
:1037C000421B530B483C510508F0A1C0882309F463
:1037D00016C180913204282F207F90912D0422233E
:1037E00061F09C1509F460C0C8010E94741B81112E
:1037F00067C0C8010E941D0E00C19C1113C09091AA
:103800002C049D110FC0E1100DC08F70806180935A
:1038100032048CE294E00E941D0E80913204F80183
:103820008683E9C0E1103AC040E06C2D8D2D0E94E6
:10383000631A40E06C2D8D2D0E94631AE82E8111D1
:10384000DAC0DF86C88A8F8598890E94671B292F76
:1038500022952F70243020F49F70223028F009C068
:103860002A50223080F014C0992349F0811107C0FA
:1038700013C0992321F0F8019681907F69F0805E52
:10388000883030F409C0803F38F0815F833020F009
:10389000C8010E941D0EEF2CFE2CB1C08091320495
:1038A000816080933204A7C090912C049D119CCF1D
:1038B000E1109ACFF8018683C8010E941D0E7EC0D8
:1038C000EE2009F496CF20913204822F82958F70DA
:1038D00090E002978CF080912C0490912D049987B0
:1038E0008887BB86AA86809130048C871D862E87A8
:1038F000CE0108960E941D0E87E0F801ACE2B4E00C
:1039000001900D928A95E1F70E94DF1A76C090919E
:103910003204292F207F51F48CE294E00E941D0E86
:1039200087E0F40111928A95E9F765C0882309F4CC
:1039300066C080912D048C110CC080912C048D11D7
:1039400008C0E11006C0F8019683C8010E941D0E50
:103950004CC0C8010E94741B882309F44ACFEE2092
:1039600009F447CF20913204822F82958F7090E026
:10397000029714F280912C0490912D049A838983EC
:10398000BC82AB82809130048D831E822F83CE0156
:103990000196B0CFA21AB30AF8ECAF16B10428F51D
:1039A000882359F1FE2CEE2009F423CF80912D04B9
:1039B000C8120DC080912C048D1109C087E0F80158
:1039C000ACE2B4E001900D928A95E1F718C0C8010D
:1039D0000E94741B811190CF80913204816080938A
:1039E0003204C8010E941D0E0AC087E0F401119242
:1039F0008A95E9F704C0F12C02C0FF24F3948F2DBF
:103A00006496ECE00C940030292F983078F58630DD
:103A100068F590E036E0239F800D911D1124682FFA
:103A2000677023E0969587952A95E1F7FC01EE0FE4
:103A3000FF1FE80FF91FE65EFB4F40E050E080E01B
:103A4000219130E0062E02C0369527950A94E2F7C0
:103A500021703327042E01C0220F0A94EAF7822B2B
:103A60004F5F5F4F4330510559F7089580E0089547
:103A7000292F983088F5863078F590E036E0239F3E
:103A8000800D911D1124282F277051E001C0550F82
:103A90002A95EAF723E0969587952A95E1F7FC01A8
:103AA000EE0FFF1FE80FF91FE65EFB4F20E030E04E
:103AB00070E04081CB01022E02C0969587950A9452
:103AC000E2F78170819584278523842781932F5F76
:103AD0003F4F2330310569F708958093BD01089564
:103AE0009091BD0121E030E0F90101C0EE0F8A950F
:103AF000EAF7D90102C0AA0FBB1F6A95E2F7BD0120
:103B00006E2B01C0220F4A95EAF7892F862368138E
:103B100003C0892F822B03C02095822F89230E9406
:103B20006D1D089521E030E001C0220F8A95EAF76B
:103B300020958091BD0182230E946D1D0895909172
:103B40006D048095892380936D04282F277069F474
:103B5000981759F09091C60592FF07C086958695F3
:103B600086950E94921D10926D0408959091C6054D
:103B700092FB222720F9281779F080FB92F9909385
:103B8000C6056091C5057091C60584E090E00E946D
:103B9000603082E00E949F1D089521E030E001C066
:103BA000220F8A95EAF78091BD01822B0E946D1D3C
:103BB00008958093B20108951092980480911501A0
:103BC000882341F08091C50587FF04C08EE1ECEDAC
:103BD000F4E003C086E0E4EDF4E0DF011D928A9595
:103BE000E9F780E090E00E94562780E090E00E9494
:103BF000312710926F040E94831AE4EBF5E086E00F
:103C0000DF011D928A95E9F71092AD051092AE057D
:103C10001092AF050E944D280895882321F00E943C
:103C2000CD230E94831A0895882339F09091980437
:103C3000892B809398040E94831A0895662309F4BF
:103C40005CC08D3C21F40E949928819504C08E3C73
:103C500029F40E9499288093B705C5C08F3C21F4B0
:103C60000E949928819504C0803D29F40E949928DA
:103C70008093B605B8C0893D19F40E94772805C025
:103C80008A3D31F40E94772881958093B805ABC0B6
:103C90008B3D21F40E947728819504C08C3D29F446
:103CA0000E9477288093B9059EC09FE2980F9830B4
:103CB00078F421E030E0A90102C0440F551F9A9525
:103CC000E2F7CA019091B505892B8093B5058BC0A9
:103CD0008D3D21F48091AF0581600CC08E3D21F4B3
:103CE0008091AF05826006C08F3D09F07CC0809155
:103CF000AF0584608093AF0576C08D3C39F4909118
:103D0000B70597FF35C01092B70559C08E3C29F40E
:103D10009091B7051916BCF32BC09091B6058F3C56
:103D200029F497FF25C01092B60549C0803D19F4CB
:103D30001916CCF31DC09091B805893D29F41916C8
:103D4000BCF41092B8053BC08A3D19F497FF10C02F
:103D5000F8CF8B3D39F49091B90597FF09C01092C7
:103D6000B9052DC08C3D21F49091B9051916BCF30D
:103D70009FE2980F983080F421E030E0A90102C062
:103D8000440F551F9A95E2F7CA0180959091B505A9
:103D900089238093B50513C08D3D21F48091AF0533
:103DA0008E7F0BC08E3D21F48091AF058D7F05C0C5
:103DB0008F3D29F48091AF058B7F8093AF05809173
:103DC000B605811106C08091B705811102C010921D
:103DD000AD058091B805811106C08091B9058111AA
:103DE00002C01092AE050E944D280895882381F1EB
:103DF0009CEF980F913A18F40E94CC260DC090E2E7
:103E0000980F983060F4877091E001C0990F8A95FF
:103E1000EAF7892F0E94CD230E94831A08959BE51B
:103E2000980F933028F480E090E00E945627089580
:103E300098E5980F9B3128F480E090E00E943127AC
:103E4000089593E3980F933118F460E00E941E1ECA
:103E50000895CF93882309F46EC0C82F8CEF8C0F80
:103E6000813AA0F5809115018823E1F08091C50584
:103E700087FF18C0EC2FE695E695E695F0E0E65250
:103E8000FB4F8281282F30E04C2F477081E090E07B
:103E900002C0880F991F4A95E2F782239323892B4A
:103EA00061F410C0E4EDF4E08AED94E02191C217D2
:103EB00021F08E179F07D1F705C08C2F0E94CC26CA
:103EC0000E94831A8C2F0E94FA2610C080E28C0F69
:103ED000883078F4C77081E090E001C0880FCA95FF
:103EE000EAF790919804892B809398040E94831A92
:103EF00022C0EBE5EC0FE33040F4F0E0EC59FE4F6C
:103F0000808190E00E94562716C0E8E5EC0FEB3167
:103F100050F4F0E0EE0FFF1FE959FE4F80819181D0
:103F20000E94312708C083E38C0F833120F461E0C5
:103F30008C2F0E941E1ECF9108951F93CF93DF9365
:103F4000182FEB010E94291F209741F08FE99FE075
:103F50000197F1F700C000002197F6CF812F0E9452
:103F6000F61EDF91CF911F91089580E00895909102
:103F7000C50592FF10C041E0282F2471243009F0BC
:103F800040E031E0282F2871283009F030E0431755
:103F900011F02CE0822793FF10C041E0282F2471FC
:103FA000243109F040E031E0282F2871283109F050
:103FB00030E0431711F02CE082273091C60530FF26
:103FC00010C051E0282F2171213009F050E041E06C
:103FD000282F2871283009F040E0541711F029E00B
:103FE000822731FF10C041E0282F2171213109F0D3
:103FF00040E031E0282F2871283109F030E04317E4
:1040000011F029E0822794FD877E0895823891057A
:1040100069F1B0F48133910509F475C048F489322F
:10402000910509F467C08A32910509F471C00895B9
:104030008533910509F459C089339105B9F0089584
:10404000833E910589F138F4803E9105D1F0823E9E
:10405000910529F10895863E9105C9F1873E9105A4
:10406000D9F1843E910509F06CC027C02091C505A7
:1040700020FD57C021FD55C02091C60523FD5BC022
:1040800008958091C50580FD48C08091C60580FFD8
:1040900048C08091C50584FD46C083EE51C0809123
:1040A000C50582FF3CC0F5CF8091C50582FD37C0B4
:1040B0008091C60580FD35C0ECCF8091C60581FF9B
:1040C00036C08091C50584FD2EC087EE39C0809131
:1040D000C50583FF2AC0F5CF8091C50583FD25C0A6
:1040E0008091C60581FD23C0ECCF8091C50585FD7B
:1040F00022C01FC08091C50585FD1BC08091C605EB
:1041000083FF19C00AC08091C50586FD16C017C07F
:104110008091C50586FD13C010C089E311C082EEF1
:104120000FC080EE0DC080E00BC086EE09C084EEAB
:1041300007C085E305C089E203C08AE201C081E3CC
:1041400090E00895A0E0B0E0E8EAF0E20C94E62FF9
:104150007C015B016A018091D1048A3018F001E092
:1041600010E002C00AE010E0C1E0D0E0B501C701F4
:10417000F6010995811115C021960C171D0794F0C1
:10418000CC9F9001CD9F300D300D112480E090E048
:1041900045E34A95F1F70000019682179307C1F7AE
:1041A000E5CF81E0CDB7DEB7EAE00C940230A0E0C5
:1041B000B0E0EDEDF0E20C94E42FFB018080918003
:1041C000A280B3809FB7F894C090C805D090C9056D
:1041D000E090CA05F090CB059FBFC818D908EA083F
:1041E000FB08F4E6CF16D104E104F10410F44423F3
:1041F00041F17B01C82F880FDD0B01151105A9F0D6
:10420000FE0183E0EE0FFF1F8A95E1F7EA5EFE4FA5
:10421000818192818F549B4F408150E00417150794
:1042200008F4A801B9010E940931CE010E944F2F64
:10423000882341F00E948B26F7016083718382837B
:10424000938381E0CDB7DEB7ECE00C940030ABE0B7
:10425000B0E0EDE2F1E20C94EC2F88E0EFE9F5E05C
:10426000DE01119601900D928A95E1F78091FA0492
:104270009091FB04A091FC0489879A87AB8741E069
:104280008B85811101C040E00BE010E09E012F5FA3
:104290003F4F6DEC74E084E00E94D72081111092B2
:1042A000FC042B96E4E00C9408300F931F93CF93FB
:1042B000DF93EC0144E050E066EB74E00E94FC30D8
:1042C00041E0892B09F440E004E010E09E016DEA32
:1042D00074E082E00E94D720DF91CF911F910F916F
:1042E0000895EF92FF921F93CF93DF9300D000D0F9
:1042F0001F92CDB7DEB77B0180E090E00E944F2F88
:10430000882309F463C04091190150E0411551051B
:1043100011F041E050E060911A0170911B016F545F
:104320007B4FCE0105960E9409314091A90450911E
:10433000AA046091AB047091AC042FB7F8948091FB
:10434000C8059091C905A091CA05B091CB052FBFB2
:10435000841B950BA60BB70B84369105A105B105FF
:1043600038F482EB94E00E9493159D81891781F1C6
:1043700081E090E00E944F2F182F882391F0409108
:10438000210150E04530510510F044E050E06091CB
:104390002201709123016F547B4FCE0101960E9440
:1043A000093182EB94E00E94931591E02D8128134E
:1043B00090E0192341F10E948B266093A904709329
:1043C000AA048093AB049093AC040FC010E001C02A
:1043D00011E08091B2049091B304A091B404B09123
:1043E000B50489839A83AB83BC83112361F08981EF
:1043F0009A81AB81BC818093A5049093A604A0937D
:10440000A704B093A8048091A5049091A604A0915C
:10441000A704B091A804F70180839183A283B3839A
:10442000812F0F900F900F900F900F90DF91CF91F1
:104430001F91FF90EF900895F894E82FE295EF70A8
:10444000F0E031A1282F2F7081E090E001C0880FAB
:104450002A95EAF7982F9095932391A392A1892BFF
:1044600082A3789408950F931F938091BD058823AC
:1044700019F00E948B260EC00E948B260091A40189
:104480001091A5012091A6013091A701600F711F25
:10449000821F931F1F910F910895A4E0B0E0E3E500
:1044A000F2E20C94EE2F4091C9045091CA0460913D
:1044B000CB047091CC042FB7F8948091C8059091EB
:1044C000C905A091CA05B091CB052FBF841B950BE0
:1044D000A60BB70B84369105A105B10570F10E94BA
:1044E0003322DC01CB010296A11DB11D89839A8381
:1044F000AB83BC8380912F01909130018F549B4FEF
:1045000040912E0150E04530510510F044E050E05C
:10451000BE016F5F7F4F0E94093183E090E00E94EF
:104520004F2F882359F00E948B266093C904709303
:10453000CA048093CB049093CC0481E02496E2E0FB
:104540000C940A30783048F4663038F4843028F41B
:10455000462F672F0E944329089580E090E0089538
:104560001F93CF93DF930E940620EC01C11580E5D5
:10457000D807E8F5C11590E4D90708F0A8C0C03EF7
:10458000D10530F5CD3CD10508F094C0C83AD1052D
:1045900078F4C53AD10508F083C0C130D10509F4DB
:1045A0007CC008F4F2C0C430D10508F0F1C0EDC001
:1045B000C33CD10508F0E9C0C85AD0E0CC0FDD1FDC
:1045C000C959DE4F0990D881C02DCE019464E1C055
:1045D000C11580E2D80708F0CBC0C11591E0D9071A
:1045E00008F06BC0C83ED10508F4D2C0CEC0C036BA
:1045F00082E5D80728F5C03492E5D90708F079C0DC
:10460000C03282E5D80708F06CC0C11592E5D90721
:1046100008F481C04C2F4695469580E2489FA00142
:104620001124C37021E030E0C90102C0880F991F36
:10463000CA95E2F7EA01C82BD92BCE019D68A9C023
:10464000C03A82E5D807B8F48C2F8F71C03892E554
:10465000D90708F07BC08695869590E2899F9001E6
:104660001124C37081E090E002C0880F991FCA95A1
:10467000E2F79A6868C0C03C82E5D80708F46DC0CC
:10468000C03E92E5D90708F080C0CF71DD27DC2F4E
:10469000CC27CE01806F906A7CC081E090E079C029
:1046A000C55AD0E0CC59DE4F8881C82FD0E0CE016A
:1046B00090646FC0CE0190656CC08D2F0E94B71FB3
:1046C000182FCE0199270E9406201F715CC0CE01D1
:1046D00099270E940620CC27DF70D06A8C2B9D2B57
:1046E00058C0CF71D0E0DC2FCC27CE01816F906A0B
:1046F00050C08C2F8F718695869590E2899F90018E
:104700001124C37081E090E002C0880F991FCA9500
:10471000E2F79C6818C08C2F8F710E94B71F95E03C
:10472000D695C7959A95E1F7CF70D0E0DC2FCC27CE
:10473000282F30E084FF05C084E0220F331F8A95C4
:10474000E1F7D069CE01822B932B23C090E0D82FC4
:10475000CC27CE01846F906A1CC08C2F8F710E9471
:10476000B71F8F7190E0D82FCC27CE01906211C077
:104770008D2F8F710E94B71F182FCE0199270E948D
:1047800006201F719062912B04C080E090E001C070
:10479000CE01DF91CF911F9108958095909198045B
:1047A0008923809398040895A6E0B0E0EAEDF3E24F
:1047B0000C94EC2F0E9497268C0180919904909183
:1047C0009A040817190781F019821A820E94972605
:1047D000682F49815A81792F80E090E00E94342B24
:1047E00010939A04009399042696E4E00C94083000
:1047F000ACE0B0E0EEEFF3E20C94E32FAE014F5FDC
:104800005F4F7A0188E0DA011D928A95E9F703E4A7
:1048100011E06A01AA24A394B12C9DE4892E91E0B1
:10482000992EF80180818F3F09F440C0F894E82F59
:10483000E295EF70F0E021A18F70A50102C0440F56
:10484000551F8A95E2F7CA01922F982B91A392A146
:104850008095892382A3789400C0E7E4F1E0712C6D
:1048600031E021912F3F89F0A22FA295AF70B0E0E7
:1048700090968C9190E02F7002C0959587952A951F
:10488000E2F780FD02C0832F01C080E0782A330F59
:104890008E169F0631F7D8018C918F3F11F00E9440
:1048A0001C22B0EABA95F1F7F60170820F5F1F4F34
:1048B000FFEFCF1ADF0A21E00734120709F0B1CF6A
:1048C00048E050E0B70188EA91E00E94FC30892B73
:1048D00099F088E0F701A8EAB1E001900D928A957D
:1048E000E1F781E080939D040E94972690939C04B9
:1048F00080939B04F12C27C080919D048823D1F3E1
:104900000091B10180919B0490919C040E947C26AF
:10491000059780F310E002511E4F44E050E068EA32
:1049200071E0C8010E94FC30892B09F40BC184E0BE
:10493000E8EAF1E0D80101900D928A95E1F7FF24B1
:10494000F39410929D048091BD05E091B1018823FC
:1049500009F481C019861A861B861C860E2F10E06A
:1049600002511E4F8091D1048A3058F441E751E240
:10497000BE01675F7F4FC8010E94A2208823E9F132
:104980000AC080919E0490919F040E947C26843FDF
:10499000914060F743C045E551E2BE01675F7F4F3C
:1049A000C8010E94A220882341F14DE452E2BE01D9
:1049B000675F7F4FC8010E94A2208823F1F047E281
:1049C00051E2BE01675F7F4FC8010E94A220882389
:1049D000A1F01092D1048091B00190E044E050E049
:1049E000BE01675F7F4F82519E4F0E94FC3021E0E5
:1049F0002093A404892B01F59FC08091D1048F3F9F
:104A000019F08F5F8093D1048091D1048A3018F31C
:104A10000E94972690939F0480939E048091A40403
:104A2000882309F489C0FE01399684E0DF011D92D4
:104A30008A95E9F71092A404E091B001F0E0E25108
:104A4000FE4F89859A85AB85BC8580839183A2833F
:104A5000B38381E072C00091B00110E002511E4F9B
:104A6000F0E0E251FE4F84E0A2EBB4E001900D9241
:104A70008A95E1F782EB94E00E9493158093B1044C
:104A800084E0E6EBF4E0D80101900D928A95E1F71D
:104A90008090BA049090BB04A090BC04B090BD0478
:104AA0008091A0049091A104A091A204B091A304CC
:104AB00088169906AA06BB06B1F08092A0049092CF
:104AC000A104A092A204B092A3040E948B26861A8D
:104AD000970AA80AB90A8092A4019092A501A0920F
:104AE000A601B092A7018091BE04982F917086957F
:104AF00086950091BF04E090C004D090C10410914D
:104B0000C8041092C8041123B9F010FF0DC09923F6
:104B100049F090919F05916090939F0560E00E94FD
:104B2000682C02C00E94222C11FF06C020E04D2DEF
:104B30006E2D802F0E941B2A80E08F292C96EDE09D
:104B40000C94FF2FF12CFDCE8091FA010895539A19
:104B500008952BB1277F3BB138604FB7F894FC0123
:104B6000CB01880F991F680F791F6E0F7F1FE61703
:104B7000F70789F0819198E03BB9000000C087FFFA
:104B80002BB9880F000000C000C000C02BB900C0C6
:104B90009A9591F7ECCF4FBF8FE594E00197F1F72D
:104BA00000C0000008958091A305882319F081506A
:104BB0008093A30520919F053091A0054091A10508
:104BC0005091A2056091A3057091A4058091A5055F
:104BD0009091A6050E94422C08958091A3058330F0
:104BE00018F48F5F8093A30520919F053091A00555
:104BF0004091A1055091A2056091A3057091A40573
:104C00008091A5059091A6050E94422C08950F93CE
:104C10001F93CF93DF938B01EA01909105029430AB
:104C200079F58F708093E9008FEF9091E8008150C3
:104C300095FD06C095ED9A95F1F700008111F5CF2D
:104C40008091E80085FF1CC00E940A1A882361F049
:104C50008091E8008E778093E80012C0F80181917E
:104C60008F018093F1002197209791F38091E800C4
:104C700085FDF4CF8091E8008E778093E800E4CF43
:104C8000DF91CF911F910F91089587E797E7909358
:104C90000108809300089AE088E10FB6F894A8957F
:104CA000809360000FBE90936000FFCF78941F92B6
:104CB0000F920FB60F9211248F939F93AF93BF93D0
:104CC0008091C8059091C905A091CA05B091CB0506
:104CD0000196A11DB11D8093C8059093C905A093AD
:104CE000CA05B093CB05BF91AF919F918F910F9063
:104CF0000FBE0F901F9018959C014FB7F8948091AC
:104D0000C8059091C905A091CA05B091CB054FBFC8
:104D1000821B930B08952FB7F8946091C80570918A
:104D2000C9058091CA059091CB052FBF08952FB773
:104D3000F8948091C8059091C905A091CA05B091D9
:104D4000CB052FBF08951F920F920FB60F9211241B
:104D50008F939F93AF93BF938091C705811113C029
:104D60008091C8059091C905A091CA05B091CB0565
:104D70004196A11DB11D8093C8059093C905A093CC
:104D8000CA05B093CB05BF91AF919F918F910F90C2
:104D90000FBE0F901F90189590911501992321F047
:104DA0009091C50597FD03C0E2EDF4E01DC0E82F2A
:104DB000E695E695E695EE31E0F4F0E0E652FB4F3D
:104DC000877021E030E0A90102C0440F551F8A9589
:104DD000E2F7CA01809592818923828308953196F2
:104DE00054E0E83DF50729F092818913F8CF12824B
:104DF000F6CF0895909115019923D1F09091C505B2
:104E000097FF16C0E82FE695E695E695EE3140F55A
:104E1000F0E0E652FB4F877021E030E0A90102C0CC
:104E2000440F551F8A95E2F7CA019281892B16C05B
:104E3000A4EDB4E0EFEF90E02D91821789F0EF3F01
:104E400019F4211101C0E92F9F5F9630A9F7EF3FB8
:104E500039F00E2E000CFF0BEE52FB4F82830895AB
:104E60000895A3E0B0E0E7E3F7E20C94EE2F209181
:104E7000C3053091C40528173907A1F09093C405E4
:104E80008093C305E091C105F091C205309751F0C0
:104E900024E029839B838A830084F185E02DCE0161
:104EA000019609952396E2E00C940A30A3E0B0E065
:104EB000ECE5F7E20C94EE2F2091BF053091C00590
:104EC00028173907A1F09093C0058093BF05E091A2
:104ED000C105F091C205309751F023E029839B83EF
:104EE0008A830084F185E02DCE01019609952396F1
:104EF000E2E00C940A308091BD05882359F0E091DE
:104F0000C105F091C205309729F00190F081E02DA4
:104F10000995089580E0089587E290E00E9442306C
:104F20000895CF93C82F811102C06FEF01C064E2D2
:104F300084E290E00E944230C11102C06FEF01C0D4
:104F400069E085E290E00E944230C11102C06FEF3B
:104F500001C063E186E290E00E944230CF91089563
:104F600084E290E00E941E30843281F485E290E079
:104F70000E941E30893051F486E290E00E941E307B
:104F800091E0833109F090E0892F01C080E08170C9
:104F900008950F931F93CF93DF93C42FD22FFC015B
:104FA00085818823B1F04093BC050E949726909399
:104FB000BB058093BA0580E28C0F883008F068C08A
:104FC000C77081E001C0880FCA95EAF70E94141EDD
:104FD0005FC08091BC0548133DC08091BA05909197
:104FE000BB050E947C26883C9105A0F510E21D0FB0
:104FF000CD17E9F080E28C0F883040F4C77081E073
:1050000001C0880FCA95EAF70E940D1E183078F586
:1050100081E09D2F977001C0880F9A95EAF70E9452
:10502000141E093351F560E570E089E329C00933A6
:1050300019F460E570E002C060E070E0802F0E942B
:105040009D1F183028F5D77081E001C0880FDA95D0
:10505000EAF70AC080E28C0F8830D0F4C77081E094
:1050600001C0880FCA95EAF70E940D1E11C00933CE
:1050700051F460E570E089E309C060E070E0802FE2
:105080000E949D1FE0CF60E070E0802F0E949D1F76
:10509000DF91CF911F910F9108950E949726209143
:1050A000B605211104C02091B705222321F0909369
:1050B000B3058093B2052091B805211104C0209159
:1050C000B905222321F09093B1058093B005E091BA
:1050D000C105F091C205309749F082E08093B40594
:1050E0000680F781E02D84EB95E009950895809185
:1050F000AF0580FD16C081FD16C082FD18C08091ED
:10510000AE05882391F0883290F428E0829FC00198
:10511000112468E270E00E948230862F672B29F00C
:1051200007C082E0089584E0089581E0089588E052
:1051300008958091AF0580FD14C081FD14C082FDEB
:1051400016C08091AD05882381F08E3180F420E572
:10515000829FC00111246EE170E00E948230862F90
:10516000089584E1089588E2089588E0089580E52F
:105170000895282F35EB2303C001112497FF03C0A6
:105180008058910902C080589F4F892F0895CF936E
:10519000DF93C8EAD1E060E0CE010E944230219660
:1051A000C11584E0D807B9F7DF91CF9108951F9317
:1051B000CF93DF93962F8430E8F46830D8F44630EC
:1051C000C8F4632F122FC42FD0E0CC0FDD1F2CE0CA
:1051D000929FC00DD11D112490E6899FC00DD11D55
:1051E0001124CE0188960E944230612FCE0189960B
:1051F0000E944230DF91CF911F910895A0E0B0E06E
:10520000E4E0F9E20C94E62FA12CE12CF12CB12C76
:1052100000E010E0C0E0D0E06701C00ED11EFE014A
:10522000EE0FFF1FEC0DFD1DE651F54F259134915A
:105230004C2F6B2D8A2D0E94D7282196C630D10580
:1052400071F7045F1F4FB39488E0B812E3CF80E694
:10525000E80EF11CA39484E0A812D9CFCDB7DEB735
:10526000EAE00C94023080E00E94912760E070E058
:10527000CB010E948C270E94FE280E94C72881E053
:105280000E94912708950F931F93CF93DF9384304B
:1052900008F56830F8F44630E8F4C42FD0E0CC0FBD
:1052A000DD1F2CE0629FC00DD11D112430E6839FCD
:1052B000C00DD11D1124CE0188960E941E3090E0B1
:1052C000182F0027CE0189960E941E309801282BA6
:1052D000C90102C080E090E0DF91CF911F910F9152
:1052E0000895CF93E82F209118043091190422518A
:1052F000324040910F02642F70E0C9010E94CA2F12
:10530000481B842FEE2351F066E00E947630C82FB0
:10531000C150A8F080E20E940015FACFA901480F01
:10532000511D4115524018F080E020E030E0280F78
:10533000311D2E5E3D4F3093190420931804CF91F8
:105340000895AB0124E630E0BC0188E70E94742D8B
:1053500021E0892B09F020E0822F08958091AC058F
:105360009091AB05882389F0992369F062E070E0A1
:1053700088EE9AE00E94A129811103C08091AB05BB
:1053800008951092AB059091AB0581E089270895AF
:105390008091AC058823F9F00E948B26DC01CB01BB
:1053A000805A9541AF4FBF4F8093A7059093A805B2
:1053B000A093A905B093AA058091AB0581110BC0FC
:1053C00062E070E086EE9AE00E94A129882319F03D
:1053D00081E08093AB058091AB050895882311F09F
:1053E000FA0101C0FB010995089560913F01809188
:1053F0009F0580FF0CC080913E0170E023E0829FFA
:10540000C001112483509B4F0E94A92508958091CB
:10541000400190914101891770F7E82FF0E09F015A
:10542000220F331FE20FF31FE350FB4F1182108254
:1054300012828F5FF0CFA0E0B0E0E1E2FAE20C94DC
:10544000E52F90919F0590FFD1C03091A0053813B2
:1054500008C03091A105361304C03091A20534175D
:1054600029F03091FC0432603093FC04922E142F0A
:10547000C62FD82FE92FE695E695F0E0E156FE4FCE
:1054800080818093FA049C7F943009F098C0E42FC7
:10549000493708F0E8E7F0E0C11106C0EA51F64FDD
:1054A000E491FE2F2E2F72C0EC2EF12CEA51F64F14
:1054B000F4910F2FCF2ED12C26E0D29FC0011124C2
:1054C0002FEF30E0B9010E94CA2F4BEA4603C0011A
:1054D000479F900D11248D0F911D8D0F911DB82E9A
:1054E000BB0CB80EA9014E195F094C9DC0014D9D22
:1054F000900D5C9D900D1124E92FCB9DA0011124EE
:10550000452F5527D901A41BB50BAC9DA001AD9D1E
:10551000500DBC9D500D1124D901AB19B1095D018D
:10552000AE9CD001AF9CB00DBE9CB00D1124AB2F32
:10553000BB272A1B3B0B2C9DD0012D9DB00D3C9D04
:10554000B00D11242B2F6230710591F048F46115D4
:105550007105E1F061307105B9F42F2FF52F16C0F8
:105560006430710569F040F06630710579F00CC067
:105570002F2FF92FEB2F0AC0F92FE02F252F06C070
:10558000292FEF2FFB2F02C0292FE52F80914001FB
:1055900090914101891788F4A82FB0E0AD01440F24
:1055A000551FA40FB51FA350BB4F1196FC93119725
:1055B0002C931296EC938F5FEDCF0E94F529D09338
:1055C000A005C093A1051093A205992079F0209120
:1055D0009F056091A3057091A4053D2F4C2F512F7D
:1055E0008091A5059091A6050E94422CCDB7DEB70B
:1055F000EBE00C940130982F92959F7019F0892F51
:1056000024E001C020E0982F9695969511F02E5F2A
:10561000892F982F969509F02F5F822F0895A6E085
:10562000B0E0E5E1FBE20C94ED2F49835A83498118
:105630005A81992361F0222351F0CA010E94381B3C
:10564000182F682F89819A810E94381D04C0CA01D1
:105650000E94041D182F69817A81812F0E94A22245
:105660002696E3E00C940930ABE1B0E0EAE3FBE21C
:105670000C94EC2F4E8B5F8B688F798F8A8F9B8F6A
:10568000192F911110926F04DE011F9687E0FD0122
:1056900011928A95E9F786E0FE01769601900D92C7
:1056A0008A95E1F70A8D002341F021E04F85588962
:1056B00069897A89C8010E940F2B0B8B1C8B87E0AC
:1056C000FE013F96DE01189601900D928A95E1F752
:1056D000CE0108960E94971B81112CC087E0FE0125
:1056E0003896DE01119601900D928A95E1F76C854E
:1056F000662301F12091330430E0C90101968770DF
:10570000992740916C0450E08417950761F16D83EF
:1057100097E0929FD001939FB00D1124AC5CBB4FDA
:10572000FE01319601900D929A95E1F78093330432
:105730000E94D51A17E080916C0490913304891768
:10574000F9F0189FC00111248C5C9B4F0E94971B9D
:105750008823B1F080916C0490E0019687709927BE
:1057600080936C04E8CF0E94DC1D109233041092E9
:105770006C04ECE2F4E087E0DF011D928A95E9F722
:105780006B96E4E00C9408300E94DC1D2FEF84E35C
:105790009CE0215080409040E1F700C000009AE07A
:1057A00088E10FB6F894A895809360000FBE90939F
:1057B0006000FFCFEFE9F5E0438121E1421B08F4EF
:1057C00040E021E0628181810E941B2A0895EFE977
:1057D000F5E0438121E1420F08F44FEF21E06281BF
:1057E00081810E941B2A0895EFE9F5E0628121E1A1
:1057F000621B08F460E021E0438181810E941B2A42
:105800000895EFE9F5E0628121E1620F08F46FEF9E
:1058100021E0438181810E941B2A0895EFE9F5E090
:10582000818121E0438162818A500E941B2A089570
:10583000EFE9F5E0818121E043816281865F0E948A
:105840001B2A0895EFE9F5E080818E7F8083EAEFDF
:10585000F4E08281816082830E94F529089580911D
:105860009F05982F96959695913021F083708460CE
:1058700080939F058091A205893718F088E780936F
:10588000A2050895A0E0B0E0E8E4FCE20C94E42F67
:1058900049015A016B017C010E942F2C8401A40153
:1058A0006A2D7B2D88E090E00E94543094014A2DAF
:1058B0005B2DB601C70100E20E94E030622F83E257
:1058C00090E00E944230CDB7DEB7ECE00C9400309F
:1058D00020919F0520FF24C02370246020939F0502
:1058E0008091FC0481608093FC04662381F03091F8
:1058F000A0054091A1055091A2056091A30570916A
:10590000A4058091A5059091A6050E94422C20E057
:105910004091A2056091A1058091A0050E941B2ADB
:10592000089580919F0586958695815009F481E0C0
:1059300061E00E94682C089561E081E00E94682C7B
:105940000895EF92FF920F931F93CF93DF93182F39
:10595000EB011092BC0084EA8093BC000E94972661
:105960007C018091BC0087FD0DC0CF3F8FEFD80731
:10597000C1F3C7010E947C26C817D90790F78EEFA4
:105980009FEF2DC08091B900887F883041F08091D1
:10599000B900887F803119F08FEF9FEF20C01093FE
:1059A000BB0084E88093BC000E9497268C01809104
:1059B000BC0087FD0BC0CF3F8FEFD807C1F3C801F4
:1059C0000E947C26C817D90790F7D9CF8091B900DB
:1059D000887F883111F08034F9F680E090E0CDB70F
:1059E000DEB7E6E00C9406301092B9008CE08093AC
:1059F000B80008950F931F93CF93DF93EB0180932B
:105A0000BB0084E88093BC000E9497268C018091A3
:105A1000BC0087FD0DC0CF3F8FEFD807C1F3C80191
:105A20000E947C26C817D90790F78EEF9FEF0CC015
:105A30002091B900287F81E090E0283211F480E0C5
:105A400090E0919581959109DF91CF911F910F91F0
:105A50000895A0E0B0E0EFE2FDE20C94E32F782E91
:105A6000B62EA72E6A0189010E9497264C010431A7
:105A7000110558F00F3F8FEF180751F0C80164E18E
:105A800070E00E94CA2FEB0105C0C1E0D0E002C067
:105A9000C5E0D0E0BE01872D0E94A12C7C0197FDBE
:105AA00005C0CB2DDA2DCC0EDD1E12C00F3F8FEFBF
:105AB000180781F3C4010E947C260817190750F7C4
:105AC000F0CFF7FC08C0B80189910E94FA2C7C0144
:105AD000CC15DD05B1F784E98093BC00C701CDB7D3
